
GccBoardProject1.elf:     file format elf32-littlearm

Sections:
Idx Name          Size      VMA       LMA       File off  Algn
  0 .text         0000be1c  00400000  00400000  00010000  2**6
                  CONTENTS, ALLOC, LOAD, READONLY, CODE
  1 .ARM.exidx    00000008  0040be1c  0040be1c  0001be1c  2**2
                  CONTENTS, ALLOC, LOAD, READONLY, DATA
  2 .relocate     00000a98  20000000  0040be24  00020000  2**3
                  CONTENTS, ALLOC, LOAD, CODE
  3 .bss          00009f0c  20000a98  0040c8bc  00020a98  2**2
                  ALLOC
  4 .stack        00003004  2000a9a4  004167c8  00020a98  2**0
                  ALLOC
  5 .ARM.attributes 0000002a  00000000  00000000  00020a98  2**0
                  CONTENTS, READONLY
  6 .comment      00000059  00000000  00000000  00020ac2  2**0
                  CONTENTS, READONLY
  7 .debug_info   0002394a  00000000  00000000  00020b1b  2**0
                  CONTENTS, READONLY, DEBUGGING
  8 .debug_abbrev 00005336  00000000  00000000  00044465  2**0
                  CONTENTS, READONLY, DEBUGGING
  9 .debug_loc    00007d38  00000000  00000000  0004979b  2**0
                  CONTENTS, READONLY, DEBUGGING
 10 .debug_aranges 00000c68  00000000  00000000  000514d3  2**0
                  CONTENTS, READONLY, DEBUGGING
 11 .debug_ranges 00000c90  00000000  00000000  0005213b  2**0
                  CONTENTS, READONLY, DEBUGGING
 12 .debug_macro  00017ac2  00000000  00000000  00052dcb  2**0
                  CONTENTS, READONLY, DEBUGGING
 13 .debug_line   00014f94  00000000  00000000  0006a88d  2**0
                  CONTENTS, READONLY, DEBUGGING
 14 .debug_str    000501d6  00000000  00000000  0007f821  2**0
                  CONTENTS, READONLY, DEBUGGING
 15 .debug_frame  00002f10  00000000  00000000  000cf9f8  2**2
                  CONTENTS, READONLY, DEBUGGING

Disassembly of section .text:

00400000 <exception_table>:
  400000:	a8 d9 00 20 35 3e 40 00 31 3e 40 00 31 3e 40 00     ... 5>@.1>@.1>@.
  400010:	31 3e 40 00 31 3e 40 00 31 3e 40 00 00 00 00 00     1>@.1>@.1>@.....
	...
  40002c:	31 3e 40 00 31 3e 40 00 00 00 00 00 31 3e 40 00     1>@.1>@.....1>@.
  40003c:	31 3e 40 00 31 3e 40 00 31 3e 40 00 31 3e 40 00     1>@.1>@.1>@.1>@.
  40004c:	31 3e 40 00 31 3e 40 00 31 3e 40 00 31 3e 40 00     1>@.1>@.1>@.1>@.
  40005c:	00 00 00 00 31 3e 40 00 31 3e 40 00 00 00 00 00     ....1>@.1>@.....
  40006c:	a9 0b 40 00 bd 0b 40 00 00 00 00 00 31 3e 40 00     ..@...@.....1>@.
	...
  40008c:	31 3e 40 00 31 3e 40 00 31 3e 40 00 31 3e 40 00     1>@.1>@.1>@.1>@.
  40009c:	21 38 40 00 31 38 40 00 41 38 40 00 00 00 00 00     !8@.18@.A8@.....
	...
  4000b4:	31 3e 40 00 00 00 00 00 31 3e 40 00 31 3e 40 00     1>@.....1>@.1>@.
  4000c4:	31 3e 40 00 e5 17 40 00                             1>@...@.

004000cc <__do_global_dtors_aux>:
  4000cc:	b510      	push	{r4, lr}
  4000ce:	4c05      	ldr	r4, [pc, #20]	; (4000e4 <__do_global_dtors_aux+0x18>)
  4000d0:	7823      	ldrb	r3, [r4, #0]
  4000d2:	b933      	cbnz	r3, 4000e2 <__do_global_dtors_aux+0x16>
  4000d4:	4b04      	ldr	r3, [pc, #16]	; (4000e8 <__do_global_dtors_aux+0x1c>)
  4000d6:	b113      	cbz	r3, 4000de <__do_global_dtors_aux+0x12>
  4000d8:	4804      	ldr	r0, [pc, #16]	; (4000ec <__do_global_dtors_aux+0x20>)
  4000da:	f3af 8000 	nop.w
  4000de:	2301      	movs	r3, #1
  4000e0:	7023      	strb	r3, [r4, #0]
  4000e2:	bd10      	pop	{r4, pc}
  4000e4:	20000a98 	.word	0x20000a98
  4000e8:	00000000 	.word	0x00000000
  4000ec:	0040be24 	.word	0x0040be24

004000f0 <frame_dummy>:
  4000f0:	4b0c      	ldr	r3, [pc, #48]	; (400124 <frame_dummy+0x34>)
  4000f2:	b143      	cbz	r3, 400106 <frame_dummy+0x16>
  4000f4:	480c      	ldr	r0, [pc, #48]	; (400128 <frame_dummy+0x38>)
  4000f6:	490d      	ldr	r1, [pc, #52]	; (40012c <frame_dummy+0x3c>)
  4000f8:	b510      	push	{r4, lr}
  4000fa:	f3af 8000 	nop.w
  4000fe:	480c      	ldr	r0, [pc, #48]	; (400130 <frame_dummy+0x40>)
  400100:	6803      	ldr	r3, [r0, #0]
  400102:	b923      	cbnz	r3, 40010e <frame_dummy+0x1e>
  400104:	bd10      	pop	{r4, pc}
  400106:	480a      	ldr	r0, [pc, #40]	; (400130 <frame_dummy+0x40>)
  400108:	6803      	ldr	r3, [r0, #0]
  40010a:	b933      	cbnz	r3, 40011a <frame_dummy+0x2a>
  40010c:	4770      	bx	lr
  40010e:	4b09      	ldr	r3, [pc, #36]	; (400134 <frame_dummy+0x44>)
  400110:	2b00      	cmp	r3, #0
  400112:	d0f7      	beq.n	400104 <frame_dummy+0x14>
  400114:	e8bd 4010 	ldmia.w	sp!, {r4, lr}
  400118:	4718      	bx	r3
  40011a:	4b06      	ldr	r3, [pc, #24]	; (400134 <frame_dummy+0x44>)
  40011c:	2b00      	cmp	r3, #0
  40011e:	d0f5      	beq.n	40010c <frame_dummy+0x1c>
  400120:	4718      	bx	r3
  400122:	bf00      	nop
  400124:	00000000 	.word	0x00000000
  400128:	0040be24 	.word	0x0040be24
  40012c:	20000a9c 	.word	0x20000a9c
  400130:	0040be24 	.word	0x0040be24
  400134:	00000000 	.word	0x00000000

00400138 <sysclk_enable_usb>:
 *
 * \param pll_id Source of the USB clock.
 * \param div Actual clock divisor. Must be superior to 0.
 */
void sysclk_enable_usb(void)
{
  400138:	b510      	push	{r4, lr}
		pmc_switch_mainck_to_fastrc(CKGR_MOR_MOSCRCF_12_MHz);
		break;


	case OSC_MAINCK_XTAL:
		pmc_switch_mainck_to_xtal(PMC_OSC_XTAL,
  40013a:	213e      	movs	r1, #62	; 0x3e
  40013c:	2000      	movs	r0, #0
  40013e:	4b0a      	ldr	r3, [pc, #40]	; (400168 <sysclk_enable_usb+0x30>)
  400140:	4798      	blx	r3
	case OSC_MAINCK_4M_RC:
	case OSC_MAINCK_8M_RC:
	case OSC_MAINCK_12M_RC:
	case OSC_MAINCK_XTAL:
	case OSC_MAINCK_BYPASS:
		return pmc_osc_is_ready_mainck();
  400142:	4c0a      	ldr	r4, [pc, #40]	; (40016c <sysclk_enable_usb+0x34>)
  400144:	47a0      	blx	r4
 *
 * \param id A number identifying the oscillator to wait for.
 */
static inline void osc_wait_ready(uint8_t id)
{
	while (!osc_is_ready(id)) {
  400146:	2800      	cmp	r0, #0
  400148:	d0fc      	beq.n	400144 <sysclk_enable_usb+0xc>

	if (ul_pll_id == PLLA_ID) {
		pmc_disable_pllack(); // Always stop PLL first!
		PMC->CKGR_PLLAR = CKGR_PLLAR_ONE | p_cfg->ctrl;
	} else {
		pmc_disable_pllbck();
  40014a:	4b09      	ldr	r3, [pc, #36]	; (400170 <sysclk_enable_usb+0x38>)
  40014c:	4798      	blx	r3
		PMC->CKGR_PLLBR = p_cfg->ctrl;
  40014e:	4a09      	ldr	r2, [pc, #36]	; (400174 <sysclk_enable_usb+0x3c>)
  400150:	4b09      	ldr	r3, [pc, #36]	; (400178 <sysclk_enable_usb+0x40>)
  400152:	62da      	str	r2, [r3, #44]	; 0x2c
	Assert(ul_pll_id < NR_PLLS);

	if (ul_pll_id == PLLA_ID) {
		return pmc_is_locked_pllack();
	} else {
		return pmc_is_locked_pllbck();
  400154:	4c09      	ldr	r4, [pc, #36]	; (40017c <sysclk_enable_usb+0x44>)
  400156:	47a0      	blx	r4
 */
static inline int pll_wait_for_lock(unsigned int pll_id)
{
	Assert(pll_id < NR_PLLS);

	while (!pll_is_locked(pll_id)) {
  400158:	2800      	cmp	r0, #0
  40015a:	d0fc      	beq.n	400156 <sysclk_enable_usb+0x1e>

		pll_enable_source(CONFIG_PLL1_SOURCE);
		pll_config_defaults(&pllcfg, 1);
		pll_enable(&pllcfg, 1);
		pll_wait_for_lock(1);
		pmc_switch_udpck_to_pllbck(CONFIG_USBCLK_DIV - 1);
  40015c:	2000      	movs	r0, #0
  40015e:	4b08      	ldr	r3, [pc, #32]	; (400180 <sysclk_enable_usb+0x48>)
  400160:	4798      	blx	r3
		pmc_enable_udpck();
  400162:	4b08      	ldr	r3, [pc, #32]	; (400184 <sysclk_enable_usb+0x4c>)
  400164:	4798      	blx	r3
  400166:	bd10      	pop	{r4, pc}
  400168:	00400c35 	.word	0x00400c35
  40016c:	00400c89 	.word	0x00400c89
  400170:	00400cb9 	.word	0x00400cb9
  400174:	00023f01 	.word	0x00023f01
  400178:	400e0400 	.word	0x400e0400
  40017c:	00400cc5 	.word	0x00400cc5
  400180:	00400d7d 	.word	0x00400d7d
  400184:	00400d91 	.word	0x00400d91

00400188 <sysclk_init>:
	pmc_disable_udpck();
}
#endif // CONFIG_USBCLK_SOURCE

void sysclk_init(void)
{
  400188:	b510      	push	{r4, lr}
	/* Set flash wait state to max in case the below clock switching. */
	system_init_flash(CHIP_FREQ_CPU_MAX);
  40018a:	480e      	ldr	r0, [pc, #56]	; (4001c4 <sysclk_init+0x3c>)
  40018c:	4b0e      	ldr	r3, [pc, #56]	; (4001c8 <sysclk_init+0x40>)
  40018e:	4798      	blx	r3
		pmc_switch_mainck_to_xtal(PMC_OSC_XTAL,
  400190:	213e      	movs	r1, #62	; 0x3e
  400192:	2000      	movs	r0, #0
  400194:	4b0d      	ldr	r3, [pc, #52]	; (4001cc <sysclk_init+0x44>)
  400196:	4798      	blx	r3
		return pmc_osc_is_ready_mainck();
  400198:	4c0d      	ldr	r4, [pc, #52]	; (4001d0 <sysclk_init+0x48>)
  40019a:	47a0      	blx	r4
  40019c:	2800      	cmp	r0, #0
  40019e:	d0fc      	beq.n	40019a <sysclk_init+0x12>
		pmc_disable_pllack(); // Always stop PLL first!
  4001a0:	4b0c      	ldr	r3, [pc, #48]	; (4001d4 <sysclk_init+0x4c>)
  4001a2:	4798      	blx	r3
		PMC->CKGR_PLLAR = CKGR_PLLAR_ONE | p_cfg->ctrl;
  4001a4:	4a0c      	ldr	r2, [pc, #48]	; (4001d8 <sysclk_init+0x50>)
  4001a6:	4b0d      	ldr	r3, [pc, #52]	; (4001dc <sysclk_init+0x54>)
  4001a8:	629a      	str	r2, [r3, #40]	; 0x28
		return pmc_is_locked_pllack();
  4001aa:	4c0d      	ldr	r4, [pc, #52]	; (4001e0 <sysclk_init+0x58>)
  4001ac:	47a0      	blx	r4
  4001ae:	2800      	cmp	r0, #0
  4001b0:	d0fc      	beq.n	4001ac <sysclk_init+0x24>

		pll_enable_source(CONFIG_PLL0_SOURCE);
		pll_config_defaults(&pllcfg, 0);
		pll_enable(&pllcfg, 0);
		pll_wait_for_lock(0);
		pmc_switch_mck_to_pllack(CONFIG_SYSCLK_PRES);
  4001b2:	2010      	movs	r0, #16
  4001b4:	4b0b      	ldr	r3, [pc, #44]	; (4001e4 <sysclk_init+0x5c>)
  4001b6:	4798      	blx	r3
		pmc_switch_mck_to_pllbck(CONFIG_SYSCLK_PRES);
	}
#endif

	/* Update the SystemFrequency variable */
	SystemCoreClockUpdate();
  4001b8:	4b0b      	ldr	r3, [pc, #44]	; (4001e8 <sysclk_init+0x60>)
  4001ba:	4798      	blx	r3

	/* Set a flash wait state depending on the new cpu frequency */
	system_init_flash(sysclk_get_cpu_hz());
  4001bc:	4801      	ldr	r0, [pc, #4]	; (4001c4 <sysclk_init+0x3c>)
  4001be:	4b02      	ldr	r3, [pc, #8]	; (4001c8 <sysclk_init+0x40>)
  4001c0:	4798      	blx	r3
  4001c2:	bd10      	pop	{r4, pc}
  4001c4:	07270e00 	.word	0x07270e00
  4001c8:	00403ff1 	.word	0x00403ff1
  4001cc:	00400c35 	.word	0x00400c35
  4001d0:	00400c89 	.word	0x00400c89
  4001d4:	00400c99 	.word	0x00400c99
  4001d8:	200e3f01 	.word	0x200e3f01
  4001dc:	400e0400 	.word	0x400e0400
  4001e0:	00400ca9 	.word	0x00400ca9
  4001e4:	00400bd1 	.word	0x00400bd1
  4001e8:	00403ee1 	.word	0x00403ee1

004001ec <udi_tmc_getsetting>:
 * @return The value of the alternate setting
 */
uint8_t udi_tmc_getsetting(void)
{
   return udi_tmc_alternate_setting;
}
  4001ec:	2000      	movs	r0, #0
  4001ee:	4770      	bx	lr

004001f0 <udi_tmc_setup>:
bool udi_tmc_setup(void) {
  4001f0:	b508      	push	{r3, lr}
	int setup_type = Udd_setup_type();
  4001f2:	4b2f      	ldr	r3, [pc, #188]	; (4002b0 <udi_tmc_setup+0xc0>)
  4001f4:	781b      	ldrb	r3, [r3, #0]
	if (Udd_setup_is_in()) {
  4001f6:	f013 0f80 	tst.w	r3, #128	; 0x80
  4001fa:	d101      	bne.n	400200 <udi_tmc_setup+0x10>
	bool result = false; // Default to handling as an unsupported request
  4001fc:	2000      	movs	r0, #0
  4001fe:	bd08      	pop	{r3, pc}
		if (setup_type == USB_REQ_TYPE_CLASS) {
  400200:	f003 0360 	and.w	r3, r3, #96	; 0x60
  400204:	2b20      	cmp	r3, #32
  400206:	d001      	beq.n	40020c <udi_tmc_setup+0x1c>
	bool result = false; // Default to handling as an unsupported request
  400208:	2000      	movs	r0, #0
  40020a:	bd08      	pop	{r3, pc}
	switch (udd_g_ctrlreq.req.bRequest) {
  40020c:	4b28      	ldr	r3, [pc, #160]	; (4002b0 <udi_tmc_setup+0xc0>)
  40020e:	785b      	ldrb	r3, [r3, #1]
  400210:	3b01      	subs	r3, #1
  400212:	2b3f      	cmp	r3, #63	; 0x3f
  400214:	d849      	bhi.n	4002aa <udi_tmc_setup+0xba>
  400216:	e8df f003 	tbb	[pc, r3]
  40021a:	2420      	.short	0x2420
  40021c:	37302c28 	.word	0x37302c28
  400220:	4848483b 	.word	0x4848483b
  400224:	48484848 	.word	0x48484848
  400228:	48484848 	.word	0x48484848
  40022c:	48484848 	.word	0x48484848
  400230:	48484848 	.word	0x48484848
  400234:	48484848 	.word	0x48484848
  400238:	48484848 	.word	0x48484848
  40023c:	48484848 	.word	0x48484848
  400240:	48484848 	.word	0x48484848
  400244:	48484848 	.word	0x48484848
  400248:	48484848 	.word	0x48484848
  40024c:	48484848 	.word	0x48484848
  400250:	48484848 	.word	0x48484848
  400254:	48484848 	.word	0x48484848
  400258:	4248      	.short	0x4248
			UDI_TMC_INITIATE_ABORT_BULK_OUT_EXT();
  40025a:	4b16      	ldr	r3, [pc, #88]	; (4002b4 <udi_tmc_setup+0xc4>)
  40025c:	4798      	blx	r3
	bool result = true; // Default to indicating the request was handled
  40025e:	2001      	movs	r0, #1
  400260:	bd08      	pop	{r3, pc}
			UDI_TMC_CHECK_ABORT_BULK_OUT_STATUS_EXT();
  400262:	4b15      	ldr	r3, [pc, #84]	; (4002b8 <udi_tmc_setup+0xc8>)
  400264:	4798      	blx	r3
	bool result = true; // Default to indicating the request was handled
  400266:	2001      	movs	r0, #1
  400268:	bd08      	pop	{r3, pc}
			UDI_TMC_INITIATE_ABORT_BULK_IN_EXT();
  40026a:	4b14      	ldr	r3, [pc, #80]	; (4002bc <udi_tmc_setup+0xcc>)
  40026c:	4798      	blx	r3
	bool result = true; // Default to indicating the request was handled
  40026e:	2001      	movs	r0, #1
  400270:	bd08      	pop	{r3, pc}
			UDI_TMC_CHECK_ABORT_BULK_IN_STATUS_EXT();
  400272:	4b13      	ldr	r3, [pc, #76]	; (4002c0 <udi_tmc_setup+0xd0>)
  400274:	4798      	blx	r3
	bool result = true; // Default to indicating the request was handled
  400276:	2001      	movs	r0, #1
  400278:	bd08      	pop	{r3, pc}
			UDI_TMC_INITIATE_CLEAR_EXT();
  40027a:	4b12      	ldr	r3, [pc, #72]	; (4002c4 <udi_tmc_setup+0xd4>)
  40027c:	4798      	blx	r3
			udd_ep_clear_halt(UDI_TMC_EP_BULK_IN); // Clear HALT condition
  40027e:	2081      	movs	r0, #129	; 0x81
  400280:	4b11      	ldr	r3, [pc, #68]	; (4002c8 <udi_tmc_setup+0xd8>)
  400282:	4798      	blx	r3
	bool result = true; // Default to indicating the request was handled
  400284:	2001      	movs	r0, #1
  400286:	bd08      	pop	{r3, pc}
			UDI_TMC_CHECK_CLEAR_STATUS_EXT();
  400288:	4b10      	ldr	r3, [pc, #64]	; (4002cc <udi_tmc_setup+0xdc>)
  40028a:	4798      	blx	r3
	bool result = true; // Default to indicating the request was handled
  40028c:	2001      	movs	r0, #1
  40028e:	bd08      	pop	{r3, pc}
                      (USBTMC_SUPPORT_TERMCHAR << 0),             // Bulk-IN TermChar support
                      {0, 0, 0, 0, 0, 0, 0, 0, 0,
                       0, 0, 0, 0, 0, 0, 0, 0, 0} // Reserved Bytes
                    };

	udd_g_ctrlreq.payload = (uint8_t*)&capabilities;
  400290:	4b07      	ldr	r3, [pc, #28]	; (4002b0 <udi_tmc_setup+0xc0>)
  400292:	4a0f      	ldr	r2, [pc, #60]	; (4002d0 <udi_tmc_setup+0xe0>)
  400294:	609a      	str	r2, [r3, #8]
	udd_g_ctrlreq.payload_size = sizeof(struct USBTMC_capabilities);
  400296:	2218      	movs	r2, #24
  400298:	819a      	strh	r2, [r3, #12]
	bool result = true; // Default to indicating the request was handled
  40029a:	2001      	movs	r0, #1
  40029c:	bd08      	pop	{r3, pc}
   udd_g_ctrlreq.payload = &result;
  40029e:	4b04      	ldr	r3, [pc, #16]	; (4002b0 <udi_tmc_setup+0xc0>)
  4002a0:	4a0c      	ldr	r2, [pc, #48]	; (4002d4 <udi_tmc_setup+0xe4>)
  4002a2:	609a      	str	r2, [r3, #8]
   udd_g_ctrlreq.payload_size = sizeof(uint8_t);
  4002a4:	2001      	movs	r0, #1
  4002a6:	8198      	strh	r0, [r3, #12]
  4002a8:	bd08      	pop	{r3, pc}
			result = false;
  4002aa:	2000      	movs	r0, #0
}
  4002ac:	bd08      	pop	{r3, pc}
  4002ae:	bf00      	nop
  4002b0:	20000ce0 	.word	0x20000ce0
  4002b4:	0040444d 	.word	0x0040444d
  4002b8:	00404469 	.word	0x00404469
  4002bc:	0040448d 	.word	0x0040448d
  4002c0:	004044c1 	.word	0x004044c1
  4002c4:	004044fd 	.word	0x004044fd
  4002c8:	004025e9 	.word	0x004025e9
  4002cc:	00404515 	.word	0x00404515
  4002d0:	2000000c 	.word	0x2000000c
  4002d4:	20000024 	.word	0x20000024

004002d8 <udi_tmc_disable>:
{
  4002d8:	b508      	push	{r3, lr}
   UDI_TMC_DISABLE_EXT();
  4002da:	4b01      	ldr	r3, [pc, #4]	; (4002e0 <udi_tmc_disable+0x8>)
  4002dc:	4798      	blx	r3
  4002de:	bd08      	pop	{r3, pc}
  4002e0:	00404409 	.word	0x00404409

004002e4 <udi_tmc_enable>:
{
  4002e4:	b508      	push	{r3, lr}
   return UDI_TMC_ENABLE_EXT() ? true : false;
  4002e6:	4b01      	ldr	r3, [pc, #4]	; (4002ec <udi_tmc_enable+0x8>)
  4002e8:	4798      	blx	r3
}
  4002ea:	bd08      	pop	{r3, pc}
  4002ec:	004043e9 	.word	0x004043e9

004002f0 <udi_tmc_bulk_in_run>:
bool udi_tmc_bulk_in_run(uint8_t * buf, iram_size_t buf_size, udd_callback_trans_t callback) {
  4002f0:	b510      	push	{r4, lr}
  4002f2:	b082      	sub	sp, #8
   return udd_ep_run(UDI_TMC_EP_BULK_IN, false, buf, buf_size, callback);
  4002f4:	9200      	str	r2, [sp, #0]
  4002f6:	460b      	mov	r3, r1
  4002f8:	4602      	mov	r2, r0
  4002fa:	2100      	movs	r1, #0
  4002fc:	2081      	movs	r0, #129	; 0x81
  4002fe:	4c02      	ldr	r4, [pc, #8]	; (400308 <udi_tmc_bulk_in_run+0x18>)
  400300:	47a0      	blx	r4
}
  400302:	b002      	add	sp, #8
  400304:	bd10      	pop	{r4, pc}
  400306:	bf00      	nop
  400308:	004026c1 	.word	0x004026c1

0040030c <udi_tmc_bulk_out_run>:
bool udi_tmc_bulk_out_run(uint8_t* buf, iram_size_t buf_size, udd_callback_trans_t callback) {
  40030c:	b510      	push	{r4, lr}
  40030e:	b082      	sub	sp, #8
  400310:	460b      	mov	r3, r1
	if (NULL == callback) {
  400312:	4611      	mov	r1, r2
  400314:	b13a      	cbz	r2, 400326 <udi_tmc_bulk_out_run+0x1a>
	return udd_ep_run(UDI_TMC_EP_BULK_OUT, false, buf, buf_size, callback);
  400316:	9100      	str	r1, [sp, #0]
  400318:	4602      	mov	r2, r0
  40031a:	2100      	movs	r1, #0
  40031c:	2002      	movs	r0, #2
  40031e:	4c04      	ldr	r4, [pc, #16]	; (400330 <udi_tmc_bulk_out_run+0x24>)
  400320:	47a0      	blx	r4
}
  400322:	b002      	add	sp, #8
  400324:	bd10      	pop	{r4, pc}
		callback = udi_process_bulkOUT_header;
  400326:	4903      	ldr	r1, [pc, #12]	; (400334 <udi_tmc_bulk_out_run+0x28>)
		buf_size = sizeof(bulkOUTmsgHeader_t);
  400328:	238c      	movs	r3, #140	; 0x8c
		buf = (uint8_t*)&bulkOUTmsgHeader;
  40032a:	4803      	ldr	r0, [pc, #12]	; (400338 <udi_tmc_bulk_out_run+0x2c>)
  40032c:	e7f3      	b.n	400316 <udi_tmc_bulk_out_run+0xa>
  40032e:	bf00      	nop
  400330:	004026c1 	.word	0x004026c1
  400334:	0040033d 	.word	0x0040033d
  400338:	20000c50 	.word	0x20000c50

0040033c <udi_process_bulkOUT_header>:
	if ( UDD_EP_TRANSFER_OK == status ) {
  40033c:	b9f0      	cbnz	r0, 40037c <udi_process_bulkOUT_header+0x40>
void udi_process_bulkOUT_header(udd_ep_status_t status, iram_size_t numBytes, udd_ep_id_t endpointId) {
  40033e:	b508      	push	{r3, lr}
		switch (bulkOUTmsgHeader.header.MsgID) {
  400340:	4b0f      	ldr	r3, [pc, #60]	; (400380 <udi_process_bulkOUT_header+0x44>)
  400342:	781b      	ldrb	r3, [r3, #0]
  400344:	2b01      	cmp	r3, #1
  400346:	d00c      	beq.n	400362 <udi_process_bulkOUT_header+0x26>
  400348:	2b02      	cmp	r3, #2
  40034a:	d113      	bne.n	400374 <udi_process_bulkOUT_header+0x38>
 */
void udi_req_dev_dep_msg_in_header_rx(udd_ep_id_t endpointId, TMC_bulkOUT_request_dev_dep_msg_in_header_t const* header) {
	(void)endpointId;

	// We don't support the termChar mechanism
	if (0 == header->bmTransferAttributes) {
  40034c:	4b0c      	ldr	r3, [pc, #48]	; (400380 <udi_process_bulkOUT_header+0x44>)
  40034e:	7a1b      	ldrb	r3, [r3, #8]
  400350:	b99b      	cbnz	r3, 40037a <udi_process_bulkOUT_header+0x3e>
		if (!UDI_TMC_DEVICE_DEPENDENT_DATA_RX_EXT(header)) {
  400352:	480b      	ldr	r0, [pc, #44]	; (400380 <udi_process_bulkOUT_header+0x44>)
  400354:	4b0b      	ldr	r3, [pc, #44]	; (400384 <udi_process_bulkOUT_header+0x48>)
  400356:	4798      	blx	r3
  400358:	b978      	cbnz	r0, 40037a <udi_process_bulkOUT_header+0x3e>
}

////////////////////////////////////////////////////////////////////////////////
void udi_signal_bulkOUT_error(void) {
	// TODO: Halt the BulkOUT endpoint to signal an error
	udd_ep_set_halt(UDI_TMC_EP_BULK_OUT);
  40035a:	2002      	movs	r0, #2
  40035c:	4b0a      	ldr	r3, [pc, #40]	; (400388 <udi_process_bulkOUT_header+0x4c>)
  40035e:	4798      	blx	r3
  400360:	bd08      	pop	{r3, pc}
				TMC_COMMAND_HANDLER(&bulkOUTmsgHeader.dev_dep_msg_out.msg);
  400362:	480a      	ldr	r0, [pc, #40]	; (40038c <udi_process_bulkOUT_header+0x50>)
  400364:	4b0a      	ldr	r3, [pc, #40]	; (400390 <udi_process_bulkOUT_header+0x54>)
  400366:	4798      	blx	r3
				UDI_TMC_RECEIVE_BULKOUT_COMMAND();
  400368:	2200      	movs	r2, #0
  40036a:	4611      	mov	r1, r2
  40036c:	4610      	mov	r0, r2
  40036e:	4b09      	ldr	r3, [pc, #36]	; (400394 <udi_process_bulkOUT_header+0x58>)
  400370:	4798      	blx	r3
				break;
  400372:	bd08      	pop	{r3, pc}
				udd_ep_abort(endpointId);
  400374:	4610      	mov	r0, r2
  400376:	4b08      	ldr	r3, [pc, #32]	; (400398 <udi_process_bulkOUT_header+0x5c>)
  400378:	4798      	blx	r3
  40037a:	bd08      	pop	{r3, pc}
  40037c:	4770      	bx	lr
  40037e:	bf00      	nop
  400380:	20000c50 	.word	0x20000c50
  400384:	00404609 	.word	0x00404609
  400388:	00402509 	.word	0x00402509
  40038c:	20000c5c 	.word	0x20000c5c
  400390:	00404185 	.word	0x00404185
  400394:	0040030d 	.word	0x0040030d
  400398:	0040283d 	.word	0x0040283d

0040039c <udc_next_desc_in_iface>:
 * \return address after the last byte of USB Configuration descriptor
 */
static usb_conf_desc_t UDC_DESC_STORAGE *udc_get_eof_conf(void)
{
	return (UDC_DESC_STORAGE usb_conf_desc_t *) ((uint8_t *)
			udc_ptr_conf->desc +
  40039c:	4b10      	ldr	r3, [pc, #64]	; (4003e0 <udc_next_desc_in_iface+0x44>)
  40039e:	681b      	ldr	r3, [r3, #0]
  4003a0:	681a      	ldr	r2, [r3, #0]
			le16_to_cpu(udc_ptr_conf->desc->wTotalLength));
  4003a2:	8853      	ldrh	r3, [r2, #2]
	return (UDC_DESC_STORAGE usb_conf_desc_t *) ((uint8_t *)
  4003a4:	441a      	add	r2, r3
	usb_conf_desc_t UDC_DESC_STORAGE *ptr_eof_desc;

	ptr_eof_desc = udc_get_eof_conf();
	// Go to next descriptor
	desc = (UDC_DESC_STORAGE usb_conf_desc_t *) ((uint8_t *) desc +
			desc->bLength);
  4003a6:	7803      	ldrb	r3, [r0, #0]
	desc = (UDC_DESC_STORAGE usb_conf_desc_t *) ((uint8_t *) desc +
  4003a8:	4418      	add	r0, r3
	// Check the end of configuration descriptor
	while (ptr_eof_desc > desc) {
  4003aa:	4290      	cmp	r0, r2
  4003ac:	d211      	bcs.n	4003d2 <udc_next_desc_in_iface+0x36>
		// If new interface descriptor is found,
		// then it is the end of the current global interface descriptor
		if (USB_DT_INTERFACE == desc->bDescriptorType) {
  4003ae:	7843      	ldrb	r3, [r0, #1]
  4003b0:	2b04      	cmp	r3, #4
  4003b2:	d010      	beq.n	4003d6 <udc_next_desc_in_iface+0x3a>
			break; // End of global interface descriptor
		}
		if (desc_id == desc->bDescriptorType) {
  4003b4:	428b      	cmp	r3, r1
  4003b6:	d009      	beq.n	4003cc <udc_next_desc_in_iface+0x30>
			return desc; // Specific descriptor found
		}
		// Go to next descriptor
		desc = (UDC_DESC_STORAGE usb_conf_desc_t *) ((uint8_t *) desc +
				desc->bLength);
  4003b8:	7803      	ldrb	r3, [r0, #0]
		desc = (UDC_DESC_STORAGE usb_conf_desc_t *) ((uint8_t *) desc +
  4003ba:	4418      	add	r0, r3
	while (ptr_eof_desc > desc) {
  4003bc:	4290      	cmp	r0, r2
  4003be:	d206      	bcs.n	4003ce <udc_next_desc_in_iface+0x32>
		if (USB_DT_INTERFACE == desc->bDescriptorType) {
  4003c0:	7843      	ldrb	r3, [r0, #1]
  4003c2:	2b04      	cmp	r3, #4
  4003c4:	d009      	beq.n	4003da <udc_next_desc_in_iface+0x3e>
		if (desc_id == desc->bDescriptorType) {
  4003c6:	428b      	cmp	r3, r1
  4003c8:	d1f6      	bne.n	4003b8 <udc_next_desc_in_iface+0x1c>
  4003ca:	e007      	b.n	4003dc <udc_next_desc_in_iface+0x40>
  4003cc:	4770      	bx	lr
	}
	return NULL; // No specific descriptor found
  4003ce:	2000      	movs	r0, #0
  4003d0:	4770      	bx	lr
  4003d2:	2000      	movs	r0, #0
  4003d4:	4770      	bx	lr
  4003d6:	2000      	movs	r0, #0
  4003d8:	4770      	bx	lr
  4003da:	2000      	movs	r0, #0
}
  4003dc:	4770      	bx	lr
  4003de:	bf00      	nop
  4003e0:	20000ac0 	.word	0x20000ac0

004003e4 <udc_valid_address>:
/**
 * \brief Change the address of device
 * Callback called at the end of request set address
 */
static void udc_valid_address(void)
{
  4003e4:	b508      	push	{r3, lr}
	udd_set_address(udd_g_ctrlreq.req.wValue & 0x7F);
  4003e6:	4b03      	ldr	r3, [pc, #12]	; (4003f4 <udc_valid_address+0x10>)
  4003e8:	7898      	ldrb	r0, [r3, #2]
  4003ea:	f000 007f 	and.w	r0, r0, #127	; 0x7f
  4003ee:	4b02      	ldr	r3, [pc, #8]	; (4003f8 <udc_valid_address+0x14>)
  4003f0:	4798      	blx	r3
  4003f2:	bd08      	pop	{r3, pc}
  4003f4:	20000ce0 	.word	0x20000ce0
  4003f8:	00402305 	.word	0x00402305

004003fc <udc_update_iface_desc>:
	if (0 == udc_num_configuration) {
  4003fc:	4b19      	ldr	r3, [pc, #100]	; (400464 <udc_update_iface_desc+0x68>)
  4003fe:	781b      	ldrb	r3, [r3, #0]
  400400:	b34b      	cbz	r3, 400456 <udc_update_iface_desc+0x5a>
	if (iface_num >= udc_ptr_conf->desc->bNumInterfaces) {
  400402:	4b19      	ldr	r3, [pc, #100]	; (400468 <udc_update_iface_desc+0x6c>)
  400404:	681b      	ldr	r3, [r3, #0]
  400406:	681b      	ldr	r3, [r3, #0]
  400408:	791a      	ldrb	r2, [r3, #4]
  40040a:	4282      	cmp	r2, r0
  40040c:	d925      	bls.n	40045a <udc_update_iface_desc+0x5e>
{
  40040e:	b470      	push	{r4, r5, r6}
	udc_ptr_iface = (UDC_DESC_STORAGE usb_iface_desc_t *)
  400410:	4a16      	ldr	r2, [pc, #88]	; (40046c <udc_update_iface_desc+0x70>)
  400412:	6013      	str	r3, [r2, #0]
			le16_to_cpu(udc_ptr_conf->desc->wTotalLength));
  400414:	885c      	ldrh	r4, [r3, #2]
	return (UDC_DESC_STORAGE usb_conf_desc_t *) ((uint8_t *)
  400416:	441c      	add	r4, r3
	while (ptr_end_desc >
  400418:	42a3      	cmp	r3, r4
  40041a:	d220      	bcs.n	40045e <udc_update_iface_desc+0x62>
  40041c:	2500      	movs	r5, #0
  40041e:	2601      	movs	r6, #1
  400420:	e007      	b.n	400432 <udc_update_iface_desc+0x36>
  400422:	4a12      	ldr	r2, [pc, #72]	; (40046c <udc_update_iface_desc+0x70>)
  400424:	6013      	str	r3, [r2, #0]
  400426:	e00f      	b.n	400448 <udc_update_iface_desc+0x4c>
				udc_ptr_iface->bLength);
  400428:	781a      	ldrb	r2, [r3, #0]
		udc_ptr_iface = (UDC_DESC_STORAGE usb_iface_desc_t *) (
  40042a:	4413      	add	r3, r2
  40042c:	4635      	mov	r5, r6
	while (ptr_end_desc >
  40042e:	42a3      	cmp	r3, r4
  400430:	d20c      	bcs.n	40044c <udc_update_iface_desc+0x50>
		if (USB_DT_INTERFACE == udc_ptr_iface->bDescriptorType) {
  400432:	785a      	ldrb	r2, [r3, #1]
  400434:	2a04      	cmp	r2, #4
  400436:	d1f7      	bne.n	400428 <udc_update_iface_desc+0x2c>
			if ((iface_num == udc_ptr_iface->bInterfaceNumber) &&
  400438:	789a      	ldrb	r2, [r3, #2]
  40043a:	4282      	cmp	r2, r0
  40043c:	d1f4      	bne.n	400428 <udc_update_iface_desc+0x2c>
  40043e:	78da      	ldrb	r2, [r3, #3]
  400440:	428a      	cmp	r2, r1
  400442:	d1f1      	bne.n	400428 <udc_update_iface_desc+0x2c>
  400444:	2d00      	cmp	r5, #0
  400446:	d1ec      	bne.n	400422 <udc_update_iface_desc+0x26>
				return true; // Interface found
  400448:	2001      	movs	r0, #1
  40044a:	e002      	b.n	400452 <udc_update_iface_desc+0x56>
  40044c:	4a07      	ldr	r2, [pc, #28]	; (40046c <udc_update_iface_desc+0x70>)
  40044e:	6013      	str	r3, [r2, #0]
	return false; // Interface not found
  400450:	2000      	movs	r0, #0
}
  400452:	bc70      	pop	{r4, r5, r6}
  400454:	4770      	bx	lr
		return false;
  400456:	2000      	movs	r0, #0
  400458:	4770      	bx	lr
		return false;
  40045a:	2000      	movs	r0, #0
  40045c:	4770      	bx	lr
	return false; // Interface not found
  40045e:	2000      	movs	r0, #0
  400460:	e7f7      	b.n	400452 <udc_update_iface_desc+0x56>
  400462:	bf00      	nop
  400464:	20000abc 	.word	0x20000abc
  400468:	20000ac0 	.word	0x20000ac0
  40046c:	20000ac4 	.word	0x20000ac4

00400470 <udc_iface_disable>:
{
  400470:	e92d 43f8 	stmdb	sp!, {r3, r4, r5, r6, r7, r8, r9, lr}
  400474:	4604      	mov	r4, r0
	if (!udc_update_iface_desc(iface_num, 0)) {
  400476:	2100      	movs	r1, #0
  400478:	4b13      	ldr	r3, [pc, #76]	; (4004c8 <udc_iface_disable+0x58>)
  40047a:	4798      	blx	r3
  40047c:	4680      	mov	r8, r0
  40047e:	b910      	cbnz	r0, 400486 <udc_iface_disable+0x16>
}
  400480:	4640      	mov	r0, r8
  400482:	e8bd 83f8 	ldmia.w	sp!, {r3, r4, r5, r6, r7, r8, r9, pc}
	udi_api = udc_ptr_conf->udi_apis[iface_num];
  400486:	4b11      	ldr	r3, [pc, #68]	; (4004cc <udc_iface_disable+0x5c>)
  400488:	681b      	ldr	r3, [r3, #0]
  40048a:	685b      	ldr	r3, [r3, #4]
  40048c:	f853 9024 	ldr.w	r9, [r3, r4, lsl #2]
	if (!udc_update_iface_desc(iface_num, udi_api->getsetting())) {
  400490:	f8d9 300c 	ldr.w	r3, [r9, #12]
  400494:	4798      	blx	r3
  400496:	4601      	mov	r1, r0
  400498:	4620      	mov	r0, r4
  40049a:	4b0b      	ldr	r3, [pc, #44]	; (4004c8 <udc_iface_disable+0x58>)
  40049c:	4798      	blx	r3
  40049e:	4680      	mov	r8, r0
  4004a0:	2800      	cmp	r0, #0
  4004a2:	d0ed      	beq.n	400480 <udc_iface_disable+0x10>
		ep_desc = (UDC_DESC_STORAGE usb_ep_desc_t *) udc_ptr_iface;
  4004a4:	4b0a      	ldr	r3, [pc, #40]	; (4004d0 <udc_iface_disable+0x60>)
  4004a6:	681c      	ldr	r4, [r3, #0]
			ep_desc = (UDC_DESC_STORAGE usb_ep_desc_t *)
  4004a8:	2605      	movs	r6, #5
  4004aa:	4d0a      	ldr	r5, [pc, #40]	; (4004d4 <udc_iface_disable+0x64>)
			udd_ep_free(ep_desc->bEndpointAddress);
  4004ac:	4f0a      	ldr	r7, [pc, #40]	; (4004d8 <udc_iface_disable+0x68>)
			ep_desc = (UDC_DESC_STORAGE usb_ep_desc_t *)
  4004ae:	4631      	mov	r1, r6
  4004b0:	4620      	mov	r0, r4
  4004b2:	47a8      	blx	r5
			if (NULL == ep_desc) {
  4004b4:	4604      	mov	r4, r0
  4004b6:	b110      	cbz	r0, 4004be <udc_iface_disable+0x4e>
			udd_ep_free(ep_desc->bEndpointAddress);
  4004b8:	7880      	ldrb	r0, [r0, #2]
  4004ba:	47b8      	blx	r7
			ep_desc = (UDC_DESC_STORAGE usb_ep_desc_t *)
  4004bc:	e7f7      	b.n	4004ae <udc_iface_disable+0x3e>
	udi_api->disable();
  4004be:	f8d9 3004 	ldr.w	r3, [r9, #4]
  4004c2:	4798      	blx	r3
	return true;
  4004c4:	e7dc      	b.n	400480 <udc_iface_disable+0x10>
  4004c6:	bf00      	nop
  4004c8:	004003fd 	.word	0x004003fd
  4004cc:	20000ac0 	.word	0x20000ac0
  4004d0:	20000ac4 	.word	0x20000ac4
  4004d4:	0040039d 	.word	0x0040039d
  4004d8:	00402471 	.word	0x00402471

004004dc <udc_iface_enable>:
{
  4004dc:	e92d 41f0 	stmdb	sp!, {r4, r5, r6, r7, r8, lr}
  4004e0:	4680      	mov	r8, r0
	if (!udc_update_iface_desc(iface_num, setting_num)) {
  4004e2:	4b10      	ldr	r3, [pc, #64]	; (400524 <udc_iface_enable+0x48>)
  4004e4:	4798      	blx	r3
  4004e6:	4603      	mov	r3, r0
  4004e8:	b1c8      	cbz	r0, 40051e <udc_iface_enable+0x42>
	ep_desc = (UDC_DESC_STORAGE usb_ep_desc_t *) udc_ptr_iface;
  4004ea:	4b0f      	ldr	r3, [pc, #60]	; (400528 <udc_iface_enable+0x4c>)
  4004ec:	681c      	ldr	r4, [r3, #0]
		ep_desc = (UDC_DESC_STORAGE usb_ep_desc_t *)
  4004ee:	2605      	movs	r6, #5
  4004f0:	4d0e      	ldr	r5, [pc, #56]	; (40052c <udc_iface_enable+0x50>)
		if (!udd_ep_alloc(ep_desc->bEndpointAddress,
  4004f2:	4f0f      	ldr	r7, [pc, #60]	; (400530 <udc_iface_enable+0x54>)
		ep_desc = (UDC_DESC_STORAGE usb_ep_desc_t *)
  4004f4:	4631      	mov	r1, r6
  4004f6:	4620      	mov	r0, r4
  4004f8:	47a8      	blx	r5
		if (NULL == ep_desc)
  4004fa:	4604      	mov	r4, r0
  4004fc:	b138      	cbz	r0, 40050e <udc_iface_enable+0x32>
		if (!udd_ep_alloc(ep_desc->bEndpointAddress,
  4004fe:	8882      	ldrh	r2, [r0, #4]
  400500:	78c1      	ldrb	r1, [r0, #3]
  400502:	7880      	ldrb	r0, [r0, #2]
  400504:	47b8      	blx	r7
  400506:	4603      	mov	r3, r0
  400508:	2800      	cmp	r0, #0
  40050a:	d1f3      	bne.n	4004f4 <udc_iface_enable+0x18>
  40050c:	e007      	b.n	40051e <udc_iface_enable+0x42>
	return udc_ptr_conf->udi_apis[iface_num]->enable();
  40050e:	4b09      	ldr	r3, [pc, #36]	; (400534 <udc_iface_enable+0x58>)
  400510:	681b      	ldr	r3, [r3, #0]
  400512:	685b      	ldr	r3, [r3, #4]
  400514:	f853 3028 	ldr.w	r3, [r3, r8, lsl #2]
  400518:	681b      	ldr	r3, [r3, #0]
  40051a:	4798      	blx	r3
  40051c:	4603      	mov	r3, r0
}
  40051e:	4618      	mov	r0, r3
  400520:	e8bd 81f0 	ldmia.w	sp!, {r4, r5, r6, r7, r8, pc}
  400524:	004003fd 	.word	0x004003fd
  400528:	20000ac4 	.word	0x20000ac4
  40052c:	0040039d 	.word	0x0040039d
  400530:	00402379 	.word	0x00402379
  400534:	20000ac0 	.word	0x20000ac0

00400538 <udc_start>:
{
  400538:	b508      	push	{r3, lr}
	udd_enable();
  40053a:	4b01      	ldr	r3, [pc, #4]	; (400540 <udc_start+0x8>)
  40053c:	4798      	blx	r3
  40053e:	bd08      	pop	{r3, pc}
  400540:	00402231 	.word	0x00402231

00400544 <udc_reset>:
{
  400544:	b570      	push	{r4, r5, r6, lr}
	if (udc_num_configuration) {
  400546:	4b0d      	ldr	r3, [pc, #52]	; (40057c <udc_reset+0x38>)
  400548:	781b      	ldrb	r3, [r3, #0]
  40054a:	b183      	cbz	r3, 40056e <udc_reset+0x2a>
				iface_num < udc_ptr_conf->desc->bNumInterfaces;
  40054c:	4b0c      	ldr	r3, [pc, #48]	; (400580 <udc_reset+0x3c>)
  40054e:	681b      	ldr	r3, [r3, #0]
  400550:	681b      	ldr	r3, [r3, #0]
		for (iface_num = 0;
  400552:	791b      	ldrb	r3, [r3, #4]
  400554:	b15b      	cbz	r3, 40056e <udc_reset+0x2a>
  400556:	2400      	movs	r4, #0
			udc_iface_disable(iface_num);
  400558:	4e0a      	ldr	r6, [pc, #40]	; (400584 <udc_reset+0x40>)
				iface_num < udc_ptr_conf->desc->bNumInterfaces;
  40055a:	4d09      	ldr	r5, [pc, #36]	; (400580 <udc_reset+0x3c>)
			udc_iface_disable(iface_num);
  40055c:	4620      	mov	r0, r4
  40055e:	47b0      	blx	r6
				iface_num++) {
  400560:	3401      	adds	r4, #1
  400562:	b2e4      	uxtb	r4, r4
				iface_num < udc_ptr_conf->desc->bNumInterfaces;
  400564:	682b      	ldr	r3, [r5, #0]
  400566:	681b      	ldr	r3, [r3, #0]
		for (iface_num = 0;
  400568:	791b      	ldrb	r3, [r3, #4]
  40056a:	42a3      	cmp	r3, r4
  40056c:	d8f6      	bhi.n	40055c <udc_reset+0x18>
	udc_num_configuration = 0;
  40056e:	2200      	movs	r2, #0
  400570:	4b02      	ldr	r3, [pc, #8]	; (40057c <udc_reset+0x38>)
  400572:	701a      	strb	r2, [r3, #0]
	udc_device_status =
  400574:	2201      	movs	r2, #1
  400576:	4b04      	ldr	r3, [pc, #16]	; (400588 <udc_reset+0x44>)
  400578:	801a      	strh	r2, [r3, #0]
  40057a:	bd70      	pop	{r4, r5, r6, pc}
  40057c:	20000abc 	.word	0x20000abc
  400580:	20000ac0 	.word	0x20000ac0
  400584:	00400471 	.word	0x00400471
  400588:	20000ab4 	.word	0x20000ab4

0040058c <udc_sof_notify>:
{
  40058c:	b538      	push	{r3, r4, r5, lr}
	if (udc_num_configuration) {
  40058e:	4b0d      	ldr	r3, [pc, #52]	; (4005c4 <udc_sof_notify+0x38>)
  400590:	781b      	ldrb	r3, [r3, #0]
  400592:	b1b3      	cbz	r3, 4005c2 <udc_sof_notify+0x36>
				iface_num < udc_ptr_conf->desc->bNumInterfaces;
  400594:	4b0c      	ldr	r3, [pc, #48]	; (4005c8 <udc_sof_notify+0x3c>)
  400596:	681b      	ldr	r3, [r3, #0]
  400598:	681a      	ldr	r2, [r3, #0]
		for (iface_num = 0;
  40059a:	7912      	ldrb	r2, [r2, #4]
  40059c:	b18a      	cbz	r2, 4005c2 <udc_sof_notify+0x36>
  40059e:	2400      	movs	r4, #0
				iface_num < udc_ptr_conf->desc->bNumInterfaces;
  4005a0:	4d09      	ldr	r5, [pc, #36]	; (4005c8 <udc_sof_notify+0x3c>)
  4005a2:	e006      	b.n	4005b2 <udc_sof_notify+0x26>
				iface_num++) {
  4005a4:	3401      	adds	r4, #1
  4005a6:	b2e4      	uxtb	r4, r4
				iface_num < udc_ptr_conf->desc->bNumInterfaces;
  4005a8:	682b      	ldr	r3, [r5, #0]
  4005aa:	681a      	ldr	r2, [r3, #0]
		for (iface_num = 0;
  4005ac:	7912      	ldrb	r2, [r2, #4]
  4005ae:	42a2      	cmp	r2, r4
  4005b0:	d907      	bls.n	4005c2 <udc_sof_notify+0x36>
			if (udc_ptr_conf->udi_apis[iface_num]->sof_notify != NULL) {
  4005b2:	685b      	ldr	r3, [r3, #4]
  4005b4:	f853 3024 	ldr.w	r3, [r3, r4, lsl #2]
  4005b8:	691b      	ldr	r3, [r3, #16]
  4005ba:	2b00      	cmp	r3, #0
  4005bc:	d0f2      	beq.n	4005a4 <udc_sof_notify+0x18>
				udc_ptr_conf->udi_apis[iface_num]->sof_notify();
  4005be:	4798      	blx	r3
  4005c0:	e7f0      	b.n	4005a4 <udc_sof_notify+0x18>
  4005c2:	bd38      	pop	{r3, r4, r5, pc}
  4005c4:	20000abc 	.word	0x20000abc
  4005c8:	20000ac0 	.word	0x20000ac0

004005cc <udc_process_setup>:
 * sent to a specific application callback.
 *
 * \return true if the request is supported, else the request is stalled by UDD
 */
bool udc_process_setup(void)
{
  4005cc:	b5f8      	push	{r3, r4, r5, r6, r7, lr}
	// By default no data (receive/send) and no callbacks registered
	udd_g_ctrlreq.payload_size = 0;
  4005ce:	4b8a      	ldr	r3, [pc, #552]	; (4007f8 <udc_process_setup+0x22c>)
  4005d0:	2200      	movs	r2, #0
  4005d2:	819a      	strh	r2, [r3, #12]
	udd_g_ctrlreq.callback = NULL;
  4005d4:	611a      	str	r2, [r3, #16]
	udd_g_ctrlreq.over_under_run = NULL;
  4005d6:	615a      	str	r2, [r3, #20]

	if (Udd_setup_is_in()) {
  4005d8:	781b      	ldrb	r3, [r3, #0]
  4005da:	f013 0f80 	tst.w	r3, #128	; 0x80
  4005de:	d114      	bne.n	40060a <udc_process_setup+0x3e>
			return false; // Error from USB host
		}
	}

	// If standard request then try to decode it in UDC
	if (Udd_setup_type() == USB_REQ_TYPE_STANDARD) {
  4005e0:	f013 0f60 	tst.w	r3, #96	; 0x60
  4005e4:	f000 80d9 	beq.w	40079a <udc_process_setup+0x1ce>
			return true;
		}
	}

	// If interface request then try to decode it in UDI
	if (Udd_setup_recipient() == USB_REQ_RECIP_INTERFACE) {
  4005e8:	4b83      	ldr	r3, [pc, #524]	; (4007f8 <udc_process_setup+0x22c>)
  4005ea:	781b      	ldrb	r3, [r3, #0]
  4005ec:	f003 031f 	and.w	r3, r3, #31
  4005f0:	2b01      	cmp	r3, #1
  4005f2:	f000 8170 	beq.w	4008d6 <udc_process_setup+0x30a>
			return true;
		}
	}

	// If endpoint request then try to decode it in UDI
	if (Udd_setup_recipient() == USB_REQ_RECIP_ENDPOINT) {
  4005f6:	4b80      	ldr	r3, [pc, #512]	; (4007f8 <udc_process_setup+0x22c>)
  4005f8:	781b      	ldrb	r3, [r3, #0]
  4005fa:	f003 031f 	and.w	r3, r3, #31
  4005fe:	2b02      	cmp	r3, #2
  400600:	f000 81cb 	beq.w	40099a <udc_process_setup+0x3ce>
	// Here SETUP request unknown by UDC and UDIs
#ifdef USB_DEVICE_SPECIFIC_REQUEST
	// Try to decode it in specific callback
	return USB_DEVICE_SPECIFIC_REQUEST(); // Ex: Vendor request,...
#else
	return false;
  400604:	2300      	movs	r3, #0
#endif
}
  400606:	4618      	mov	r0, r3
  400608:	bdf8      	pop	{r3, r4, r5, r6, r7, pc}
		if (udd_g_ctrlreq.req.wLength == 0) {
  40060a:	4a7b      	ldr	r2, [pc, #492]	; (4007f8 <udc_process_setup+0x22c>)
  40060c:	88d2      	ldrh	r2, [r2, #6]
  40060e:	2a00      	cmp	r2, #0
  400610:	f000 81ec 	beq.w	4009ec <udc_process_setup+0x420>
	if (Udd_setup_type() == USB_REQ_TYPE_STANDARD) {
  400614:	f013 0f60 	tst.w	r3, #96	; 0x60
  400618:	d1e6      	bne.n	4005e8 <udc_process_setup+0x1c>
		if (USB_REQ_RECIP_DEVICE == Udd_setup_recipient()) {
  40061a:	f013 031f 	ands.w	r3, r3, #31
  40061e:	d106      	bne.n	40062e <udc_process_setup+0x62>
			switch (udd_g_ctrlreq.req.bRequest) {
  400620:	4975      	ldr	r1, [pc, #468]	; (4007f8 <udc_process_setup+0x22c>)
  400622:	7849      	ldrb	r1, [r1, #1]
  400624:	2906      	cmp	r1, #6
  400626:	d014      	beq.n	400652 <udc_process_setup+0x86>
  400628:	2908      	cmp	r1, #8
  40062a:	d077      	beq.n	40071c <udc_process_setup+0x150>
  40062c:	b151      	cbz	r1, 400644 <udc_process_setup+0x78>
		if (USB_REQ_RECIP_INTERFACE == Udd_setup_recipient()) {
  40062e:	2b01      	cmp	r3, #1
  400630:	d07c      	beq.n	40072c <udc_process_setup+0x160>
		if (USB_REQ_RECIP_ENDPOINT == Udd_setup_recipient()) {
  400632:	2b02      	cmp	r3, #2
  400634:	d1d8      	bne.n	4005e8 <udc_process_setup+0x1c>
			switch (udd_g_ctrlreq.req.bRequest) {
  400636:	4b70      	ldr	r3, [pc, #448]	; (4007f8 <udc_process_setup+0x22c>)
  400638:	785b      	ldrb	r3, [r3, #1]
  40063a:	2b00      	cmp	r3, #0
  40063c:	f000 809f 	beq.w	40077e <udc_process_setup+0x1b2>
	return false;
  400640:	2300      	movs	r3, #0
  400642:	e18c      	b.n	40095e <udc_process_setup+0x392>
	if (udd_g_ctrlreq.req.wLength != sizeof(udc_device_status)) {
  400644:	2a02      	cmp	r2, #2
  400646:	d1d6      	bne.n	4005f6 <udc_process_setup+0x2a>
	udd_set_setup_payload( (uint8_t *) & udc_device_status,
  400648:	2102      	movs	r1, #2
  40064a:	486c      	ldr	r0, [pc, #432]	; (4007fc <udc_process_setup+0x230>)
  40064c:	4b6c      	ldr	r3, [pc, #432]	; (400800 <udc_process_setup+0x234>)
  40064e:	4798      	blx	r3
  400650:	e0bf      	b.n	4007d2 <udc_process_setup+0x206>
	conf_num = udd_g_ctrlreq.req.wValue & 0xff;
  400652:	4b69      	ldr	r3, [pc, #420]	; (4007f8 <udc_process_setup+0x22c>)
  400654:	885a      	ldrh	r2, [r3, #2]
	switch ((uint8_t) (udd_g_ctrlreq.req.wValue >> 8)) {
  400656:	0a13      	lsrs	r3, r2, #8
  400658:	3b01      	subs	r3, #1
  40065a:	2b0e      	cmp	r3, #14
  40065c:	f200 817c 	bhi.w	400958 <udc_process_setup+0x38c>
  400660:	e8df f013 	tbh	[pc, r3, lsl #1]
  400664:	001d000f 	.word	0x001d000f
  400668:	017a0037 	.word	0x017a0037
  40066c:	017a017a 	.word	0x017a017a
  400670:	017a017a 	.word	0x017a017a
  400674:	017a017a 	.word	0x017a017a
  400678:	017a017a 	.word	0x017a017a
  40067c:	017a017a 	.word	0x017a017a
  400680:	002f      	.short	0x002f
				(uint8_t *) udc_config.confdev_lsfs,
  400682:	4b60      	ldr	r3, [pc, #384]	; (400804 <udc_process_setup+0x238>)
  400684:	6818      	ldr	r0, [r3, #0]
			udd_set_setup_payload(
  400686:	7801      	ldrb	r1, [r0, #0]
  400688:	4b5d      	ldr	r3, [pc, #372]	; (400800 <udc_process_setup+0x234>)
  40068a:	4798      	blx	r3
	if (udd_g_ctrlreq.req.wLength < udd_g_ctrlreq.payload_size) {
  40068c:	4b5a      	ldr	r3, [pc, #360]	; (4007f8 <udc_process_setup+0x22c>)
  40068e:	88da      	ldrh	r2, [r3, #6]
  400690:	899b      	ldrh	r3, [r3, #12]
  400692:	4293      	cmp	r3, r2
  400694:	f240 809d 	bls.w	4007d2 <udc_process_setup+0x206>
		udd_g_ctrlreq.payload_size = udd_g_ctrlreq.req.wLength;
  400698:	4b57      	ldr	r3, [pc, #348]	; (4007f8 <udc_process_setup+0x22c>)
  40069a:	819a      	strh	r2, [r3, #12]
  40069c:	e099      	b.n	4007d2 <udc_process_setup+0x206>
	conf_num = udd_g_ctrlreq.req.wValue & 0xff;
  40069e:	b2d2      	uxtb	r2, r2
			if (conf_num >= udc_config.confdev_lsfs->
  4006a0:	4b58      	ldr	r3, [pc, #352]	; (400804 <udc_process_setup+0x238>)
  4006a2:	681b      	ldr	r3, [r3, #0]
  4006a4:	7c5b      	ldrb	r3, [r3, #17]
  4006a6:	4293      	cmp	r3, r2
  4006a8:	d9a5      	bls.n	4005f6 <udc_process_setup+0x2a>
				(uint8_t *)udc_config.conf_lsfs[conf_num].desc,
  4006aa:	4b56      	ldr	r3, [pc, #344]	; (400804 <udc_process_setup+0x238>)
  4006ac:	685b      	ldr	r3, [r3, #4]
  4006ae:	f853 0032 	ldr.w	r0, [r3, r2, lsl #3]
			udd_set_setup_payload(
  4006b2:	8841      	ldrh	r1, [r0, #2]
  4006b4:	4b52      	ldr	r3, [pc, #328]	; (400800 <udc_process_setup+0x234>)
  4006b6:	4798      	blx	r3
		((usb_conf_desc_t *) udd_g_ctrlreq.payload)->bDescriptorType =
  4006b8:	4b4f      	ldr	r3, [pc, #316]	; (4007f8 <udc_process_setup+0x22c>)
  4006ba:	689b      	ldr	r3, [r3, #8]
  4006bc:	2202      	movs	r2, #2
  4006be:	705a      	strb	r2, [r3, #1]
  4006c0:	e7e4      	b.n	40068c <udc_process_setup+0xc0>
		if (udc_config.conf_bos == NULL) {
  4006c2:	4b50      	ldr	r3, [pc, #320]	; (400804 <udc_process_setup+0x238>)
  4006c4:	6898      	ldr	r0, [r3, #8]
  4006c6:	2800      	cmp	r0, #0
  4006c8:	d095      	beq.n	4005f6 <udc_process_setup+0x2a>
		udd_set_setup_payload( (uint8_t *) udc_config.conf_bos,
  4006ca:	8841      	ldrh	r1, [r0, #2]
  4006cc:	4b4c      	ldr	r3, [pc, #304]	; (400800 <udc_process_setup+0x234>)
  4006ce:	4798      	blx	r3
  4006d0:	e7dc      	b.n	40068c <udc_process_setup+0xc0>
	switch (udd_g_ctrlreq.req.wValue & 0xff) {
  4006d2:	b2d2      	uxtb	r2, r2
  4006d4:	2a03      	cmp	r2, #3
  4006d6:	d887      	bhi.n	4005e8 <udc_process_setup+0x1c>
  4006d8:	e8df f012 	tbh	[pc, r2, lsl #1]
  4006dc:	000c0007 	.word	0x000c0007
  4006e0:	0004018c 	.word	0x0004018c
		str_length = USB_DEVICE_SERIAL_NAME_SIZE;
  4006e4:	210c      	movs	r1, #12
		str = udc_get_string_serial_name();
  4006e6:	4a48      	ldr	r2, [pc, #288]	; (400808 <udc_process_setup+0x23c>)
  4006e8:	e006      	b.n	4006f8 <udc_process_setup+0x12c>
		udd_set_setup_payload((uint8_t *) &udc_string_desc_languageid,
  4006ea:	2104      	movs	r1, #4
  4006ec:	4847      	ldr	r0, [pc, #284]	; (40080c <udc_process_setup+0x240>)
  4006ee:	4b44      	ldr	r3, [pc, #272]	; (400800 <udc_process_setup+0x234>)
  4006f0:	4798      	blx	r3
  4006f2:	e7cb      	b.n	40068c <udc_process_setup+0xc0>
		str = udc_string_manufacturer_name;
  4006f4:	4a46      	ldr	r2, [pc, #280]	; (400810 <udc_process_setup+0x244>)
		str_length = USB_DEVICE_MANUFACTURE_NAME_SIZE;
  4006f6:	2109      	movs	r1, #9
  4006f8:	3a01      	subs	r2, #1
  4006fa:	4846      	ldr	r0, [pc, #280]	; (400814 <udc_process_setup+0x248>)
  4006fc:	2300      	movs	r3, #0
			udc_string_desc.string[i] = cpu_to_le16((le16_t)str[i]);
  4006fe:	f812 4f01 	ldrb.w	r4, [r2, #1]!
  400702:	f820 4f02 	strh.w	r4, [r0, #2]!
		for(i = 0; i < str_length; i++) {
  400706:	3301      	adds	r3, #1
  400708:	b2db      	uxtb	r3, r3
  40070a:	4299      	cmp	r1, r3
  40070c:	d8f7      	bhi.n	4006fe <udc_process_setup+0x132>
		udc_string_desc.header.bLength = 2 + (str_length) * 2;
  40070e:	0049      	lsls	r1, r1, #1
  400710:	3102      	adds	r1, #2
  400712:	4840      	ldr	r0, [pc, #256]	; (400814 <udc_process_setup+0x248>)
  400714:	7001      	strb	r1, [r0, #0]
		udd_set_setup_payload(
  400716:	4b3a      	ldr	r3, [pc, #232]	; (400800 <udc_process_setup+0x234>)
  400718:	4798      	blx	r3
  40071a:	e7b7      	b.n	40068c <udc_process_setup+0xc0>
	if (udd_g_ctrlreq.req.wLength != 1) {
  40071c:	2a01      	cmp	r2, #1
  40071e:	f47f af6a 	bne.w	4005f6 <udc_process_setup+0x2a>
	udd_set_setup_payload(&udc_num_configuration,1);
  400722:	2101      	movs	r1, #1
  400724:	483c      	ldr	r0, [pc, #240]	; (400818 <udc_process_setup+0x24c>)
  400726:	4b36      	ldr	r3, [pc, #216]	; (400800 <udc_process_setup+0x234>)
  400728:	4798      	blx	r3
  40072a:	e052      	b.n	4007d2 <udc_process_setup+0x206>
			switch (udd_g_ctrlreq.req.bRequest) {
  40072c:	4932      	ldr	r1, [pc, #200]	; (4007f8 <udc_process_setup+0x22c>)
  40072e:	7849      	ldrb	r1, [r1, #1]
  400730:	290a      	cmp	r1, #10
  400732:	f47f af7e 	bne.w	400632 <udc_process_setup+0x66>
	if (udd_g_ctrlreq.req.wLength != 1) {
  400736:	2a01      	cmp	r2, #1
  400738:	f040 80cd 	bne.w	4008d6 <udc_process_setup+0x30a>
	if (!udc_num_configuration) {
  40073c:	4b36      	ldr	r3, [pc, #216]	; (400818 <udc_process_setup+0x24c>)
  40073e:	781b      	ldrb	r3, [r3, #0]
  400740:	2b00      	cmp	r3, #0
  400742:	f000 80c8 	beq.w	4008d6 <udc_process_setup+0x30a>
	iface_num = udd_g_ctrlreq.req.wIndex & 0xFF;
  400746:	4b2c      	ldr	r3, [pc, #176]	; (4007f8 <udc_process_setup+0x22c>)
  400748:	791c      	ldrb	r4, [r3, #4]
	if (iface_num >= udc_ptr_conf->desc->bNumInterfaces) {
  40074a:	4b34      	ldr	r3, [pc, #208]	; (40081c <udc_process_setup+0x250>)
  40074c:	681d      	ldr	r5, [r3, #0]
  40074e:	682b      	ldr	r3, [r5, #0]
  400750:	791b      	ldrb	r3, [r3, #4]
  400752:	42a3      	cmp	r3, r4
  400754:	f240 80bf 	bls.w	4008d6 <udc_process_setup+0x30a>
	if (!udc_update_iface_desc(iface_num, 0)) {
  400758:	2100      	movs	r1, #0
  40075a:	4620      	mov	r0, r4
  40075c:	4b30      	ldr	r3, [pc, #192]	; (400820 <udc_process_setup+0x254>)
  40075e:	4798      	blx	r3
  400760:	2800      	cmp	r0, #0
  400762:	f43f af41 	beq.w	4005e8 <udc_process_setup+0x1c>
	udi_api = udc_ptr_conf->udi_apis[iface_num];
  400766:	686b      	ldr	r3, [r5, #4]
	udc_iface_setting = udi_api->getsetting();
  400768:	f853 3024 	ldr.w	r3, [r3, r4, lsl #2]
  40076c:	68db      	ldr	r3, [r3, #12]
  40076e:	4798      	blx	r3
  400770:	4b2c      	ldr	r3, [pc, #176]	; (400824 <udc_process_setup+0x258>)
  400772:	7018      	strb	r0, [r3, #0]
	udd_set_setup_payload(&udc_iface_setting,1);
  400774:	2101      	movs	r1, #1
  400776:	4618      	mov	r0, r3
  400778:	4b21      	ldr	r3, [pc, #132]	; (400800 <udc_process_setup+0x234>)
  40077a:	4798      	blx	r3
  40077c:	e029      	b.n	4007d2 <udc_process_setup+0x206>
	if (udd_g_ctrlreq.req.wLength != sizeof(udc_ep_status)) {
  40077e:	2a02      	cmp	r2, #2
  400780:	f47f af39 	bne.w	4005f6 <udc_process_setup+0x2a>
	udc_ep_status = udd_ep_is_halted(udd_g_ctrlreq.req.
  400784:	4b1c      	ldr	r3, [pc, #112]	; (4007f8 <udc_process_setup+0x22c>)
  400786:	7918      	ldrb	r0, [r3, #4]
  400788:	4b27      	ldr	r3, [pc, #156]	; (400828 <udc_process_setup+0x25c>)
  40078a:	4798      	blx	r3
  40078c:	4b27      	ldr	r3, [pc, #156]	; (40082c <udc_process_setup+0x260>)
			wIndex & 0xFF) ? CPU_TO_LE16(USB_EP_STATUS_HALTED) : 0;
  40078e:	8018      	strh	r0, [r3, #0]
	udd_set_setup_payload( (uint8_t *) & udc_ep_status,
  400790:	2102      	movs	r1, #2
  400792:	4618      	mov	r0, r3
  400794:	4b1a      	ldr	r3, [pc, #104]	; (400800 <udc_process_setup+0x234>)
  400796:	4798      	blx	r3
  400798:	e01b      	b.n	4007d2 <udc_process_setup+0x206>
		if (USB_REQ_RECIP_DEVICE == Udd_setup_recipient()) {
  40079a:	f013 031f 	ands.w	r3, r3, #31
  40079e:	f040 8083 	bne.w	4008a8 <udc_process_setup+0x2dc>
			switch (udd_g_ctrlreq.req.bRequest) {
  4007a2:	4a15      	ldr	r2, [pc, #84]	; (4007f8 <udc_process_setup+0x22c>)
  4007a4:	7852      	ldrb	r2, [r2, #1]
  4007a6:	3a01      	subs	r2, #1
  4007a8:	2a08      	cmp	r2, #8
  4007aa:	d87d      	bhi.n	4008a8 <udc_process_setup+0x2dc>
  4007ac:	e8df f012 	tbh	[pc, r2, lsl #1]
  4007b0:	007c0013 	.word	0x007c0013
  4007b4:	007c00d6 	.word	0x007c00d6
  4007b8:	007c0009 	.word	0x007c0009
  4007bc:	007c007c 	.word	0x007c007c
  4007c0:	0042      	.short	0x0042
	if (udd_g_ctrlreq.req.wLength) {
  4007c2:	4b0d      	ldr	r3, [pc, #52]	; (4007f8 <udc_process_setup+0x22c>)
  4007c4:	88db      	ldrh	r3, [r3, #6]
  4007c6:	2b00      	cmp	r3, #0
  4007c8:	f47f af15 	bne.w	4005f6 <udc_process_setup+0x2a>
	udd_g_ctrlreq.callback = udc_valid_address;
  4007cc:	4a18      	ldr	r2, [pc, #96]	; (400830 <udc_process_setup+0x264>)
  4007ce:	4b0a      	ldr	r3, [pc, #40]	; (4007f8 <udc_process_setup+0x22c>)
  4007d0:	611a      	str	r2, [r3, #16]
			return true;
  4007d2:	2301      	movs	r3, #1
  4007d4:	e717      	b.n	400606 <udc_process_setup+0x3a>
	if (udd_g_ctrlreq.req.wLength) {
  4007d6:	4b08      	ldr	r3, [pc, #32]	; (4007f8 <udc_process_setup+0x22c>)
  4007d8:	88db      	ldrh	r3, [r3, #6]
  4007da:	2b00      	cmp	r3, #0
  4007dc:	f47f af0b 	bne.w	4005f6 <udc_process_setup+0x2a>
	if (udd_g_ctrlreq.req.wValue == USB_DEV_FEATURE_REMOTE_WAKEUP) {
  4007e0:	4b05      	ldr	r3, [pc, #20]	; (4007f8 <udc_process_setup+0x22c>)
  4007e2:	885b      	ldrh	r3, [r3, #2]
  4007e4:	2b01      	cmp	r3, #1
  4007e6:	f47f af06 	bne.w	4005f6 <udc_process_setup+0x2a>
		udc_device_status &= CPU_TO_LE16(~(uint32_t)USB_DEV_STATUS_REMOTEWAKEUP);
  4007ea:	4a04      	ldr	r2, [pc, #16]	; (4007fc <udc_process_setup+0x230>)
  4007ec:	8813      	ldrh	r3, [r2, #0]
  4007ee:	f023 0302 	bic.w	r3, r3, #2
  4007f2:	8013      	strh	r3, [r2, #0]
  4007f4:	e7ed      	b.n	4007d2 <udc_process_setup+0x206>
  4007f6:	bf00      	nop
  4007f8:	20000ce0 	.word	0x20000ce0
  4007fc:	20000ab4 	.word	0x20000ab4
  400800:	0040236d 	.word	0x0040236d
  400804:	2000003c 	.word	0x2000003c
  400808:	0040b8f4 	.word	0x0040b8f4
  40080c:	200000a4 	.word	0x200000a4
  400810:	200000a8 	.word	0x200000a8
  400814:	20000088 	.word	0x20000088
  400818:	20000abc 	.word	0x20000abc
  40081c:	20000ac0 	.word	0x20000ac0
  400820:	004003fd 	.word	0x004003fd
  400824:	20000ab8 	.word	0x20000ab8
  400828:	004024c9 	.word	0x004024c9
  40082c:	20000ab6 	.word	0x20000ab6
  400830:	004003e5 	.word	0x004003e5
	if (udd_g_ctrlreq.req.wLength) {
  400834:	4b71      	ldr	r3, [pc, #452]	; (4009fc <udc_process_setup+0x430>)
  400836:	88db      	ldrh	r3, [r3, #6]
  400838:	2b00      	cmp	r3, #0
  40083a:	f47f aedc 	bne.w	4005f6 <udc_process_setup+0x2a>
	if (!udd_getaddress()) {
  40083e:	4b70      	ldr	r3, [pc, #448]	; (400a00 <udc_process_setup+0x434>)
  400840:	4798      	blx	r3
  400842:	2800      	cmp	r0, #0
  400844:	f43f aed0 	beq.w	4005e8 <udc_process_setup+0x1c>
		if ((udd_g_ctrlreq.req.wValue & 0xFF) >
  400848:	4b6c      	ldr	r3, [pc, #432]	; (4009fc <udc_process_setup+0x430>)
  40084a:	789a      	ldrb	r2, [r3, #2]
				udc_config.confdev_lsfs->bNumConfigurations) {
  40084c:	4b6d      	ldr	r3, [pc, #436]	; (400a04 <udc_process_setup+0x438>)
  40084e:	681b      	ldr	r3, [r3, #0]
  400850:	7c5b      	ldrb	r3, [r3, #17]
		if ((udd_g_ctrlreq.req.wValue & 0xFF) >
  400852:	429a      	cmp	r2, r3
  400854:	f73f aec8 	bgt.w	4005e8 <udc_process_setup+0x1c>
	udc_reset();
  400858:	4b6b      	ldr	r3, [pc, #428]	; (400a08 <udc_process_setup+0x43c>)
  40085a:	4798      	blx	r3
	udc_num_configuration = udd_g_ctrlreq.req.wValue & 0xFF;
  40085c:	4b67      	ldr	r3, [pc, #412]	; (4009fc <udc_process_setup+0x430>)
  40085e:	789b      	ldrb	r3, [r3, #2]
  400860:	4a6a      	ldr	r2, [pc, #424]	; (400a0c <udc_process_setup+0x440>)
  400862:	7013      	strb	r3, [r2, #0]
	if (udc_num_configuration == 0) {
  400864:	2b00      	cmp	r3, #0
  400866:	d0b4      	beq.n	4007d2 <udc_process_setup+0x206>
		udc_ptr_conf = &udc_config.conf_lsfs[udc_num_configuration - 1];
  400868:	f103 5300 	add.w	r3, r3, #536870912	; 0x20000000
  40086c:	3b01      	subs	r3, #1
  40086e:	4a65      	ldr	r2, [pc, #404]	; (400a04 <udc_process_setup+0x438>)
  400870:	6852      	ldr	r2, [r2, #4]
  400872:	eb02 00c3 	add.w	r0, r2, r3, lsl #3
  400876:	4966      	ldr	r1, [pc, #408]	; (400a10 <udc_process_setup+0x444>)
  400878:	6008      	str	r0, [r1, #0]
	for (iface_num = 0; iface_num < udc_ptr_conf->desc->bNumInterfaces;
  40087a:	f852 3033 	ldr.w	r3, [r2, r3, lsl #3]
  40087e:	791b      	ldrb	r3, [r3, #4]
  400880:	2b00      	cmp	r3, #0
  400882:	d0a6      	beq.n	4007d2 <udc_process_setup+0x206>
  400884:	2400      	movs	r4, #0
		if (!udc_iface_enable(iface_num, 0)) {
  400886:	4626      	mov	r6, r4
  400888:	4d62      	ldr	r5, [pc, #392]	; (400a14 <udc_process_setup+0x448>)
	for (iface_num = 0; iface_num < udc_ptr_conf->desc->bNumInterfaces;
  40088a:	460f      	mov	r7, r1
		if (!udc_iface_enable(iface_num, 0)) {
  40088c:	4631      	mov	r1, r6
  40088e:	4620      	mov	r0, r4
  400890:	47a8      	blx	r5
  400892:	2800      	cmp	r0, #0
  400894:	f43f aea8 	beq.w	4005e8 <udc_process_setup+0x1c>
			iface_num++) {
  400898:	3401      	adds	r4, #1
  40089a:	b2e4      	uxtb	r4, r4
	for (iface_num = 0; iface_num < udc_ptr_conf->desc->bNumInterfaces;
  40089c:	683b      	ldr	r3, [r7, #0]
  40089e:	681b      	ldr	r3, [r3, #0]
  4008a0:	791b      	ldrb	r3, [r3, #4]
  4008a2:	42a3      	cmp	r3, r4
  4008a4:	d8f2      	bhi.n	40088c <udc_process_setup+0x2c0>
  4008a6:	e794      	b.n	4007d2 <udc_process_setup+0x206>
		if (USB_REQ_RECIP_INTERFACE == Udd_setup_recipient()) {
  4008a8:	2b01      	cmp	r3, #1
  4008aa:	d00a      	beq.n	4008c2 <udc_process_setup+0x2f6>
		if (USB_REQ_RECIP_ENDPOINT == Udd_setup_recipient()) {
  4008ac:	2b02      	cmp	r3, #2
  4008ae:	f47f ae9b 	bne.w	4005e8 <udc_process_setup+0x1c>
			switch (udd_g_ctrlreq.req.bRequest) {
  4008b2:	4b52      	ldr	r3, [pc, #328]	; (4009fc <udc_process_setup+0x430>)
  4008b4:	785b      	ldrb	r3, [r3, #1]
  4008b6:	2b01      	cmp	r3, #1
  4008b8:	d02b      	beq.n	400912 <udc_process_setup+0x346>
  4008ba:	2b03      	cmp	r3, #3
  4008bc:	d039      	beq.n	400932 <udc_process_setup+0x366>
	return false;
  4008be:	2300      	movs	r3, #0
  4008c0:	e04d      	b.n	40095e <udc_process_setup+0x392>
			switch (udd_g_ctrlreq.req.bRequest) {
  4008c2:	4a4e      	ldr	r2, [pc, #312]	; (4009fc <udc_process_setup+0x430>)
  4008c4:	7852      	ldrb	r2, [r2, #1]
  4008c6:	2a0b      	cmp	r2, #11
  4008c8:	d1f0      	bne.n	4008ac <udc_process_setup+0x2e0>
	if (udd_g_ctrlreq.req.wLength) {
  4008ca:	4b4c      	ldr	r3, [pc, #304]	; (4009fc <udc_process_setup+0x430>)
  4008cc:	88db      	ldrh	r3, [r3, #6]
  4008ce:	b913      	cbnz	r3, 4008d6 <udc_process_setup+0x30a>
	if (!udc_num_configuration) {
  4008d0:	4b4e      	ldr	r3, [pc, #312]	; (400a0c <udc_process_setup+0x440>)
  4008d2:	781b      	ldrb	r3, [r3, #0]
  4008d4:	b973      	cbnz	r3, 4008f4 <udc_process_setup+0x328>
	if (0 == udc_num_configuration) {
  4008d6:	4b4d      	ldr	r3, [pc, #308]	; (400a0c <udc_process_setup+0x440>)
  4008d8:	781b      	ldrb	r3, [r3, #0]
  4008da:	2b00      	cmp	r3, #0
  4008dc:	f000 8088 	beq.w	4009f0 <udc_process_setup+0x424>
	iface_num = udd_g_ctrlreq.req.wIndex & 0xFF;
  4008e0:	4b46      	ldr	r3, [pc, #280]	; (4009fc <udc_process_setup+0x430>)
  4008e2:	791c      	ldrb	r4, [r3, #4]
	if (iface_num >= udc_ptr_conf->desc->bNumInterfaces) {
  4008e4:	4b4a      	ldr	r3, [pc, #296]	; (400a10 <udc_process_setup+0x444>)
  4008e6:	681d      	ldr	r5, [r3, #0]
  4008e8:	682b      	ldr	r3, [r5, #0]
  4008ea:	791b      	ldrb	r3, [r3, #4]
  4008ec:	42a3      	cmp	r3, r4
  4008ee:	d83a      	bhi.n	400966 <udc_process_setup+0x39a>
	return false;
  4008f0:	2300      	movs	r3, #0
  4008f2:	e688      	b.n	400606 <udc_process_setup+0x3a>
	iface_num = udd_g_ctrlreq.req.wIndex & 0xFF;
  4008f4:	4b41      	ldr	r3, [pc, #260]	; (4009fc <udc_process_setup+0x430>)
  4008f6:	791c      	ldrb	r4, [r3, #4]
	setting_num = udd_g_ctrlreq.req.wValue & 0xFF;
  4008f8:	885d      	ldrh	r5, [r3, #2]
	if (!udc_iface_disable(iface_num)) {
  4008fa:	4620      	mov	r0, r4
  4008fc:	4b46      	ldr	r3, [pc, #280]	; (400a18 <udc_process_setup+0x44c>)
  4008fe:	4798      	blx	r3
  400900:	2800      	cmp	r0, #0
  400902:	f43f ae71 	beq.w	4005e8 <udc_process_setup+0x1c>
	return udc_iface_enable(iface_num, setting_num);
  400906:	b2e9      	uxtb	r1, r5
  400908:	4620      	mov	r0, r4
  40090a:	4b42      	ldr	r3, [pc, #264]	; (400a14 <udc_process_setup+0x448>)
  40090c:	4798      	blx	r3
  40090e:	4603      	mov	r3, r0
  400910:	e025      	b.n	40095e <udc_process_setup+0x392>
	if (udd_g_ctrlreq.req.wLength) {
  400912:	4b3a      	ldr	r3, [pc, #232]	; (4009fc <udc_process_setup+0x430>)
  400914:	88db      	ldrh	r3, [r3, #6]
  400916:	2b00      	cmp	r3, #0
  400918:	f47f ae6d 	bne.w	4005f6 <udc_process_setup+0x2a>
	if (udd_g_ctrlreq.req.wValue == USB_EP_FEATURE_HALT) {
  40091c:	4b37      	ldr	r3, [pc, #220]	; (4009fc <udc_process_setup+0x430>)
  40091e:	885b      	ldrh	r3, [r3, #2]
  400920:	2b00      	cmp	r3, #0
  400922:	f47f ae68 	bne.w	4005f6 <udc_process_setup+0x2a>
		return udd_ep_clear_halt(udd_g_ctrlreq.req.wIndex & 0xFF);
  400926:	4b35      	ldr	r3, [pc, #212]	; (4009fc <udc_process_setup+0x430>)
  400928:	7918      	ldrb	r0, [r3, #4]
  40092a:	4b3c      	ldr	r3, [pc, #240]	; (400a1c <udc_process_setup+0x450>)
  40092c:	4798      	blx	r3
  40092e:	4603      	mov	r3, r0
  400930:	e015      	b.n	40095e <udc_process_setup+0x392>
	if (udd_g_ctrlreq.req.wLength) {
  400932:	4b32      	ldr	r3, [pc, #200]	; (4009fc <udc_process_setup+0x430>)
  400934:	88db      	ldrh	r3, [r3, #6]
  400936:	2b00      	cmp	r3, #0
  400938:	f47f ae5d 	bne.w	4005f6 <udc_process_setup+0x2a>
	if (udd_g_ctrlreq.req.wValue == USB_EP_FEATURE_HALT) {
  40093c:	4b2f      	ldr	r3, [pc, #188]	; (4009fc <udc_process_setup+0x430>)
  40093e:	885b      	ldrh	r3, [r3, #2]
  400940:	2b00      	cmp	r3, #0
  400942:	f47f ae58 	bne.w	4005f6 <udc_process_setup+0x2a>
		udd_ep_abort(udd_g_ctrlreq.req.wIndex & 0xFF);
  400946:	4c2d      	ldr	r4, [pc, #180]	; (4009fc <udc_process_setup+0x430>)
  400948:	7920      	ldrb	r0, [r4, #4]
  40094a:	4b35      	ldr	r3, [pc, #212]	; (400a20 <udc_process_setup+0x454>)
  40094c:	4798      	blx	r3
		return udd_ep_set_halt(udd_g_ctrlreq.req.wIndex & 0xFF);
  40094e:	7920      	ldrb	r0, [r4, #4]
  400950:	4b34      	ldr	r3, [pc, #208]	; (400a24 <udc_process_setup+0x458>)
  400952:	4798      	blx	r3
  400954:	4603      	mov	r3, r0
  400956:	e002      	b.n	40095e <udc_process_setup+0x392>
		return false;
  400958:	2300      	movs	r3, #0
  40095a:	e000      	b.n	40095e <udc_process_setup+0x392>
				return udc_req_std_dev_set_feature();
  40095c:	2300      	movs	r3, #0
		if (udc_reqstd()) {
  40095e:	2b00      	cmp	r3, #0
  400960:	f47f ae51 	bne.w	400606 <udc_process_setup+0x3a>
  400964:	e640      	b.n	4005e8 <udc_process_setup+0x1c>
	if (!udc_update_iface_desc(iface_num, 0)) {
  400966:	2100      	movs	r1, #0
  400968:	4620      	mov	r0, r4
  40096a:	4b2f      	ldr	r3, [pc, #188]	; (400a28 <udc_process_setup+0x45c>)
  40096c:	4798      	blx	r3
  40096e:	2800      	cmp	r0, #0
  400970:	f43f ae41 	beq.w	4005f6 <udc_process_setup+0x2a>
	udi_api = udc_ptr_conf->udi_apis[iface_num];
  400974:	686b      	ldr	r3, [r5, #4]
  400976:	f853 5024 	ldr.w	r5, [r3, r4, lsl #2]
	if (!udc_update_iface_desc(iface_num, udi_api->getsetting())) {
  40097a:	68eb      	ldr	r3, [r5, #12]
  40097c:	4798      	blx	r3
  40097e:	4601      	mov	r1, r0
  400980:	4620      	mov	r0, r4
  400982:	4b29      	ldr	r3, [pc, #164]	; (400a28 <udc_process_setup+0x45c>)
  400984:	4798      	blx	r3
  400986:	2800      	cmp	r0, #0
  400988:	f43f ae35 	beq.w	4005f6 <udc_process_setup+0x2a>
	return udi_api->setup();
  40098c:	68ab      	ldr	r3, [r5, #8]
  40098e:	4798      	blx	r3
		if (udc_req_iface()) {
  400990:	4603      	mov	r3, r0
  400992:	2800      	cmp	r0, #0
  400994:	f47f ae37 	bne.w	400606 <udc_process_setup+0x3a>
  400998:	e62d      	b.n	4005f6 <udc_process_setup+0x2a>
	if (0 == udc_num_configuration) {
  40099a:	4b1c      	ldr	r3, [pc, #112]	; (400a0c <udc_process_setup+0x440>)
  40099c:	781b      	ldrb	r3, [r3, #0]
  40099e:	b30b      	cbz	r3, 4009e4 <udc_process_setup+0x418>
	for (iface_num = 0; iface_num < udc_ptr_conf->desc->bNumInterfaces;
  4009a0:	4b1b      	ldr	r3, [pc, #108]	; (400a10 <udc_process_setup+0x444>)
  4009a2:	681a      	ldr	r2, [r3, #0]
  4009a4:	6813      	ldr	r3, [r2, #0]
  4009a6:	791b      	ldrb	r3, [r3, #4]
  4009a8:	b1f3      	cbz	r3, 4009e8 <udc_process_setup+0x41c>
  4009aa:	2400      	movs	r4, #0
		if (!udc_update_iface_desc(iface_num, udi_api->getsetting())) {
  4009ac:	4e1e      	ldr	r6, [pc, #120]	; (400a28 <udc_process_setup+0x45c>)
	for (iface_num = 0; iface_num < udc_ptr_conf->desc->bNumInterfaces;
  4009ae:	4f18      	ldr	r7, [pc, #96]	; (400a10 <udc_process_setup+0x444>)
		udi_api = udc_ptr_conf->udi_apis[iface_num];
  4009b0:	6853      	ldr	r3, [r2, #4]
  4009b2:	f853 5024 	ldr.w	r5, [r3, r4, lsl #2]
		if (!udc_update_iface_desc(iface_num, udi_api->getsetting())) {
  4009b6:	68eb      	ldr	r3, [r5, #12]
  4009b8:	4798      	blx	r3
  4009ba:	4601      	mov	r1, r0
  4009bc:	4620      	mov	r0, r4
  4009be:	47b0      	blx	r6
  4009c0:	4603      	mov	r3, r0
  4009c2:	2800      	cmp	r0, #0
  4009c4:	f43f ae1f 	beq.w	400606 <udc_process_setup+0x3a>
		if (udi_api->setup()) {
  4009c8:	68ab      	ldr	r3, [r5, #8]
  4009ca:	4798      	blx	r3
  4009cc:	4603      	mov	r3, r0
  4009ce:	2800      	cmp	r0, #0
  4009d0:	f47f ae19 	bne.w	400606 <udc_process_setup+0x3a>
			iface_num++) {
  4009d4:	3401      	adds	r4, #1
  4009d6:	b2e4      	uxtb	r4, r4
	for (iface_num = 0; iface_num < udc_ptr_conf->desc->bNumInterfaces;
  4009d8:	683a      	ldr	r2, [r7, #0]
  4009da:	6811      	ldr	r1, [r2, #0]
  4009dc:	7909      	ldrb	r1, [r1, #4]
  4009de:	42a1      	cmp	r1, r4
  4009e0:	d8e6      	bhi.n	4009b0 <udc_process_setup+0x3e4>
  4009e2:	e610      	b.n	400606 <udc_process_setup+0x3a>
		return false; // The device is not is configured state yet
  4009e4:	2300      	movs	r3, #0
  4009e6:	e60e      	b.n	400606 <udc_process_setup+0x3a>
	return false;
  4009e8:	2300      	movs	r3, #0
  4009ea:	e60c      	b.n	400606 <udc_process_setup+0x3a>
			return false; // Error from USB host
  4009ec:	2300      	movs	r3, #0
  4009ee:	e60a      	b.n	400606 <udc_process_setup+0x3a>
	return false;
  4009f0:	2300      	movs	r3, #0
  4009f2:	e608      	b.n	400606 <udc_process_setup+0x3a>
		str_length = USB_DEVICE_PRODUCT_NAME_SIZE;
  4009f4:	210d      	movs	r1, #13
		str = udc_string_product_name;
  4009f6:	4a0d      	ldr	r2, [pc, #52]	; (400a2c <udc_process_setup+0x460>)
  4009f8:	e67e      	b.n	4006f8 <udc_process_setup+0x12c>
  4009fa:	bf00      	nop
  4009fc:	20000ce0 	.word	0x20000ce0
  400a00:	00402341 	.word	0x00402341
  400a04:	2000003c 	.word	0x2000003c
  400a08:	00400545 	.word	0x00400545
  400a0c:	20000abc 	.word	0x20000abc
  400a10:	20000ac0 	.word	0x20000ac0
  400a14:	004004dd 	.word	0x004004dd
  400a18:	00400471 	.word	0x00400471
  400a1c:	004025e9 	.word	0x004025e9
  400a20:	0040283d 	.word	0x0040283d
  400a24:	00402509 	.word	0x00402509
  400a28:	004003fd 	.word	0x004003fd
  400a2c:	200000b4 	.word	0x200000b4

00400a30 <pio_set>:
 * \param p_pio Pointer to a PIO instance.
 * \param ul_mask Bitmask of one or more pin(s) to configure.
 */
void pio_set(Pio *p_pio, const uint32_t ul_mask)
{
	p_pio->PIO_SODR = ul_mask;
  400a30:	6301      	str	r1, [r0, #48]	; 0x30
  400a32:	4770      	bx	lr

00400a34 <pio_clear>:
 * \param p_pio Pointer to a PIO instance.
 * \param ul_mask Bitmask of one or more pin(s) to configure.
 */
void pio_clear(Pio *p_pio, const uint32_t ul_mask)
{
	p_pio->PIO_CODR = ul_mask;
  400a34:	6341      	str	r1, [r0, #52]	; 0x34
  400a36:	4770      	bx	lr

00400a38 <pio_set_input>:
 * \param p_pio Pointer to a PIO instance.
 * \param ul_mask Interrupt sources bit map.
 */
void pio_disable_interrupt(Pio *p_pio, const uint32_t ul_mask)
{
	p_pio->PIO_IDR = ul_mask;
  400a38:	6441      	str	r1, [r0, #68]	; 0x44
	if (ul_pull_up_enable) {
  400a3a:	f012 0f01 	tst.w	r2, #1
		p_pio->PIO_PUER = ul_mask;
  400a3e:	bf14      	ite	ne
  400a40:	6641      	strne	r1, [r0, #100]	; 0x64
		p_pio->PIO_PUDR = ul_mask;
  400a42:	6601      	streq	r1, [r0, #96]	; 0x60
	if (ul_attribute & (PIO_DEGLITCH | PIO_DEBOUNCE)) {
  400a44:	f012 0f0a 	tst.w	r2, #10
		p_pio->PIO_IFER = ul_mask;
  400a48:	bf14      	ite	ne
  400a4a:	6201      	strne	r1, [r0, #32]
		p_pio->PIO_IFDR = ul_mask;
  400a4c:	6241      	streq	r1, [r0, #36]	; 0x24
	if (ul_attribute & PIO_DEGLITCH) {
  400a4e:	f012 0f02 	tst.w	r2, #2
  400a52:	d107      	bne.n	400a64 <pio_set_input+0x2c>
		if (ul_attribute & PIO_DEBOUNCE) {
  400a54:	f012 0f08 	tst.w	r2, #8
			p_pio->PIO_IFSCER = ul_mask;
  400a58:	bf18      	it	ne
  400a5a:	f8c0 1084 	strne.w	r1, [r0, #132]	; 0x84
	p_pio->PIO_ODR = ul_mask;
  400a5e:	6141      	str	r1, [r0, #20]
	p_pio->PIO_PER = ul_mask;
  400a60:	6001      	str	r1, [r0, #0]
  400a62:	4770      	bx	lr
		p_pio->PIO_IFSCDR = ul_mask;
  400a64:	f8c0 1080 	str.w	r1, [r0, #128]	; 0x80
  400a68:	e7f9      	b.n	400a5e <pio_set_input+0x26>

00400a6a <pio_set_output>:
{
  400a6a:	b410      	push	{r4}
  400a6c:	9c01      	ldr	r4, [sp, #4]
	p_pio->PIO_IDR = ul_mask;
  400a6e:	6441      	str	r1, [r0, #68]	; 0x44
	if (ul_pull_up_enable) {
  400a70:	b944      	cbnz	r4, 400a84 <pio_set_output+0x1a>
		p_pio->PIO_PUDR = ul_mask;
  400a72:	6601      	str	r1, [r0, #96]	; 0x60
	if (ul_multidrive_enable) {
  400a74:	b143      	cbz	r3, 400a88 <pio_set_output+0x1e>
		p_pio->PIO_MDER = ul_mask;
  400a76:	6501      	str	r1, [r0, #80]	; 0x50
	if (ul_default_level) {
  400a78:	b942      	cbnz	r2, 400a8c <pio_set_output+0x22>
		p_pio->PIO_CODR = ul_mask;
  400a7a:	6341      	str	r1, [r0, #52]	; 0x34
	p_pio->PIO_OER = ul_mask;
  400a7c:	6101      	str	r1, [r0, #16]
	p_pio->PIO_PER = ul_mask;
  400a7e:	6001      	str	r1, [r0, #0]
}
  400a80:	bc10      	pop	{r4}
  400a82:	4770      	bx	lr
		p_pio->PIO_PUER = ul_mask;
  400a84:	6641      	str	r1, [r0, #100]	; 0x64
  400a86:	e7f5      	b.n	400a74 <pio_set_output+0xa>
		p_pio->PIO_MDDR = ul_mask;
  400a88:	6541      	str	r1, [r0, #84]	; 0x54
  400a8a:	e7f5      	b.n	400a78 <pio_set_output+0xe>
		p_pio->PIO_SODR = ul_mask;
  400a8c:	6301      	str	r1, [r0, #48]	; 0x30
  400a8e:	e7f5      	b.n	400a7c <pio_set_output+0x12>

00400a90 <pio_configure_interrupt>:
	if (ul_attr & PIO_IT_AIME) {
  400a90:	f012 0f10 	tst.w	r2, #16
  400a94:	d010      	beq.n	400ab8 <pio_configure_interrupt+0x28>
		p_pio->PIO_AIMER = ul_mask;
  400a96:	f8c0 10b0 	str.w	r1, [r0, #176]	; 0xb0
		if (ul_attr & PIO_IT_RE_OR_HL) {
  400a9a:	f012 0f20 	tst.w	r2, #32
			p_pio->PIO_REHLSR = ul_mask;
  400a9e:	bf14      	ite	ne
  400aa0:	f8c0 10d4 	strne.w	r1, [r0, #212]	; 0xd4
			p_pio->PIO_FELLSR = ul_mask;
  400aa4:	f8c0 10d0 	streq.w	r1, [r0, #208]	; 0xd0
		if (ul_attr & PIO_IT_EDGE) {
  400aa8:	f012 0f40 	tst.w	r2, #64	; 0x40
			p_pio->PIO_ESR = ul_mask;
  400aac:	bf14      	ite	ne
  400aae:	f8c0 10c0 	strne.w	r1, [r0, #192]	; 0xc0
			p_pio->PIO_LSR = ul_mask;
  400ab2:	f8c0 10c4 	streq.w	r1, [r0, #196]	; 0xc4
  400ab6:	4770      	bx	lr
		p_pio->PIO_AIMDR = ul_mask;
  400ab8:	f8c0 10b4 	str.w	r1, [r0, #180]	; 0xb4
  400abc:	4770      	bx	lr

00400abe <pio_enable_interrupt>:
	p_pio->PIO_IER = ul_mask;
  400abe:	6401      	str	r1, [r0, #64]	; 0x40
  400ac0:	4770      	bx	lr

00400ac2 <pio_disable_interrupt>:
	p_pio->PIO_IDR = ul_mask;
  400ac2:	6441      	str	r1, [r0, #68]	; 0x44
  400ac4:	4770      	bx	lr

00400ac6 <pio_get_interrupt_status>:
 *
 * \return The interrupt status value.
 */
uint32_t pio_get_interrupt_status(const Pio *p_pio)
{
	return p_pio->PIO_ISR;
  400ac6:	6cc0      	ldr	r0, [r0, #76]	; 0x4c
}
  400ac8:	4770      	bx	lr

00400aca <pio_get_interrupt_mask>:
 *
 * \return The interrupt mask value.
 */
uint32_t pio_get_interrupt_mask(const Pio *p_pio)
{
	return p_pio->PIO_IMR;
  400aca:	6c80      	ldr	r0, [r0, #72]	; 0x48
}
  400acc:	4770      	bx	lr
	...

00400ad0 <pio_handler_process>:
 *
 * \param p_pio PIO controller base address.
 * \param ul_id PIO controller ID.
 */
void pio_handler_process(Pio *p_pio, uint32_t ul_id)
{
  400ad0:	e92d 43f8 	stmdb	sp!, {r3, r4, r5, r6, r7, r8, r9, lr}
  400ad4:	4681      	mov	r9, r0
  400ad6:	460f      	mov	r7, r1
	uint32_t status;
	uint32_t i;

	/* Read PIO controller status */
	status = pio_get_interrupt_status(p_pio);
  400ad8:	4b12      	ldr	r3, [pc, #72]	; (400b24 <pio_handler_process+0x54>)
  400ada:	4798      	blx	r3
  400adc:	4605      	mov	r5, r0
	status &= pio_get_interrupt_mask(p_pio);
  400ade:	4648      	mov	r0, r9
  400ae0:	4b11      	ldr	r3, [pc, #68]	; (400b28 <pio_handler_process+0x58>)
  400ae2:	4798      	blx	r3

	/* Check pending events */
	if (status != 0) {
  400ae4:	4005      	ands	r5, r0
  400ae6:	d013      	beq.n	400b10 <pio_handler_process+0x40>
  400ae8:	4c10      	ldr	r4, [pc, #64]	; (400b2c <pio_handler_process+0x5c>)
  400aea:	f104 0660 	add.w	r6, r4, #96	; 0x60
  400aee:	e003      	b.n	400af8 <pio_handler_process+0x28>
							gs_interrupt_sources[i].mask);
					status &= ~(gs_interrupt_sources[i].mask);
				}
			}
			i++;
			if (i >= MAX_INTERRUPT_SOURCES) {
  400af0:	42b4      	cmp	r4, r6
  400af2:	d00d      	beq.n	400b10 <pio_handler_process+0x40>
  400af4:	3410      	adds	r4, #16
		while (status != 0) {
  400af6:	b15d      	cbz	r5, 400b10 <pio_handler_process+0x40>
			if (gs_interrupt_sources[i].id == ul_id) {
  400af8:	6820      	ldr	r0, [r4, #0]
  400afa:	42b8      	cmp	r0, r7
  400afc:	d1f8      	bne.n	400af0 <pio_handler_process+0x20>
				if ((status & gs_interrupt_sources[i].mask) != 0) {
  400afe:	6861      	ldr	r1, [r4, #4]
  400b00:	4229      	tst	r1, r5
  400b02:	d0f5      	beq.n	400af0 <pio_handler_process+0x20>
					gs_interrupt_sources[i].handler(gs_interrupt_sources[i].id,
  400b04:	68e3      	ldr	r3, [r4, #12]
  400b06:	4798      	blx	r3
					status &= ~(gs_interrupt_sources[i].mask);
  400b08:	6863      	ldr	r3, [r4, #4]
  400b0a:	ea25 0503 	bic.w	r5, r5, r3
  400b0e:	e7ef      	b.n	400af0 <pio_handler_process+0x20>
		}
	}

	/* Check capture events */
#if (SAM3S || SAM4S || SAM4E)
	if (pio_capture_enable_flag) {
  400b10:	4b07      	ldr	r3, [pc, #28]	; (400b30 <pio_handler_process+0x60>)
  400b12:	681b      	ldr	r3, [r3, #0]
  400b14:	b123      	cbz	r3, 400b20 <pio_handler_process+0x50>
		if (pio_capture_handler) {
  400b16:	4b07      	ldr	r3, [pc, #28]	; (400b34 <pio_handler_process+0x64>)
  400b18:	681b      	ldr	r3, [r3, #0]
  400b1a:	b10b      	cbz	r3, 400b20 <pio_handler_process+0x50>
			pio_capture_handler(p_pio);
  400b1c:	4648      	mov	r0, r9
  400b1e:	4798      	blx	r3
  400b20:	e8bd 83f8 	ldmia.w	sp!, {r3, r4, r5, r6, r7, r8, r9, pc}
  400b24:	00400ac7 	.word	0x00400ac7
  400b28:	00400acb 	.word	0x00400acb
  400b2c:	20000ac8 	.word	0x20000ac8
  400b30:	20000cdc 	.word	0x20000cdc
  400b34:	20000b3c 	.word	0x20000b3c

00400b38 <pio_handler_set>:
 *
 * \return 0 if successful, 1 if the maximum number of sources has been defined.
 */
uint32_t pio_handler_set(Pio *p_pio, uint32_t ul_id, uint32_t ul_mask,
		uint32_t ul_attr, void (*p_handler) (uint32_t, uint32_t))
{
  400b38:	b5f8      	push	{r3, r4, r5, r6, r7, lr}
    uint8_t i;
	struct s_interrupt_source *pSource;

	if (gs_ul_nb_sources >= MAX_INTERRUPT_SOURCES)
  400b3a:	4c18      	ldr	r4, [pc, #96]	; (400b9c <pio_handler_set+0x64>)
  400b3c:	6826      	ldr	r6, [r4, #0]
  400b3e:	2e06      	cmp	r6, #6
  400b40:	d829      	bhi.n	400b96 <pio_handler_set+0x5e>
  400b42:	f04f 0c00 	mov.w	ip, #0
  400b46:	4664      	mov	r4, ip
		return 1;

    /* Check interrupt for this pin, if already defined, redefine it. */
	for (i = 0; i <= gs_ul_nb_sources; i++) {
		pSource = &(gs_interrupt_sources[i]);
		if (pSource->id == ul_id && pSource->mask == ul_mask) {
  400b48:	4f15      	ldr	r7, [pc, #84]	; (400ba0 <pio_handler_set+0x68>)
  400b4a:	e004      	b.n	400b56 <pio_handler_set+0x1e>
	for (i = 0; i <= gs_ul_nb_sources; i++) {
  400b4c:	3401      	adds	r4, #1
  400b4e:	b2e4      	uxtb	r4, r4
  400b50:	46a4      	mov	ip, r4
  400b52:	42a6      	cmp	r6, r4
  400b54:	d309      	bcc.n	400b6a <pio_handler_set+0x32>
		pSource = &(gs_interrupt_sources[i]);
  400b56:	46a6      	mov	lr, r4
		if (pSource->id == ul_id && pSource->mask == ul_mask) {
  400b58:	0125      	lsls	r5, r4, #4
  400b5a:	597d      	ldr	r5, [r7, r5]
  400b5c:	428d      	cmp	r5, r1
  400b5e:	d1f5      	bne.n	400b4c <pio_handler_set+0x14>
  400b60:	eb07 1504 	add.w	r5, r7, r4, lsl #4
  400b64:	686d      	ldr	r5, [r5, #4]
  400b66:	4295      	cmp	r5, r2
  400b68:	d1f0      	bne.n	400b4c <pio_handler_set+0x14>
			break;
		}
	}

	/* Define new source */
	pSource->id = ul_id;
  400b6a:	4d0d      	ldr	r5, [pc, #52]	; (400ba0 <pio_handler_set+0x68>)
  400b6c:	ea4f 1e0e 	mov.w	lr, lr, lsl #4
  400b70:	eb05 040e 	add.w	r4, r5, lr
  400b74:	f845 100e 	str.w	r1, [r5, lr]
	pSource->mask = ul_mask;
  400b78:	6062      	str	r2, [r4, #4]
	pSource->attr = ul_attr;
  400b7a:	60a3      	str	r3, [r4, #8]
	pSource->handler = p_handler;
  400b7c:	9906      	ldr	r1, [sp, #24]
  400b7e:	60e1      	str	r1, [r4, #12]
	if (i == gs_ul_nb_sources + 1) {
  400b80:	3601      	adds	r6, #1
  400b82:	4566      	cmp	r6, ip
		gs_ul_nb_sources++;
  400b84:	bf04      	itt	eq
  400b86:	4905      	ldreq	r1, [pc, #20]	; (400b9c <pio_handler_set+0x64>)
  400b88:	600e      	streq	r6, [r1, #0]
  400b8a:	4611      	mov	r1, r2
	}

	/* Configure interrupt mode */
	pio_configure_interrupt(p_pio, ul_mask, ul_attr);
  400b8c:	461a      	mov	r2, r3
  400b8e:	4b05      	ldr	r3, [pc, #20]	; (400ba4 <pio_handler_set+0x6c>)
  400b90:	4798      	blx	r3

	return 0;
  400b92:	2000      	movs	r0, #0
  400b94:	bdf8      	pop	{r3, r4, r5, r6, r7, pc}
		return 1;
  400b96:	2001      	movs	r0, #1
}
  400b98:	bdf8      	pop	{r3, r4, r5, r6, r7, pc}
  400b9a:	bf00      	nop
  400b9c:	20000b38 	.word	0x20000b38
  400ba0:	20000ac8 	.word	0x20000ac8
  400ba4:	00400a91 	.word	0x00400a91

00400ba8 <PIOA_Handler>:
/**
 * \brief Parallel IO Controller A interrupt handler.
 * Redefined PIOA interrupt handler for NVIC interrupt table.
 */
void PIOA_Handler(void)
{
  400ba8:	b508      	push	{r3, lr}
	pio_handler_process(PIOA, ID_PIOA);
  400baa:	210b      	movs	r1, #11
  400bac:	4801      	ldr	r0, [pc, #4]	; (400bb4 <PIOA_Handler+0xc>)
  400bae:	4b02      	ldr	r3, [pc, #8]	; (400bb8 <PIOA_Handler+0x10>)
  400bb0:	4798      	blx	r3
  400bb2:	bd08      	pop	{r3, pc}
  400bb4:	400e0e00 	.word	0x400e0e00
  400bb8:	00400ad1 	.word	0x00400ad1

00400bbc <PIOB_Handler>:
/**
 * \brief Parallel IO Controller B interrupt handler
 * Redefined PIOB interrupt handler for NVIC interrupt table.
 */
void PIOB_Handler(void)
{
  400bbc:	b508      	push	{r3, lr}
    pio_handler_process(PIOB, ID_PIOB);
  400bbe:	210c      	movs	r1, #12
  400bc0:	4801      	ldr	r0, [pc, #4]	; (400bc8 <PIOB_Handler+0xc>)
  400bc2:	4b02      	ldr	r3, [pc, #8]	; (400bcc <PIOB_Handler+0x10>)
  400bc4:	4798      	blx	r3
  400bc6:	bd08      	pop	{r3, pc}
  400bc8:	400e1000 	.word	0x400e1000
  400bcc:	00400ad1 	.word	0x00400ad1

00400bd0 <pmc_switch_mck_to_pllack>:
 */
uint32_t pmc_switch_mck_to_pllack(uint32_t ul_pres)
{
	uint32_t ul_timeout;

	PMC->PMC_MCKR = (PMC->PMC_MCKR & (~PMC_MCKR_PRES_Msk)) | ul_pres;
  400bd0:	4a17      	ldr	r2, [pc, #92]	; (400c30 <pmc_switch_mck_to_pllack+0x60>)
  400bd2:	6b13      	ldr	r3, [r2, #48]	; 0x30
  400bd4:	f023 0370 	bic.w	r3, r3, #112	; 0x70
  400bd8:	4318      	orrs	r0, r3
  400bda:	6310      	str	r0, [r2, #48]	; 0x30
	for (ul_timeout = PMC_TIMEOUT; !(PMC->PMC_SR & PMC_SR_MCKRDY);
  400bdc:	6e93      	ldr	r3, [r2, #104]	; 0x68
  400bde:	f013 0f08 	tst.w	r3, #8
  400be2:	d10a      	bne.n	400bfa <pmc_switch_mck_to_pllack+0x2a>
  400be4:	f44f 6300 	mov.w	r3, #2048	; 0x800
  400be8:	4911      	ldr	r1, [pc, #68]	; (400c30 <pmc_switch_mck_to_pllack+0x60>)
  400bea:	6e8a      	ldr	r2, [r1, #104]	; 0x68
  400bec:	f012 0f08 	tst.w	r2, #8
  400bf0:	d103      	bne.n	400bfa <pmc_switch_mck_to_pllack+0x2a>
			--ul_timeout) {
		if (ul_timeout == 0) {
  400bf2:	3b01      	subs	r3, #1
  400bf4:	d1f9      	bne.n	400bea <pmc_switch_mck_to_pllack+0x1a>
			return 1;
  400bf6:	2001      	movs	r0, #1
  400bf8:	4770      	bx	lr
		}
	}

	PMC->PMC_MCKR = (PMC->PMC_MCKR & (~PMC_MCKR_CSS_Msk)) |
  400bfa:	4a0d      	ldr	r2, [pc, #52]	; (400c30 <pmc_switch_mck_to_pllack+0x60>)
  400bfc:	6b13      	ldr	r3, [r2, #48]	; 0x30
  400bfe:	f023 0303 	bic.w	r3, r3, #3
  400c02:	f043 0302 	orr.w	r3, r3, #2
  400c06:	6313      	str	r3, [r2, #48]	; 0x30
			PMC_MCKR_CSS_PLLA_CLK;

	for (ul_timeout = PMC_TIMEOUT; !(PMC->PMC_SR & PMC_SR_MCKRDY);
  400c08:	6e93      	ldr	r3, [r2, #104]	; 0x68
  400c0a:	f013 0f08 	tst.w	r3, #8
  400c0e:	d10a      	bne.n	400c26 <pmc_switch_mck_to_pllack+0x56>
  400c10:	f44f 6300 	mov.w	r3, #2048	; 0x800
  400c14:	4906      	ldr	r1, [pc, #24]	; (400c30 <pmc_switch_mck_to_pllack+0x60>)
  400c16:	6e8a      	ldr	r2, [r1, #104]	; 0x68
  400c18:	f012 0f08 	tst.w	r2, #8
  400c1c:	d105      	bne.n	400c2a <pmc_switch_mck_to_pllack+0x5a>
			--ul_timeout) {
		if (ul_timeout == 0) {
  400c1e:	3b01      	subs	r3, #1
  400c20:	d1f9      	bne.n	400c16 <pmc_switch_mck_to_pllack+0x46>
			return 1;
  400c22:	2001      	movs	r0, #1
		}
	}

	return 0;
}
  400c24:	4770      	bx	lr
	return 0;
  400c26:	2000      	movs	r0, #0
  400c28:	4770      	bx	lr
  400c2a:	2000      	movs	r0, #0
  400c2c:	4770      	bx	lr
  400c2e:	bf00      	nop
  400c30:	400e0400 	.word	0x400e0400

00400c34 <pmc_switch_mainck_to_xtal>:
 */
void pmc_switch_mainck_to_xtal(uint32_t ul_bypass,
		uint32_t ul_xtal_startup_time)
{
	/* Enable Main Xtal oscillator */
	if (ul_bypass) {
  400c34:	b9c8      	cbnz	r0, 400c6a <pmc_switch_mainck_to_xtal+0x36>
		PMC->CKGR_MOR = (PMC->CKGR_MOR & ~CKGR_MOR_MOSCXTEN) |
				CKGR_MOR_KEY_PASSWD | CKGR_MOR_MOSCXTBY |
				CKGR_MOR_MOSCSEL;
	} else {
		PMC->CKGR_MOR = (PMC->CKGR_MOR & ~CKGR_MOR_MOSCXTBY) |
  400c36:	4a11      	ldr	r2, [pc, #68]	; (400c7c <pmc_switch_mainck_to_xtal+0x48>)
  400c38:	6a13      	ldr	r3, [r2, #32]
				CKGR_MOR_KEY_PASSWD | CKGR_MOR_MOSCXTEN |
				CKGR_MOR_MOSCXTST(ul_xtal_startup_time);
  400c3a:	0209      	lsls	r1, r1, #8
  400c3c:	b289      	uxth	r1, r1
				CKGR_MOR_KEY_PASSWD | CKGR_MOR_MOSCXTEN |
  400c3e:	f423 135c 	bic.w	r3, r3, #3604480	; 0x370000
  400c42:	f023 0303 	bic.w	r3, r3, #3
  400c46:	f443 135c 	orr.w	r3, r3, #3604480	; 0x370000
  400c4a:	f043 0301 	orr.w	r3, r3, #1
  400c4e:	430b      	orrs	r3, r1
		PMC->CKGR_MOR = (PMC->CKGR_MOR & ~CKGR_MOR_MOSCXTBY) |
  400c50:	6213      	str	r3, [r2, #32]
		/* Wait the Xtal to stabilize */
		while (!(PMC->PMC_SR & PMC_SR_MOSCXTS));
  400c52:	6e93      	ldr	r3, [r2, #104]	; 0x68
  400c54:	f013 0f01 	tst.w	r3, #1
  400c58:	d0fb      	beq.n	400c52 <pmc_switch_mainck_to_xtal+0x1e>

		PMC->CKGR_MOR |= CKGR_MOR_KEY_PASSWD | CKGR_MOR_MOSCSEL;
  400c5a:	4a08      	ldr	r2, [pc, #32]	; (400c7c <pmc_switch_mainck_to_xtal+0x48>)
  400c5c:	6a13      	ldr	r3, [r2, #32]
  400c5e:	f043 739b 	orr.w	r3, r3, #20316160	; 0x1360000
  400c62:	f443 3380 	orr.w	r3, r3, #65536	; 0x10000
  400c66:	6213      	str	r3, [r2, #32]
  400c68:	4770      	bx	lr
		PMC->CKGR_MOR = (PMC->CKGR_MOR & ~CKGR_MOR_MOSCXTEN) |
  400c6a:	4904      	ldr	r1, [pc, #16]	; (400c7c <pmc_switch_mainck_to_xtal+0x48>)
  400c6c:	6a0b      	ldr	r3, [r1, #32]
				CKGR_MOR_KEY_PASSWD | CKGR_MOR_MOSCXTBY |
  400c6e:	4a04      	ldr	r2, [pc, #16]	; (400c80 <pmc_switch_mainck_to_xtal+0x4c>)
  400c70:	401a      	ands	r2, r3
  400c72:	4b04      	ldr	r3, [pc, #16]	; (400c84 <pmc_switch_mainck_to_xtal+0x50>)
  400c74:	4313      	orrs	r3, r2
		PMC->CKGR_MOR = (PMC->CKGR_MOR & ~CKGR_MOR_MOSCXTEN) |
  400c76:	620b      	str	r3, [r1, #32]
  400c78:	4770      	bx	lr
  400c7a:	bf00      	nop
  400c7c:	400e0400 	.word	0x400e0400
  400c80:	fec8fffc 	.word	0xfec8fffc
  400c84:	01370002 	.word	0x01370002

00400c88 <pmc_osc_is_ready_mainck>:
 * \retval 1 Xtal is ready.
 * \retval 0 Xtal is not ready.
 */
uint32_t pmc_osc_is_ready_mainck(void)
{
	return PMC->PMC_SR & PMC_SR_MOSCSELS;
  400c88:	4b02      	ldr	r3, [pc, #8]	; (400c94 <pmc_osc_is_ready_mainck+0xc>)
  400c8a:	6e98      	ldr	r0, [r3, #104]	; 0x68
}
  400c8c:	f400 3080 	and.w	r0, r0, #65536	; 0x10000
  400c90:	4770      	bx	lr
  400c92:	bf00      	nop
  400c94:	400e0400 	.word	0x400e0400

00400c98 <pmc_disable_pllack>:
void pmc_disable_pllack(void)
{
#if (SAM4C || SAM4CM || SAM4CP || SAMG)
	PMC->CKGR_PLLAR = CKGR_PLLAR_MULA(0);
#else
	PMC->CKGR_PLLAR = CKGR_PLLAR_ONE | CKGR_PLLAR_MULA(0);
  400c98:	f04f 5200 	mov.w	r2, #536870912	; 0x20000000
  400c9c:	4b01      	ldr	r3, [pc, #4]	; (400ca4 <pmc_disable_pllack+0xc>)
  400c9e:	629a      	str	r2, [r3, #40]	; 0x28
  400ca0:	4770      	bx	lr
  400ca2:	bf00      	nop
  400ca4:	400e0400 	.word	0x400e0400

00400ca8 <pmc_is_locked_pllack>:
 * \retval 0 Not locked.
 * \retval 1 Locked.
 */
uint32_t pmc_is_locked_pllack(void)
{
	return (PMC->PMC_SR & PMC_SR_LOCKA);
  400ca8:	4b02      	ldr	r3, [pc, #8]	; (400cb4 <pmc_is_locked_pllack+0xc>)
  400caa:	6e98      	ldr	r0, [r3, #104]	; 0x68
}
  400cac:	f000 0002 	and.w	r0, r0, #2
  400cb0:	4770      	bx	lr
  400cb2:	bf00      	nop
  400cb4:	400e0400 	.word	0x400e0400

00400cb8 <pmc_disable_pllbck>:
/**
 * \brief Disable PLLB clock.
 */
void pmc_disable_pllbck(void)
{
	PMC->CKGR_PLLBR = CKGR_PLLBR_MULB(0);
  400cb8:	2200      	movs	r2, #0
  400cba:	4b01      	ldr	r3, [pc, #4]	; (400cc0 <pmc_disable_pllbck+0x8>)
  400cbc:	62da      	str	r2, [r3, #44]	; 0x2c
  400cbe:	4770      	bx	lr
  400cc0:	400e0400 	.word	0x400e0400

00400cc4 <pmc_is_locked_pllbck>:
 * \retval 0 Not locked.
 * \retval 1 Locked.
 */
uint32_t pmc_is_locked_pllbck(void)
{
	return (PMC->PMC_SR & PMC_SR_LOCKB);
  400cc4:	4b02      	ldr	r3, [pc, #8]	; (400cd0 <pmc_is_locked_pllbck+0xc>)
  400cc6:	6e98      	ldr	r0, [r3, #104]	; 0x68
}
  400cc8:	f000 0004 	and.w	r0, r0, #4
  400ccc:	4770      	bx	lr
  400cce:	bf00      	nop
  400cd0:	400e0400 	.word	0x400e0400

00400cd4 <pmc_enable_periph_clk>:
	PMC->PMC_PCR = ul_id & 0x7F;
	pcr = PMC->PMC_PCR | PMC_PCR_EN | PMC_PCR_CMD;
	PMC->PMC_PCR = pcr;
	return 0;
#else
	if (ul_id > MAX_PERIPH_ID) {
  400cd4:	2822      	cmp	r0, #34	; 0x22
  400cd6:	d81e      	bhi.n	400d16 <pmc_enable_periph_clk+0x42>
		return 1;
	}

	if (ul_id < 32) {
  400cd8:	281f      	cmp	r0, #31
  400cda:	d80c      	bhi.n	400cf6 <pmc_enable_periph_clk+0x22>
		if ((PMC->PMC_PCSR0 & (1u << ul_id)) != (1u << ul_id)) {
  400cdc:	4b11      	ldr	r3, [pc, #68]	; (400d24 <pmc_enable_periph_clk+0x50>)
  400cde:	699a      	ldr	r2, [r3, #24]
  400ce0:	2301      	movs	r3, #1
  400ce2:	4083      	lsls	r3, r0
  400ce4:	4393      	bics	r3, r2
  400ce6:	d018      	beq.n	400d1a <pmc_enable_periph_clk+0x46>
			PMC->PMC_PCER0 = 1 << ul_id;
  400ce8:	2301      	movs	r3, #1
  400cea:	fa03 f000 	lsl.w	r0, r3, r0
  400cee:	4b0d      	ldr	r3, [pc, #52]	; (400d24 <pmc_enable_periph_clk+0x50>)
  400cf0:	6118      	str	r0, [r3, #16]
			PMC->PMC_PCER1 = 1 << ul_id;
		}
#endif
	}

	return 0;
  400cf2:	2000      	movs	r0, #0
  400cf4:	4770      	bx	lr
		ul_id -= 32;
  400cf6:	3820      	subs	r0, #32
		if ((PMC->PMC_PCSR1 & (1u << ul_id)) != (1u << ul_id)) {
  400cf8:	4b0a      	ldr	r3, [pc, #40]	; (400d24 <pmc_enable_periph_clk+0x50>)
  400cfa:	f8d3 2108 	ldr.w	r2, [r3, #264]	; 0x108
  400cfe:	2301      	movs	r3, #1
  400d00:	4083      	lsls	r3, r0
  400d02:	4393      	bics	r3, r2
  400d04:	d00b      	beq.n	400d1e <pmc_enable_periph_clk+0x4a>
			PMC->PMC_PCER1 = 1 << ul_id;
  400d06:	2301      	movs	r3, #1
  400d08:	fa03 f000 	lsl.w	r0, r3, r0
  400d0c:	4b05      	ldr	r3, [pc, #20]	; (400d24 <pmc_enable_periph_clk+0x50>)
  400d0e:	f8c3 0100 	str.w	r0, [r3, #256]	; 0x100
	return 0;
  400d12:	2000      	movs	r0, #0
  400d14:	4770      	bx	lr
		return 1;
  400d16:	2001      	movs	r0, #1
  400d18:	4770      	bx	lr
	return 0;
  400d1a:	2000      	movs	r0, #0
  400d1c:	4770      	bx	lr
  400d1e:	2000      	movs	r0, #0
#endif /* defined(REG_PMC_PCR) && !SAMG55 */
}
  400d20:	4770      	bx	lr
  400d22:	bf00      	nop
  400d24:	400e0400 	.word	0x400e0400

00400d28 <pmc_disable_periph_clk>:
	PMC->PMC_PCR = ul_id & 0x7F;
	pcr = PMC->PMC_PCR | PMC_PCR_CMD;
	PMC->PMC_PCR = pcr;
	return 0;
#else
	if (ul_id > MAX_PERIPH_ID) {
  400d28:	2822      	cmp	r0, #34	; 0x22
  400d2a:	d822      	bhi.n	400d72 <pmc_disable_periph_clk+0x4a>
		return 1;
	}

	if (ul_id < 32) {
  400d2c:	281f      	cmp	r0, #31
  400d2e:	d80e      	bhi.n	400d4e <pmc_disable_periph_clk+0x26>
		if ((PMC->PMC_PCSR0 & (1u << ul_id)) == (1u << ul_id)) {
  400d30:	4b11      	ldr	r3, [pc, #68]	; (400d78 <pmc_disable_periph_clk+0x50>)
  400d32:	699a      	ldr	r2, [r3, #24]
  400d34:	2301      	movs	r3, #1
  400d36:	4083      	lsls	r3, r0
  400d38:	4393      	bics	r3, r2
  400d3a:	d001      	beq.n	400d40 <pmc_disable_periph_clk+0x18>
		if ((PMC->PMC_PCSR1 & (1u << ul_id)) == (1u << ul_id)) {
			PMC->PMC_PCDR1 = 1 << ul_id;
		}
#endif
	}
	return 0;
  400d3c:	2000      	movs	r0, #0
  400d3e:	4770      	bx	lr
			PMC->PMC_PCDR0 = 1 << ul_id;
  400d40:	2301      	movs	r3, #1
  400d42:	fa03 f000 	lsl.w	r0, r3, r0
  400d46:	4b0c      	ldr	r3, [pc, #48]	; (400d78 <pmc_disable_periph_clk+0x50>)
  400d48:	6158      	str	r0, [r3, #20]
	return 0;
  400d4a:	2000      	movs	r0, #0
  400d4c:	4770      	bx	lr
		ul_id -= 32;
  400d4e:	3820      	subs	r0, #32
		if ((PMC->PMC_PCSR1 & (1u << ul_id)) == (1u << ul_id)) {
  400d50:	4b09      	ldr	r3, [pc, #36]	; (400d78 <pmc_disable_periph_clk+0x50>)
  400d52:	f8d3 2108 	ldr.w	r2, [r3, #264]	; 0x108
  400d56:	2301      	movs	r3, #1
  400d58:	4083      	lsls	r3, r0
  400d5a:	4393      	bics	r3, r2
  400d5c:	d001      	beq.n	400d62 <pmc_disable_periph_clk+0x3a>
	return 0;
  400d5e:	2000      	movs	r0, #0
#endif /* defined(REG_PMC_PCR) && !SAMG55 */
}
  400d60:	4770      	bx	lr
			PMC->PMC_PCDR1 = 1 << ul_id;
  400d62:	2301      	movs	r3, #1
  400d64:	fa03 f000 	lsl.w	r0, r3, r0
  400d68:	4b03      	ldr	r3, [pc, #12]	; (400d78 <pmc_disable_periph_clk+0x50>)
  400d6a:	f8c3 0104 	str.w	r0, [r3, #260]	; 0x104
	return 0;
  400d6e:	2000      	movs	r0, #0
  400d70:	4770      	bx	lr
		return 1;
  400d72:	2001      	movs	r0, #1
  400d74:	4770      	bx	lr
  400d76:	bf00      	nop
  400d78:	400e0400 	.word	0x400e0400

00400d7c <pmc_switch_udpck_to_pllbck>:
 *
 * \param ul_usbdiv Clock divisor.
 */
void pmc_switch_udpck_to_pllbck(uint32_t ul_usbdiv)
{
	PMC->PMC_USB = PMC_USB_USBDIV(ul_usbdiv) | PMC_USB_USBS;
  400d7c:	0200      	lsls	r0, r0, #8
  400d7e:	f400 6070 	and.w	r0, r0, #3840	; 0xf00
  400d82:	f040 0001 	orr.w	r0, r0, #1
  400d86:	4b01      	ldr	r3, [pc, #4]	; (400d8c <pmc_switch_udpck_to_pllbck+0x10>)
  400d88:	6398      	str	r0, [r3, #56]	; 0x38
  400d8a:	4770      	bx	lr
  400d8c:	400e0400 	.word	0x400e0400

00400d90 <pmc_enable_udpck>:
 * \brief Enable UDP (USB) clock.
 */
void pmc_enable_udpck(void)
{
#if (SAM3S || SAM4S || SAM4E || SAMG55)
	PMC->PMC_SCER = PMC_SCER_UDP;
  400d90:	2280      	movs	r2, #128	; 0x80
  400d92:	4b01      	ldr	r3, [pc, #4]	; (400d98 <pmc_enable_udpck+0x8>)
  400d94:	601a      	str	r2, [r3, #0]
  400d96:	4770      	bx	lr
  400d98:	400e0400 	.word	0x400e0400

00400d9c <pmc_set_fast_startup_input>:
 * \param ul_inputs Wake up inputs to enable.
 */
void pmc_set_fast_startup_input(uint32_t ul_inputs)
{
	ul_inputs &= PMC_FAST_STARTUP_Msk;
	PMC->PMC_FSMR |= ul_inputs;
  400d9c:	4b03      	ldr	r3, [pc, #12]	; (400dac <pmc_set_fast_startup_input+0x10>)
  400d9e:	6f1a      	ldr	r2, [r3, #112]	; 0x70
	ul_inputs &= PMC_FAST_STARTUP_Msk;
  400da0:	f3c0 0012 	ubfx	r0, r0, #0, #19
	PMC->PMC_FSMR |= ul_inputs;
  400da4:	4310      	orrs	r0, r2
  400da6:	6718      	str	r0, [r3, #112]	; 0x70
  400da8:	4770      	bx	lr
  400daa:	bf00      	nop
  400dac:	400e0400 	.word	0x400e0400

00400db0 <pmc_set_flash_in_wait_mode>:
 * \param ul_flash_state PMC_WAIT_MODE_FLASH_STANDBY flash in standby mode,
 * PMC_WAIT_MODE_FLASH_DEEP_POWERDOWN flash in deep power down mode.
 */
void pmc_set_flash_in_wait_mode(uint32_t ul_flash_state)
{
	ul_flash_in_wait_mode = ul_flash_state;
  400db0:	4b01      	ldr	r3, [pc, #4]	; (400db8 <pmc_set_flash_in_wait_mode+0x8>)
  400db2:	6018      	str	r0, [r3, #0]
  400db4:	4770      	bx	lr
  400db6:	bf00      	nop
  400db8:	200000c4 	.word	0x200000c4

00400dbc <pmc_enable_waitmode>:
void pmc_enable_waitmode(void)
{
	uint32_t i;

	/* Flash in wait mode */
	i = PMC->PMC_FSMR;
  400dbc:	4a11      	ldr	r2, [pc, #68]	; (400e04 <pmc_enable_waitmode+0x48>)
  400dbe:	6f13      	ldr	r3, [r2, #112]	; 0x70
	i &= ~PMC_FSMR_FLPM_Msk;
  400dc0:	f423 03c0 	bic.w	r3, r3, #6291456	; 0x600000
#if !(SAMV71 || SAMV70 || SAME70 || SAMS70)
	i |= ul_flash_in_wait_mode;
  400dc4:	4910      	ldr	r1, [pc, #64]	; (400e08 <pmc_enable_waitmode+0x4c>)
  400dc6:	6809      	ldr	r1, [r1, #0]
  400dc8:	430b      	orrs	r3, r1
#else
	(void)ul_flash_in_wait_mode;
	i |= PMC_WAIT_MODE_FLASH_IDLE;
#endif
	PMC->PMC_FSMR = i;
  400dca:	6713      	str	r3, [r2, #112]	; 0x70

	/* Set the WAITMODE bit = 1 */
	PMC->CKGR_MOR |= CKGR_MOR_KEY_PASSWD | CKGR_MOR_WAITMODE;
  400dcc:	6a13      	ldr	r3, [r2, #32]
  400dce:	f443 135c 	orr.w	r3, r3, #3604480	; 0x370000
  400dd2:	f043 0304 	orr.w	r3, r3, #4
  400dd6:	6213      	str	r3, [r2, #32]

	/* Waiting for Master Clock Ready MCKRDY = 1 */
	while (!(PMC->PMC_SR & PMC_SR_MCKRDY));
  400dd8:	6e93      	ldr	r3, [r2, #104]	; 0x68
  400dda:	f013 0f08 	tst.w	r3, #8
  400dde:	d0fb      	beq.n	400dd8 <pmc_enable_waitmode+0x1c>
  400de0:	f44f 73fa 	mov.w	r3, #500	; 0x1f4

    No Operation does nothing. This instruction can be used for code alignment purposes.
 */
__attribute__( ( always_inline ) ) __STATIC_INLINE void __NOP(void)
{
  __ASM volatile ("nop");
  400de4:	bf00      	nop

	/* Waiting for MOSCRCEN bit cleared is strongly recommended
	 * to ensure that the core will not execute undesired instructions
	 */
	for (i = 0; i < 500; i++) {
  400de6:	3b01      	subs	r3, #1
  400de8:	d1fc      	bne.n	400de4 <pmc_enable_waitmode+0x28>
		__NOP();
	}
	while (!(PMC->CKGR_MOR & CKGR_MOR_MOSCRCEN));
  400dea:	4a06      	ldr	r2, [pc, #24]	; (400e04 <pmc_enable_waitmode+0x48>)
  400dec:	6a13      	ldr	r3, [r2, #32]
  400dee:	f013 0f08 	tst.w	r3, #8
  400df2:	d0fb      	beq.n	400dec <pmc_enable_waitmode+0x30>

#if (!SAMG)
	/* Restore Flash in idle mode */
	i = PMC->PMC_FSMR;
  400df4:	4a03      	ldr	r2, [pc, #12]	; (400e04 <pmc_enable_waitmode+0x48>)
  400df6:	6f13      	ldr	r3, [r2, #112]	; 0x70
	i &= ~PMC_FSMR_FLPM_Msk;
  400df8:	f423 03c0 	bic.w	r3, r3, #6291456	; 0x600000
	i |= PMC_WAIT_MODE_FLASH_IDLE;
  400dfc:	f443 0380 	orr.w	r3, r3, #4194304	; 0x400000
	PMC->PMC_FSMR = i;
  400e00:	6713      	str	r3, [r2, #112]	; 0x70
  400e02:	4770      	bx	lr
  400e04:	400e0400 	.word	0x400e0400
  400e08:	200000c4 	.word	0x200000c4

00400e0c <pmc_sleep>:
/** Callback invoked once when clocks are restored */
static pmc_callback_wakeup_clocks_restored_t callback_clocks_restored = NULL;

void pmc_sleep(int sleep_mode)
{
	switch (sleep_mode) {
  400e0c:	1e43      	subs	r3, r0, #1
  400e0e:	2b04      	cmp	r3, #4
  400e10:	f200 812d 	bhi.w	40106e <pmc_sleep+0x262>
  400e14:	e8df f013 	tbh	[pc, r3, lsl #1]
  400e18:	00050005 	.word	0x00050005
  400e1c:	00140014 	.word	0x00140014
  400e20:	011b      	.short	0x011b
	case SAM_PM_SMODE_SLEEP_WFI:
	case SAM_PM_SMODE_SLEEP_WFE:
#if (SAM4S || SAM4E || SAM4N || SAM4C || SAM4CM || SAM4CP || SAMG || SAMV71 || SAMV70 || SAMS70 || SAME70)
		SCB->SCR &= (uint32_t)~SCR_SLEEPDEEP;
  400e22:	4a93      	ldr	r2, [pc, #588]	; (401070 <pmc_sleep+0x264>)
  400e24:	6913      	ldr	r3, [r2, #16]
  400e26:	f023 0304 	bic.w	r3, r3, #4
  400e2a:	6113      	str	r3, [r2, #16]
		cpu_irq_enable();
  400e2c:	2201      	movs	r2, #1
  400e2e:	4b91      	ldr	r3, [pc, #580]	; (401074 <pmc_sleep+0x268>)
  400e30:	701a      	strb	r2, [r3, #0]
    This function ensures the apparent order of the explicit memory operations before
    and after the instruction, without ensuring their completion.
 */
__attribute__( ( always_inline ) ) __STATIC_INLINE void __DMB(void)
{
  __ASM volatile ("dmb");
  400e32:	f3bf 8f5f 	dmb	sy
  This function enables IRQ interrupts by clearing the I-bit in the CPSR.
  Can only be executed in Privileged modes.
 */
__attribute__( ( always_inline ) ) __STATIC_INLINE void __enable_irq(void)
{
  __ASM volatile ("cpsie i" : : : "memory");
  400e36:	b662      	cpsie	i
  __ASM volatile ("dsb");
  400e38:	f3bf 8f4f 	dsb	sy
  __ASM volatile ("wfi");
  400e3c:	bf30      	wfi
  400e3e:	4770      	bx	lr
{
  400e40:	e92d 47f0 	stmdb	sp!, {r4, r5, r6, r7, r8, r9, sl, lr}
  400e44:	4604      	mov	r4, r0
#if defined(EFC1)
		uint32_t fmr1;
#endif
#if (SAM4S || SAM4E || SAM4N || SAM4C || SAM4CM || SAM4CP || SAMG || SAMV71 || SAMV70 || SAMS70 || SAME70)
		(sleep_mode == SAM_PM_SMODE_WAIT_FAST) ?
				pmc_set_flash_in_wait_mode(PMC_FSMR_FLPM_FLASH_STANDBY) :
  400e46:	2803      	cmp	r0, #3
  400e48:	bf0c      	ite	eq
  400e4a:	2000      	moveq	r0, #0
				pmc_set_flash_in_wait_mode(PMC_FSMR_FLPM_FLASH_DEEP_POWERDOWN);
  400e4c:	f44f 1000 	movne.w	r0, #2097152	; 0x200000
  400e50:	4b89      	ldr	r3, [pc, #548]	; (401078 <pmc_sleep+0x26c>)
  400e52:	4798      	blx	r3
  This function disables IRQ interrupts by setting the I-bit in the CPSR.
  Can only be executed in Privileged modes.
 */
__attribute__( ( always_inline ) ) __STATIC_INLINE void __disable_irq(void)
{
  __ASM volatile ("cpsid i" : : : "memory");
  400e54:	b672      	cpsid	i
  __ASM volatile ("dmb");
  400e56:	f3bf 8f5f 	dmb	sy
#endif
		cpu_irq_disable();
  400e5a:	2200      	movs	r2, #0
  400e5c:	4b85      	ldr	r3, [pc, #532]	; (401074 <pmc_sleep+0x268>)
  400e5e:	701a      	strb	r2, [r3, #0]
		b_is_sleep_clock_used = true;
  400e60:	2201      	movs	r2, #1
  400e62:	4b86      	ldr	r3, [pc, #536]	; (40107c <pmc_sleep+0x270>)
  400e64:	701a      	strb	r2, [r3, #0]
	uint32_t mor  = PMC->CKGR_MOR;
  400e66:	4b86      	ldr	r3, [pc, #536]	; (401080 <pmc_sleep+0x274>)
  400e68:	f8d3 8020 	ldr.w	r8, [r3, #32]
	uint32_t mckr = PMC->PMC_MCKR;
  400e6c:	6b1d      	ldr	r5, [r3, #48]	; 0x30
	uint32_t fmr  = EFC0->EEFC_FMR;
  400e6e:	4a85      	ldr	r2, [pc, #532]	; (401084 <pmc_sleep+0x278>)
  400e70:	f8d2 9000 	ldr.w	r9, [r2]
		*p_pll0_setting = PMC->CKGR_PLLAR;
  400e74:	6a9f      	ldr	r7, [r3, #40]	; 0x28
		*p_pll1_setting = PMC->CKGR_PLLBR;
  400e76:	f8d3 a02c 	ldr.w	sl, [r3, #44]	; 0x2c
	PMC->CKGR_MOR = CKGR_MOR_KEY_PASSWD | mor | CKGR_MOR_MOSCRCEN;
  400e7a:	f448 125c 	orr.w	r2, r8, #3604480	; 0x370000
  400e7e:	f042 0208 	orr.w	r2, r2, #8
  400e82:	621a      	str	r2, [r3, #32]
	if ((mckr & PMC_MCKR_CSS_Msk) > PMC_MCKR_CSS_MAIN_CLK) {
  400e84:	f005 0603 	and.w	r6, r5, #3
  400e88:	2e01      	cmp	r6, #1
  400e8a:	f240 8094 	bls.w	400fb6 <pmc_sleep+0x1aa>
		mckr = (mckr & (~PMC_MCKR_CSS_Msk)) | PMC_MCKR_CSS_MAIN_CLK;
  400e8e:	f025 0103 	bic.w	r1, r5, #3
  400e92:	f041 0101 	orr.w	r1, r1, #1
		PMC->PMC_MCKR = mckr;
  400e96:	6319      	str	r1, [r3, #48]	; 0x30
		while(!(PMC->PMC_SR & PMC_SR_MCKRDY));
  400e98:	461a      	mov	r2, r3
  400e9a:	6e93      	ldr	r3, [r2, #104]	; 0x68
  400e9c:	f013 0f08 	tst.w	r3, #8
  400ea0:	d0fb      	beq.n	400e9a <pmc_sleep+0x8e>
	if (mckr & PMC_MCKR_PRES_Msk) {
  400ea2:	f011 0f70 	tst.w	r1, #112	; 0x70
  400ea6:	d008      	beq.n	400eba <pmc_sleep+0xae>
		mckr = (mckr & (~PMC_MCKR_PRES_Msk));
  400ea8:	f021 0170 	bic.w	r1, r1, #112	; 0x70
		PMC->PMC_MCKR = mckr;
  400eac:	4b74      	ldr	r3, [pc, #464]	; (401080 <pmc_sleep+0x274>)
  400eae:	6319      	str	r1, [r3, #48]	; 0x30
		while(!(PMC->PMC_SR & PMC_SR_MCKRDY));
  400eb0:	461a      	mov	r2, r3
  400eb2:	6e93      	ldr	r3, [r2, #104]	; 0x68
  400eb4:	f013 0f08 	tst.w	r3, #8
  400eb8:	d0fb      	beq.n	400eb2 <pmc_sleep+0xa6>
	pmc_disable_pllack();
  400eba:	4b73      	ldr	r3, [pc, #460]	; (401088 <pmc_sleep+0x27c>)
  400ebc:	4798      	blx	r3
	pmc_disable_pllbck();
  400ebe:	4b73      	ldr	r3, [pc, #460]	; (40108c <pmc_sleep+0x280>)
  400ec0:	4798      	blx	r3
	while (!(PMC->PMC_SR & PMC_SR_MOSCRCS));
  400ec2:	4a6f      	ldr	r2, [pc, #444]	; (401080 <pmc_sleep+0x274>)
  400ec4:	6e93      	ldr	r3, [r2, #104]	; 0x68
  400ec6:	f413 3f00 	tst.w	r3, #131072	; 0x20000
  400eca:	d0fb      	beq.n	400ec4 <pmc_sleep+0xb8>
	PMC->CKGR_MOR = (PMC->CKGR_MOR & ~CKGR_MOR_MOSCSEL) |
  400ecc:	4a6c      	ldr	r2, [pc, #432]	; (401080 <pmc_sleep+0x274>)
  400ece:	6a13      	ldr	r3, [r2, #32]
  400ed0:	f023 739b 	bic.w	r3, r3, #20316160	; 0x1360000
  400ed4:	f423 3380 	bic.w	r3, r3, #65536	; 0x10000
  400ed8:	f443 135c 	orr.w	r3, r3, #3604480	; 0x370000
  400edc:	6213      	str	r3, [r2, #32]
	while (!(PMC->PMC_SR & PMC_SR_MOSCSELS));
  400ede:	6e93      	ldr	r3, [r2, #104]	; 0x68
  400ee0:	f413 3f80 	tst.w	r3, #65536	; 0x10000
  400ee4:	d0fb      	beq.n	400ede <pmc_sleep+0xd2>
	EFC0->EEFC_FMR = fmr & (~EEFC_FMR_FWS_Msk);
  400ee6:	f429 6370 	bic.w	r3, r9, #3840	; 0xf00
  400eea:	4a66      	ldr	r2, [pc, #408]	; (401084 <pmc_sleep+0x278>)
  400eec:	6013      	str	r3, [r2, #0]
	if (disable_xtal) {
  400eee:	2c04      	cmp	r4, #4
  400ef0:	d063      	beq.n	400fba <pmc_sleep+0x1ae>
				&fmr1,
#endif
				(sleep_mode == SAM_PM_SMODE_WAIT));

		/* Enter wait mode */
		cpu_irq_enable();
  400ef2:	4c60      	ldr	r4, [pc, #384]	; (401074 <pmc_sleep+0x268>)
  400ef4:	2301      	movs	r3, #1
  400ef6:	7023      	strb	r3, [r4, #0]
  400ef8:	f3bf 8f5f 	dmb	sy
  __ASM volatile ("cpsie i" : : : "memory");
  400efc:	b662      	cpsie	i

		pmc_enable_waitmode();
  400efe:	4b64      	ldr	r3, [pc, #400]	; (401090 <pmc_sleep+0x284>)
  400f00:	4798      	blx	r3
  __ASM volatile ("cpsid i" : : : "memory");
  400f02:	b672      	cpsid	i
  400f04:	f3bf 8f5f 	dmb	sy

		cpu_irq_disable();
  400f08:	2300      	movs	r3, #0
  400f0a:	7023      	strb	r3, [r4, #0]
	if (CKGR_MOR_MOSCXTBY == (osc_setting & CKGR_MOR_MOSCXTBY)) {
  400f0c:	f018 0f02 	tst.w	r8, #2
  400f10:	d05e      	beq.n	400fd0 <pmc_sleep+0x1c4>
		PMC->CKGR_MOR = (PMC->CKGR_MOR & ~CKGR_MOR_MOSCXTEN) |
  400f12:	4a5b      	ldr	r2, [pc, #364]	; (401080 <pmc_sleep+0x274>)
  400f14:	6a13      	ldr	r3, [r2, #32]
				CKGR_MOR_KEY_PASSWD | CKGR_MOR_MOSCXTBY |
  400f16:	495f      	ldr	r1, [pc, #380]	; (401094 <pmc_sleep+0x288>)
  400f18:	4019      	ands	r1, r3
  400f1a:	4b5f      	ldr	r3, [pc, #380]	; (401098 <pmc_sleep+0x28c>)
  400f1c:	430b      	orrs	r3, r1
		PMC->CKGR_MOR = (PMC->CKGR_MOR & ~CKGR_MOR_MOSCXTEN) |
  400f1e:	6213      	str	r3, [r2, #32]
		PMC->CKGR_MOR = (PMC->CKGR_MOR & ~CKGR_MOR_MOSCRCEN &
  400f20:	6a13      	ldr	r3, [r2, #32]
				| CKGR_MOR_KEY_PASSWD;
  400f22:	f423 135c 	bic.w	r3, r3, #3604480	; 0x370000
  400f26:	f023 0378 	bic.w	r3, r3, #120	; 0x78
  400f2a:	f443 135c 	orr.w	r3, r3, #3604480	; 0x370000
		PMC->CKGR_MOR = (PMC->CKGR_MOR & ~CKGR_MOR_MOSCRCEN &
  400f2e:	6213      	str	r3, [r2, #32]
	if (pll0_setting & CKGR_PLLAR_MULA_Msk) {
  400f30:	4b5a      	ldr	r3, [pc, #360]	; (40109c <pmc_sleep+0x290>)
  400f32:	403b      	ands	r3, r7
  400f34:	2b00      	cmp	r3, #0
  400f36:	d07c      	beq.n	401032 <pmc_sleep+0x226>
		PMC->CKGR_PLLAR = CKGR_PLLAR_ONE | pll0_setting;
  400f38:	f047 5700 	orr.w	r7, r7, #536870912	; 0x20000000
  400f3c:	4b50      	ldr	r3, [pc, #320]	; (401080 <pmc_sleep+0x274>)
  400f3e:	629f      	str	r7, [r3, #40]	; 0x28
		pll_sr |= PMC_SR_LOCKA;
  400f40:	2202      	movs	r2, #2
	if (pll1_setting & CKGR_PLLBR_MULB_Msk) {
  400f42:	4b56      	ldr	r3, [pc, #344]	; (40109c <pmc_sleep+0x290>)
  400f44:	ea0a 0303 	and.w	r3, sl, r3
  400f48:	b123      	cbz	r3, 400f54 <pmc_sleep+0x148>
		PMC->CKGR_PLLBR = pll1_setting;
  400f4a:	4b4d      	ldr	r3, [pc, #308]	; (401080 <pmc_sleep+0x274>)
  400f4c:	f8c3 a02c 	str.w	sl, [r3, #44]	; 0x2c
		pll_sr |= PMC_SR_LOCKB;
  400f50:	f042 0204 	orr.w	r2, r2, #4
	switch(mck_setting & PMC_MCKR_CSS_Msk) {
  400f54:	2e02      	cmp	r6, #2
  400f56:	d06e      	beq.n	401036 <pmc_sleep+0x22a>
  400f58:	2e03      	cmp	r6, #3
  400f5a:	d072      	beq.n	401042 <pmc_sleep+0x236>
	mckr = PMC->PMC_MCKR;
  400f5c:	4948      	ldr	r1, [pc, #288]	; (401080 <pmc_sleep+0x274>)
  400f5e:	6b0b      	ldr	r3, [r1, #48]	; 0x30
	PMC->PMC_MCKR = (mckr & ~PMC_MCKR_PRES_Msk)
  400f60:	f023 0370 	bic.w	r3, r3, #112	; 0x70
		| (mck_setting & PMC_MCKR_PRES_Msk);
  400f64:	f005 0070 	and.w	r0, r5, #112	; 0x70
  400f68:	4303      	orrs	r3, r0
	PMC->PMC_MCKR = (mckr & ~PMC_MCKR_PRES_Msk)
  400f6a:	630b      	str	r3, [r1, #48]	; 0x30
	while (!(PMC->PMC_SR & PMC_SR_MCKRDY));
  400f6c:	6e8b      	ldr	r3, [r1, #104]	; 0x68
  400f6e:	f013 0f08 	tst.w	r3, #8
  400f72:	d0fb      	beq.n	400f6c <pmc_sleep+0x160>
	EFC0->EEFC_FMR = fmr_setting;
  400f74:	4b43      	ldr	r3, [pc, #268]	; (401084 <pmc_sleep+0x278>)
  400f76:	f8c3 9000 	str.w	r9, [r3]
	PMC->PMC_MCKR = mck_setting;
  400f7a:	f5a3 63c0 	sub.w	r3, r3, #1536	; 0x600
  400f7e:	631d      	str	r5, [r3, #48]	; 0x30
	while (!(PMC->PMC_SR & PMC_SR_MCKRDY));
  400f80:	4619      	mov	r1, r3
  400f82:	6e8b      	ldr	r3, [r1, #104]	; 0x68
  400f84:	f013 0f08 	tst.w	r3, #8
  400f88:	d0fb      	beq.n	400f82 <pmc_sleep+0x176>
	while (!(PMC->PMC_SR & pll_sr));
  400f8a:	493d      	ldr	r1, [pc, #244]	; (401080 <pmc_sleep+0x274>)
  400f8c:	6e8b      	ldr	r3, [r1, #104]	; 0x68
  400f8e:	4213      	tst	r3, r2
  400f90:	d0fc      	beq.n	400f8c <pmc_sleep+0x180>

#if (SAM4C || SAM4CM || SAM4CP)
		/* Restore the sub-system 1 */
		PMC->PMC_SCER = cpclk_backup | PMC_SCER_CPKEY_PASSWD;
#endif
		b_is_sleep_clock_used = false;
  400f92:	2200      	movs	r2, #0
  400f94:	4b39      	ldr	r3, [pc, #228]	; (40107c <pmc_sleep+0x270>)
  400f96:	701a      	strb	r2, [r3, #0]
		if (callback_clocks_restored) {
  400f98:	4b41      	ldr	r3, [pc, #260]	; (4010a0 <pmc_sleep+0x294>)
  400f9a:	681b      	ldr	r3, [r3, #0]
  400f9c:	b11b      	cbz	r3, 400fa6 <pmc_sleep+0x19a>
			callback_clocks_restored();
  400f9e:	4798      	blx	r3
			callback_clocks_restored = NULL;
  400fa0:	2200      	movs	r2, #0
  400fa2:	4b3f      	ldr	r3, [pc, #252]	; (4010a0 <pmc_sleep+0x294>)
  400fa4:	601a      	str	r2, [r3, #0]
		}
		cpu_irq_enable();
  400fa6:	2201      	movs	r2, #1
  400fa8:	4b32      	ldr	r3, [pc, #200]	; (401074 <pmc_sleep+0x268>)
  400faa:	701a      	strb	r2, [r3, #0]
  400fac:	f3bf 8f5f 	dmb	sy
  __ASM volatile ("cpsie i" : : : "memory");
  400fb0:	b662      	cpsie	i
  400fb2:	e8bd 87f0 	ldmia.w	sp!, {r4, r5, r6, r7, r8, r9, sl, pc}
	uint32_t mckr = PMC->PMC_MCKR;
  400fb6:	4629      	mov	r1, r5
  400fb8:	e773      	b.n	400ea2 <pmc_sleep+0x96>
		PMC->CKGR_MOR = (PMC->CKGR_MOR & ~CKGR_MOR_MOSCXTEN) |
  400fba:	f5a2 62c0 	sub.w	r2, r2, #1536	; 0x600
  400fbe:	6a13      	ldr	r3, [r2, #32]
  400fc0:	f423 135c 	bic.w	r3, r3, #3604480	; 0x370000
  400fc4:	f023 0301 	bic.w	r3, r3, #1
  400fc8:	f443 135c 	orr.w	r3, r3, #3604480	; 0x370000
  400fcc:	6213      	str	r3, [r2, #32]
  400fce:	e790      	b.n	400ef2 <pmc_sleep+0xe6>
	} else if (CKGR_MOR_MOSCXTEN == (osc_setting & CKGR_MOR_MOSCXTEN)) {
  400fd0:	f018 0f01 	tst.w	r8, #1
  400fd4:	d0ac      	beq.n	400f30 <pmc_sleep+0x124>
		if (!(PMC->CKGR_MOR & CKGR_MOR_MOSCXTEN)) {
  400fd6:	4b2a      	ldr	r3, [pc, #168]	; (401080 <pmc_sleep+0x274>)
  400fd8:	6a1b      	ldr	r3, [r3, #32]
  400fda:	f013 0f01 	tst.w	r3, #1
  400fde:	d10e      	bne.n	400ffe <pmc_sleep+0x1f2>
			PMC->CKGR_MOR = (PMC->CKGR_MOR & ~CKGR_MOR_MOSCXTBY) |
  400fe0:	4a27      	ldr	r2, [pc, #156]	; (401080 <pmc_sleep+0x274>)
  400fe2:	6a13      	ldr	r3, [r2, #32]
					CKGR_MOR_KEY_PASSWD | CKGR_MOR_MOSCXTEN;
  400fe4:	f423 135c 	bic.w	r3, r3, #3604480	; 0x370000
  400fe8:	f023 0303 	bic.w	r3, r3, #3
  400fec:	f443 135c 	orr.w	r3, r3, #3604480	; 0x370000
  400ff0:	f043 0301 	orr.w	r3, r3, #1
			PMC->CKGR_MOR = (PMC->CKGR_MOR & ~CKGR_MOR_MOSCXTBY) |
  400ff4:	6213      	str	r3, [r2, #32]
			while (!(PMC->PMC_SR & PMC_SR_MOSCXTS));
  400ff6:	6e93      	ldr	r3, [r2, #104]	; 0x68
  400ff8:	f013 0f01 	tst.w	r3, #1
  400ffc:	d0fb      	beq.n	400ff6 <pmc_sleep+0x1ea>
		if (!(PMC->CKGR_MOR & CKGR_MOR_MOSCSEL)) {
  400ffe:	4b20      	ldr	r3, [pc, #128]	; (401080 <pmc_sleep+0x274>)
  401000:	6a1b      	ldr	r3, [r3, #32]
  401002:	f013 7f80 	tst.w	r3, #16777216	; 0x1000000
  401006:	d10a      	bne.n	40101e <pmc_sleep+0x212>
			PMC->CKGR_MOR |= CKGR_MOR_KEY_PASSWD | CKGR_MOR_MOSCSEL;
  401008:	4a1d      	ldr	r2, [pc, #116]	; (401080 <pmc_sleep+0x274>)
  40100a:	6a13      	ldr	r3, [r2, #32]
  40100c:	f043 739b 	orr.w	r3, r3, #20316160	; 0x1360000
  401010:	f443 3380 	orr.w	r3, r3, #65536	; 0x10000
  401014:	6213      	str	r3, [r2, #32]
			while (!(PMC->PMC_SR & PMC_SR_MOSCSELS));
  401016:	6e93      	ldr	r3, [r2, #104]	; 0x68
  401018:	f413 3f80 	tst.w	r3, #65536	; 0x10000
  40101c:	d0fb      	beq.n	401016 <pmc_sleep+0x20a>
		PMC->CKGR_MOR = (PMC->CKGR_MOR & ~CKGR_MOR_MOSCRCEN &
  40101e:	4a18      	ldr	r2, [pc, #96]	; (401080 <pmc_sleep+0x274>)
  401020:	6a13      	ldr	r3, [r2, #32]
					| CKGR_MOR_KEY_PASSWD;
  401022:	f423 135c 	bic.w	r3, r3, #3604480	; 0x370000
  401026:	f023 0378 	bic.w	r3, r3, #120	; 0x78
  40102a:	f443 135c 	orr.w	r3, r3, #3604480	; 0x370000
		PMC->CKGR_MOR = (PMC->CKGR_MOR & ~CKGR_MOR_MOSCRCEN &
  40102e:	6213      	str	r3, [r2, #32]
  401030:	e77e      	b.n	400f30 <pmc_sleep+0x124>
	uint32_t pll_sr = 0;
  401032:	2200      	movs	r2, #0
  401034:	e785      	b.n	400f42 <pmc_sleep+0x136>
		while (!(PMC->PMC_SR & PMC_SR_LOCKA));
  401036:	4912      	ldr	r1, [pc, #72]	; (401080 <pmc_sleep+0x274>)
  401038:	6e8b      	ldr	r3, [r1, #104]	; 0x68
  40103a:	f013 0f02 	tst.w	r3, #2
  40103e:	d0fb      	beq.n	401038 <pmc_sleep+0x22c>
  401040:	e78c      	b.n	400f5c <pmc_sleep+0x150>
		while (!(PMC->PMC_SR & PMC_SR_LOCKB));
  401042:	490f      	ldr	r1, [pc, #60]	; (401080 <pmc_sleep+0x274>)
  401044:	6e8b      	ldr	r3, [r1, #104]	; 0x68
  401046:	f013 0f04 	tst.w	r3, #4
  40104a:	d0fb      	beq.n	401044 <pmc_sleep+0x238>
  40104c:	e786      	b.n	400f5c <pmc_sleep+0x150>

		break;
	}
#if (!(SAMG51 || SAMG53 || SAMG54))
	case SAM_PM_SMODE_BACKUP:
		SCB->SCR |= SCR_SLEEPDEEP;
  40104e:	4a08      	ldr	r2, [pc, #32]	; (401070 <pmc_sleep+0x264>)
  401050:	6913      	ldr	r3, [r2, #16]
  401052:	f043 0304 	orr.w	r3, r3, #4
  401056:	6113      	str	r3, [r2, #16]
#if (SAM4S || SAM4E || SAM4N || SAM4C || SAM4CM || SAM4CP || SAMG55 || SAMV71 || SAMV70 || SAMS70 || SAME70)
		SUPC->SUPC_CR = SUPC_CR_KEY_PASSWD | SUPC_CR_VROFF_STOP_VREG;
  401058:	4a12      	ldr	r2, [pc, #72]	; (4010a4 <pmc_sleep+0x298>)
  40105a:	4b13      	ldr	r3, [pc, #76]	; (4010a8 <pmc_sleep+0x29c>)
  40105c:	601a      	str	r2, [r3, #0]
		cpu_irq_enable();
  40105e:	2201      	movs	r2, #1
  401060:	4b04      	ldr	r3, [pc, #16]	; (401074 <pmc_sleep+0x268>)
  401062:	701a      	strb	r2, [r3, #0]
  401064:	f3bf 8f5f 	dmb	sy
  401068:	b662      	cpsie	i
  __ASM volatile ("wfi");
  40106a:	bf30      	wfi
		__WFE() ;
#endif
		break;
#endif
	}
}
  40106c:	4770      	bx	lr
  40106e:	4770      	bx	lr
  401070:	e000ed00 	.word	0xe000ed00
  401074:	200000e2 	.word	0x200000e2
  401078:	00400db1 	.word	0x00400db1
  40107c:	20000b40 	.word	0x20000b40
  401080:	400e0400 	.word	0x400e0400
  401084:	400e0a00 	.word	0x400e0a00
  401088:	00400c99 	.word	0x00400c99
  40108c:	00400cb9 	.word	0x00400cb9
  401090:	00400dbd 	.word	0x00400dbd
  401094:	fec8fffc 	.word	0xfec8fffc
  401098:	01370002 	.word	0x01370002
  40109c:	07ff0000 	.word	0x07ff0000
  4010a0:	20000b44 	.word	0x20000b44
  4010a4:	a5000004 	.word	0xa5000004
  4010a8:	400e1410 	.word	0x400e1410

004010ac <pmc_is_wakeup_clocks_restored>:

bool pmc_is_wakeup_clocks_restored(void)
{
	return !b_is_sleep_clock_used;
  4010ac:	4b02      	ldr	r3, [pc, #8]	; (4010b8 <pmc_is_wakeup_clocks_restored+0xc>)
  4010ae:	7818      	ldrb	r0, [r3, #0]
}
  4010b0:	f080 0001 	eor.w	r0, r0, #1
  4010b4:	4770      	bx	lr
  4010b6:	bf00      	nop
  4010b8:	20000b40 	.word	0x20000b40

004010bc <rstc_start_software_reset>:
		Rstc *p_rstc)
{
#if (SAMV71 || SAMV70 || SAMS70 || SAME70)
	p_rstc->RSTC_CR = RSTC_KEY | RSTC_CR_PROCRST;
#else
	p_rstc->RSTC_CR = RSTC_KEY | RSTC_CR_PROCRST | RSTC_CR_PERRST;
  4010bc:	4b01      	ldr	r3, [pc, #4]	; (4010c4 <rstc_start_software_reset+0x8>)
  4010be:	6003      	str	r3, [r0, #0]
  4010c0:	4770      	bx	lr
  4010c2:	bf00      	nop
  4010c4:	a5000005 	.word	0xa5000005

004010c8 <spi_enable_clock>:
 * \brief Enable SPI clock.
 *
 * \param p_spi Pointer to an SPI instance.
 */
void spi_enable_clock(Spi *p_spi)
{
  4010c8:	b508      	push	{r3, lr}
 *
 * \param ul_id Id (number) of the peripheral clock.
 */
static inline void sysclk_enable_peripheral_clock(uint32_t ul_id)
{
	pmc_enable_periph_clk(ul_id);
  4010ca:	2015      	movs	r0, #21
  4010cc:	4b01      	ldr	r3, [pc, #4]	; (4010d4 <spi_enable_clock+0xc>)
  4010ce:	4798      	blx	r3
  4010d0:	bd08      	pop	{r3, pc}
  4010d2:	bf00      	nop
  4010d4:	00400cd5 	.word	0x00400cd5

004010d8 <spi_set_peripheral_chip_select_value>:
 *                 \ref spi_enable_peripheral_select_decode,
 *                 \ref spi_disable_peripheral_select_decode.
 */
void spi_set_peripheral_chip_select_value(Spi *p_spi, uint32_t ul_value)
{
	p_spi->SPI_MR &= (~SPI_MR_PCS_Msk);
  4010d8:	6843      	ldr	r3, [r0, #4]
  4010da:	f423 2370 	bic.w	r3, r3, #983040	; 0xf0000
  4010de:	6043      	str	r3, [r0, #4]
	p_spi->SPI_MR |= SPI_MR_PCS(ul_value);
  4010e0:	6843      	ldr	r3, [r0, #4]
  4010e2:	0409      	lsls	r1, r1, #16
  4010e4:	f401 2170 	and.w	r1, r1, #983040	; 0xf0000
  4010e8:	4319      	orrs	r1, r3
  4010ea:	6041      	str	r1, [r0, #4]
  4010ec:	4770      	bx	lr

004010ee <spi_read>:
 *
 * \retval SPI_OK on Success.
 * \retval SPI_ERROR_TIMEOUT on Time-out.
 */
spi_status_t spi_read(Spi *p_spi, uint16_t *us_data, uint8_t *p_pcs)
{
  4010ee:	b410      	push	{r4}
	uint32_t timeout = SPI_TIMEOUT;
	static uint32_t reg_value;

	while (!(p_spi->SPI_SR & SPI_SR_RDRF)) {
  4010f0:	f643 2399 	movw	r3, #15001	; 0x3a99
  4010f4:	6904      	ldr	r4, [r0, #16]
  4010f6:	f014 0f01 	tst.w	r4, #1
  4010fa:	d103      	bne.n	401104 <spi_read+0x16>
		if (!timeout--) {
  4010fc:	3b01      	subs	r3, #1
  4010fe:	d1f9      	bne.n	4010f4 <spi_read+0x6>
			return SPI_ERROR_TIMEOUT;
  401100:	2001      	movs	r0, #1
  401102:	e009      	b.n	401118 <spi_read+0x2a>
		}
	}

	reg_value = p_spi->SPI_RDR;
  401104:	6883      	ldr	r3, [r0, #8]
 *
 * \return 1 for Variable mode, 0 for fixed mode.
 */
static inline uint32_t spi_get_peripheral_select_mode(Spi *p_spi)
{
	if (p_spi->SPI_MR & SPI_MR_PS) {
  401106:	6840      	ldr	r0, [r0, #4]
	if (spi_get_peripheral_select_mode(p_spi)) {
  401108:	f010 0f02 	tst.w	r0, #2
		*p_pcs = (uint8_t) ((reg_value & SPI_RDR_PCS_Msk) >> SPI_RDR_PCS_Pos);
  40110c:	bf1c      	itt	ne
  40110e:	f3c3 4003 	ubfxne	r0, r3, #16, #4
  401112:	7010      	strbne	r0, [r2, #0]
	}
	*us_data = (uint16_t) (reg_value & SPI_RDR_RD_Msk);
  401114:	800b      	strh	r3, [r1, #0]

	return SPI_OK;
  401116:	2000      	movs	r0, #0
}
  401118:	bc10      	pop	{r4}
  40111a:	4770      	bx	lr

0040111c <spi_write>:
 * \retval SPI_OK on Success.
 * \retval SPI_ERROR_TIMEOUT on Time-out.
 */
spi_status_t spi_write(Spi *p_spi, uint16_t us_data,
		uint8_t uc_pcs, uint8_t uc_last)
{
  40111c:	b430      	push	{r4, r5}
	uint32_t timeout = SPI_TIMEOUT;
	uint32_t value;

	while (!(p_spi->SPI_SR & SPI_SR_TDRE)) {
  40111e:	f643 2499 	movw	r4, #15001	; 0x3a99
  401122:	6905      	ldr	r5, [r0, #16]
  401124:	f015 0f02 	tst.w	r5, #2
  401128:	d103      	bne.n	401132 <spi_write+0x16>
		if (!timeout--) {
  40112a:	3c01      	subs	r4, #1
  40112c:	d1f9      	bne.n	401122 <spi_write+0x6>
			return SPI_ERROR_TIMEOUT;
  40112e:	2001      	movs	r0, #1
  401130:	e00c      	b.n	40114c <spi_write+0x30>
  401132:	6844      	ldr	r4, [r0, #4]
		}
	}

	if (spi_get_peripheral_select_mode(p_spi)) {
  401134:	f014 0f02 	tst.w	r4, #2
  401138:	d006      	beq.n	401148 <spi_write+0x2c>
		value = SPI_TDR_TD(us_data) | SPI_TDR_PCS(uc_pcs);
  40113a:	0412      	lsls	r2, r2, #16
  40113c:	f402 2270 	and.w	r2, r2, #983040	; 0xf0000
  401140:	4311      	orrs	r1, r2
		if (uc_last) {
  401142:	b10b      	cbz	r3, 401148 <spi_write+0x2c>
			value |= SPI_TDR_LASTXFER;
  401144:	f041 7180 	orr.w	r1, r1, #16777216	; 0x1000000
		}
	} else {
		value = SPI_TDR_TD(us_data);
	}

	p_spi->SPI_TDR = value;
  401148:	60c1      	str	r1, [r0, #12]

	return SPI_OK;
  40114a:	2000      	movs	r0, #0
}
  40114c:	bc30      	pop	{r4, r5}
  40114e:	4770      	bx	lr

00401150 <spi_set_clock_polarity>:
 * \param ul_polarity Default clock state is logical one(high)/zero(low).
 */
void spi_set_clock_polarity(Spi *p_spi, uint32_t ul_pcs_ch,
		uint32_t ul_polarity)
{
	if (ul_polarity) {
  401150:	b932      	cbnz	r2, 401160 <spi_set_clock_polarity+0x10>
  401152:	eb00 0081 	add.w	r0, r0, r1, lsl #2
		p_spi->SPI_CSR[ul_pcs_ch] |= SPI_CSR_CPOL;
	} else {
		p_spi->SPI_CSR[ul_pcs_ch] &= (~SPI_CSR_CPOL);
  401156:	6b03      	ldr	r3, [r0, #48]	; 0x30
  401158:	f023 0301 	bic.w	r3, r3, #1
  40115c:	6303      	str	r3, [r0, #48]	; 0x30
  40115e:	4770      	bx	lr
  401160:	eb00 0081 	add.w	r0, r0, r1, lsl #2
		p_spi->SPI_CSR[ul_pcs_ch] |= SPI_CSR_CPOL;
  401164:	6b03      	ldr	r3, [r0, #48]	; 0x30
  401166:	f043 0301 	orr.w	r3, r3, #1
  40116a:	6303      	str	r3, [r0, #48]	; 0x30
  40116c:	4770      	bx	lr

0040116e <spi_set_clock_phase>:
 *  \param ul_pcs_ch Peripheral Chip Select channel (0~3).
 *  \param ul_phase Data capture on the rising/falling edge of clock.
 */
void spi_set_clock_phase(Spi *p_spi, uint32_t ul_pcs_ch, uint32_t ul_phase)
{
	if (ul_phase) {
  40116e:	b932      	cbnz	r2, 40117e <spi_set_clock_phase+0x10>
  401170:	eb00 0081 	add.w	r0, r0, r1, lsl #2
		p_spi->SPI_CSR[ul_pcs_ch] |= SPI_CSR_NCPHA;
	} else {
		p_spi->SPI_CSR[ul_pcs_ch] &= (~SPI_CSR_NCPHA);
  401174:	6b03      	ldr	r3, [r0, #48]	; 0x30
  401176:	f023 0302 	bic.w	r3, r3, #2
  40117a:	6303      	str	r3, [r0, #48]	; 0x30
  40117c:	4770      	bx	lr
  40117e:	eb00 0081 	add.w	r0, r0, r1, lsl #2
		p_spi->SPI_CSR[ul_pcs_ch] |= SPI_CSR_NCPHA;
  401182:	6b03      	ldr	r3, [r0, #48]	; 0x30
  401184:	f043 0302 	orr.w	r3, r3, #2
  401188:	6303      	str	r3, [r0, #48]	; 0x30
  40118a:	4770      	bx	lr

0040118c <spi_set_bits_per_transfer>:
 * \param ul_bits Number of bits (8~16), use the pattern defined
 *        in the device header file.
 */
void spi_set_bits_per_transfer(Spi *p_spi, uint32_t ul_pcs_ch,
		uint32_t ul_bits)
{
  40118c:	eb00 0181 	add.w	r1, r0, r1, lsl #2
	p_spi->SPI_CSR[ul_pcs_ch] &= (~SPI_CSR_BITS_Msk);
  401190:	6b0b      	ldr	r3, [r1, #48]	; 0x30
  401192:	f023 03f0 	bic.w	r3, r3, #240	; 0xf0
  401196:	630b      	str	r3, [r1, #48]	; 0x30
	p_spi->SPI_CSR[ul_pcs_ch] |= ul_bits;
  401198:	6b0b      	ldr	r3, [r1, #48]	; 0x30
  40119a:	431a      	orrs	r2, r3
  40119c:	630a      	str	r2, [r1, #48]	; 0x30
  40119e:	4770      	bx	lr

004011a0 <spi_set_baudrate_div>:
 */
int16_t spi_set_baudrate_div(Spi *p_spi, uint32_t ul_pcs_ch,
		uint8_t uc_baudrate_divider)
{
    /* Programming the SCBR field to 0 is forbidden */
    if (!uc_baudrate_divider){
  4011a0:	b172      	cbz	r2, 4011c0 <spi_set_baudrate_div+0x20>
{
  4011a2:	b410      	push	{r4}
  4011a4:	4614      	mov	r4, r2
  4011a6:	eb00 0181 	add.w	r1, r0, r1, lsl #2
        return -1;
	}
	p_spi->SPI_CSR[ul_pcs_ch] &= (~SPI_CSR_SCBR_Msk);
  4011aa:	6b0b      	ldr	r3, [r1, #48]	; 0x30
  4011ac:	f423 437f 	bic.w	r3, r3, #65280	; 0xff00
  4011b0:	630b      	str	r3, [r1, #48]	; 0x30
	p_spi->SPI_CSR[ul_pcs_ch] |= SPI_CSR_SCBR(uc_baudrate_divider);
  4011b2:	6b0a      	ldr	r2, [r1, #48]	; 0x30
  4011b4:	ea42 2204 	orr.w	r2, r2, r4, lsl #8
  4011b8:	630a      	str	r2, [r1, #48]	; 0x30
    return 0;
  4011ba:	2000      	movs	r0, #0
}
  4011bc:	bc10      	pop	{r4}
  4011be:	4770      	bx	lr
        return -1;
  4011c0:	f04f 30ff 	mov.w	r0, #4294967295	; 0xffffffff
  4011c4:	4770      	bx	lr

004011c6 <spi_set_transfer_delay>:
 * \param uc_dlybs Delay before SPCK (in number of MCK clocks).
 * \param uc_dlybct Delay between consecutive transfers (in number of MCK clocks).
 */
void spi_set_transfer_delay(Spi *p_spi, uint32_t ul_pcs_ch,
		uint8_t uc_dlybs, uint8_t uc_dlybct)
{
  4011c6:	b410      	push	{r4}
  4011c8:	eb00 0181 	add.w	r1, r0, r1, lsl #2
	p_spi->SPI_CSR[ul_pcs_ch] &= ~(SPI_CSR_DLYBS_Msk | SPI_CSR_DLYBCT_Msk);
  4011cc:	6b08      	ldr	r0, [r1, #48]	; 0x30
  4011ce:	b280      	uxth	r0, r0
  4011d0:	6308      	str	r0, [r1, #48]	; 0x30
	p_spi->SPI_CSR[ul_pcs_ch] |= SPI_CSR_DLYBS(uc_dlybs)
  4011d2:	6b0c      	ldr	r4, [r1, #48]	; 0x30
  4011d4:	ea44 6303 	orr.w	r3, r4, r3, lsl #24
  4011d8:	ea43 4302 	orr.w	r3, r3, r2, lsl #16
  4011dc:	630b      	str	r3, [r1, #48]	; 0x30
			| SPI_CSR_DLYBCT(uc_dlybct);
}
  4011de:	bc10      	pop	{r4}
  4011e0:	4770      	bx	lr

004011e2 <tc_init>:
 */
void tc_init(
		Tc *p_tc,
		uint32_t ul_channel,
		uint32_t ul_mode)
{
  4011e2:	b410      	push	{r4}

	/* Validate inputs. */
	Assert(p_tc);
	Assert(ul_channel <
			(sizeof(p_tc->TC_CHANNEL) / sizeof(p_tc->TC_CHANNEL[0])));
	tc_channel = p_tc->TC_CHANNEL + ul_channel;
  4011e4:	0189      	lsls	r1, r1, #6
  4011e6:	1843      	adds	r3, r0, r1

	/*  Disable TC clock. */
	tc_channel->TC_CCR = TC_CCR_CLKDIS;
  4011e8:	2402      	movs	r4, #2
  4011ea:	5044      	str	r4, [r0, r1]

	/*  Disable interrupts. */
	tc_channel->TC_IDR = 0xFFFFFFFF;
  4011ec:	f04f 31ff 	mov.w	r1, #4294967295	; 0xffffffff
  4011f0:	6299      	str	r1, [r3, #40]	; 0x28

	/*  Clear status register. */
	tc_channel->TC_SR;
  4011f2:	6a19      	ldr	r1, [r3, #32]

	/*  Set mode. */
	tc_channel->TC_CMR = ul_mode;
  4011f4:	605a      	str	r2, [r3, #4]
}
  4011f6:	bc10      	pop	{r4}
  4011f8:	4770      	bx	lr

004011fa <tc_set_block_mode>:
		uint32_t ul_blockmode)
{
	/* Validate inputs. */
	Assert(p_tc);
	
	p_tc->TC_BMR = ul_blockmode;
  4011fa:	f8c0 10c4 	str.w	r1, [r0, #196]	; 0xc4
  4011fe:	4770      	bx	lr

00401200 <tc_start>:
	/* Validate inputs. */
	Assert(p_tc);
	Assert(ul_channel <
			(sizeof(p_tc->TC_CHANNEL) / sizeof(p_tc->TC_CHANNEL[0])));

	p_tc->TC_CHANNEL[ul_channel].TC_CCR = TC_CCR_CLKEN | TC_CCR_SWTRG;
  401200:	0189      	lsls	r1, r1, #6
  401202:	2305      	movs	r3, #5
  401204:	5043      	str	r3, [r0, r1]
  401206:	4770      	bx	lr

00401208 <tc_stop>:
	/* Validate inputs. */
	Assert(p_tc);
	Assert(ul_channel <
			(sizeof(p_tc->TC_CHANNEL) / sizeof(p_tc->TC_CHANNEL[0])));

	p_tc->TC_CHANNEL[ul_channel].TC_CCR = TC_CCR_CLKDIS;
  401208:	0189      	lsls	r1, r1, #6
  40120a:	2302      	movs	r3, #2
  40120c:	5043      	str	r3, [r0, r1]
  40120e:	4770      	bx	lr

00401210 <tc_write_rc>:
	/* Validate inputs. */
	Assert(p_tc);
	Assert(ul_channel <
			(sizeof(p_tc->TC_CHANNEL) / sizeof(p_tc->TC_CHANNEL[0])));

	p_tc->TC_CHANNEL[ul_channel].TC_RC = ul_value;
  401210:	eb00 1181 	add.w	r1, r0, r1, lsl #6
  401214:	61ca      	str	r2, [r1, #28]
  401216:	4770      	bx	lr

00401218 <tc_enable_interrupt>:

	/* Validate inputs. */
	Assert(p_tc);
	Assert(ul_channel <
			(sizeof(p_tc->TC_CHANNEL) / sizeof(p_tc->TC_CHANNEL[0])));
	tc_channel = p_tc->TC_CHANNEL + ul_channel;
  401218:	eb00 1181 	add.w	r1, r0, r1, lsl #6
	tc_channel->TC_IER = ul_sources;
  40121c:	624a      	str	r2, [r1, #36]	; 0x24
  40121e:	4770      	bx	lr

00401220 <tc_get_status>:
	/* Validate inputs. */
	Assert(p_tc);
	Assert(ul_channel <
			(sizeof(p_tc->TC_CHANNEL) / sizeof(p_tc->TC_CHANNEL[0])));
			
	tc_channel = p_tc->TC_CHANNEL + ul_channel;
  401220:	eb00 1181 	add.w	r1, r0, r1, lsl #6
	return tc_channel->TC_SR;
  401224:	6a08      	ldr	r0, [r1, #32]
}
  401226:	4770      	bx	lr

00401228 <udd_sleep_mode>:
/*! \brief Authorize or not the CPU powerdown mode
 *
 * \param b_enable   true to authorize idle mode
 */
static void udd_sleep_mode(bool b_idle)
{
  401228:	b082      	sub	sp, #8
	if (!b_idle && udd_b_idle) {
  40122a:	4601      	mov	r1, r0
  40122c:	bb28      	cbnz	r0, 40127a <udd_sleep_mode+0x52>
  40122e:	4b24      	ldr	r3, [pc, #144]	; (4012c0 <udd_sleep_mode+0x98>)
  401230:	781b      	ldrb	r3, [r3, #0]
  401232:	b91b      	cbnz	r3, 40123c <udd_sleep_mode+0x14>
		sleepmgr_unlock_mode(UDP_SLEEP_MODE_USB_IDLE);
	}
	if (b_idle && !udd_b_idle) {
		sleepmgr_lock_mode(UDP_SLEEP_MODE_USB_IDLE);
	}
	udd_b_idle = b_idle;
  401234:	4b22      	ldr	r3, [pc, #136]	; (4012c0 <udd_sleep_mode+0x98>)
  401236:	7019      	strb	r1, [r3, #0]
}
  401238:	b002      	add	sp, #8
  40123a:	4770      	bx	lr
static inline void sleepmgr_unlock_mode(enum sleepmgr_mode mode)
{
#ifdef CONFIG_SLEEPMGR_ENABLE
	irqflags_t flags;

	if(sleepmgr_locks[mode] == 0) {
  40123c:	4b21      	ldr	r3, [pc, #132]	; (4012c4 <udd_sleep_mode+0x9c>)
  40123e:	789b      	ldrb	r3, [r3, #2]
  401240:	b903      	cbnz	r3, 401244 <udd_sleep_mode+0x1c>
  401242:	e7fe      	b.n	401242 <udd_sleep_mode+0x1a>
 */
__attribute__( ( always_inline ) ) __STATIC_INLINE uint32_t __get_PRIMASK(void)
{
  uint32_t result;

  __ASM volatile ("MRS %0, primask" : "=r" (result) );
  401244:	f3ef 8310 	mrs	r3, PRIMASK
static volatile uint32_t cpu_irq_critical_section_counter;
static volatile bool     cpu_irq_prev_interrupt_state;

static inline irqflags_t cpu_irq_save(void)
{
	volatile irqflags_t flags = cpu_irq_is_enabled();
  401248:	fab3 f383 	clz	r3, r3
  40124c:	095b      	lsrs	r3, r3, #5
  40124e:	9300      	str	r3, [sp, #0]
  __ASM volatile ("cpsid i" : : : "memory");
  401250:	b672      	cpsid	i
  __ASM volatile ("dmb");
  401252:	f3bf 8f5f 	dmb	sy
	cpu_irq_disable();
  401256:	2200      	movs	r2, #0
  401258:	4b1b      	ldr	r3, [pc, #108]	; (4012c8 <udd_sleep_mode+0xa0>)
  40125a:	701a      	strb	r2, [r3, #0]
	return flags;
  40125c:	9800      	ldr	r0, [sp, #0]
	}

	// Enter a critical section
	flags = cpu_irq_save();

	--sleepmgr_locks[mode];
  40125e:	4a19      	ldr	r2, [pc, #100]	; (4012c4 <udd_sleep_mode+0x9c>)
  401260:	7893      	ldrb	r3, [r2, #2]
  401262:	3b01      	subs	r3, #1
  401264:	7093      	strb	r3, [r2, #2]
	return (flags);
}

static inline void cpu_irq_restore(irqflags_t flags)
{
	if (cpu_irq_is_enabled_flags(flags))
  401266:	2800      	cmp	r0, #0
  401268:	d0e4      	beq.n	401234 <udd_sleep_mode+0xc>
		cpu_irq_enable();
  40126a:	2201      	movs	r2, #1
  40126c:	4b16      	ldr	r3, [pc, #88]	; (4012c8 <udd_sleep_mode+0xa0>)
  40126e:	701a      	strb	r2, [r3, #0]
  401270:	f3bf 8f5f 	dmb	sy
  __ASM volatile ("cpsie i" : : : "memory");
  401274:	b662      	cpsie	i
  401276:	e7dd      	b.n	401234 <udd_sleep_mode+0xc>
  401278:	e7fe      	b.n	401278 <udd_sleep_mode+0x50>
	if (b_idle && !udd_b_idle) {
  40127a:	4b11      	ldr	r3, [pc, #68]	; (4012c0 <udd_sleep_mode+0x98>)
  40127c:	781b      	ldrb	r3, [r3, #0]
  40127e:	2b00      	cmp	r3, #0
  401280:	d1d8      	bne.n	401234 <udd_sleep_mode+0xc>
	if(sleepmgr_locks[mode] >= 0xff) {
  401282:	4b10      	ldr	r3, [pc, #64]	; (4012c4 <udd_sleep_mode+0x9c>)
  401284:	789b      	ldrb	r3, [r3, #2]
  401286:	2bff      	cmp	r3, #255	; 0xff
  401288:	d0f6      	beq.n	401278 <udd_sleep_mode+0x50>
  __ASM volatile ("MRS %0, primask" : "=r" (result) );
  40128a:	f3ef 8310 	mrs	r3, PRIMASK
	volatile irqflags_t flags = cpu_irq_is_enabled();
  40128e:	fab3 f383 	clz	r3, r3
  401292:	095b      	lsrs	r3, r3, #5
  401294:	9301      	str	r3, [sp, #4]
  __ASM volatile ("cpsid i" : : : "memory");
  401296:	b672      	cpsid	i
  401298:	f3bf 8f5f 	dmb	sy
	cpu_irq_disable();
  40129c:	2200      	movs	r2, #0
  40129e:	4b0a      	ldr	r3, [pc, #40]	; (4012c8 <udd_sleep_mode+0xa0>)
  4012a0:	701a      	strb	r2, [r3, #0]
	return flags;
  4012a2:	9801      	ldr	r0, [sp, #4]
	++sleepmgr_locks[mode];
  4012a4:	4a07      	ldr	r2, [pc, #28]	; (4012c4 <udd_sleep_mode+0x9c>)
  4012a6:	7893      	ldrb	r3, [r2, #2]
  4012a8:	3301      	adds	r3, #1
  4012aa:	7093      	strb	r3, [r2, #2]
	if (cpu_irq_is_enabled_flags(flags))
  4012ac:	2800      	cmp	r0, #0
  4012ae:	d0c1      	beq.n	401234 <udd_sleep_mode+0xc>
		cpu_irq_enable();
  4012b0:	2201      	movs	r2, #1
  4012b2:	4b05      	ldr	r3, [pc, #20]	; (4012c8 <udd_sleep_mode+0xa0>)
  4012b4:	701a      	strb	r2, [r3, #0]
  4012b6:	f3bf 8f5f 	dmb	sy
  __ASM volatile ("cpsie i" : : : "memory");
  4012ba:	b662      	cpsie	i
  4012bc:	e7ba      	b.n	401234 <udd_sleep_mode+0xc>
  4012be:	bf00      	nop
  4012c0:	20000b49 	.word	0x20000b49
  4012c4:	20000c48 	.word	0x20000c48
  4012c8:	200000e2 	.word	0x200000e2

004012cc <udd_ctrl_init>:
	cpu_irq_restore(flags);
}

static void udd_ctrl_init(void)
{
	udd_g_ctrlreq.callback = NULL;
  4012cc:	4a03      	ldr	r2, [pc, #12]	; (4012dc <udd_ctrl_init+0x10>)
  4012ce:	2300      	movs	r3, #0
  4012d0:	6113      	str	r3, [r2, #16]
	udd_g_ctrlreq.over_under_run = NULL;
  4012d2:	6153      	str	r3, [r2, #20]
	udd_g_ctrlreq.payload_size = 0;
  4012d4:	8193      	strh	r3, [r2, #12]
	udd_ep_control_state = UDD_EPCTRL_SETUP;
  4012d6:	4a02      	ldr	r2, [pc, #8]	; (4012e0 <udd_ctrl_init+0x14>)
  4012d8:	7013      	strb	r3, [r2, #0]
  4012da:	4770      	bx	lr
  4012dc:	20000ce0 	.word	0x20000ce0
  4012e0:	20000b4e 	.word	0x20000b4e

004012e4 <udd_ctrl_stall_data>:
	udd_ack_bank0_received(0);
}


static void udd_ctrl_stall_data(void)
{
  4012e4:	b082      	sub	sp, #8
	// Stall all packets on IN & OUT control endpoint
	udd_ep_control_state = UDD_EPCTRL_STALL_REQ;
  4012e6:	2205      	movs	r2, #5
  4012e8:	4b0a      	ldr	r3, [pc, #40]	; (401314 <udd_ctrl_stall_data+0x30>)
  4012ea:	701a      	strb	r2, [r3, #0]
	udd_enable_stall_handshake(0);
  4012ec:	4a0a      	ldr	r2, [pc, #40]	; (401318 <udd_ctrl_stall_data+0x34>)
  4012ee:	6b13      	ldr	r3, [r2, #48]	; 0x30
  4012f0:	9301      	str	r3, [sp, #4]
  4012f2:	9b01      	ldr	r3, [sp, #4]
  4012f4:	f043 034f 	orr.w	r3, r3, #79	; 0x4f
  4012f8:	9301      	str	r3, [sp, #4]
  4012fa:	9b01      	ldr	r3, [sp, #4]
  4012fc:	f043 0320 	orr.w	r3, r3, #32
  401300:	9301      	str	r3, [sp, #4]
  401302:	9b01      	ldr	r3, [sp, #4]
  401304:	6313      	str	r3, [r2, #48]	; 0x30
  401306:	6b13      	ldr	r3, [r2, #48]	; 0x30
  401308:	f013 0f20 	tst.w	r3, #32
  40130c:	d0fb      	beq.n	401306 <udd_ctrl_stall_data+0x22>
}
  40130e:	b002      	add	sp, #8
  401310:	4770      	bx	lr
  401312:	bf00      	nop
  401314:	20000b4e 	.word	0x20000b4e
  401318:	40034000 	.word	0x40034000

0040131c <udd_ctrl_send_zlp_in>:


static void udd_ctrl_send_zlp_in(void)
{
  40131c:	b082      	sub	sp, #8
	udd_ep_control_state = UDD_EPCTRL_HANDSHAKE_WAIT_IN_ZLP;
  40131e:	2203      	movs	r2, #3
  401320:	4b0a      	ldr	r3, [pc, #40]	; (40134c <udd_ctrl_send_zlp_in+0x30>)
  401322:	701a      	strb	r2, [r3, #0]
	// Validate and send empty IN packet on control endpoint
	// Send ZLP on IN endpoint
	udd_set_transmit_ready(0);
  401324:	4a0a      	ldr	r2, [pc, #40]	; (401350 <udd_ctrl_send_zlp_in+0x34>)
  401326:	6b13      	ldr	r3, [r2, #48]	; 0x30
  401328:	9301      	str	r3, [sp, #4]
  40132a:	9b01      	ldr	r3, [sp, #4]
  40132c:	f043 034f 	orr.w	r3, r3, #79	; 0x4f
  401330:	9301      	str	r3, [sp, #4]
  401332:	9b01      	ldr	r3, [sp, #4]
  401334:	f043 0310 	orr.w	r3, r3, #16
  401338:	9301      	str	r3, [sp, #4]
  40133a:	9b01      	ldr	r3, [sp, #4]
  40133c:	6313      	str	r3, [r2, #48]	; 0x30
  40133e:	6b13      	ldr	r3, [r2, #48]	; 0x30
  401340:	f013 0f10 	tst.w	r3, #16
  401344:	d0fb      	beq.n	40133e <udd_ctrl_send_zlp_in+0x22>
}
  401346:	b002      	add	sp, #8
  401348:	4770      	bx	lr
  40134a:	bf00      	nop
  40134c:	20000b4e 	.word	0x20000b4e
  401350:	40034000 	.word	0x40034000

00401354 <udd_ctrl_endofrequest>:
	// because the buffer of control endpoint is already free
}


static void udd_ctrl_endofrequest(void)
{
  401354:	b508      	push	{r3, lr}
	// If a callback is registered then call it
	if (udd_g_ctrlreq.callback) {
  401356:	4b02      	ldr	r3, [pc, #8]	; (401360 <udd_ctrl_endofrequest+0xc>)
  401358:	691b      	ldr	r3, [r3, #16]
  40135a:	b103      	cbz	r3, 40135e <udd_ctrl_endofrequest+0xa>
		udd_g_ctrlreq.callback();
  40135c:	4798      	blx	r3
  40135e:	bd08      	pop	{r3, pc}
  401360:	20000ce0 	.word	0x20000ce0

00401364 <udd_ctrl_in_sent>:
{
  401364:	b530      	push	{r4, r5, lr}
  401366:	b087      	sub	sp, #28
	if (UDD_EPCTRL_HANDSHAKE_WAIT_IN_ZLP == udd_ep_control_state) {
  401368:	4b63      	ldr	r3, [pc, #396]	; (4014f8 <udd_ctrl_in_sent+0x194>)
  40136a:	781b      	ldrb	r3, [r3, #0]
  40136c:	2b03      	cmp	r3, #3
  40136e:	d029      	beq.n	4013c4 <udd_ctrl_in_sent+0x60>
	nb_remain = udd_g_ctrlreq.payload_size - udd_ctrl_payload_nb_trans;
  401370:	4b62      	ldr	r3, [pc, #392]	; (4014fc <udd_ctrl_in_sent+0x198>)
  401372:	881b      	ldrh	r3, [r3, #0]
  401374:	4a62      	ldr	r2, [pc, #392]	; (401500 <udd_ctrl_in_sent+0x19c>)
  401376:	8994      	ldrh	r4, [r2, #12]
  401378:	1ae4      	subs	r4, r4, r3
  40137a:	b2a4      	uxth	r4, r4
	if (0 == nb_remain) {
  40137c:	2c00      	cmp	r4, #0
  40137e:	d144      	bne.n	40140a <udd_ctrl_in_sent+0xa6>
		udd_ctrl_prev_payload_nb_trans += udd_ctrl_payload_nb_trans;
  401380:	4a60      	ldr	r2, [pc, #384]	; (401504 <udd_ctrl_in_sent+0x1a0>)
  401382:	8811      	ldrh	r1, [r2, #0]
  401384:	440b      	add	r3, r1
  401386:	b29b      	uxth	r3, r3
  401388:	8013      	strh	r3, [r2, #0]
		if ((udd_g_ctrlreq.req.wLength == udd_ctrl_prev_payload_nb_trans)
  40138a:	4a5d      	ldr	r2, [pc, #372]	; (401500 <udd_ctrl_in_sent+0x19c>)
  40138c:	88d2      	ldrh	r2, [r2, #6]
  40138e:	429a      	cmp	r2, r3
  401390:	d003      	beq.n	40139a <udd_ctrl_in_sent+0x36>
				|| b_shortpacket) {
  401392:	4b5d      	ldr	r3, [pc, #372]	; (401508 <udd_ctrl_in_sent+0x1a4>)
  401394:	781b      	ldrb	r3, [r3, #0]
  401396:	2b00      	cmp	r3, #0
  401398:	d02b      	beq.n	4013f2 <udd_ctrl_in_sent+0x8e>
	udd_ep_control_state = UDD_EPCTRL_HANDSHAKE_WAIT_OUT_ZLP;
  40139a:	2204      	movs	r2, #4
  40139c:	4b56      	ldr	r3, [pc, #344]	; (4014f8 <udd_ctrl_in_sent+0x194>)
  40139e:	701a      	strb	r2, [r3, #0]
			udd_ack_in_sent(0);
  4013a0:	4a5a      	ldr	r2, [pc, #360]	; (40150c <udd_ctrl_in_sent+0x1a8>)
  4013a2:	6b13      	ldr	r3, [r2, #48]	; 0x30
  4013a4:	9301      	str	r3, [sp, #4]
  4013a6:	9b01      	ldr	r3, [sp, #4]
  4013a8:	f043 034f 	orr.w	r3, r3, #79	; 0x4f
  4013ac:	9301      	str	r3, [sp, #4]
  4013ae:	9b01      	ldr	r3, [sp, #4]
  4013b0:	f023 0301 	bic.w	r3, r3, #1
  4013b4:	9301      	str	r3, [sp, #4]
  4013b6:	9b01      	ldr	r3, [sp, #4]
  4013b8:	6313      	str	r3, [r2, #48]	; 0x30
  4013ba:	6b13      	ldr	r3, [r2, #48]	; 0x30
  4013bc:	f013 0f01 	tst.w	r3, #1
  4013c0:	d1fb      	bne.n	4013ba <udd_ctrl_in_sent+0x56>
  4013c2:	e014      	b.n	4013ee <udd_ctrl_in_sent+0x8a>
		udd_ack_in_sent(0);
  4013c4:	4a51      	ldr	r2, [pc, #324]	; (40150c <udd_ctrl_in_sent+0x1a8>)
  4013c6:	6b13      	ldr	r3, [r2, #48]	; 0x30
  4013c8:	9300      	str	r3, [sp, #0]
  4013ca:	9b00      	ldr	r3, [sp, #0]
  4013cc:	f043 034f 	orr.w	r3, r3, #79	; 0x4f
  4013d0:	9300      	str	r3, [sp, #0]
  4013d2:	9b00      	ldr	r3, [sp, #0]
  4013d4:	f023 0301 	bic.w	r3, r3, #1
  4013d8:	9300      	str	r3, [sp, #0]
  4013da:	9b00      	ldr	r3, [sp, #0]
  4013dc:	6313      	str	r3, [r2, #48]	; 0x30
  4013de:	6b13      	ldr	r3, [r2, #48]	; 0x30
  4013e0:	f013 0f01 	tst.w	r3, #1
  4013e4:	d1fb      	bne.n	4013de <udd_ctrl_in_sent+0x7a>
		udd_ctrl_endofrequest();
  4013e6:	4b4a      	ldr	r3, [pc, #296]	; (401510 <udd_ctrl_in_sent+0x1ac>)
  4013e8:	4798      	blx	r3
		udd_ctrl_init();
  4013ea:	4b4a      	ldr	r3, [pc, #296]	; (401514 <udd_ctrl_in_sent+0x1b0>)
  4013ec:	4798      	blx	r3
}
  4013ee:	b007      	add	sp, #28
  4013f0:	bd30      	pop	{r4, r5, pc}
		if ((!udd_g_ctrlreq.over_under_run)
  4013f2:	4b43      	ldr	r3, [pc, #268]	; (401500 <udd_ctrl_in_sent+0x19c>)
  4013f4:	695b      	ldr	r3, [r3, #20]
  4013f6:	2b00      	cmp	r3, #0
  4013f8:	d05d      	beq.n	4014b6 <udd_ctrl_in_sent+0x152>
				|| (!udd_g_ctrlreq.over_under_run())) {
  4013fa:	4798      	blx	r3
  4013fc:	2800      	cmp	r0, #0
  4013fe:	d05a      	beq.n	4014b6 <udd_ctrl_in_sent+0x152>
			udd_ctrl_payload_nb_trans = 0;
  401400:	2200      	movs	r2, #0
  401402:	4b3e      	ldr	r3, [pc, #248]	; (4014fc <udd_ctrl_in_sent+0x198>)
  401404:	801a      	strh	r2, [r3, #0]
			nb_remain = udd_g_ctrlreq.payload_size;
  401406:	4b3e      	ldr	r3, [pc, #248]	; (401500 <udd_ctrl_in_sent+0x19c>)
  401408:	899c      	ldrh	r4, [r3, #12]
	if (nb_remain >= USB_DEVICE_EP_CTRL_SIZE) {
  40140a:	2c3f      	cmp	r4, #63	; 0x3f
  40140c:	d953      	bls.n	4014b6 <udd_ctrl_in_sent+0x152>
		b_shortpacket = false;
  40140e:	2200      	movs	r2, #0
  401410:	4b3d      	ldr	r3, [pc, #244]	; (401508 <udd_ctrl_in_sent+0x1a4>)
  401412:	701a      	strb	r2, [r3, #0]
		nb_remain = USB_DEVICE_EP_CTRL_SIZE;
  401414:	2440      	movs	r4, #64	; 0x40
	ptr_src = udd_g_ctrlreq.payload + udd_ctrl_payload_nb_trans;
  401416:	4b3a      	ldr	r3, [pc, #232]	; (401500 <udd_ctrl_in_sent+0x19c>)
  401418:	6899      	ldr	r1, [r3, #8]
  40141a:	4b38      	ldr	r3, [pc, #224]	; (4014fc <udd_ctrl_in_sent+0x198>)
  40141c:	8818      	ldrh	r0, [r3, #0]
  __ASM volatile ("MRS %0, primask" : "=r" (result) );
  40141e:	f3ef 8310 	mrs	r3, PRIMASK
	volatile irqflags_t flags = cpu_irq_is_enabled();
  401422:	fab3 f383 	clz	r3, r3
  401426:	095b      	lsrs	r3, r3, #5
  401428:	9305      	str	r3, [sp, #20]
  __ASM volatile ("cpsid i" : : : "memory");
  40142a:	b672      	cpsid	i
  40142c:	f3bf 8f5f 	dmb	sy
	cpu_irq_disable();
  401430:	2200      	movs	r2, #0
  401432:	4b39      	ldr	r3, [pc, #228]	; (401518 <udd_ctrl_in_sent+0x1b4>)
  401434:	701a      	strb	r2, [r3, #0]
	return flags;
  401436:	9d05      	ldr	r5, [sp, #20]
	if (Is_udd_bank0_received(0)) {
  401438:	4b34      	ldr	r3, [pc, #208]	; (40150c <udd_ctrl_in_sent+0x1a8>)
  40143a:	6b1b      	ldr	r3, [r3, #48]	; 0x30
  40143c:	f013 0f02 	tst.w	r3, #2
  401440:	d13d      	bne.n	4014be <udd_ctrl_in_sent+0x15a>
	for (i = 0; i < nb_remain; i++) {
  401442:	b14c      	cbz	r4, 401458 <udd_ctrl_in_sent+0xf4>
	ptr_src = udd_g_ctrlreq.payload + udd_ctrl_payload_nb_trans;
  401444:	4401      	add	r1, r0
  401446:	460a      	mov	r2, r1
		udd_endpoint_fifo_write(0, *ptr_src++);
  401448:	4830      	ldr	r0, [pc, #192]	; (40150c <udd_ctrl_in_sent+0x1a8>)
  40144a:	f812 3b01 	ldrb.w	r3, [r2], #1
  40144e:	6503      	str	r3, [r0, #80]	; 0x50
	for (i = 0; i < nb_remain; i++) {
  401450:	1a53      	subs	r3, r2, r1
  401452:	b2db      	uxtb	r3, r3
  401454:	42a3      	cmp	r3, r4
  401456:	d3f8      	bcc.n	40144a <udd_ctrl_in_sent+0xe6>
	udd_ctrl_payload_nb_trans += nb_remain;
  401458:	4b28      	ldr	r3, [pc, #160]	; (4014fc <udd_ctrl_in_sent+0x198>)
  40145a:	881a      	ldrh	r2, [r3, #0]
  40145c:	4414      	add	r4, r2
  40145e:	801c      	strh	r4, [r3, #0]
	udd_set_transmit_ready(0);
  401460:	4a2a      	ldr	r2, [pc, #168]	; (40150c <udd_ctrl_in_sent+0x1a8>)
  401462:	6b13      	ldr	r3, [r2, #48]	; 0x30
  401464:	9303      	str	r3, [sp, #12]
  401466:	9b03      	ldr	r3, [sp, #12]
  401468:	f043 034f 	orr.w	r3, r3, #79	; 0x4f
  40146c:	9303      	str	r3, [sp, #12]
  40146e:	9b03      	ldr	r3, [sp, #12]
  401470:	f043 0310 	orr.w	r3, r3, #16
  401474:	9303      	str	r3, [sp, #12]
  401476:	9b03      	ldr	r3, [sp, #12]
  401478:	6313      	str	r3, [r2, #48]	; 0x30
  40147a:	6b13      	ldr	r3, [r2, #48]	; 0x30
  40147c:	f013 0f10 	tst.w	r3, #16
  401480:	d0fb      	beq.n	40147a <udd_ctrl_in_sent+0x116>
	udd_ack_in_sent(0);
  401482:	4a22      	ldr	r2, [pc, #136]	; (40150c <udd_ctrl_in_sent+0x1a8>)
  401484:	6b13      	ldr	r3, [r2, #48]	; 0x30
  401486:	9304      	str	r3, [sp, #16]
  401488:	9b04      	ldr	r3, [sp, #16]
  40148a:	f043 034f 	orr.w	r3, r3, #79	; 0x4f
  40148e:	9304      	str	r3, [sp, #16]
  401490:	9b04      	ldr	r3, [sp, #16]
  401492:	f023 0301 	bic.w	r3, r3, #1
  401496:	9304      	str	r3, [sp, #16]
  401498:	9b04      	ldr	r3, [sp, #16]
  40149a:	6313      	str	r3, [r2, #48]	; 0x30
  40149c:	6b13      	ldr	r3, [r2, #48]	; 0x30
  40149e:	f013 0f01 	tst.w	r3, #1
  4014a2:	d1fb      	bne.n	40149c <udd_ctrl_in_sent+0x138>
	if (cpu_irq_is_enabled_flags(flags))
  4014a4:	2d00      	cmp	r5, #0
  4014a6:	d0a2      	beq.n	4013ee <udd_ctrl_in_sent+0x8a>
		cpu_irq_enable();
  4014a8:	2201      	movs	r2, #1
  4014aa:	4b1b      	ldr	r3, [pc, #108]	; (401518 <udd_ctrl_in_sent+0x1b4>)
  4014ac:	701a      	strb	r2, [r3, #0]
  4014ae:	f3bf 8f5f 	dmb	sy
  __ASM volatile ("cpsie i" : : : "memory");
  4014b2:	b662      	cpsie	i
  4014b4:	e79b      	b.n	4013ee <udd_ctrl_in_sent+0x8a>
		b_shortpacket = true;
  4014b6:	2201      	movs	r2, #1
  4014b8:	4b13      	ldr	r3, [pc, #76]	; (401508 <udd_ctrl_in_sent+0x1a4>)
  4014ba:	701a      	strb	r2, [r3, #0]
  4014bc:	e7ab      	b.n	401416 <udd_ctrl_in_sent+0xb2>
	if (cpu_irq_is_enabled_flags(flags))
  4014be:	b12d      	cbz	r5, 4014cc <udd_ctrl_in_sent+0x168>
		cpu_irq_enable();
  4014c0:	2201      	movs	r2, #1
  4014c2:	4b15      	ldr	r3, [pc, #84]	; (401518 <udd_ctrl_in_sent+0x1b4>)
  4014c4:	701a      	strb	r2, [r3, #0]
  4014c6:	f3bf 8f5f 	dmb	sy
  4014ca:	b662      	cpsie	i
		udd_ep_control_state = UDD_EPCTRL_HANDSHAKE_WAIT_OUT_ZLP;
  4014cc:	2204      	movs	r2, #4
  4014ce:	4b0a      	ldr	r3, [pc, #40]	; (4014f8 <udd_ctrl_in_sent+0x194>)
  4014d0:	701a      	strb	r2, [r3, #0]
		udd_ack_in_sent(0);
  4014d2:	4a0e      	ldr	r2, [pc, #56]	; (40150c <udd_ctrl_in_sent+0x1a8>)
  4014d4:	6b13      	ldr	r3, [r2, #48]	; 0x30
  4014d6:	9302      	str	r3, [sp, #8]
  4014d8:	9b02      	ldr	r3, [sp, #8]
  4014da:	f043 034f 	orr.w	r3, r3, #79	; 0x4f
  4014de:	9302      	str	r3, [sp, #8]
  4014e0:	9b02      	ldr	r3, [sp, #8]
  4014e2:	f023 0301 	bic.w	r3, r3, #1
  4014e6:	9302      	str	r3, [sp, #8]
  4014e8:	9b02      	ldr	r3, [sp, #8]
  4014ea:	6313      	str	r3, [r2, #48]	; 0x30
  4014ec:	6b13      	ldr	r3, [r2, #48]	; 0x30
  4014ee:	f013 0f01 	tst.w	r3, #1
  4014f2:	d1fb      	bne.n	4014ec <udd_ctrl_in_sent+0x188>
  4014f4:	e77b      	b.n	4013ee <udd_ctrl_in_sent+0x8a>
  4014f6:	bf00      	nop
  4014f8:	20000b4e 	.word	0x20000b4e
  4014fc:	20000b4a 	.word	0x20000b4a
  401500:	20000ce0 	.word	0x20000ce0
  401504:	20000b4c 	.word	0x20000b4c
  401508:	20000b48 	.word	0x20000b48
  40150c:	40034000 	.word	0x40034000
  401510:	00401355 	.word	0x00401355
  401514:	004012cd 	.word	0x004012cd
  401518:	200000e2 	.word	0x200000e2

0040151c <udd_ep_finish_job>:
}


static void udd_ep_finish_job(udd_ep_job_t * ptr_job, int status,
		uint8_t ep_num)
{
  40151c:	b538      	push	{r3, r4, r5, lr}
	if (ptr_job->busy == false) {
  40151e:	7c43      	ldrb	r3, [r0, #17]
  401520:	f013 0f10 	tst.w	r3, #16
  401524:	d016      	beq.n	401554 <udd_ep_finish_job+0x38>
  401526:	460d      	mov	r5, r1
		return; // No on-going job
	}
	ptr_job->busy = false;
  401528:	7c43      	ldrb	r3, [r0, #17]
  40152a:	f36f 1304 	bfc	r3, #4, #1
  40152e:	7443      	strb	r3, [r0, #17]
	if (NULL == ptr_job->call_trans) {
  401530:	6804      	ldr	r4, [r0, #0]
  401532:	b17c      	cbz	r4, 401554 <udd_ep_finish_job+0x38>
		return; // No callback linked to job
	}
	if (Is_udd_endpoint_type_in(ep_num)) {
  401534:	f102 030c 	add.w	r3, r2, #12
  401538:	4907      	ldr	r1, [pc, #28]	; (401558 <udd_ep_finish_job+0x3c>)
  40153a:	f851 3023 	ldr.w	r3, [r1, r3, lsl #2]
  40153e:	f413 6f80 	tst.w	r3, #1024	; 0x400
		ep_num |= USB_EP_DIR_IN;
  401542:	bf18      	it	ne
  401544:	f042 0280 	orrne.w	r2, r2, #128	; 0x80
	}
	ptr_job->call_trans((status == UDD_EP_TRANSFER_ABORT) ?
  401548:	6881      	ldr	r1, [r0, #8]
  40154a:	2d01      	cmp	r5, #1
  40154c:	bf14      	ite	ne
  40154e:	2000      	movne	r0, #0
  401550:	2001      	moveq	r0, #1
  401552:	47a0      	blx	r4
  401554:	bd38      	pop	{r3, r4, r5, pc}
  401556:	bf00      	nop
  401558:	40034000 	.word	0x40034000

0040155c <udd_ep_ack_out_received>:
		UDD_EP_TRANSFER_ABORT : UDD_EP_TRANSFER_OK, ptr_job->buf_size, ep_num);
}


static void udd_ep_ack_out_received(udd_ep_id_t ep)
{
  40155c:	b430      	push	{r4, r5}
  40155e:	b082      	sub	sp, #8
	bool bank0_received, bank1_received;
	udd_ep_job_t *ptr_job = &udd_ep_job[ep - 1];
  401560:	1e41      	subs	r1, r0, #1
  401562:	0083      	lsls	r3, r0, #2
  401564:	f103 2340 	add.w	r3, r3, #1073758208	; 0x40004000
  401568:	f503 3340 	add.w	r3, r3, #196608	; 0x30000

	bank0_received = Is_udd_bank0_received(ep);
  40156c:	6b1a      	ldr	r2, [r3, #48]	; 0x30
	bank1_received = Is_udd_bank1_received(ep);
  40156e:	6b1c      	ldr	r4, [r3, #48]	; 0x30

	if (bank0_received && bank1_received) {
  401570:	f012 0f02 	tst.w	r2, #2
  401574:	d032      	beq.n	4015dc <udd_ep_ack_out_received+0x80>
  401576:	f014 0f40 	tst.w	r4, #64	; 0x40
  40157a:	d108      	bne.n	40158e <udd_ep_ack_out_received+0x32>
		// The only way is to use ptr_job->bank
	} else if (bank0_received) {
		// Must be bank0
		ptr_job->bank = 0;
  40157c:	eb01 0281 	add.w	r2, r1, r1, lsl #2
  401580:	4c2a      	ldr	r4, [pc, #168]	; (40162c <udd_ep_ack_out_received+0xd0>)
  401582:	eb04 0282 	add.w	r2, r4, r2, lsl #2
  401586:	7c54      	ldrb	r4, [r2, #17]
  401588:	f36f 0483 	bfc	r4, #2, #2
  40158c:	7454      	strb	r4, [r2, #17]
	} else {
		// Must be bank1
		ptr_job->bank = 1;
	}
	if (ptr_job->bank == 0) {
  40158e:	eb01 0281 	add.w	r2, r1, r1, lsl #2
  401592:	4c26      	ldr	r4, [pc, #152]	; (40162c <udd_ep_ack_out_received+0xd0>)
  401594:	eb04 0282 	add.w	r2, r4, r2, lsl #2
  401598:	7c52      	ldrb	r2, [r2, #17]
  40159a:	f012 0f0c 	tst.w	r2, #12
  40159e:	d128      	bne.n	4015f2 <udd_ep_ack_out_received+0x96>
		udd_ack_bank0_received(ep);
  4015a0:	6b1a      	ldr	r2, [r3, #48]	; 0x30
  4015a2:	9200      	str	r2, [sp, #0]
  4015a4:	9a00      	ldr	r2, [sp, #0]
  4015a6:	f042 024f 	orr.w	r2, r2, #79	; 0x4f
  4015aa:	9200      	str	r2, [sp, #0]
  4015ac:	9a00      	ldr	r2, [sp, #0]
  4015ae:	f022 0202 	bic.w	r2, r2, #2
  4015b2:	9200      	str	r2, [sp, #0]
  4015b4:	9a00      	ldr	r2, [sp, #0]
  4015b6:	631a      	str	r2, [r3, #48]	; 0x30
  4015b8:	6b1a      	ldr	r2, [r3, #48]	; 0x30
  4015ba:	f012 0f02 	tst.w	r2, #2
  4015be:	d1fb      	bne.n	4015b8 <udd_ep_ack_out_received+0x5c>
		if (udd_get_endpoint_bank_max_nbr(ep) > 1) {
  4015c0:	b380      	cbz	r0, 401624 <udd_ep_ack_out_received+0xc8>
  4015c2:	2803      	cmp	r0, #3
  4015c4:	d02e      	beq.n	401624 <udd_ep_ack_out_received+0xc8>
			ptr_job->bank = 1;
  4015c6:	eb01 0181 	add.w	r1, r1, r1, lsl #2
  4015ca:	4b18      	ldr	r3, [pc, #96]	; (40162c <udd_ep_ack_out_received+0xd0>)
  4015cc:	eb03 0381 	add.w	r3, r3, r1, lsl #2
  4015d0:	7c5a      	ldrb	r2, [r3, #17]
  4015d2:	2101      	movs	r1, #1
  4015d4:	f361 0283 	bfi	r2, r1, #2, #2
  4015d8:	745a      	strb	r2, [r3, #17]
  4015da:	e023      	b.n	401624 <udd_ep_ack_out_received+0xc8>
		ptr_job->bank = 1;
  4015dc:	eb01 0281 	add.w	r2, r1, r1, lsl #2
  4015e0:	4c12      	ldr	r4, [pc, #72]	; (40162c <udd_ep_ack_out_received+0xd0>)
  4015e2:	eb04 0282 	add.w	r2, r4, r2, lsl #2
  4015e6:	7c54      	ldrb	r4, [r2, #17]
  4015e8:	2501      	movs	r5, #1
  4015ea:	f365 0483 	bfi	r4, r5, #2, #2
  4015ee:	7454      	strb	r4, [r2, #17]
  4015f0:	e7cd      	b.n	40158e <udd_ep_ack_out_received+0x32>
		}
	} else {
		udd_ack_bank1_received(ep);
  4015f2:	6b1a      	ldr	r2, [r3, #48]	; 0x30
  4015f4:	9201      	str	r2, [sp, #4]
  4015f6:	9a01      	ldr	r2, [sp, #4]
  4015f8:	f042 024f 	orr.w	r2, r2, #79	; 0x4f
  4015fc:	9201      	str	r2, [sp, #4]
  4015fe:	9a01      	ldr	r2, [sp, #4]
  401600:	f022 0240 	bic.w	r2, r2, #64	; 0x40
  401604:	9201      	str	r2, [sp, #4]
  401606:	9a01      	ldr	r2, [sp, #4]
  401608:	631a      	str	r2, [r3, #48]	; 0x30
  40160a:	6b1a      	ldr	r2, [r3, #48]	; 0x30
  40160c:	f012 0f40 	tst.w	r2, #64	; 0x40
  401610:	d1fb      	bne.n	40160a <udd_ep_ack_out_received+0xae>
		ptr_job->bank = 0;
  401612:	eb01 0181 	add.w	r1, r1, r1, lsl #2
  401616:	4b05      	ldr	r3, [pc, #20]	; (40162c <udd_ep_ack_out_received+0xd0>)
  401618:	eb03 0181 	add.w	r1, r3, r1, lsl #2
  40161c:	7c4b      	ldrb	r3, [r1, #17]
  40161e:	f36f 0383 	bfc	r3, #2, #2
  401622:	744b      	strb	r3, [r1, #17]
	}
}
  401624:	b002      	add	sp, #8
  401626:	bc30      	pop	{r4, r5}
  401628:	4770      	bx	lr
  40162a:	bf00      	nop
  40162c:	20000b50 	.word	0x20000b50

00401630 <udd_ep_in_sent>:
	return is_short_pkt;
}


static bool udd_ep_in_sent(udd_ep_id_t ep, bool b_tx)
{
  401630:	e92d 4ff0 	stmdb	sp!, {r4, r5, r6, r7, r8, r9, sl, fp, lr}
  401634:	b083      	sub	sp, #12
	bool b_shortpacket;
	udd_ep_job_t *ptr_job = &udd_ep_job[ep - 1];
  401636:	4682      	mov	sl, r0
  401638:	1e47      	subs	r7, r0, #1

	// All banks are full
	if (ptr_job->bank >= udd_get_endpoint_bank_max_nbr(ep)) {
  40163a:	eb07 0287 	add.w	r2, r7, r7, lsl #2
  40163e:	4b67      	ldr	r3, [pc, #412]	; (4017dc <udd_ep_in_sent+0x1ac>)
  401640:	eb03 0382 	add.w	r3, r3, r2, lsl #2
  401644:	f893 9011 	ldrb.w	r9, [r3, #17]
  401648:	f3c9 0981 	ubfx	r9, r9, #2, #2
  40164c:	2800      	cmp	r0, #0
  40164e:	f000 80b9 	beq.w	4017c4 <udd_ep_in_sent+0x194>
  401652:	2803      	cmp	r0, #3
  401654:	bf0c      	ite	eq
  401656:	2301      	moveq	r3, #1
  401658:	2302      	movne	r3, #2
  40165a:	454b      	cmp	r3, r9
  40165c:	f340 80b4 	ble.w	4017c8 <udd_ep_in_sent+0x198>
		return true; // Data pending
	}

	// No more data in buffer
	if (ptr_job->buf_cnt >= ptr_job->buf_size && !ptr_job->b_shortpacket) {
  401660:	eb07 0387 	add.w	r3, r7, r7, lsl #2
  401664:	4a5d      	ldr	r2, [pc, #372]	; (4017dc <udd_ep_in_sent+0x1ac>)
  401666:	eb02 0383 	add.w	r3, r2, r3, lsl #2
  40166a:	68dd      	ldr	r5, [r3, #12]
  40166c:	f8d3 c008 	ldr.w	ip, [r3, #8]
  401670:	4565      	cmp	r5, ip
  401672:	d308      	bcc.n	401686 <udd_ep_in_sent+0x56>
  401674:	eb07 0387 	add.w	r3, r7, r7, lsl #2
  401678:	eb02 0383 	add.w	r3, r2, r3, lsl #2
  40167c:	7c5b      	ldrb	r3, [r3, #17]
  40167e:	f013 0f40 	tst.w	r3, #64	; 0x40
  401682:	f000 80a5 	beq.w	4017d0 <udd_ep_in_sent+0x1a0>
	uint8_t *ptr_src = &ptr_job->buf[ptr_job->buf_cnt];
  401686:	eb07 0387 	add.w	r3, r7, r7, lsl #2
  40168a:	4a54      	ldr	r2, [pc, #336]	; (4017dc <udd_ep_in_sent+0x1ac>)
  40168c:	eb02 0383 	add.w	r3, r2, r3, lsl #2
  401690:	685c      	ldr	r4, [r3, #4]
  401692:	442c      	add	r4, r5
	uint32_t nb_remain = ptr_job->buf_size - ptr_job->buf_cnt;
  401694:	ebac 0e05 	sub.w	lr, ip, r5
	uint32_t pkt_size = ptr_job->size;
  401698:	8a1a      	ldrh	r2, [r3, #16]
  40169a:	f3c2 0609 	ubfx	r6, r2, #0, #10
	if (nb_remain < pkt_size) {
  40169e:	45b6      	cmp	lr, r6
		pkt_size = nb_remain;
  4016a0:	bf3a      	itte	cc
  4016a2:	4676      	movcc	r6, lr
		is_short_pkt = true;
  4016a4:	f04f 0801 	movcc.w	r8, #1
	bool is_short_pkt = false;
  4016a8:	f04f 0800 	movcs.w	r8, #0
	ptr_job->buf_cnt += pkt_size;
  4016ac:	eb05 0e06 	add.w	lr, r5, r6
  4016b0:	eb07 0387 	add.w	r3, r7, r7, lsl #2
  4016b4:	4a49      	ldr	r2, [pc, #292]	; (4017dc <udd_ep_in_sent+0x1ac>)
  4016b6:	eb02 0383 	add.w	r3, r2, r3, lsl #2
  4016ba:	f8c3 e00c 	str.w	lr, [r3, #12]
	for (; pkt_size >= 8; pkt_size -= 8) {
  4016be:	2e07      	cmp	r6, #7
  4016c0:	d933      	bls.n	40172a <udd_ep_in_sent+0xfa>
  4016c2:	f104 0308 	add.w	r3, r4, #8
  4016c6:	4635      	mov	r5, r6
  4016c8:	0082      	lsls	r2, r0, #2
  4016ca:	f102 2240 	add.w	r2, r2, #1073758208	; 0x40004000
  4016ce:	f502 3240 	add.w	r2, r2, #196608	; 0x30000
		udd_endpoint_fifo_write(ep, *ptr_src++);
  4016d2:	f813 bc08 	ldrb.w	fp, [r3, #-8]
  4016d6:	f8c2 b050 	str.w	fp, [r2, #80]	; 0x50
		udd_endpoint_fifo_write(ep, *ptr_src++);
  4016da:	f813 bc07 	ldrb.w	fp, [r3, #-7]
  4016de:	f8c2 b050 	str.w	fp, [r2, #80]	; 0x50
		udd_endpoint_fifo_write(ep, *ptr_src++);
  4016e2:	f813 bc06 	ldrb.w	fp, [r3, #-6]
  4016e6:	f8c2 b050 	str.w	fp, [r2, #80]	; 0x50
		udd_endpoint_fifo_write(ep, *ptr_src++);
  4016ea:	f813 bc05 	ldrb.w	fp, [r3, #-5]
  4016ee:	f8c2 b050 	str.w	fp, [r2, #80]	; 0x50
		udd_endpoint_fifo_write(ep, *ptr_src++);
  4016f2:	f813 bc04 	ldrb.w	fp, [r3, #-4]
  4016f6:	f8c2 b050 	str.w	fp, [r2, #80]	; 0x50
		udd_endpoint_fifo_write(ep, *ptr_src++);
  4016fa:	f813 bc03 	ldrb.w	fp, [r3, #-3]
  4016fe:	f8c2 b050 	str.w	fp, [r2, #80]	; 0x50
		udd_endpoint_fifo_write(ep, *ptr_src++);
  401702:	f813 bc02 	ldrb.w	fp, [r3, #-2]
  401706:	f8c2 b050 	str.w	fp, [r2, #80]	; 0x50
		udd_endpoint_fifo_write(ep, *ptr_src++);
  40170a:	f813 bc01 	ldrb.w	fp, [r3, #-1]
  40170e:	f8c2 b050 	str.w	fp, [r2, #80]	; 0x50
	for (; pkt_size >= 8; pkt_size -= 8) {
  401712:	3d08      	subs	r5, #8
  401714:	3308      	adds	r3, #8
  401716:	2d07      	cmp	r5, #7
  401718:	d8db      	bhi.n	4016d2 <udd_ep_in_sent+0xa2>
  40171a:	f1a6 0308 	sub.w	r3, r6, #8
  40171e:	f023 0307 	bic.w	r3, r3, #7
  401722:	3308      	adds	r3, #8
  401724:	441c      	add	r4, r3
  401726:	f006 0607 	and.w	r6, r6, #7
	for (; pkt_size; pkt_size--) {
  40172a:	b14e      	cbz	r6, 401740 <udd_ep_in_sent+0x110>
  40172c:	19a2      	adds	r2, r4, r6
		udd_endpoint_fifo_write(ep, *ptr_src++);
  40172e:	4d2c      	ldr	r5, [pc, #176]	; (4017e0 <udd_ep_in_sent+0x1b0>)
  401730:	f10a 0a14 	add.w	sl, sl, #20
  401734:	f814 3b01 	ldrb.w	r3, [r4], #1
  401738:	f845 302a 	str.w	r3, [r5, sl, lsl #2]
	for (; pkt_size; pkt_size--) {
  40173c:	4294      	cmp	r4, r2
  40173e:	d1f9      	bne.n	401734 <udd_ep_in_sent+0x104>
	ptr_job->bank++;
  401740:	eb07 0387 	add.w	r3, r7, r7, lsl #2
  401744:	4a25      	ldr	r2, [pc, #148]	; (4017dc <udd_ep_in_sent+0x1ac>)
  401746:	eb02 0383 	add.w	r3, r2, r3, lsl #2
  40174a:	f109 0901 	add.w	r9, r9, #1
  40174e:	7c5a      	ldrb	r2, [r3, #17]
  401750:	f369 0283 	bfi	r2, r9, #2, #2
  401754:	745a      	strb	r2, [r3, #17]

	// Fill FIFO
	b_shortpacket = udd_ep_write_fifo(ep);

	// Data is ready to send
	if (b_tx) {
  401756:	b1a1      	cbz	r1, 401782 <udd_ep_in_sent+0x152>
  401758:	0080      	lsls	r0, r0, #2
  40175a:	f100 2040 	add.w	r0, r0, #1073758208	; 0x40004000
  40175e:	f500 3040 	add.w	r0, r0, #196608	; 0x30000
		udd_set_transmit_ready(ep);
  401762:	6b03      	ldr	r3, [r0, #48]	; 0x30
  401764:	9301      	str	r3, [sp, #4]
  401766:	9b01      	ldr	r3, [sp, #4]
  401768:	f043 034f 	orr.w	r3, r3, #79	; 0x4f
  40176c:	9301      	str	r3, [sp, #4]
  40176e:	9b01      	ldr	r3, [sp, #4]
  401770:	f043 0310 	orr.w	r3, r3, #16
  401774:	9301      	str	r3, [sp, #4]
  401776:	9b01      	ldr	r3, [sp, #4]
  401778:	6303      	str	r3, [r0, #48]	; 0x30
  40177a:	6b03      	ldr	r3, [r0, #48]	; 0x30
  40177c:	f013 0f10 	tst.w	r3, #16
  401780:	d0fb      	beq.n	40177a <udd_ep_in_sent+0x14a>
	}
	// Short PKT? no need to send it again.
	if (b_shortpacket) {
  401782:	f1b8 0f00 	cmp.w	r8, #0
  401786:	d008      	beq.n	40179a <udd_ep_in_sent+0x16a>
		ptr_job->b_shortpacket = false;
  401788:	eb07 0387 	add.w	r3, r7, r7, lsl #2
  40178c:	4a13      	ldr	r2, [pc, #76]	; (4017dc <udd_ep_in_sent+0x1ac>)
  40178e:	eb02 0383 	add.w	r3, r2, r3, lsl #2
  401792:	7c5a      	ldrb	r2, [r3, #17]
  401794:	f36f 1286 	bfc	r2, #6, #1
  401798:	745a      	strb	r2, [r3, #17]
	}
	// All transfer done, including ZLP, Finish Job
	if ((ptr_job->buf_cnt >= ptr_job->buf_size)
  40179a:	45f4      	cmp	ip, lr
  40179c:	d81a      	bhi.n	4017d4 <udd_ep_in_sent+0x1a4>
			&& (!ptr_job->b_shortpacket)) {
  40179e:	eb07 0387 	add.w	r3, r7, r7, lsl #2
  4017a2:	4a0e      	ldr	r2, [pc, #56]	; (4017dc <udd_ep_in_sent+0x1ac>)
  4017a4:	eb02 0383 	add.w	r3, r2, r3, lsl #2
  4017a8:	7c5b      	ldrb	r3, [r3, #17]
  4017aa:	f013 0f40 	tst.w	r3, #64	; 0x40
  4017ae:	d113      	bne.n	4017d8 <udd_ep_in_sent+0x1a8>
		ptr_job->b_buf_end = true;
  4017b0:	eb07 0387 	add.w	r3, r7, r7, lsl #2
  4017b4:	eb02 0383 	add.w	r3, r2, r3, lsl #2
  4017b8:	7c5a      	ldrb	r2, [r3, #17]
  4017ba:	f042 0280 	orr.w	r2, r2, #128	; 0x80
  4017be:	745a      	strb	r2, [r3, #17]
		return false;
  4017c0:	2000      	movs	r0, #0
  4017c2:	e002      	b.n	4017ca <udd_ep_in_sent+0x19a>
	if (ptr_job->bank >= udd_get_endpoint_bank_max_nbr(ep)) {
  4017c4:	2301      	movs	r3, #1
  4017c6:	e748      	b.n	40165a <udd_ep_in_sent+0x2a>
		return true; // Data pending
  4017c8:	2001      	movs	r0, #1
	}
	return true; // Pending
}
  4017ca:	b003      	add	sp, #12
  4017cc:	e8bd 8ff0 	ldmia.w	sp!, {r4, r5, r6, r7, r8, r9, sl, fp, pc}
		return false;
  4017d0:	2000      	movs	r0, #0
  4017d2:	e7fa      	b.n	4017ca <udd_ep_in_sent+0x19a>
	return true; // Pending
  4017d4:	2001      	movs	r0, #1
  4017d6:	e7f8      	b.n	4017ca <udd_ep_in_sent+0x19a>
  4017d8:	2001      	movs	r0, #1
  4017da:	e7f6      	b.n	4017ca <udd_ep_in_sent+0x19a>
  4017dc:	20000b50 	.word	0x20000b50
  4017e0:	40034000 	.word	0x40034000

004017e4 <UDP_Handler>:
{
  4017e4:	e92d 4ff0 	stmdb	sp!, {r4, r5, r6, r7, r8, r9, sl, fp, lr}
  4017e8:	b09b      	sub	sp, #108	; 0x6c
	if (!pmc_is_wakeup_clocks_restored() && !Is_udd_suspend()) {
  4017ea:	4b87      	ldr	r3, [pc, #540]	; (401a08 <UDP_Handler+0x224>)
  4017ec:	4798      	blx	r3
  4017ee:	b920      	cbnz	r0, 4017fa <UDP_Handler+0x16>
  4017f0:	4b86      	ldr	r3, [pc, #536]	; (401a0c <UDP_Handler+0x228>)
  4017f2:	69db      	ldr	r3, [r3, #28]
  4017f4:	f413 7f80 	tst.w	r3, #256	; 0x100
  4017f8:	d03b      	beq.n	401872 <UDP_Handler+0x8e>
	udd_enable_periph_ck();
  4017fa:	2022      	movs	r0, #34	; 0x22
  4017fc:	4b84      	ldr	r3, [pc, #528]	; (401a10 <UDP_Handler+0x22c>)
  4017fe:	4798      	blx	r3
	if (Is_udd_sof_interrupt_enabled() && Is_udd_sof()) {
  401800:	4b82      	ldr	r3, [pc, #520]	; (401a0c <UDP_Handler+0x228>)
  401802:	699b      	ldr	r3, [r3, #24]
  401804:	f413 6f00 	tst.w	r3, #2048	; 0x800
  401808:	d004      	beq.n	401814 <UDP_Handler+0x30>
  40180a:	4b80      	ldr	r3, [pc, #512]	; (401a0c <UDP_Handler+0x228>)
  40180c:	69db      	ldr	r3, [r3, #28]
  40180e:	f413 6f00 	tst.w	r3, #2048	; 0x800
  401812:	d137      	bne.n	401884 <UDP_Handler+0xa0>
	if (!Is_udd_endpoint_interrupt(0))
  401814:	4b7d      	ldr	r3, [pc, #500]	; (401a0c <UDP_Handler+0x228>)
  401816:	69db      	ldr	r3, [r3, #28]
  401818:	f013 0f01 	tst.w	r3, #1
  40181c:	f000 81c6 	beq.w	401bac <UDP_Handler+0x3c8>
	if (Is_udd_setup_received(0)) {
  401820:	4b7a      	ldr	r3, [pc, #488]	; (401a0c <UDP_Handler+0x228>)
  401822:	6b1b      	ldr	r3, [r3, #48]	; 0x30
  401824:	f013 0f04 	tst.w	r3, #4
  401828:	d135      	bne.n	401896 <UDP_Handler+0xb2>
	if (Is_udd_in_sent(0)) {
  40182a:	4b78      	ldr	r3, [pc, #480]	; (401a0c <UDP_Handler+0x228>)
  40182c:	6b1b      	ldr	r3, [r3, #48]	; 0x30
  40182e:	f013 0f01 	tst.w	r3, #1
  401832:	f040 80c5 	bne.w	4019c0 <UDP_Handler+0x1dc>
	if (Is_udd_bank0_received(0)) {
  401836:	4b75      	ldr	r3, [pc, #468]	; (401a0c <UDP_Handler+0x228>)
  401838:	6b1b      	ldr	r3, [r3, #48]	; 0x30
  40183a:	f013 0f02 	tst.w	r3, #2
  40183e:	f040 80c2 	bne.w	4019c6 <UDP_Handler+0x1e2>
	if (Is_udd_stall(0)) {
  401842:	4b72      	ldr	r3, [pc, #456]	; (401a0c <UDP_Handler+0x228>)
  401844:	6b1b      	ldr	r3, [r3, #48]	; 0x30
  401846:	f013 0f08 	tst.w	r3, #8
  40184a:	f000 81af 	beq.w	401bac <UDP_Handler+0x3c8>
		udd_ack_stall(0);
  40184e:	4a6f      	ldr	r2, [pc, #444]	; (401a0c <UDP_Handler+0x228>)
  401850:	6b13      	ldr	r3, [r2, #48]	; 0x30
  401852:	9300      	str	r3, [sp, #0]
  401854:	9b00      	ldr	r3, [sp, #0]
  401856:	f043 034f 	orr.w	r3, r3, #79	; 0x4f
  40185a:	9300      	str	r3, [sp, #0]
  40185c:	9b00      	ldr	r3, [sp, #0]
  40185e:	f023 0308 	bic.w	r3, r3, #8
  401862:	9300      	str	r3, [sp, #0]
  401864:	9b00      	ldr	r3, [sp, #0]
  401866:	6313      	str	r3, [r2, #48]	; 0x30
  401868:	6b13      	ldr	r3, [r2, #48]	; 0x30
  40186a:	f013 0f08 	tst.w	r3, #8
  40186e:	d1fb      	bne.n	401868 <UDP_Handler+0x84>
  401870:	e005      	b.n	40187e <UDP_Handler+0x9a>
  __ASM volatile ("cpsid i" : : : "memory");
  401872:	b672      	cpsid	i
  401874:	f3bf 8f5f 	dmb	sy
		cpu_irq_disable();
  401878:	2200      	movs	r2, #0
  40187a:	4b66      	ldr	r3, [pc, #408]	; (401a14 <UDP_Handler+0x230>)
  40187c:	701a      	strb	r2, [r3, #0]
}
  40187e:	b01b      	add	sp, #108	; 0x6c
  401880:	e8bd 8ff0 	ldmia.w	sp!, {r4, r5, r6, r7, r8, r9, sl, fp, pc}
		udd_ack_sof();
  401884:	f44f 6200 	mov.w	r2, #2048	; 0x800
  401888:	4b60      	ldr	r3, [pc, #384]	; (401a0c <UDP_Handler+0x228>)
  40188a:	621a      	str	r2, [r3, #32]
		udc_sof_notify();
  40188c:	4b62      	ldr	r3, [pc, #392]	; (401a18 <UDP_Handler+0x234>)
  40188e:	4798      	blx	r3
		UDC_SOF_EVENT();
  401890:	4b62      	ldr	r3, [pc, #392]	; (401a1c <UDP_Handler+0x238>)
  401892:	4798      	blx	r3
		goto udd_interrupt_sof_end;
  401894:	e7f3      	b.n	40187e <UDP_Handler+0x9a>
	if (UDD_EPCTRL_SETUP != udd_ep_control_state) {
  401896:	4b62      	ldr	r3, [pc, #392]	; (401a20 <UDP_Handler+0x23c>)
  401898:	781b      	ldrb	r3, [r3, #0]
  40189a:	b9cb      	cbnz	r3, 4018d0 <UDP_Handler+0xec>
	if (8 != udd_byte_count(0)) {
  40189c:	4b5b      	ldr	r3, [pc, #364]	; (401a0c <UDP_Handler+0x228>)
  40189e:	6b1b      	ldr	r3, [r3, #48]	; 0x30
  4018a0:	f3c3 430a 	ubfx	r3, r3, #16, #11
  4018a4:	2b08      	cmp	r3, #8
  4018a6:	d018      	beq.n	4018da <UDP_Handler+0xf6>
		udd_ack_setup_received(0);
  4018a8:	4a58      	ldr	r2, [pc, #352]	; (401a0c <UDP_Handler+0x228>)
  4018aa:	6b13      	ldr	r3, [r2, #48]	; 0x30
  4018ac:	9301      	str	r3, [sp, #4]
  4018ae:	9b01      	ldr	r3, [sp, #4]
  4018b0:	f043 034f 	orr.w	r3, r3, #79	; 0x4f
  4018b4:	9301      	str	r3, [sp, #4]
  4018b6:	9b01      	ldr	r3, [sp, #4]
  4018b8:	f023 0304 	bic.w	r3, r3, #4
  4018bc:	9301      	str	r3, [sp, #4]
  4018be:	9b01      	ldr	r3, [sp, #4]
  4018c0:	6313      	str	r3, [r2, #48]	; 0x30
  4018c2:	6b13      	ldr	r3, [r2, #48]	; 0x30
  4018c4:	f013 0f04 	tst.w	r3, #4
  4018c8:	d1fb      	bne.n	4018c2 <UDP_Handler+0xde>
		udd_ctrl_stall_data();
  4018ca:	4b56      	ldr	r3, [pc, #344]	; (401a24 <UDP_Handler+0x240>)
  4018cc:	4798      	blx	r3
  4018ce:	e7d6      	b.n	40187e <UDP_Handler+0x9a>
		udd_ctrl_endofrequest();
  4018d0:	4b55      	ldr	r3, [pc, #340]	; (401a28 <UDP_Handler+0x244>)
  4018d2:	4798      	blx	r3
		udd_ctrl_init();
  4018d4:	4b55      	ldr	r3, [pc, #340]	; (401a2c <UDP_Handler+0x248>)
  4018d6:	4798      	blx	r3
  4018d8:	e7e0      	b.n	40189c <UDP_Handler+0xb8>
  4018da:	4b55      	ldr	r3, [pc, #340]	; (401a30 <UDP_Handler+0x24c>)
  4018dc:	f103 0008 	add.w	r0, r3, #8
			udd_endpoint_fifo_read(0);
  4018e0:	494a      	ldr	r1, [pc, #296]	; (401a0c <UDP_Handler+0x228>)
  4018e2:	6d0a      	ldr	r2, [r1, #80]	; 0x50
		((uint8_t *) & udd_g_ctrlreq.req)[i] =
  4018e4:	f803 2f01 	strb.w	r2, [r3, #1]!
	for (i = 0; i < 8; i++) {
  4018e8:	4283      	cmp	r3, r0
  4018ea:	d1fa      	bne.n	4018e2 <UDP_Handler+0xfe>
	if (udc_process_setup() == false) {
  4018ec:	4b51      	ldr	r3, [pc, #324]	; (401a34 <UDP_Handler+0x250>)
  4018ee:	4798      	blx	r3
  4018f0:	b998      	cbnz	r0, 40191a <UDP_Handler+0x136>
		udd_ack_setup_received(0);
  4018f2:	4a46      	ldr	r2, [pc, #280]	; (401a0c <UDP_Handler+0x228>)
  4018f4:	6b13      	ldr	r3, [r2, #48]	; 0x30
  4018f6:	9302      	str	r3, [sp, #8]
  4018f8:	9b02      	ldr	r3, [sp, #8]
  4018fa:	f043 034f 	orr.w	r3, r3, #79	; 0x4f
  4018fe:	9302      	str	r3, [sp, #8]
  401900:	9b02      	ldr	r3, [sp, #8]
  401902:	f023 0304 	bic.w	r3, r3, #4
  401906:	9302      	str	r3, [sp, #8]
  401908:	9b02      	ldr	r3, [sp, #8]
  40190a:	6313      	str	r3, [r2, #48]	; 0x30
  40190c:	6b13      	ldr	r3, [r2, #48]	; 0x30
  40190e:	f013 0f04 	tst.w	r3, #4
  401912:	d1fb      	bne.n	40190c <UDP_Handler+0x128>
		udd_ctrl_stall_data();
  401914:	4b43      	ldr	r3, [pc, #268]	; (401a24 <UDP_Handler+0x240>)
  401916:	4798      	blx	r3
  401918:	e7b1      	b.n	40187e <UDP_Handler+0x9a>
	if (Udd_setup_is_in()) {
  40191a:	4b47      	ldr	r3, [pc, #284]	; (401a38 <UDP_Handler+0x254>)
  40191c:	f993 3000 	ldrsb.w	r3, [r3]
  401920:	2b00      	cmp	r3, #0
  401922:	db1d      	blt.n	401960 <UDP_Handler+0x17c>
		udd_ack_setup_received(0);
  401924:	4a39      	ldr	r2, [pc, #228]	; (401a0c <UDP_Handler+0x228>)
  401926:	6b13      	ldr	r3, [r2, #48]	; 0x30
  401928:	9305      	str	r3, [sp, #20]
  40192a:	9b05      	ldr	r3, [sp, #20]
  40192c:	f043 034f 	orr.w	r3, r3, #79	; 0x4f
  401930:	9305      	str	r3, [sp, #20]
  401932:	9b05      	ldr	r3, [sp, #20]
  401934:	f023 0304 	bic.w	r3, r3, #4
  401938:	9305      	str	r3, [sp, #20]
  40193a:	9b05      	ldr	r3, [sp, #20]
  40193c:	6313      	str	r3, [r2, #48]	; 0x30
  40193e:	6b13      	ldr	r3, [r2, #48]	; 0x30
  401940:	f013 0f04 	tst.w	r3, #4
  401944:	d1fb      	bne.n	40193e <UDP_Handler+0x15a>
		if (0 == udd_g_ctrlreq.req.wLength) {
  401946:	4b3c      	ldr	r3, [pc, #240]	; (401a38 <UDP_Handler+0x254>)
  401948:	88db      	ldrh	r3, [r3, #6]
  40194a:	2b00      	cmp	r3, #0
  40194c:	d035      	beq.n	4019ba <UDP_Handler+0x1d6>
		udd_ctrl_prev_payload_nb_trans = 0;
  40194e:	2300      	movs	r3, #0
  401950:	4a3a      	ldr	r2, [pc, #232]	; (401a3c <UDP_Handler+0x258>)
  401952:	8013      	strh	r3, [r2, #0]
		udd_ctrl_payload_nb_trans = 0;
  401954:	4a3a      	ldr	r2, [pc, #232]	; (401a40 <UDP_Handler+0x25c>)
  401956:	8013      	strh	r3, [r2, #0]
		udd_ep_control_state = UDD_EPCTRL_DATA_OUT;
  401958:	2201      	movs	r2, #1
  40195a:	4b31      	ldr	r3, [pc, #196]	; (401a20 <UDP_Handler+0x23c>)
  40195c:	701a      	strb	r2, [r3, #0]
  40195e:	e78e      	b.n	40187e <UDP_Handler+0x9a>
		udd_set_endpoint_direction_in(0);
  401960:	4a2a      	ldr	r2, [pc, #168]	; (401a0c <UDP_Handler+0x228>)
  401962:	6b13      	ldr	r3, [r2, #48]	; 0x30
  401964:	9303      	str	r3, [sp, #12]
  401966:	9b03      	ldr	r3, [sp, #12]
  401968:	f043 034f 	orr.w	r3, r3, #79	; 0x4f
  40196c:	9303      	str	r3, [sp, #12]
  40196e:	9b03      	ldr	r3, [sp, #12]
  401970:	f043 0380 	orr.w	r3, r3, #128	; 0x80
  401974:	9303      	str	r3, [sp, #12]
  401976:	9b03      	ldr	r3, [sp, #12]
  401978:	6313      	str	r3, [r2, #48]	; 0x30
  40197a:	6b13      	ldr	r3, [r2, #48]	; 0x30
  40197c:	f013 0f80 	tst.w	r3, #128	; 0x80
  401980:	d0fb      	beq.n	40197a <UDP_Handler+0x196>
		udd_ack_setup_received(0);
  401982:	4a22      	ldr	r2, [pc, #136]	; (401a0c <UDP_Handler+0x228>)
  401984:	6b13      	ldr	r3, [r2, #48]	; 0x30
  401986:	9304      	str	r3, [sp, #16]
  401988:	9b04      	ldr	r3, [sp, #16]
  40198a:	f043 034f 	orr.w	r3, r3, #79	; 0x4f
  40198e:	9304      	str	r3, [sp, #16]
  401990:	9b04      	ldr	r3, [sp, #16]
  401992:	f023 0304 	bic.w	r3, r3, #4
  401996:	9304      	str	r3, [sp, #16]
  401998:	9b04      	ldr	r3, [sp, #16]
  40199a:	6313      	str	r3, [r2, #48]	; 0x30
  40199c:	6b13      	ldr	r3, [r2, #48]	; 0x30
  40199e:	f013 0f04 	tst.w	r3, #4
  4019a2:	d1fb      	bne.n	40199c <UDP_Handler+0x1b8>
		udd_ctrl_prev_payload_nb_trans = 0;
  4019a4:	2300      	movs	r3, #0
  4019a6:	4a25      	ldr	r2, [pc, #148]	; (401a3c <UDP_Handler+0x258>)
  4019a8:	8013      	strh	r3, [r2, #0]
		udd_ctrl_payload_nb_trans = 0;
  4019aa:	4a25      	ldr	r2, [pc, #148]	; (401a40 <UDP_Handler+0x25c>)
  4019ac:	8013      	strh	r3, [r2, #0]
		udd_ep_control_state = UDD_EPCTRL_DATA_IN;
  4019ae:	2202      	movs	r2, #2
  4019b0:	4b1b      	ldr	r3, [pc, #108]	; (401a20 <UDP_Handler+0x23c>)
  4019b2:	701a      	strb	r2, [r3, #0]
		udd_ctrl_in_sent(); // Send first data transfer
  4019b4:	4b23      	ldr	r3, [pc, #140]	; (401a44 <UDP_Handler+0x260>)
  4019b6:	4798      	blx	r3
  4019b8:	e761      	b.n	40187e <UDP_Handler+0x9a>
			udd_ctrl_send_zlp_in();
  4019ba:	4b23      	ldr	r3, [pc, #140]	; (401a48 <UDP_Handler+0x264>)
  4019bc:	4798      	blx	r3
  4019be:	e75e      	b.n	40187e <UDP_Handler+0x9a>
		udd_ctrl_in_sent();
  4019c0:	4b20      	ldr	r3, [pc, #128]	; (401a44 <UDP_Handler+0x260>)
  4019c2:	4798      	blx	r3
  4019c4:	e75b      	b.n	40187e <UDP_Handler+0x9a>
	if (UDD_EPCTRL_DATA_OUT != udd_ep_control_state) {
  4019c6:	4b16      	ldr	r3, [pc, #88]	; (401a20 <UDP_Handler+0x23c>)
  4019c8:	781b      	ldrb	r3, [r3, #0]
  4019ca:	2b01      	cmp	r3, #1
  4019cc:	d03e      	beq.n	401a4c <UDP_Handler+0x268>
		if ((UDD_EPCTRL_DATA_IN == udd_ep_control_state)
  4019ce:	2b02      	cmp	r3, #2
  4019d0:	d004      	beq.n	4019dc <UDP_Handler+0x1f8>
				|| (UDD_EPCTRL_HANDSHAKE_WAIT_OUT_ZLP ==
  4019d2:	2b04      	cmp	r3, #4
  4019d4:	d002      	beq.n	4019dc <UDP_Handler+0x1f8>
			udd_ctrl_stall_data();
  4019d6:	4b13      	ldr	r3, [pc, #76]	; (401a24 <UDP_Handler+0x240>)
  4019d8:	4798      	blx	r3
  4019da:	e001      	b.n	4019e0 <UDP_Handler+0x1fc>
			udd_ctrl_endofrequest();
  4019dc:	4b12      	ldr	r3, [pc, #72]	; (401a28 <UDP_Handler+0x244>)
  4019de:	4798      	blx	r3
		udd_ack_bank0_received(0);
  4019e0:	4a0a      	ldr	r2, [pc, #40]	; (401a0c <UDP_Handler+0x228>)
  4019e2:	6b13      	ldr	r3, [r2, #48]	; 0x30
  4019e4:	9306      	str	r3, [sp, #24]
  4019e6:	9b06      	ldr	r3, [sp, #24]
  4019e8:	f043 034f 	orr.w	r3, r3, #79	; 0x4f
  4019ec:	9306      	str	r3, [sp, #24]
  4019ee:	9b06      	ldr	r3, [sp, #24]
  4019f0:	f023 0302 	bic.w	r3, r3, #2
  4019f4:	9306      	str	r3, [sp, #24]
  4019f6:	9b06      	ldr	r3, [sp, #24]
  4019f8:	6313      	str	r3, [r2, #48]	; 0x30
  4019fa:	6b13      	ldr	r3, [r2, #48]	; 0x30
  4019fc:	f013 0f02 	tst.w	r3, #2
  401a00:	d1fb      	bne.n	4019fa <UDP_Handler+0x216>
		udd_ctrl_init();
  401a02:	4b0a      	ldr	r3, [pc, #40]	; (401a2c <UDP_Handler+0x248>)
  401a04:	4798      	blx	r3
  401a06:	e73a      	b.n	40187e <UDP_Handler+0x9a>
  401a08:	004010ad 	.word	0x004010ad
  401a0c:	40034000 	.word	0x40034000
  401a10:	00400cd5 	.word	0x00400cd5
  401a14:	200000e2 	.word	0x200000e2
  401a18:	0040058d 	.word	0x0040058d
  401a1c:	00404415 	.word	0x00404415
  401a20:	20000b4e 	.word	0x20000b4e
  401a24:	004012e5 	.word	0x004012e5
  401a28:	00401355 	.word	0x00401355
  401a2c:	004012cd 	.word	0x004012cd
  401a30:	20000cdf 	.word	0x20000cdf
  401a34:	004005cd 	.word	0x004005cd
  401a38:	20000ce0 	.word	0x20000ce0
  401a3c:	20000b4c 	.word	0x20000b4c
  401a40:	20000b4a 	.word	0x20000b4a
  401a44:	00401365 	.word	0x00401365
  401a48:	0040131d 	.word	0x0040131d
	nb_data = udd_byte_count(0);
  401a4c:	4b51      	ldr	r3, [pc, #324]	; (401b94 <UDP_Handler+0x3b0>)
  401a4e:	6b19      	ldr	r1, [r3, #48]	; 0x30
  401a50:	f3c1 410a 	ubfx	r1, r1, #16, #11
	if (udd_g_ctrlreq.payload_size < (udd_ctrl_payload_nb_trans + nb_data)) {
  401a54:	4b50      	ldr	r3, [pc, #320]	; (401b98 <UDP_Handler+0x3b4>)
  401a56:	899b      	ldrh	r3, [r3, #12]
  401a58:	4a50      	ldr	r2, [pc, #320]	; (401b9c <UDP_Handler+0x3b8>)
  401a5a:	8815      	ldrh	r5, [r2, #0]
  401a5c:	186a      	adds	r2, r5, r1
  401a5e:	4293      	cmp	r3, r2
		nb_data = udd_g_ctrlreq.payload_size -
  401a60:	bfbc      	itt	lt
  401a62:	1b5b      	sublt	r3, r3, r5
  401a64:	b299      	uxthlt	r1, r3
	uint8_t *ptr_dest = udd_g_ctrlreq.payload + udd_ctrl_payload_nb_trans;
  401a66:	4b4c      	ldr	r3, [pc, #304]	; (401b98 <UDP_Handler+0x3b4>)
  401a68:	6898      	ldr	r0, [r3, #8]
  401a6a:	4428      	add	r0, r5
	for (i = 0; i < nb_data; i++) {
  401a6c:	b171      	cbz	r1, 401a8c <UDP_Handler+0x2a8>
  401a6e:	4602      	mov	r2, r0
		*ptr_dest++ = udd_endpoint_fifo_read(0);
  401a70:	4c48      	ldr	r4, [pc, #288]	; (401b94 <UDP_Handler+0x3b0>)
  401a72:	6d23      	ldr	r3, [r4, #80]	; 0x50
  401a74:	f802 3b01 	strb.w	r3, [r2], #1
	for (i = 0; i < nb_data; i++) {
  401a78:	1a13      	subs	r3, r2, r0
  401a7a:	b2db      	uxtb	r3, r3
  401a7c:	428b      	cmp	r3, r1
  401a7e:	d3f8      	bcc.n	401a72 <UDP_Handler+0x28e>
	udd_ctrl_payload_nb_trans += nb_data;
  401a80:	440d      	add	r5, r1
  401a82:	b2ad      	uxth	r5, r5
  401a84:	4b45      	ldr	r3, [pc, #276]	; (401b9c <UDP_Handler+0x3b8>)
  401a86:	801d      	strh	r5, [r3, #0]
	if ((USB_DEVICE_EP_CTRL_SIZE != nb_data)
  401a88:	2940      	cmp	r1, #64	; 0x40
  401a8a:	d01a      	beq.n	401ac2 <UDP_Handler+0x2de>
		udd_g_ctrlreq.payload_size = udd_ctrl_payload_nb_trans;
  401a8c:	4b42      	ldr	r3, [pc, #264]	; (401b98 <UDP_Handler+0x3b4>)
  401a8e:	819d      	strh	r5, [r3, #12]
		if (NULL != udd_g_ctrlreq.over_under_run) {
  401a90:	695b      	ldr	r3, [r3, #20]
  401a92:	b113      	cbz	r3, 401a9a <UDP_Handler+0x2b6>
			if (!udd_g_ctrlreq.over_under_run()) {
  401a94:	4798      	blx	r3
  401a96:	2800      	cmp	r0, #0
  401a98:	d030      	beq.n	401afc <UDP_Handler+0x318>
		udd_ack_bank0_received(0);
  401a9a:	4a3e      	ldr	r2, [pc, #248]	; (401b94 <UDP_Handler+0x3b0>)
  401a9c:	6b13      	ldr	r3, [r2, #48]	; 0x30
  401a9e:	9308      	str	r3, [sp, #32]
  401aa0:	9b08      	ldr	r3, [sp, #32]
  401aa2:	f043 034f 	orr.w	r3, r3, #79	; 0x4f
  401aa6:	9308      	str	r3, [sp, #32]
  401aa8:	9b08      	ldr	r3, [sp, #32]
  401aaa:	f023 0302 	bic.w	r3, r3, #2
  401aae:	9308      	str	r3, [sp, #32]
  401ab0:	9b08      	ldr	r3, [sp, #32]
  401ab2:	6313      	str	r3, [r2, #48]	; 0x30
  401ab4:	6b13      	ldr	r3, [r2, #48]	; 0x30
  401ab6:	f013 0f02 	tst.w	r3, #2
  401aba:	d1fb      	bne.n	401ab4 <UDP_Handler+0x2d0>
		udd_ctrl_send_zlp_in();
  401abc:	4b38      	ldr	r3, [pc, #224]	; (401ba0 <UDP_Handler+0x3bc>)
  401abe:	4798      	blx	r3
  401ac0:	e6dd      	b.n	40187e <UDP_Handler+0x9a>
			|| (udd_g_ctrlreq.req.wLength <=
  401ac2:	4b35      	ldr	r3, [pc, #212]	; (401b98 <UDP_Handler+0x3b4>)
  401ac4:	88da      	ldrh	r2, [r3, #6]
			(udd_ctrl_prev_payload_nb_trans +
  401ac6:	4b37      	ldr	r3, [pc, #220]	; (401ba4 <UDP_Handler+0x3c0>)
  401ac8:	881b      	ldrh	r3, [r3, #0]
  401aca:	442b      	add	r3, r5
			|| (udd_g_ctrlreq.req.wLength <=
  401acc:	429a      	cmp	r2, r3
  401ace:	dddd      	ble.n	401a8c <UDP_Handler+0x2a8>
	if (udd_g_ctrlreq.payload_size == udd_ctrl_payload_nb_trans) {
  401ad0:	4b31      	ldr	r3, [pc, #196]	; (401b98 <UDP_Handler+0x3b4>)
  401ad2:	899b      	ldrh	r3, [r3, #12]
  401ad4:	42ab      	cmp	r3, r5
  401ad6:	d025      	beq.n	401b24 <UDP_Handler+0x340>
	udd_ack_bank0_received(0);
  401ad8:	4a2e      	ldr	r2, [pc, #184]	; (401b94 <UDP_Handler+0x3b0>)
  401ada:	6b13      	ldr	r3, [r2, #48]	; 0x30
  401adc:	930b      	str	r3, [sp, #44]	; 0x2c
  401ade:	9b0b      	ldr	r3, [sp, #44]	; 0x2c
  401ae0:	f043 034f 	orr.w	r3, r3, #79	; 0x4f
  401ae4:	930b      	str	r3, [sp, #44]	; 0x2c
  401ae6:	9b0b      	ldr	r3, [sp, #44]	; 0x2c
  401ae8:	f023 0302 	bic.w	r3, r3, #2
  401aec:	930b      	str	r3, [sp, #44]	; 0x2c
  401aee:	9b0b      	ldr	r3, [sp, #44]	; 0x2c
  401af0:	6313      	str	r3, [r2, #48]	; 0x30
  401af2:	6b13      	ldr	r3, [r2, #48]	; 0x30
  401af4:	f013 0f02 	tst.w	r3, #2
  401af8:	d1fb      	bne.n	401af2 <UDP_Handler+0x30e>
  401afa:	e6c0      	b.n	40187e <UDP_Handler+0x9a>
				udd_ctrl_stall_data();
  401afc:	4b2a      	ldr	r3, [pc, #168]	; (401ba8 <UDP_Handler+0x3c4>)
  401afe:	4798      	blx	r3
				udd_ack_bank0_received(0);
  401b00:	4a24      	ldr	r2, [pc, #144]	; (401b94 <UDP_Handler+0x3b0>)
  401b02:	6b13      	ldr	r3, [r2, #48]	; 0x30
  401b04:	9307      	str	r3, [sp, #28]
  401b06:	9b07      	ldr	r3, [sp, #28]
  401b08:	f043 034f 	orr.w	r3, r3, #79	; 0x4f
  401b0c:	9307      	str	r3, [sp, #28]
  401b0e:	9b07      	ldr	r3, [sp, #28]
  401b10:	f023 0302 	bic.w	r3, r3, #2
  401b14:	9307      	str	r3, [sp, #28]
  401b16:	9b07      	ldr	r3, [sp, #28]
  401b18:	6313      	str	r3, [r2, #48]	; 0x30
  401b1a:	6b13      	ldr	r3, [r2, #48]	; 0x30
  401b1c:	f013 0f02 	tst.w	r3, #2
  401b20:	d1fb      	bne.n	401b1a <UDP_Handler+0x336>
  401b22:	e6ac      	b.n	40187e <UDP_Handler+0x9a>
		if (!udd_g_ctrlreq.over_under_run) {
  401b24:	4b1c      	ldr	r3, [pc, #112]	; (401b98 <UDP_Handler+0x3b4>)
  401b26:	695b      	ldr	r3, [r3, #20]
  401b28:	b153      	cbz	r3, 401b40 <UDP_Handler+0x35c>
		if (!udd_g_ctrlreq.over_under_run()) {
  401b2a:	4798      	blx	r3
  401b2c:	b1e8      	cbz	r0, 401b6a <UDP_Handler+0x386>
		udd_ctrl_prev_payload_nb_trans += udd_ctrl_payload_nb_trans;
  401b2e:	491d      	ldr	r1, [pc, #116]	; (401ba4 <UDP_Handler+0x3c0>)
  401b30:	4a1a      	ldr	r2, [pc, #104]	; (401b9c <UDP_Handler+0x3b8>)
  401b32:	880b      	ldrh	r3, [r1, #0]
  401b34:	8810      	ldrh	r0, [r2, #0]
  401b36:	4403      	add	r3, r0
  401b38:	800b      	strh	r3, [r1, #0]
		udd_ctrl_payload_nb_trans = 0;
  401b3a:	2300      	movs	r3, #0
  401b3c:	8013      	strh	r3, [r2, #0]
  401b3e:	e7cb      	b.n	401ad8 <UDP_Handler+0x2f4>
			udd_ctrl_stall_data();
  401b40:	4b19      	ldr	r3, [pc, #100]	; (401ba8 <UDP_Handler+0x3c4>)
  401b42:	4798      	blx	r3
			udd_ack_bank0_received(0);
  401b44:	4a13      	ldr	r2, [pc, #76]	; (401b94 <UDP_Handler+0x3b0>)
  401b46:	6b13      	ldr	r3, [r2, #48]	; 0x30
  401b48:	9309      	str	r3, [sp, #36]	; 0x24
  401b4a:	9b09      	ldr	r3, [sp, #36]	; 0x24
  401b4c:	f043 034f 	orr.w	r3, r3, #79	; 0x4f
  401b50:	9309      	str	r3, [sp, #36]	; 0x24
  401b52:	9b09      	ldr	r3, [sp, #36]	; 0x24
  401b54:	f023 0302 	bic.w	r3, r3, #2
  401b58:	9309      	str	r3, [sp, #36]	; 0x24
  401b5a:	9b09      	ldr	r3, [sp, #36]	; 0x24
  401b5c:	6313      	str	r3, [r2, #48]	; 0x30
  401b5e:	4613      	mov	r3, r2
  401b60:	6b1a      	ldr	r2, [r3, #48]	; 0x30
  401b62:	f012 0f02 	tst.w	r2, #2
  401b66:	d1fb      	bne.n	401b60 <UDP_Handler+0x37c>
  401b68:	e689      	b.n	40187e <UDP_Handler+0x9a>
			udd_ctrl_stall_data();
  401b6a:	4b0f      	ldr	r3, [pc, #60]	; (401ba8 <UDP_Handler+0x3c4>)
  401b6c:	4798      	blx	r3
			udd_ack_bank0_received(0);
  401b6e:	4a09      	ldr	r2, [pc, #36]	; (401b94 <UDP_Handler+0x3b0>)
  401b70:	6b13      	ldr	r3, [r2, #48]	; 0x30
  401b72:	930a      	str	r3, [sp, #40]	; 0x28
  401b74:	9b0a      	ldr	r3, [sp, #40]	; 0x28
  401b76:	f043 034f 	orr.w	r3, r3, #79	; 0x4f
  401b7a:	930a      	str	r3, [sp, #40]	; 0x28
  401b7c:	9b0a      	ldr	r3, [sp, #40]	; 0x28
  401b7e:	f023 0302 	bic.w	r3, r3, #2
  401b82:	930a      	str	r3, [sp, #40]	; 0x28
  401b84:	9b0a      	ldr	r3, [sp, #40]	; 0x28
  401b86:	6313      	str	r3, [r2, #48]	; 0x30
  401b88:	4613      	mov	r3, r2
  401b8a:	6b1a      	ldr	r2, [r3, #48]	; 0x30
  401b8c:	f012 0f02 	tst.w	r2, #2
  401b90:	d1fb      	bne.n	401b8a <UDP_Handler+0x3a6>
  401b92:	e674      	b.n	40187e <UDP_Handler+0x9a>
  401b94:	40034000 	.word	0x40034000
  401b98:	20000ce0 	.word	0x20000ce0
  401b9c:	20000b4a 	.word	0x20000b4a
  401ba0:	0040131d 	.word	0x0040131d
  401ba4:	20000b4c 	.word	0x20000b4c
  401ba8:	004012e5 	.word	0x004012e5
	udd_ep_job_t *ptr_job;

	// For each endpoint different of control endpoint (0)
	for (ep = 1; ep <= USB_DEVICE_MAX_EP; ep++) {
		// Check RXRDY and TXEMPTY event for none DMA endpoints
		if (!Is_udd_endpoint_interrupt_enabled(ep)) {
  401bac:	4b97      	ldr	r3, [pc, #604]	; (401e0c <UDP_Handler+0x628>)
  401bae:	699b      	ldr	r3, [r3, #24]
  401bb0:	f013 0f02 	tst.w	r3, #2
  401bb4:	d011      	beq.n	401bda <UDP_Handler+0x3f6>

		// Get job corresponding at endpoint
		ptr_job = &udd_ep_job[ep - 1];

		// RXOUT: Full packet received
		if (Is_udd_any_bank_received(ep)) {
  401bb6:	4b96      	ldr	r3, [pc, #600]	; (401e10 <UDP_Handler+0x62c>)
  401bb8:	6b1b      	ldr	r3, [r3, #48]	; 0x30
  401bba:	f013 0f42 	tst.w	r3, #66	; 0x42
  401bbe:	f040 80c9 	bne.w	401d54 <UDP_Handler+0x570>
			udd_ep_out_received(ep);
			return true;
		}
		// TXIN: packet sent
		if (Is_udd_in_sent(ep)) {
  401bc2:	4b93      	ldr	r3, [pc, #588]	; (401e10 <UDP_Handler+0x62c>)
  401bc4:	6b1b      	ldr	r3, [r3, #48]	; 0x30
  401bc6:	f013 0f01 	tst.w	r3, #1
  401bca:	f040 8133 	bne.w	401e34 <UDP_Handler+0x650>
				udd_ack_in_sent(ep);
			}
			return true;
		}
		// Stall sent/CRC error
		if (Is_udd_stall(ep)) {
  401bce:	4b90      	ldr	r3, [pc, #576]	; (401e10 <UDP_Handler+0x62c>)
  401bd0:	6b1b      	ldr	r3, [r3, #48]	; 0x30
  401bd2:	f013 0f08 	tst.w	r3, #8
  401bd6:	f040 827b 	bne.w	4020d0 <UDP_Handler+0x8ec>
		if (!Is_udd_endpoint_interrupt_enabled(ep)) {
  401bda:	4b8c      	ldr	r3, [pc, #560]	; (401e0c <UDP_Handler+0x628>)
  401bdc:	699b      	ldr	r3, [r3, #24]
  401bde:	f013 0f04 	tst.w	r3, #4
  401be2:	d013      	beq.n	401c0c <UDP_Handler+0x428>
		if (Is_udd_any_bank_received(ep)) {
  401be4:	4b8b      	ldr	r3, [pc, #556]	; (401e14 <UDP_Handler+0x630>)
  401be6:	6b1b      	ldr	r3, [r3, #48]	; 0x30
  401be8:	f013 0f42 	tst.w	r3, #66	; 0x42
  401bec:	f040 80a9 	bne.w	401d42 <UDP_Handler+0x55e>
		if (Is_udd_in_sent(ep)) {
  401bf0:	4b88      	ldr	r3, [pc, #544]	; (401e14 <UDP_Handler+0x630>)
  401bf2:	6b1b      	ldr	r3, [r3, #48]	; 0x30
  401bf4:	f013 0f01 	tst.w	r3, #1
  401bf8:	f040 8101 	bne.w	401dfe <UDP_Handler+0x61a>
		if (Is_udd_stall(ep)) {
  401bfc:	4b85      	ldr	r3, [pc, #532]	; (401e14 <UDP_Handler+0x630>)
  401bfe:	6b1b      	ldr	r3, [r3, #48]	; 0x30
  401c00:	f013 0f08 	tst.w	r3, #8
		if (!Is_udd_endpoint_interrupt_enabled(ep)) {
  401c04:	bf18      	it	ne
  401c06:	2302      	movne	r3, #2
		if (Is_udd_stall(ep)) {
  401c08:	f040 8263 	bne.w	4020d2 <UDP_Handler+0x8ee>
	if ((Is_udd_wake_up_interrupt_enabled() && Is_udd_wake_up()) ||
  401c0c:	4b7f      	ldr	r3, [pc, #508]	; (401e0c <UDP_Handler+0x628>)
  401c0e:	699b      	ldr	r3, [r3, #24]
  401c10:	f413 5f00 	tst.w	r3, #8192	; 0x2000
  401c14:	d005      	beq.n	401c22 <UDP_Handler+0x43e>
  401c16:	4b7d      	ldr	r3, [pc, #500]	; (401e0c <UDP_Handler+0x628>)
  401c18:	69db      	ldr	r3, [r3, #28]
  401c1a:	f413 5f00 	tst.w	r3, #8192	; 0x2000
  401c1e:	f040 8277 	bne.w	402110 <UDP_Handler+0x92c>
		(Is_udd_resume_interrupt_enabled() && Is_udd_resume()) ||
  401c22:	4b7a      	ldr	r3, [pc, #488]	; (401e0c <UDP_Handler+0x628>)
  401c24:	699b      	ldr	r3, [r3, #24]
	if ((Is_udd_wake_up_interrupt_enabled() && Is_udd_wake_up()) ||
  401c26:	f413 7f00 	tst.w	r3, #512	; 0x200
  401c2a:	d005      	beq.n	401c38 <UDP_Handler+0x454>
		(Is_udd_resume_interrupt_enabled() && Is_udd_resume()) ||
  401c2c:	4b77      	ldr	r3, [pc, #476]	; (401e0c <UDP_Handler+0x628>)
  401c2e:	69db      	ldr	r3, [r3, #28]
  401c30:	f413 7f00 	tst.w	r3, #512	; 0x200
  401c34:	f040 826c 	bne.w	402110 <UDP_Handler+0x92c>
		(Is_udd_ext_resume_interrupt_enabled() && Is_udd_ext_resume())) {
  401c38:	4b74      	ldr	r3, [pc, #464]	; (401e0c <UDP_Handler+0x628>)
  401c3a:	699b      	ldr	r3, [r3, #24]
		(Is_udd_resume_interrupt_enabled() && Is_udd_resume()) ||
  401c3c:	f413 6f80 	tst.w	r3, #1024	; 0x400
  401c40:	d005      	beq.n	401c4e <UDP_Handler+0x46a>
		(Is_udd_ext_resume_interrupt_enabled() && Is_udd_ext_resume())) {
  401c42:	4b72      	ldr	r3, [pc, #456]	; (401e0c <UDP_Handler+0x628>)
  401c44:	69db      	ldr	r3, [r3, #28]
  401c46:	f413 6f80 	tst.w	r3, #1024	; 0x400
  401c4a:	f040 8261 	bne.w	402110 <UDP_Handler+0x92c>
	if (Is_udd_suspend_interrupt_enabled() && Is_udd_suspend()) {
  401c4e:	4b6f      	ldr	r3, [pc, #444]	; (401e0c <UDP_Handler+0x628>)
  401c50:	699b      	ldr	r3, [r3, #24]
  401c52:	f413 7f80 	tst.w	r3, #256	; 0x100
  401c56:	d005      	beq.n	401c64 <UDP_Handler+0x480>
  401c58:	4b6c      	ldr	r3, [pc, #432]	; (401e0c <UDP_Handler+0x628>)
  401c5a:	69db      	ldr	r3, [r3, #28]
  401c5c:	f413 7f80 	tst.w	r3, #256	; 0x100
  401c60:	f040 8269 	bne.w	402136 <UDP_Handler+0x952>
	if (Is_udd_reset()) {
  401c64:	4b69      	ldr	r3, [pc, #420]	; (401e0c <UDP_Handler+0x628>)
  401c66:	69db      	ldr	r3, [r3, #28]
  401c68:	f413 5f80 	tst.w	r3, #4096	; 0x1000
  401c6c:	f43f ae07 	beq.w	40187e <UDP_Handler+0x9a>
		udd_ack_reset();
  401c70:	4c66      	ldr	r4, [pc, #408]	; (401e0c <UDP_Handler+0x628>)
  401c72:	f44f 5380 	mov.w	r3, #4096	; 0x1000
  401c76:	6223      	str	r3, [r4, #32]
		udd_ep_finish_job(&udd_ep_job[i], UDD_EP_TRANSFER_ABORT, i + 1);
  401c78:	4e67      	ldr	r6, [pc, #412]	; (401e18 <UDP_Handler+0x634>)
  401c7a:	2201      	movs	r2, #1
  401c7c:	4611      	mov	r1, r2
  401c7e:	4630      	mov	r0, r6
  401c80:	4d66      	ldr	r5, [pc, #408]	; (401e1c <UDP_Handler+0x638>)
  401c82:	47a8      	blx	r5
  401c84:	2202      	movs	r2, #2
  401c86:	2101      	movs	r1, #1
  401c88:	f106 0014 	add.w	r0, r6, #20
  401c8c:	47a8      	blx	r5
		udc_reset();
  401c8e:	4b64      	ldr	r3, [pc, #400]	; (401e20 <UDP_Handler+0x63c>)
  401c90:	4798      	blx	r3
		udd_disable_address_state();
  401c92:	6863      	ldr	r3, [r4, #4]
  401c94:	f023 0301 	bic.w	r3, r3, #1
  401c98:	6063      	str	r3, [r4, #4]
		udd_disable_configured_state();
  401c9a:	6863      	ldr	r3, [r4, #4]
  401c9c:	f023 0302 	bic.w	r3, r3, #2
  401ca0:	6063      	str	r3, [r4, #4]
	udd_enable_address();
  401ca2:	68a3      	ldr	r3, [r4, #8]
  401ca4:	f443 7380 	orr.w	r3, r3, #256	; 0x100
  401ca8:	60a3      	str	r3, [r4, #8]
	udd_configure_address(0);
  401caa:	68a3      	ldr	r3, [r4, #8]
  401cac:	f023 037f 	bic.w	r3, r3, #127	; 0x7f
  401cb0:	60a3      	str	r3, [r4, #8]
	udd_configure_endpoint(0, USB_EP_TYPE_CONTROL, 0);
  401cb2:	6b23      	ldr	r3, [r4, #48]	; 0x30
  401cb4:	9318      	str	r3, [sp, #96]	; 0x60
  401cb6:	9b18      	ldr	r3, [sp, #96]	; 0x60
  401cb8:	f043 034f 	orr.w	r3, r3, #79	; 0x4f
  401cbc:	9318      	str	r3, [sp, #96]	; 0x60
  401cbe:	9b18      	ldr	r3, [sp, #96]	; 0x60
  401cc0:	f423 4307 	bic.w	r3, r3, #34560	; 0x8700
  401cc4:	f023 0380 	bic.w	r3, r3, #128	; 0x80
  401cc8:	9318      	str	r3, [sp, #96]	; 0x60
  401cca:	9b18      	ldr	r3, [sp, #96]	; 0x60
  401ccc:	f443 4300 	orr.w	r3, r3, #32768	; 0x8000
  401cd0:	9318      	str	r3, [sp, #96]	; 0x60
  401cd2:	9b18      	ldr	r3, [sp, #96]	; 0x60
  401cd4:	6323      	str	r3, [r4, #48]	; 0x30
  401cd6:	4622      	mov	r2, r4
  401cd8:	6b13      	ldr	r3, [r2, #48]	; 0x30
  401cda:	f413 4f00 	tst.w	r3, #32768	; 0x8000
  401cde:	d0fb      	beq.n	401cd8 <UDP_Handler+0x4f4>
	udd_enable_endpoint(0);
  401ce0:	4a4a      	ldr	r2, [pc, #296]	; (401e0c <UDP_Handler+0x628>)
  401ce2:	6b13      	ldr	r3, [r2, #48]	; 0x30
  401ce4:	9319      	str	r3, [sp, #100]	; 0x64
  401ce6:	9b19      	ldr	r3, [sp, #100]	; 0x64
  401ce8:	f043 034f 	orr.w	r3, r3, #79	; 0x4f
  401cec:	9319      	str	r3, [sp, #100]	; 0x64
  401cee:	9b19      	ldr	r3, [sp, #100]	; 0x64
  401cf0:	f443 4300 	orr.w	r3, r3, #32768	; 0x8000
  401cf4:	9319      	str	r3, [sp, #100]	; 0x64
  401cf6:	9b19      	ldr	r3, [sp, #100]	; 0x64
  401cf8:	6313      	str	r3, [r2, #48]	; 0x30
  401cfa:	6b13      	ldr	r3, [r2, #48]	; 0x30
  401cfc:	f413 4f00 	tst.w	r3, #32768	; 0x8000
  401d00:	d0fb      	beq.n	401cfa <UDP_Handler+0x516>
  __ASM volatile ("MRS %0, primask" : "=r" (result) );
  401d02:	f3ef 8310 	mrs	r3, PRIMASK
	volatile irqflags_t flags = cpu_irq_is_enabled();
  401d06:	fab3 f383 	clz	r3, r3
  401d0a:	095b      	lsrs	r3, r3, #5
  401d0c:	9317      	str	r3, [sp, #92]	; 0x5c
  __ASM volatile ("cpsid i" : : : "memory");
  401d0e:	b672      	cpsid	i
  401d10:	f3bf 8f5f 	dmb	sy
	cpu_irq_disable();
  401d14:	2200      	movs	r2, #0
  401d16:	4b43      	ldr	r3, [pc, #268]	; (401e24 <UDP_Handler+0x640>)
  401d18:	701a      	strb	r2, [r3, #0]
	return flags;
  401d1a:	9b17      	ldr	r3, [sp, #92]	; 0x5c
	udd_enable_endpoint_interrupt(0);
  401d1c:	2101      	movs	r1, #1
  401d1e:	4a3b      	ldr	r2, [pc, #236]	; (401e0c <UDP_Handler+0x628>)
  401d20:	6111      	str	r1, [r2, #16]
	if (cpu_irq_is_enabled_flags(flags))
  401d22:	b123      	cbz	r3, 401d2e <UDP_Handler+0x54a>
		cpu_irq_enable();
  401d24:	4b3f      	ldr	r3, [pc, #252]	; (401e24 <UDP_Handler+0x640>)
  401d26:	7019      	strb	r1, [r3, #0]
  401d28:	f3bf 8f5f 	dmb	sy
  __ASM volatile ("cpsie i" : : : "memory");
  401d2c:	b662      	cpsie	i
		udd_ctrl_init();
  401d2e:	4b3e      	ldr	r3, [pc, #248]	; (401e28 <UDP_Handler+0x644>)
  401d30:	4798      	blx	r3
		udd_enable_suspend_interrupt();
  401d32:	4b36      	ldr	r3, [pc, #216]	; (401e0c <UDP_Handler+0x628>)
  401d34:	f44f 7280 	mov.w	r2, #256	; 0x100
  401d38:	611a      	str	r2, [r3, #16]
		udd_enable_sof_interrupt();
  401d3a:	f44f 6200 	mov.w	r2, #2048	; 0x800
  401d3e:	611a      	str	r2, [r3, #16]
		goto udd_interrupt_end;
  401d40:	e59d      	b.n	40187e <UDP_Handler+0x9a>
	for (ep = 1; ep <= USB_DEVICE_MAX_EP; ep++) {
  401d42:	f04f 0802 	mov.w	r8, #2
		ptr_job = &udd_ep_job[ep - 1];
  401d46:	f8df 90e8 	ldr.w	r9, [pc, #232]	; 401e30 <UDP_Handler+0x64c>
  401d4a:	2501      	movs	r5, #1
		if (!Is_udd_endpoint_interrupt_enabled(ep)) {
  401d4c:	f04f 0a04 	mov.w	sl, #4
  401d50:	4644      	mov	r4, r8
  401d52:	e007      	b.n	401d64 <UDP_Handler+0x580>
		if (Is_udd_any_bank_received(ep)) {
  401d54:	f04f 0801 	mov.w	r8, #1
		ptr_job = &udd_ep_job[ep - 1];
  401d58:	f8df 90bc 	ldr.w	r9, [pc, #188]	; 401e18 <UDP_Handler+0x634>
  401d5c:	2500      	movs	r5, #0
		if (!Is_udd_endpoint_interrupt_enabled(ep)) {
  401d5e:	f04f 0a02 	mov.w	sl, #2
  401d62:	4644      	mov	r4, r8
	uint32_t pkt_size = ptr_job->size;
  401d64:	00ab      	lsls	r3, r5, #2
  401d66:	195a      	adds	r2, r3, r5
  401d68:	4b2b      	ldr	r3, [pc, #172]	; (401e18 <UDP_Handler+0x634>)
  401d6a:	eb03 0382 	add.w	r3, r3, r2, lsl #2
  401d6e:	8a1f      	ldrh	r7, [r3, #16]
  401d70:	f3c7 0709 	ubfx	r7, r7, #0, #10
  401d74:	00a4      	lsls	r4, r4, #2
  401d76:	f104 2440 	add.w	r4, r4, #1073758208	; 0x40004000
  401d7a:	f504 3440 	add.w	r4, r4, #196608	; 0x30000
	nb_data = udd_byte_count(ep);
  401d7e:	6b26      	ldr	r6, [r4, #48]	; 0x30
  401d80:	f3c6 460a 	ubfx	r6, r6, #16, #11
	if (nb_data > 0) {
  401d84:	2e00      	cmp	r6, #0
  401d86:	f000 81ff 	beq.w	402188 <UDP_Handler+0x9a4>
	uint32_t nb_remain = ptr_job->buf_size - ptr_job->buf_cnt;
  401d8a:	4b23      	ldr	r3, [pc, #140]	; (401e18 <UDP_Handler+0x634>)
  401d8c:	eb03 0382 	add.w	r3, r3, r2, lsl #2
  401d90:	f8d3 e008 	ldr.w	lr, [r3, #8]
  401d94:	68da      	ldr	r2, [r3, #12]
  401d96:	ebae 0102 	sub.w	r1, lr, r2
	uint8_t *ptr_dst = &ptr_job->buf[ptr_job->buf_cnt];
  401d9a:	6858      	ldr	r0, [r3, #4]
		if (nb_data >= nb_remain) {
  401d9c:	42b1      	cmp	r1, r6
  401d9e:	f240 81e6 	bls.w	40216e <UDP_Handler+0x98a>
		ptr_job->buf_cnt += nb_data;
  401da2:	00ab      	lsls	r3, r5, #2
  401da4:	1959      	adds	r1, r3, r5
  401da6:	4b1c      	ldr	r3, [pc, #112]	; (401e18 <UDP_Handler+0x634>)
  401da8:	eb03 0381 	add.w	r3, r3, r1, lsl #2
  401dac:	1991      	adds	r1, r2, r6
  401dae:	60d9      	str	r1, [r3, #12]
	nb_data = udd_byte_count(ep);
  401db0:	4631      	mov	r1, r6
	bool b_full = false, b_short;
  401db2:	f04f 0b00 	mov.w	fp, #0
	uint8_t *ptr_dst = &ptr_job->buf[ptr_job->buf_cnt];
  401db6:	4410      	add	r0, r2
  401db8:	4603      	mov	r3, r0
			*ptr_dst++ = udd_endpoint_fifo_read(ep);
  401dba:	6d22      	ldr	r2, [r4, #80]	; 0x50
  401dbc:	f803 2b01 	strb.w	r2, [r3], #1
		for (i = 0; i < nb_data; i++) {
  401dc0:	1a1a      	subs	r2, r3, r0
  401dc2:	428a      	cmp	r2, r1
  401dc4:	d3f9      	bcc.n	401dba <UDP_Handler+0x5d6>
	udd_ep_ack_out_received(ep);
  401dc6:	4640      	mov	r0, r8
  401dc8:	4b18      	ldr	r3, [pc, #96]	; (401e2c <UDP_Handler+0x648>)
  401dca:	4798      	blx	r3
	if ((b_full || b_short) &&
  401dcc:	f1bb 0f00 	cmp.w	fp, #0
  401dd0:	f000 81dd 	beq.w	40218e <UDP_Handler+0x9aa>
			!Is_udd_endpoint_stall_requested(ep)) {
  401dd4:	6b23      	ldr	r3, [r4, #48]	; 0x30
	if ((b_full || b_short) &&
  401dd6:	f013 0f20 	tst.w	r3, #32
  401dda:	f47f ad50 	bne.w	40187e <UDP_Handler+0x9a>
		udd_disable_endpoint_interrupt(ep);
  401dde:	4b0b      	ldr	r3, [pc, #44]	; (401e0c <UDP_Handler+0x628>)
  401de0:	f8c3 a014 	str.w	sl, [r3, #20]
		ptr_job->buf_size = ptr_job->buf_cnt; // buf_size is passed to callback as XFR count
  401de4:	4b0c      	ldr	r3, [pc, #48]	; (401e18 <UDP_Handler+0x634>)
  401de6:	00aa      	lsls	r2, r5, #2
  401de8:	1951      	adds	r1, r2, r5
  401dea:	eb03 0181 	add.w	r1, r3, r1, lsl #2
  401dee:	68cb      	ldr	r3, [r1, #12]
  401df0:	608b      	str	r3, [r1, #8]
		udd_ep_finish_job(ptr_job, UDD_EP_TRANSFER_OK, ep);
  401df2:	4642      	mov	r2, r8
  401df4:	2100      	movs	r1, #0
  401df6:	4648      	mov	r0, r9
  401df8:	4b08      	ldr	r3, [pc, #32]	; (401e1c <UDP_Handler+0x638>)
  401dfa:	4798      	blx	r3
  401dfc:	e53f      	b.n	40187e <UDP_Handler+0x9a>
	for (ep = 1; ep <= USB_DEVICE_MAX_EP; ep++) {
  401dfe:	2602      	movs	r6, #2
		ptr_job = &udd_ep_job[ep - 1];
  401e00:	f8df 802c 	ldr.w	r8, [pc, #44]	; 401e30 <UDP_Handler+0x64c>
  401e04:	2501      	movs	r5, #1
		if (!Is_udd_endpoint_interrupt_enabled(ep)) {
  401e06:	2704      	movs	r7, #4
  401e08:	4634      	mov	r4, r6
  401e0a:	e019      	b.n	401e40 <UDP_Handler+0x65c>
  401e0c:	40034000 	.word	0x40034000
  401e10:	40034004 	.word	0x40034004
  401e14:	40034008 	.word	0x40034008
  401e18:	20000b50 	.word	0x20000b50
  401e1c:	0040151d 	.word	0x0040151d
  401e20:	00400545 	.word	0x00400545
  401e24:	200000e2 	.word	0x200000e2
  401e28:	004012cd 	.word	0x004012cd
  401e2c:	0040155d 	.word	0x0040155d
  401e30:	20000b64 	.word	0x20000b64
		if (Is_udd_in_sent(ep)) {
  401e34:	2601      	movs	r6, #1
		ptr_job = &udd_ep_job[ep - 1];
  401e36:	f8df 8284 	ldr.w	r8, [pc, #644]	; 4020bc <UDP_Handler+0x8d8>
  401e3a:	2500      	movs	r5, #0
		if (!Is_udd_endpoint_interrupt_enabled(ep)) {
  401e3c:	2702      	movs	r7, #2
  401e3e:	4634      	mov	r4, r6
			ptr_job->bank--;
  401e40:	00ab      	lsls	r3, r5, #2
  401e42:	442b      	add	r3, r5
  401e44:	4a9d      	ldr	r2, [pc, #628]	; (4020bc <UDP_Handler+0x8d8>)
  401e46:	eb02 0283 	add.w	r2, r2, r3, lsl #2
  401e4a:	7c53      	ldrb	r3, [r2, #17]
  401e4c:	f3c3 0181 	ubfx	r1, r3, #2, #2
  401e50:	3103      	adds	r1, #3
  401e52:	f361 0383 	bfi	r3, r1, #2, #2
  401e56:	7453      	strb	r3, [r2, #17]
			if (ptr_job->b_stall_requested) {
  401e58:	7c53      	ldrb	r3, [r2, #17]
  401e5a:	f013 0f20 	tst.w	r3, #32
  401e5e:	d057      	beq.n	401f10 <UDP_Handler+0x72c>
				if (ptr_job->bank) {
  401e60:	f013 0f0c 	tst.w	r3, #12
  401e64:	d025      	beq.n	401eb2 <UDP_Handler+0x6ce>
  401e66:	00a3      	lsls	r3, r4, #2
  401e68:	f103 2340 	add.w	r3, r3, #1073758208	; 0x40004000
  401e6c:	f503 3340 	add.w	r3, r3, #196608	; 0x30000
					udd_set_transmit_ready(ep);
  401e70:	6b1a      	ldr	r2, [r3, #48]	; 0x30
  401e72:	920c      	str	r2, [sp, #48]	; 0x30
  401e74:	9a0c      	ldr	r2, [sp, #48]	; 0x30
  401e76:	f042 024f 	orr.w	r2, r2, #79	; 0x4f
  401e7a:	920c      	str	r2, [sp, #48]	; 0x30
  401e7c:	9a0c      	ldr	r2, [sp, #48]	; 0x30
  401e7e:	f042 0210 	orr.w	r2, r2, #16
  401e82:	920c      	str	r2, [sp, #48]	; 0x30
  401e84:	9a0c      	ldr	r2, [sp, #48]	; 0x30
  401e86:	631a      	str	r2, [r3, #48]	; 0x30
  401e88:	6b1a      	ldr	r2, [r3, #48]	; 0x30
  401e8a:	f012 0f10 	tst.w	r2, #16
  401e8e:	d0fb      	beq.n	401e88 <UDP_Handler+0x6a4>
					udd_ack_in_sent(ep);
  401e90:	6b1a      	ldr	r2, [r3, #48]	; 0x30
  401e92:	920d      	str	r2, [sp, #52]	; 0x34
  401e94:	9a0d      	ldr	r2, [sp, #52]	; 0x34
  401e96:	f042 024f 	orr.w	r2, r2, #79	; 0x4f
  401e9a:	920d      	str	r2, [sp, #52]	; 0x34
  401e9c:	9a0d      	ldr	r2, [sp, #52]	; 0x34
  401e9e:	f022 0201 	bic.w	r2, r2, #1
  401ea2:	920d      	str	r2, [sp, #52]	; 0x34
  401ea4:	9a0d      	ldr	r2, [sp, #52]	; 0x34
  401ea6:	631a      	str	r2, [r3, #48]	; 0x30
  401ea8:	6b1a      	ldr	r2, [r3, #48]	; 0x30
  401eaa:	f012 0f01 	tst.w	r2, #1
  401eae:	d1fb      	bne.n	401ea8 <UDP_Handler+0x6c4>
  401eb0:	e4e5      	b.n	40187e <UDP_Handler+0x9a>
  401eb2:	00a3      	lsls	r3, r4, #2
  401eb4:	f103 2340 	add.w	r3, r3, #1073758208	; 0x40004000
  401eb8:	f503 3340 	add.w	r3, r3, #196608	; 0x30000
					udd_ack_in_sent(ep);
  401ebc:	6b1a      	ldr	r2, [r3, #48]	; 0x30
  401ebe:	920e      	str	r2, [sp, #56]	; 0x38
  401ec0:	9a0e      	ldr	r2, [sp, #56]	; 0x38
  401ec2:	f042 024f 	orr.w	r2, r2, #79	; 0x4f
  401ec6:	920e      	str	r2, [sp, #56]	; 0x38
  401ec8:	9a0e      	ldr	r2, [sp, #56]	; 0x38
  401eca:	f022 0201 	bic.w	r2, r2, #1
  401ece:	920e      	str	r2, [sp, #56]	; 0x38
  401ed0:	9a0e      	ldr	r2, [sp, #56]	; 0x38
  401ed2:	631a      	str	r2, [r3, #48]	; 0x30
  401ed4:	6b1a      	ldr	r2, [r3, #48]	; 0x30
  401ed6:	f012 0f01 	tst.w	r2, #1
  401eda:	d1fb      	bne.n	401ed4 <UDP_Handler+0x6f0>
					udd_enable_stall_handshake(ep);
  401edc:	6b1a      	ldr	r2, [r3, #48]	; 0x30
  401ede:	920f      	str	r2, [sp, #60]	; 0x3c
  401ee0:	9a0f      	ldr	r2, [sp, #60]	; 0x3c
  401ee2:	f042 024f 	orr.w	r2, r2, #79	; 0x4f
  401ee6:	920f      	str	r2, [sp, #60]	; 0x3c
  401ee8:	9a0f      	ldr	r2, [sp, #60]	; 0x3c
  401eea:	f042 0220 	orr.w	r2, r2, #32
  401eee:	920f      	str	r2, [sp, #60]	; 0x3c
  401ef0:	9a0f      	ldr	r2, [sp, #60]	; 0x3c
  401ef2:	631a      	str	r2, [r3, #48]	; 0x30
  401ef4:	6b1a      	ldr	r2, [r3, #48]	; 0x30
  401ef6:	f012 0f20 	tst.w	r2, #32
  401efa:	d0fb      	beq.n	401ef4 <UDP_Handler+0x710>
					ptr_job->b_stall_requested = false;
  401efc:	00ab      	lsls	r3, r5, #2
  401efe:	441d      	add	r5, r3
  401f00:	4b6e      	ldr	r3, [pc, #440]	; (4020bc <UDP_Handler+0x8d8>)
  401f02:	eb03 0385 	add.w	r3, r3, r5, lsl #2
  401f06:	7c5a      	ldrb	r2, [r3, #17]
  401f08:	f36f 1245 	bfc	r2, #5, #1
  401f0c:	745a      	strb	r2, [r3, #17]
  401f0e:	e4b6      	b.n	40187e <UDP_Handler+0x9a>
			if (ptr_job->b_buf_end) {
  401f10:	f013 0f80 	tst.w	r3, #128	; 0x80
  401f14:	d13d      	bne.n	401f92 <UDP_Handler+0x7ae>
			if (ptr_job->buf_cnt >= ptr_job->buf_size &&
  401f16:	00ab      	lsls	r3, r5, #2
  401f18:	195a      	adds	r2, r3, r5
  401f1a:	4b68      	ldr	r3, [pc, #416]	; (4020bc <UDP_Handler+0x8d8>)
  401f1c:	eb03 0382 	add.w	r3, r3, r2, lsl #2
  401f20:	68da      	ldr	r2, [r3, #12]
  401f22:	689b      	ldr	r3, [r3, #8]
  401f24:	429a      	cmp	r2, r3
  401f26:	d346      	bcc.n	401fb6 <UDP_Handler+0x7d2>
					!ptr_job->b_shortpacket &&
  401f28:	00ab      	lsls	r3, r5, #2
  401f2a:	195a      	adds	r2, r3, r5
  401f2c:	4b63      	ldr	r3, [pc, #396]	; (4020bc <UDP_Handler+0x8d8>)
  401f2e:	eb03 0382 	add.w	r3, r3, r2, lsl #2
  401f32:	7c5b      	ldrb	r3, [r3, #17]
  401f34:	f013 0f4c 	tst.w	r3, #76	; 0x4c
  401f38:	d13d      	bne.n	401fb6 <UDP_Handler+0x7d2>
  __ASM volatile ("MRS %0, primask" : "=r" (result) );
  401f3a:	f3ef 8310 	mrs	r3, PRIMASK
	volatile irqflags_t flags = cpu_irq_is_enabled();
  401f3e:	fab3 f383 	clz	r3, r3
  401f42:	095b      	lsrs	r3, r3, #5
  401f44:	9310      	str	r3, [sp, #64]	; 0x40
  __ASM volatile ("cpsid i" : : : "memory");
  401f46:	b672      	cpsid	i
  401f48:	f3bf 8f5f 	dmb	sy
	cpu_irq_disable();
  401f4c:	2200      	movs	r2, #0
  401f4e:	4b5c      	ldr	r3, [pc, #368]	; (4020c0 <UDP_Handler+0x8dc>)
  401f50:	701a      	strb	r2, [r3, #0]
	return flags;
  401f52:	9b10      	ldr	r3, [sp, #64]	; 0x40
				udd_disable_endpoint_interrupt(ep);
  401f54:	4a5b      	ldr	r2, [pc, #364]	; (4020c4 <UDP_Handler+0x8e0>)
  401f56:	6157      	str	r7, [r2, #20]
	if (cpu_irq_is_enabled_flags(flags))
  401f58:	b12b      	cbz	r3, 401f66 <UDP_Handler+0x782>
		cpu_irq_enable();
  401f5a:	2201      	movs	r2, #1
  401f5c:	4b58      	ldr	r3, [pc, #352]	; (4020c0 <UDP_Handler+0x8dc>)
  401f5e:	701a      	strb	r2, [r3, #0]
  401f60:	f3bf 8f5f 	dmb	sy
  __ASM volatile ("cpsie i" : : : "memory");
  401f64:	b662      	cpsie	i
  401f66:	00a3      	lsls	r3, r4, #2
  401f68:	f103 2340 	add.w	r3, r3, #1073758208	; 0x40004000
  401f6c:	f503 3340 	add.w	r3, r3, #196608	; 0x30000
				udd_ack_in_sent(ep);
  401f70:	6b1a      	ldr	r2, [r3, #48]	; 0x30
  401f72:	9211      	str	r2, [sp, #68]	; 0x44
  401f74:	9a11      	ldr	r2, [sp, #68]	; 0x44
  401f76:	f042 024f 	orr.w	r2, r2, #79	; 0x4f
  401f7a:	9211      	str	r2, [sp, #68]	; 0x44
  401f7c:	9a11      	ldr	r2, [sp, #68]	; 0x44
  401f7e:	f022 0201 	bic.w	r2, r2, #1
  401f82:	9211      	str	r2, [sp, #68]	; 0x44
  401f84:	9a11      	ldr	r2, [sp, #68]	; 0x44
  401f86:	631a      	str	r2, [r3, #48]	; 0x30
  401f88:	6b1a      	ldr	r2, [r3, #48]	; 0x30
  401f8a:	f012 0f01 	tst.w	r2, #1
  401f8e:	d1fb      	bne.n	401f88 <UDP_Handler+0x7a4>
  401f90:	e475      	b.n	40187e <UDP_Handler+0x9a>
				ptr_job->b_buf_end = false;
  401f92:	2314      	movs	r3, #20
  401f94:	4a49      	ldr	r2, [pc, #292]	; (4020bc <UDP_Handler+0x8d8>)
  401f96:	fb03 2305 	mla	r3, r3, r5, r2
  401f9a:	7c59      	ldrb	r1, [r3, #17]
  401f9c:	f36f 11c7 	bfc	r1, #7, #1
  401fa0:	7459      	strb	r1, [r3, #17]
				ptr_job->buf_size = ptr_job->buf_cnt; // buf_size is passed to callback as XFR count
  401fa2:	68da      	ldr	r2, [r3, #12]
  401fa4:	609a      	str	r2, [r3, #8]
                udd_disable_endpoint_interrupt(ep);
  401fa6:	4b47      	ldr	r3, [pc, #284]	; (4020c4 <UDP_Handler+0x8e0>)
  401fa8:	615f      	str	r7, [r3, #20]
                udd_ep_finish_job(ptr_job, UDD_EP_TRANSFER_OK, ep);
  401faa:	4632      	mov	r2, r6
  401fac:	2100      	movs	r1, #0
  401fae:	4640      	mov	r0, r8
  401fb0:	4b45      	ldr	r3, [pc, #276]	; (4020c8 <UDP_Handler+0x8e4>)
  401fb2:	4798      	blx	r3
  401fb4:	e7af      	b.n	401f16 <UDP_Handler+0x732>
			} else if (udd_get_endpoint_bank_max_nbr(ep) > 1
  401fb6:	2e00      	cmp	r6, #0
  401fb8:	d064      	beq.n	402084 <UDP_Handler+0x8a0>
  401fba:	2e03      	cmp	r6, #3
  401fbc:	d062      	beq.n	402084 <UDP_Handler+0x8a0>
					&& ptr_job->bank > 0) {
  401fbe:	2314      	movs	r3, #20
  401fc0:	4a3e      	ldr	r2, [pc, #248]	; (4020bc <UDP_Handler+0x8d8>)
  401fc2:	fb03 2305 	mla	r3, r3, r5, r2
  401fc6:	7c5b      	ldrb	r3, [r3, #17]
  401fc8:	f013 0f0c 	tst.w	r3, #12
  401fcc:	d029      	beq.n	402022 <UDP_Handler+0x83e>
  401fce:	00a3      	lsls	r3, r4, #2
  401fd0:	f103 2340 	add.w	r3, r3, #1073758208	; 0x40004000
  401fd4:	f503 3340 	add.w	r3, r3, #196608	; 0x30000
				udd_set_transmit_ready(ep);
  401fd8:	6b1a      	ldr	r2, [r3, #48]	; 0x30
  401fda:	9212      	str	r2, [sp, #72]	; 0x48
  401fdc:	9a12      	ldr	r2, [sp, #72]	; 0x48
  401fde:	f042 024f 	orr.w	r2, r2, #79	; 0x4f
  401fe2:	9212      	str	r2, [sp, #72]	; 0x48
  401fe4:	9a12      	ldr	r2, [sp, #72]	; 0x48
  401fe6:	f042 0210 	orr.w	r2, r2, #16
  401fea:	9212      	str	r2, [sp, #72]	; 0x48
  401fec:	9a12      	ldr	r2, [sp, #72]	; 0x48
  401fee:	631a      	str	r2, [r3, #48]	; 0x30
  401ff0:	6b1a      	ldr	r2, [r3, #48]	; 0x30
  401ff2:	f012 0f10 	tst.w	r2, #16
  401ff6:	d0fb      	beq.n	401ff0 <UDP_Handler+0x80c>
				udd_ack_in_sent(ep);
  401ff8:	6b1a      	ldr	r2, [r3, #48]	; 0x30
  401ffa:	9213      	str	r2, [sp, #76]	; 0x4c
  401ffc:	9a13      	ldr	r2, [sp, #76]	; 0x4c
  401ffe:	f042 024f 	orr.w	r2, r2, #79	; 0x4f
  402002:	9213      	str	r2, [sp, #76]	; 0x4c
  402004:	9a13      	ldr	r2, [sp, #76]	; 0x4c
  402006:	f022 0201 	bic.w	r2, r2, #1
  40200a:	9213      	str	r2, [sp, #76]	; 0x4c
  40200c:	9a13      	ldr	r2, [sp, #76]	; 0x4c
  40200e:	631a      	str	r2, [r3, #48]	; 0x30
  402010:	6b1a      	ldr	r2, [r3, #48]	; 0x30
  402012:	f012 0f01 	tst.w	r2, #1
  402016:	d1fb      	bne.n	402010 <UDP_Handler+0x82c>
				udd_ep_in_sent(ep, false);
  402018:	2100      	movs	r1, #0
  40201a:	4630      	mov	r0, r6
  40201c:	4b2b      	ldr	r3, [pc, #172]	; (4020cc <UDP_Handler+0x8e8>)
  40201e:	4798      	blx	r3
  402020:	e42d      	b.n	40187e <UDP_Handler+0x9a>
				if (!udd_ep_in_sent(ep, true)) {
  402022:	2101      	movs	r1, #1
  402024:	4630      	mov	r0, r6
  402026:	4b29      	ldr	r3, [pc, #164]	; (4020cc <UDP_Handler+0x8e8>)
  402028:	4798      	blx	r3
  40202a:	b1c8      	cbz	r0, 402060 <UDP_Handler+0x87c>
  40202c:	00a3      	lsls	r3, r4, #2
  40202e:	f103 2340 	add.w	r3, r3, #1073758208	; 0x40004000
  402032:	f503 3340 	add.w	r3, r3, #196608	; 0x30000
				udd_ack_in_sent(ep);
  402036:	6b1a      	ldr	r2, [r3, #48]	; 0x30
  402038:	9214      	str	r2, [sp, #80]	; 0x50
  40203a:	9a14      	ldr	r2, [sp, #80]	; 0x50
  40203c:	f042 024f 	orr.w	r2, r2, #79	; 0x4f
  402040:	9214      	str	r2, [sp, #80]	; 0x50
  402042:	9a14      	ldr	r2, [sp, #80]	; 0x50
  402044:	f022 0201 	bic.w	r2, r2, #1
  402048:	9214      	str	r2, [sp, #80]	; 0x50
  40204a:	9a14      	ldr	r2, [sp, #80]	; 0x50
  40204c:	631a      	str	r2, [r3, #48]	; 0x30
  40204e:	6b1a      	ldr	r2, [r3, #48]	; 0x30
  402050:	f012 0f01 	tst.w	r2, #1
  402054:	d1fb      	bne.n	40204e <UDP_Handler+0x86a>
				udd_ep_in_sent(ep, false);
  402056:	2100      	movs	r1, #0
  402058:	4630      	mov	r0, r6
  40205a:	4b1c      	ldr	r3, [pc, #112]	; (4020cc <UDP_Handler+0x8e8>)
  40205c:	4798      	blx	r3
  40205e:	e40e      	b.n	40187e <UDP_Handler+0x9a>
					ptr_job->b_buf_end = false;
  402060:	2214      	movs	r2, #20
