Archive member included to satisfy reference by file (symbol)

/Users/richard/Desktop/DAQ/gcc/bin/../lib/gcc/arm-none-eabi/6.3.1/../../../../arm-none-eabi/lib/thumb/v7e-m/libm.a(lib_a-s_ceil.o)
                              src/timer.o (ceil)
/Users/richard/Desktop/DAQ/gcc/bin/../lib/gcc/arm-none-eabi/6.3.1/../../../../arm-none-eabi/lib/thumb/v7e-m/libm.a(lib_a-s_lround.o)
                              src/timer.o (lround)
/Users/richard/Desktop/DAQ/gcc/bin/../lib/gcc/arm-none-eabi/6.3.1/thumb/v7e-m/libgcc.a(_arm_addsubdf3.o)
                              src/timer.o (__aeabi_dsub)
/Users/richard/Desktop/DAQ/gcc/bin/../lib/gcc/arm-none-eabi/6.3.1/thumb/v7e-m/libgcc.a(_arm_muldivdf3.o)
                              src/timer.o (__aeabi_dmul)
/Users/richard/Desktop/DAQ/gcc/bin/../lib/gcc/arm-none-eabi/6.3.1/thumb/v7e-m/libgcc.a(_arm_cmpdf2.o)
                              src/structure.o (__aeabi_dcmplt)
/Users/richard/Desktop/DAQ/gcc/bin/../lib/gcc/arm-none-eabi/6.3.1/thumb/v7e-m/libgcc.a(_arm_fixdfsi.o)
                              /Users/richard/Desktop/DAQ/gcc/bin/../lib/gcc/arm-none-eabi/6.3.1/../../../../arm-none-eabi/lib/thumb/v7e-m/libm.a(lib_a-s_lround.o) (__aeabi_d2iz)
/Users/richard/Desktop/DAQ/gcc/bin/../lib/gcc/arm-none-eabi/6.3.1/thumb/v7e-m/libgcc.a(_arm_fixunsdfsi.o)
                              src/timer.o (__aeabi_d2uiz)
/Users/richard/Desktop/DAQ/gcc/bin/../lib/gcc/arm-none-eabi/6.3.1/thumb/v7e-m/libgcc.a(_arm_truncdfsf2.o)
                              src/sampling.o (__aeabi_d2f)
/Users/richard/Desktop/DAQ/gcc/bin/../lib/gcc/arm-none-eabi/6.3.1/thumb/v7e-m/libgcc.a(_arm_addsubsf3.o)
                              src/adcLib.o (__aeabi_fadd)
/Users/richard/Desktop/DAQ/gcc/bin/../lib/gcc/arm-none-eabi/6.3.1/thumb/v7e-m/libgcc.a(_arm_muldivsf3.o)
                              src/adcLib.o (__aeabi_fmul)
/Users/richard/Desktop/DAQ/gcc/bin/../lib/gcc/arm-none-eabi/6.3.1/thumb/v7e-m/libgcc.a(_arm_cmpsf2.o)
                              src/adcLib.o (__aeabi_fcmplt)
/Users/richard/Desktop/DAQ/gcc/bin/../lib/gcc/arm-none-eabi/6.3.1/thumb/v7e-m/libgcc.a(_aeabi_uldivmod.o)
                              src/spi_com.o (__aeabi_uldivmod)
/Users/richard/Desktop/DAQ/gcc/bin/../lib/gcc/arm-none-eabi/6.3.1/thumb/v7e-m/libgcc.a(_udivmoddi4.o)
                              /Users/richard/Desktop/DAQ/gcc/bin/../lib/gcc/arm-none-eabi/6.3.1/thumb/v7e-m/libgcc.a(_aeabi_uldivmod.o) (__udivmoddi4)
/Users/richard/Desktop/DAQ/gcc/bin/../lib/gcc/arm-none-eabi/6.3.1/thumb/v7e-m/libgcc.a(_dvmd_tls.o)
                              /Users/richard/Desktop/DAQ/gcc/bin/../lib/gcc/arm-none-eabi/6.3.1/thumb/v7e-m/libgcc.a(_aeabi_uldivmod.o) (__aeabi_ldiv0)
/Users/richard/Desktop/DAQ/gcc/bin/../lib/gcc/arm-none-eabi/6.3.1/../../../../arm-none-eabi/lib/thumb/v7e-m/libc.a(lib_a-atof.o)
                              src/main.o (atof)
/Users/richard/Desktop/DAQ/gcc/bin/../lib/gcc/arm-none-eabi/6.3.1/../../../../arm-none-eabi/lib/thumb/v7e-m/libc.a(lib_a-atoi.o)
                              src/main.o (atoi)
/Users/richard/Desktop/DAQ/gcc/bin/../lib/gcc/arm-none-eabi/6.3.1/../../../../arm-none-eabi/lib/thumb/v7e-m/libc.a(lib_a-exit.o)
                              /Users/richard/Desktop/DAQ/gcc/bin/../lib/gcc/arm-none-eabi/6.3.1/../../../../arm-none-eabi/lib/thumb/v7e-m/crt0.o (exit)
/Users/richard/Desktop/DAQ/gcc/bin/../lib/gcc/arm-none-eabi/6.3.1/../../../../arm-none-eabi/lib/thumb/v7e-m/libc.a(lib_a-impure.o)
                              /Users/richard/Desktop/DAQ/gcc/bin/../lib/gcc/arm-none-eabi/6.3.1/../../../../arm-none-eabi/lib/thumb/v7e-m/libc.a(lib_a-exit.o) (_global_impure_ptr)
/Users/richard/Desktop/DAQ/gcc/bin/../lib/gcc/arm-none-eabi/6.3.1/../../../../arm-none-eabi/lib/thumb/v7e-m/libc.a(lib_a-init.o)
                              /Users/richard/Desktop/DAQ/gcc/bin/../lib/gcc/arm-none-eabi/6.3.1/../../../../arm-none-eabi/lib/thumb/v7e-m/crt0.o (__libc_init_array)
/Users/richard/Desktop/DAQ/gcc/bin/../lib/gcc/arm-none-eabi/6.3.1/../../../../arm-none-eabi/lib/thumb/v7e-m/libc.a(lib_a-malloc.o)
                              src/structure.o (malloc)
/Users/richard/Desktop/DAQ/gcc/bin/../lib/gcc/arm-none-eabi/6.3.1/../../../../arm-none-eabi/lib/thumb/v7e-m/libc.a(lib_a-mallocr.o)
                              /Users/richard/Desktop/DAQ/gcc/bin/../lib/gcc/arm-none-eabi/6.3.1/../../../../arm-none-eabi/lib/thumb/v7e-m/libc.a(lib_a-malloc.o) (_malloc_r)
/Users/richard/Desktop/DAQ/gcc/bin/../lib/gcc/arm-none-eabi/6.3.1/../../../../arm-none-eabi/lib/thumb/v7e-m/libc.a(lib_a-memset.o)
                              /Users/richard/Desktop/DAQ/gcc/bin/../lib/gcc/arm-none-eabi/6.3.1/../../../../arm-none-eabi/lib/thumb/v7e-m/crt0.o (memset)
/Users/richard/Desktop/DAQ/gcc/bin/../lib/gcc/arm-none-eabi/6.3.1/../../../../arm-none-eabi/lib/thumb/v7e-m/libc.a(lib_a-mlock.o)
                              /Users/richard/Desktop/DAQ/gcc/bin/../lib/gcc/arm-none-eabi/6.3.1/../../../../arm-none-eabi/lib/thumb/v7e-m/libc.a(lib_a-mallocr.o) (__malloc_lock)
/Users/richard/Desktop/DAQ/gcc/bin/../lib/gcc/arm-none-eabi/6.3.1/../../../../arm-none-eabi/lib/thumb/v7e-m/libc.a(lib_a-sbrkr.o)
                              /Users/richard/Desktop/DAQ/gcc/bin/../lib/gcc/arm-none-eabi/6.3.1/../../../../arm-none-eabi/lib/thumb/v7e-m/libc.a(lib_a-mallocr.o) (_sbrk_r)
/Users/richard/Desktop/DAQ/gcc/bin/../lib/gcc/arm-none-eabi/6.3.1/../../../../arm-none-eabi/lib/thumb/v7e-m/libc.a(lib_a-snprintf.o)
                              src/structure.o (snprintf)
/Users/richard/Desktop/DAQ/gcc/bin/../lib/gcc/arm-none-eabi/6.3.1/../../../../arm-none-eabi/lib/thumb/v7e-m/libc.a(lib_a-strcmp.o)
                              src/command.o (strcmp)
/Users/richard/Desktop/DAQ/gcc/bin/../lib/gcc/arm-none-eabi/6.3.1/../../../../arm-none-eabi/lib/thumb/v7e-m/libc.a(lib_a-strlen.o)
                              src/main.o (strlen)
/Users/richard/Desktop/DAQ/gcc/bin/../lib/gcc/arm-none-eabi/6.3.1/../../../../arm-none-eabi/lib/thumb/v7e-m/libc.a(lib_a-strtod.o)
                              /Users/richard/Desktop/DAQ/gcc/bin/../lib/gcc/arm-none-eabi/6.3.1/../../../../arm-none-eabi/lib/thumb/v7e-m/libc.a(lib_a-atof.o) (strtod)
/Users/richard/Desktop/DAQ/gcc/bin/../lib/gcc/arm-none-eabi/6.3.1/../../../../arm-none-eabi/lib/thumb/v7e-m/libc.a(lib_a-strtok.o)
                              src/main.o (strtok)
/Users/richard/Desktop/DAQ/gcc/bin/../lib/gcc/arm-none-eabi/6.3.1/../../../../arm-none-eabi/lib/thumb/v7e-m/libc.a(lib_a-strtok_r.o)
                              /Users/richard/Desktop/DAQ/gcc/bin/../lib/gcc/arm-none-eabi/6.3.1/../../../../arm-none-eabi/lib/thumb/v7e-m/libc.a(lib_a-strtok.o) (__strtok_r)
/Users/richard/Desktop/DAQ/gcc/bin/../lib/gcc/arm-none-eabi/6.3.1/../../../../arm-none-eabi/lib/thumb/v7e-m/libc.a(lib_a-strtol.o)
                              /Users/richard/Desktop/DAQ/gcc/bin/../lib/gcc/arm-none-eabi/6.3.1/../../../../arm-none-eabi/lib/thumb/v7e-m/libc.a(lib_a-atoi.o) (_strtol_r)
/Users/richard/Desktop/DAQ/gcc/bin/../lib/gcc/arm-none-eabi/6.3.1/../../../../arm-none-eabi/lib/thumb/v7e-m/libc.a(lib_a-strtoul.o)
                              src/main.o (strtoul)
/Users/richard/Desktop/DAQ/gcc/bin/../lib/gcc/arm-none-eabi/6.3.1/../../../../arm-none-eabi/lib/thumb/v7e-m/libc.a(lib_a-svfprintf.o)
                              /Users/richard/Desktop/DAQ/gcc/bin/../lib/gcc/arm-none-eabi/6.3.1/../../../../arm-none-eabi/lib/thumb/v7e-m/libc.a(lib_a-snprintf.o) (_svfprintf_r)
/Users/richard/Desktop/DAQ/gcc/bin/../lib/gcc/arm-none-eabi/6.3.1/../../../../arm-none-eabi/lib/thumb/v7e-m/libc.a(lib_a-__call_atexit.o)
                              /Users/richard/Desktop/DAQ/gcc/bin/../lib/gcc/arm-none-eabi/6.3.1/../../../../arm-none-eabi/lib/thumb/v7e-m/libc.a(lib_a-exit.o) (__call_exitprocs)
/Users/richard/Desktop/DAQ/gcc/bin/../lib/gcc/arm-none-eabi/6.3.1/../../../../arm-none-eabi/lib/thumb/v7e-m/libc.a(lib_a-atexit.o)
                              /Users/richard/Desktop/DAQ/gcc/bin/../lib/gcc/arm-none-eabi/6.3.1/../../../../arm-none-eabi/lib/thumb/v7e-m/libc.a(lib_a-__call_atexit.o) (atexit)
/Users/richard/Desktop/DAQ/gcc/bin/../lib/gcc/arm-none-eabi/6.3.1/../../../../arm-none-eabi/lib/thumb/v7e-m/libc.a(lib_a-dtoa.o)
                              /Users/richard/Desktop/DAQ/gcc/bin/../lib/gcc/arm-none-eabi/6.3.1/../../../../arm-none-eabi/lib/thumb/v7e-m/libc.a(lib_a-svfprintf.o) (_dtoa_r)
/Users/richard/Desktop/DAQ/gcc/bin/../lib/gcc/arm-none-eabi/6.3.1/../../../../arm-none-eabi/lib/thumb/v7e-m/libc.a(lib_a-fini.o)
                              /Users/richard/Desktop/DAQ/gcc/bin/../lib/gcc/arm-none-eabi/6.3.1/../../../../arm-none-eabi/lib/thumb/v7e-m/libc.a(lib_a-__call_atexit.o) (__libc_fini_array)
/Users/richard/Desktop/DAQ/gcc/bin/../lib/gcc/arm-none-eabi/6.3.1/../../../../arm-none-eabi/lib/thumb/v7e-m/libc.a(lib_a-freer.o)
                              /Users/richard/Desktop/DAQ/gcc/bin/../lib/gcc/arm-none-eabi/6.3.1/../../../../arm-none-eabi/lib/thumb/v7e-m/libc.a(lib_a-malloc.o) (_free_r)
/Users/richard/Desktop/DAQ/gcc/bin/../lib/gcc/arm-none-eabi/6.3.1/../../../../arm-none-eabi/lib/thumb/v7e-m/libc.a(lib_a-gdtoa-gethex.o)
                              /Users/richard/Desktop/DAQ/gcc/bin/../lib/gcc/arm-none-eabi/6.3.1/../../../../arm-none-eabi/lib/thumb/v7e-m/libc.a(lib_a-strtod.o) (__gethex)
/Users/richard/Desktop/DAQ/gcc/bin/../lib/gcc/arm-none-eabi/6.3.1/../../../../arm-none-eabi/lib/thumb/v7e-m/libc.a(lib_a-gdtoa-hexnan.o)
                              /Users/richard/Desktop/DAQ/gcc/bin/../lib/gcc/arm-none-eabi/6.3.1/../../../../arm-none-eabi/lib/thumb/v7e-m/libc.a(lib_a-strtod.o) (__match)
/Users/richard/Desktop/DAQ/gcc/bin/../lib/gcc/arm-none-eabi/6.3.1/../../../../arm-none-eabi/lib/thumb/v7e-m/libc.a(lib_a-locale.o)
                              /Users/richard/Desktop/DAQ/gcc/bin/../lib/gcc/arm-none-eabi/6.3.1/../../../../arm-none-eabi/lib/thumb/v7e-m/libc.a(lib_a-strtol.o) (__locale_ctype_ptr_l)
/Users/richard/Desktop/DAQ/gcc/bin/../lib/gcc/arm-none-eabi/6.3.1/../../../../arm-none-eabi/lib/thumb/v7e-m/libc.a(lib_a-localeconv.o)
                              /Users/richard/Desktop/DAQ/gcc/bin/../lib/gcc/arm-none-eabi/6.3.1/../../../../arm-none-eabi/lib/thumb/v7e-m/libc.a(lib_a-strtod.o) (__localeconv_l)
/Users/richard/Desktop/DAQ/gcc/bin/../lib/gcc/arm-none-eabi/6.3.1/../../../../arm-none-eabi/lib/thumb/v7e-m/libc.a(lib_a-lock.o)
                              /Users/richard/Desktop/DAQ/gcc/bin/../lib/gcc/arm-none-eabi/6.3.1/../../../../arm-none-eabi/lib/thumb/v7e-m/libc.a(lib_a-mlock.o) (__retarget_lock_acquire_recursive)
/Users/richard/Desktop/DAQ/gcc/bin/../lib/gcc/arm-none-eabi/6.3.1/../../../../arm-none-eabi/lib/thumb/v7e-m/libc.a(lib_a-mbtowc_r.o)
                              /Users/richard/Desktop/DAQ/gcc/bin/../lib/gcc/arm-none-eabi/6.3.1/../../../../arm-none-eabi/lib/thumb/v7e-m/libc.a(lib_a-locale.o) (__ascii_mbtowc)
/Users/richard/Desktop/DAQ/gcc/bin/../lib/gcc/arm-none-eabi/6.3.1/../../../../arm-none-eabi/lib/thumb/v7e-m/libc.a(lib_a-memchr.o)
                              /Users/richard/Desktop/DAQ/gcc/bin/../lib/gcc/arm-none-eabi/6.3.1/../../../../arm-none-eabi/lib/thumb/v7e-m/libc.a(lib_a-svfprintf.o) (memchr)
/Users/richard/Desktop/DAQ/gcc/bin/../lib/gcc/arm-none-eabi/6.3.1/../../../../arm-none-eabi/lib/thumb/v7e-m/libc.a(lib_a-memcpy.o)
                              /Users/richard/Desktop/DAQ/gcc/bin/../lib/gcc/arm-none-eabi/6.3.1/../../../../arm-none-eabi/lib/thumb/v7e-m/libc.a(lib_a-strtod.o) (memcpy)
/Users/richard/Desktop/DAQ/gcc/bin/../lib/gcc/arm-none-eabi/6.3.1/../../../../arm-none-eabi/lib/thumb/v7e-m/libc.a(lib_a-mprec.o)
                              /Users/richard/Desktop/DAQ/gcc/bin/../lib/gcc/arm-none-eabi/6.3.1/../../../../arm-none-eabi/lib/thumb/v7e-m/libc.a(lib_a-strtod.o) (_Balloc)
/Users/richard/Desktop/DAQ/gcc/bin/../lib/gcc/arm-none-eabi/6.3.1/../../../../arm-none-eabi/lib/thumb/v7e-m/libc.a(lib_a-reent.o)
                              /Users/richard/Desktop/DAQ/gcc/bin/../lib/gcc/arm-none-eabi/6.3.1/../../../../arm-none-eabi/lib/thumb/v7e-m/libc.a(lib_a-sbrkr.o) (errno)
/Users/richard/Desktop/DAQ/gcc/bin/../lib/gcc/arm-none-eabi/6.3.1/../../../../arm-none-eabi/lib/thumb/v7e-m/libc.a(lib_a-sf_nan.o)
                              /Users/richard/Desktop/DAQ/gcc/bin/../lib/gcc/arm-none-eabi/6.3.1/../../../../arm-none-eabi/lib/thumb/v7e-m/libc.a(lib_a-strtod.o) (nanf)
/Users/richard/Desktop/DAQ/gcc/bin/../lib/gcc/arm-none-eabi/6.3.1/../../../../arm-none-eabi/lib/thumb/v7e-m/libc.a(lib_a-strncmp.o)
                              /Users/richard/Desktop/DAQ/gcc/bin/../lib/gcc/arm-none-eabi/6.3.1/../../../../arm-none-eabi/lib/thumb/v7e-m/libc.a(lib_a-strtod.o) (strncmp)
/Users/richard/Desktop/DAQ/gcc/bin/../lib/gcc/arm-none-eabi/6.3.1/../../../../arm-none-eabi/lib/thumb/v7e-m/libc.a(lib_a-svfiprintf.o)
                              /Users/richard/Desktop/DAQ/gcc/bin/../lib/gcc/arm-none-eabi/6.3.1/../../../../arm-none-eabi/lib/thumb/v7e-m/libc.a(lib_a-svfprintf.o) (__ssprint_r)
/Users/richard/Desktop/DAQ/gcc/bin/../lib/gcc/arm-none-eabi/6.3.1/../../../../arm-none-eabi/lib/thumb/v7e-m/libc.a(lib_a-wctomb_r.o)
                              /Users/richard/Desktop/DAQ/gcc/bin/../lib/gcc/arm-none-eabi/6.3.1/../../../../arm-none-eabi/lib/thumb/v7e-m/libc.a(lib_a-locale.o) (__ascii_wctomb)
/Users/richard/Desktop/DAQ/gcc/bin/../lib/gcc/arm-none-eabi/6.3.1/../../../../arm-none-eabi/lib/thumb/v7e-m/libc.a(lib_a-__atexit.o)
                              /Users/richard/Desktop/DAQ/gcc/bin/../lib/gcc/arm-none-eabi/6.3.1/../../../../arm-none-eabi/lib/thumb/v7e-m/libc.a(lib_a-atexit.o) (__register_exitproc)
/Users/richard/Desktop/DAQ/gcc/bin/../lib/gcc/arm-none-eabi/6.3.1/../../../../arm-none-eabi/lib/thumb/v7e-m/libc.a(lib_a-callocr.o)
                              /Users/richard/Desktop/DAQ/gcc/bin/../lib/gcc/arm-none-eabi/6.3.1/../../../../arm-none-eabi/lib/thumb/v7e-m/libc.a(lib_a-mprec.o) (_calloc_r)
/Users/richard/Desktop/DAQ/gcc/bin/../lib/gcc/arm-none-eabi/6.3.1/../../../../arm-none-eabi/lib/thumb/v7e-m/libc.a(lib_a-ctype_.o)
                              /Users/richard/Desktop/DAQ/gcc/bin/../lib/gcc/arm-none-eabi/6.3.1/../../../../arm-none-eabi/lib/thumb/v7e-m/libc.a(lib_a-locale.o) (_ctype_)
/Users/richard/Desktop/DAQ/gcc/bin/../lib/gcc/arm-none-eabi/6.3.1/../../../../arm-none-eabi/lib/thumb/v7e-m/libc.a(lib_a-memmove.o)
                              /Users/richard/Desktop/DAQ/gcc/bin/../lib/gcc/arm-none-eabi/6.3.1/../../../../arm-none-eabi/lib/thumb/v7e-m/libc.a(lib_a-svfiprintf.o) (memmove)
/Users/richard/Desktop/DAQ/gcc/bin/../lib/gcc/arm-none-eabi/6.3.1/../../../../arm-none-eabi/lib/thumb/v7e-m/libc.a(lib_a-reallocr.o)
                              /Users/richard/Desktop/DAQ/gcc/bin/../lib/gcc/arm-none-eabi/6.3.1/../../../../arm-none-eabi/lib/thumb/v7e-m/libc.a(lib_a-svfiprintf.o) (_realloc_r)
/Users/richard/Desktop/DAQ/gcc/bin/../lib/gcc/arm-none-eabi/6.3.1/thumb/v7e-m/libgcc.a(_arm_unorddf2.o)
                              /Users/richard/Desktop/DAQ/gcc/bin/../lib/gcc/arm-none-eabi/6.3.1/../../../../arm-none-eabi/lib/thumb/v7e-m/libc.a(lib_a-strtod.o) (__aeabi_dcmpun)
/Users/richard/Desktop/DAQ/gcc/bin/../lib/gcc/arm-none-eabi/6.3.1/thumb/v7e-m/libgcc.a(_arm_unordsf2.o)
                              /Users/richard/Desktop/DAQ/gcc/bin/../lib/gcc/arm-none-eabi/6.3.1/../../../../arm-none-eabi/lib/thumb/v7e-m/libc.a(lib_a-strtod.o) (__aeabi_fcmpun)

Allocating common symbols
Common symbol       size              file

__lock___atexit_recursive_mutex
                    0x1               /Users/richard/Desktop/DAQ/gcc/bin/../lib/gcc/arm-none-eabi/6.3.1/../../../../arm-none-eabi/lib/thumb/v7e-m/libc.a(lib_a-lock.o)
bulkOUTmsgHeader    0x8c              src/ASF/common/services/usb/class/vendor/device/udi_tmc.o
__lock___arc4random_mutex
                    0x1               /Users/richard/Desktop/DAQ/gcc/bin/../lib/gcc/arm-none-eabi/6.3.1/../../../../arm-none-eabi/lib/thumb/v7e-m/libc.a(lib_a-lock.o)
errno               0x4               /Users/richard/Desktop/DAQ/gcc/bin/../lib/gcc/arm-none-eabi/6.3.1/../../../../arm-none-eabi/lib/thumb/v7e-m/libc.a(lib_a-reent.o)
deviceDataResponse  0x9c4c            src/main.o
adcValBuffer        0x4               src/adcLib.o
cmd_resp            0x1               src/main.o
__lock___env_recursive_mutex
                    0x1               /Users/richard/Desktop/DAQ/gcc/bin/../lib/gcc/arm-none-eabi/6.3.1/../../../../arm-none-eabi/lib/thumb/v7e-m/libc.a(lib_a-lock.o)
__lock___sinit_recursive_mutex
                    0x1               /Users/richard/Desktop/DAQ/gcc/bin/../lib/gcc/arm-none-eabi/6.3.1/../../../../arm-none-eabi/lib/thumb/v7e-m/libc.a(lib_a-lock.o)
T                   0x30              src/timer.o
__lock___malloc_recursive_mutex
                    0x1               /Users/richard/Desktop/DAQ/gcc/bin/../lib/gcc/arm-none-eabi/6.3.1/../../../../arm-none-eabi/lib/thumb/v7e-m/libc.a(lib_a-lock.o)
pio_capture_enable_flag
                    0x4               src/ASF/sam/drivers/pio/pio.o
udd_g_ctrlreq       0x18              src/ASF/sam/drivers/udp/udp_device.o
sleepmgr_locks      0x6               src/ASF/common/services/sleepmgr/sam/sleepmgr.o
__lock___at_quick_exit_mutex
                    0x1               /Users/richard/Desktop/DAQ/gcc/bin/../lib/gcc/arm-none-eabi/6.3.1/../../../../arm-none-eabi/lib/thumb/v7e-m/libc.a(lib_a-lock.o)
__lock___dd_hash_mutex
                    0x1               /Users/richard/Desktop/DAQ/gcc/bin/../lib/gcc/arm-none-eabi/6.3.1/../../../../arm-none-eabi/lib/thumb/v7e-m/libc.a(lib_a-lock.o)
__lock___tz_mutex   0x1               /Users/richard/Desktop/DAQ/gcc/bin/../lib/gcc/arm-none-eabi/6.3.1/../../../../arm-none-eabi/lib/thumb/v7e-m/libc.a(lib_a-lock.o)
__lock___sfp_recursive_mutex
                    0x1               /Users/richard/Desktop/DAQ/gcc/bin/../lib/gcc/arm-none-eabi/6.3.1/../../../../arm-none-eabi/lib/thumb/v7e-m/libc.a(lib_a-lock.o)

Discarded input sections

 .text          0x0000000000000000        0x0 /Users/richard/Desktop/DAQ/gcc/bin/../lib/gcc/arm-none-eabi/6.3.1/thumb/v7e-m/crti.o
 .data          0x0000000000000000        0x0 /Users/richard/Desktop/DAQ/gcc/bin/../lib/gcc/arm-none-eabi/6.3.1/thumb/v7e-m/crti.o
 .bss           0x0000000000000000        0x0 /Users/richard/Desktop/DAQ/gcc/bin/../lib/gcc/arm-none-eabi/6.3.1/thumb/v7e-m/crti.o
 .data          0x0000000000000000        0x4 /Users/richard/Desktop/DAQ/gcc/bin/../lib/gcc/arm-none-eabi/6.3.1/thumb/v7e-m/crtbegin.o
 .text          0x0000000000000000       0x74 /Users/richard/Desktop/DAQ/gcc/bin/../lib/gcc/arm-none-eabi/6.3.1/../../../../arm-none-eabi/lib/thumb/v7e-m/crt0.o
 .data          0x0000000000000000        0x0 /Users/richard/Desktop/DAQ/gcc/bin/../lib/gcc/arm-none-eabi/6.3.1/../../../../arm-none-eabi/lib/thumb/v7e-m/crt0.o
 .bss           0x0000000000000000        0x0 /Users/richard/Desktop/DAQ/gcc/bin/../lib/gcc/arm-none-eabi/6.3.1/../../../../arm-none-eabi/lib/thumb/v7e-m/crt0.o
 .ARM.extab     0x0000000000000000        0x0 /Users/richard/Desktop/DAQ/gcc/bin/../lib/gcc/arm-none-eabi/6.3.1/../../../../arm-none-eabi/lib/thumb/v7e-m/crt0.o
 .ARM.exidx     0x0000000000000000        0x8 /Users/richard/Desktop/DAQ/gcc/bin/../lib/gcc/arm-none-eabi/6.3.1/../../../../arm-none-eabi/lib/thumb/v7e-m/crt0.o
 .ARM.attributes
                0x0000000000000000       0x1c /Users/richard/Desktop/DAQ/gcc/bin/../lib/gcc/arm-none-eabi/6.3.1/../../../../arm-none-eabi/lib/thumb/v7e-m/crt0.o
 .group         0x0000000000000000        0x8 src/ASF/common/services/clock/sam4s/sysclk.o
 .group         0x0000000000000000        0x8 src/ASF/common/services/clock/sam4s/sysclk.o
 .group         0x0000000000000000        0x8 src/ASF/common/services/clock/sam4s/sysclk.o
 .group         0x0000000000000000        0x8 src/ASF/common/services/clock/sam4s/sysclk.o
 .group         0x0000000000000000        0x8 src/ASF/common/services/clock/sam4s/sysclk.o
 .group         0x0000000000000000        0x8 src/ASF/common/services/clock/sam4s/sysclk.o
 .group         0x0000000000000000        0x8 src/ASF/common/services/clock/sam4s/sysclk.o
Memory Configuration

Name             Origin             Length             Attributes
rom              0x0000000000400000 0x0000000000040000 xr
ram              0x0000000020000000 0x0000000000010000 xrw
*default*        0x0000000000000000 0xffffffffffffffff

Linker script and memory map

LOAD /Users/richard/Desktop/DAQ/gcc/bin/../lib/gcc/arm-none-eabi/6.3.1/thumb/v7e-m/crti.o
LOAD /Users/richard/Desktop/DAQ/gcc/bin/../lib/gcc/arm-none-eabi/6.3.1/thumb/v7e-m/crtbegin.o
LOAD /Users/richard/Desktop/DAQ/gcc/bin/../lib/gcc/arm-none-eabi/6.3.1/../../../../arm-none-eabi/lib/thumb/v7e-m/crt0.o
LOAD src/ASF/common/services/clock/sam4s/sysclk.o
LOAD src/ASF/common/services/delay/sam/cycle_counter.o
LOAD src/ASF/common/services/sleepmgr/sam/sleepmgr.o
LOAD src/ASF/common/services/usb/class/vendor/device/udi_tmc.o
LOAD src/ASF/common/services/usb/class/vendor/device/udi_tmc_desc.o
LOAD src/ASF/common/services/usb/udc/udc.o
LOAD src/ASF/sam/drivers/matrix/matrix.o
LOAD src/ASF/sam/drivers/pio/pio.o
LOAD src/ASF/sam/drivers/pio/pio_handler.o
LOAD src/ASF/sam/drivers/pmc/pmc.o
LOAD src/ASF/sam/drivers/pmc/sleep.o
LOAD src/ASF/sam/drivers/rstc/rstc.o
LOAD src/ASF/sam/drivers/spi/spi.o
LOAD src/ASF/sam/drivers/tc/tc.o
LOAD src/ASF/sam/drivers/udp/udp_device.o
LOAD src/sampling.o
LOAD src/spi_com.o
LOAD src/structure.o
LOAD src/timer.o
LOAD src/ui.o
LOAD src/adcLib.o
LOAD src/ASF/common/boards/user_board/init.o
LOAD src/ASF/common/utils/interrupt/interrupt_sam_nvic.o
LOAD src/ASF/sam/utils/cmsis/sam4s/source/templates/gcc/startup_sam4s.o
LOAD src/ASF/sam/utils/cmsis/sam4s/source/templates/system_sam4s.o
LOAD src/ASF/sam/utils/syscalls/gcc/syscalls.o
LOAD src/command.o
LOAD src/main.o
START GROUP
LOAD ../src/ASF/thirdparty/CMSIS/Lib/GCC/libarm_cortexM4l_math.a
LOAD /Users/richard/Desktop/DAQ/gcc/bin/../lib/gcc/arm-none-eabi/6.3.1/../../../../arm-none-eabi/lib/thumb/v7e-m/libm.a
END GROUP
START GROUP
LOAD /Users/richard/Desktop/DAQ/gcc/bin/../lib/gcc/arm-none-eabi/6.3.1/thumb/v7e-m/libgcc.a
LOAD /Users/richard/Desktop/DAQ/gcc/bin/../lib/gcc/arm-none-eabi/6.3.1/../../../../arm-none-eabi/lib/thumb/v7e-m/libc.a
END GROUP
LOAD /Users/richard/Desktop/DAQ/gcc/bin/../lib/gcc/arm-none-eabi/6.3.1/thumb/v7e-m/crtend.o
LOAD /Users/richard/Desktop/DAQ/gcc/bin/../lib/gcc/arm-none-eabi/6.3.1/thumb/v7e-m/crtn.o
                0x0000000000003000                __stack_size__ = DEFINED (__stack_size__)?__stack_size__:0x3000
                0x000000002000fffc                __ram_end__ = ((ORIGIN (ram) + LENGTH (ram)) - 0x4)

.text           0x0000000000400000     0xbe1c
                0x0000000000400000                . = ALIGN (0x4)
                0x0000000000400000                _sfixed = .
 *(.vectors .vectors.*)
 .vectors       0x0000000000400000       0xcc src/ASF/sam/utils/cmsis/sam4s/source/templates/gcc/startup_sam4s.o
                0x0000000000400000                exception_table
 *(.text .text.* .gnu.linkonce.t.*)
 .text          0x00000000004000cc       0x6c /Users/richard/Desktop/DAQ/gcc/bin/../lib/gcc/arm-none-eabi/6.3.1/thumb/v7e-m/crtbegin.o
 .text.sysclk_enable_usb
                0x0000000000400138       0x50 src/ASF/common/services/clock/sam4s/sysclk.o
                0x0000000000400138                sysclk_enable_usb
 .text.sysclk_init
                0x0000000000400188       0x64 src/ASF/common/services/clock/sam4s/sysclk.o
                0x0000000000400188                sysclk_init
 .text.udi_tmc_getsetting
                0x00000000004001ec        0x4 src/ASF/common/services/usb/class/vendor/device/udi_tmc.o
 .text.udi_tmc_setup
                0x00000000004001f0       0xe8 src/ASF/common/services/usb/class/vendor/device/udi_tmc.o
 .text.udi_tmc_disable
                0x00000000004002d8        0xc src/ASF/common/services/usb/class/vendor/device/udi_tmc.o
 .text.udi_tmc_enable
                0x00000000004002e4        0xc src/ASF/common/services/usb/class/vendor/device/udi_tmc.o
 .text.udi_tmc_bulk_in_run
                0x00000000004002f0       0x1c src/ASF/common/services/usb/class/vendor/device/udi_tmc.o
                0x00000000004002f0                udi_tmc_bulk_in_run
 .text.udi_tmc_bulk_out_run
                0x000000000040030c       0x30 src/ASF/common/services/usb/class/vendor/device/udi_tmc.o
                0x000000000040030c                udi_tmc_bulk_out_run
 .text.udi_process_bulkOUT_header
                0x000000000040033c       0x60 src/ASF/common/services/usb/class/vendor/device/udi_tmc.o
 .text.udc_next_desc_in_iface
                0x000000000040039c       0x48 src/ASF/common/services/usb/udc/udc.o
 .text.udc_valid_address
                0x00000000004003e4       0x18 src/ASF/common/services/usb/udc/udc.o
 .text.udc_update_iface_desc
                0x00000000004003fc       0x74 src/ASF/common/services/usb/udc/udc.o
 .text.udc_iface_disable
                0x0000000000400470       0x6c src/ASF/common/services/usb/udc/udc.o
 .text.udc_iface_enable
                0x00000000004004dc       0x5c src/ASF/common/services/usb/udc/udc.o
 .text.udc_start
                0x0000000000400538        0xc src/ASF/common/services/usb/udc/udc.o
                0x0000000000400538                udc_start
 .text.udc_reset
                0x0000000000400544       0x48 src/ASF/common/services/usb/udc/udc.o
                0x0000000000400544                udc_reset
 .text.udc_sof_notify
                0x000000000040058c       0x40 src/ASF/common/services/usb/udc/udc.o
                0x000000000040058c                udc_sof_notify
 .text.udc_process_setup
                0x00000000004005cc      0x464 src/ASF/common/services/usb/udc/udc.o
                0x00000000004005cc                udc_process_setup
 .text.pio_set  0x0000000000400a30        0x4 src/ASF/sam/drivers/pio/pio.o
                0x0000000000400a30                pio_set
 .text.pio_clear
                0x0000000000400a34        0x4 src/ASF/sam/drivers/pio/pio.o
                0x0000000000400a34                pio_clear
 .text.pio_set_input
                0x0000000000400a38       0x32 src/ASF/sam/drivers/pio/pio.o
                0x0000000000400a38                pio_set_input
 .text.pio_set_output
                0x0000000000400a6a       0x26 src/ASF/sam/drivers/pio/pio.o
                0x0000000000400a6a                pio_set_output
 .text.pio_configure_interrupt
                0x0000000000400a90       0x2e src/ASF/sam/drivers/pio/pio.o
                0x0000000000400a90                pio_configure_interrupt
 .text.pio_enable_interrupt
                0x0000000000400abe        0x4 src/ASF/sam/drivers/pio/pio.o
                0x0000000000400abe                pio_enable_interrupt
 .text.pio_disable_interrupt
                0x0000000000400ac2        0x4 src/ASF/sam/drivers/pio/pio.o
                0x0000000000400ac2                pio_disable_interrupt
 .text.pio_get_interrupt_status
                0x0000000000400ac6        0x4 src/ASF/sam/drivers/pio/pio.o
                0x0000000000400ac6                pio_get_interrupt_status
 .text.pio_get_interrupt_mask
                0x0000000000400aca        0x4 src/ASF/sam/drivers/pio/pio.o
                0x0000000000400aca                pio_get_interrupt_mask
 *fill*         0x0000000000400ace        0x2 
 .text.pio_handler_process
                0x0000000000400ad0       0x68 src/ASF/sam/drivers/pio/pio_handler.o
                0x0000000000400ad0                pio_handler_process
 .text.pio_handler_set
                0x0000000000400b38       0x70 src/ASF/sam/drivers/pio/pio_handler.o
                0x0000000000400b38                pio_handler_set
 .text.PIOA_Handler
                0x0000000000400ba8       0x14 src/ASF/sam/drivers/pio/pio_handler.o
                0x0000000000400ba8                PIOA_Handler
 .text.PIOB_Handler
                0x0000000000400bbc       0x14 src/ASF/sam/drivers/pio/pio_handler.o
                0x0000000000400bbc                PIOB_Handler
 .text.pmc_switch_mck_to_pllack
                0x0000000000400bd0       0x64 src/ASF/sam/drivers/pmc/pmc.o
                0x0000000000400bd0                pmc_switch_mck_to_pllack
 .text.pmc_switch_mainck_to_xtal
                0x0000000000400c34       0x54 src/ASF/sam/drivers/pmc/pmc.o
                0x0000000000400c34                pmc_switch_mainck_to_xtal
 .text.pmc_osc_is_ready_mainck
                0x0000000000400c88       0x10 src/ASF/sam/drivers/pmc/pmc.o
                0x0000000000400c88                pmc_osc_is_ready_mainck
 .text.pmc_disable_pllack
                0x0000000000400c98       0x10 src/ASF/sam/drivers/pmc/pmc.o
                0x0000000000400c98                pmc_disable_pllack
 .text.pmc_is_locked_pllack
                0x0000000000400ca8       0x10 src/ASF/sam/drivers/pmc/pmc.o
                0x0000000000400ca8                pmc_is_locked_pllack
 .text.pmc_disable_pllbck
                0x0000000000400cb8        0xc src/ASF/sam/drivers/pmc/pmc.o
                0x0000000000400cb8                pmc_disable_pllbck
 .text.pmc_is_locked_pllbck
                0x0000000000400cc4       0x10 src/ASF/sam/drivers/pmc/pmc.o
                0x0000000000400cc4                pmc_is_locked_pllbck
 .text.pmc_enable_periph_clk
                0x0000000000400cd4       0x54 src/ASF/sam/drivers/pmc/pmc.o
                0x0000000000400cd4                pmc_enable_periph_clk
 .text.pmc_disable_periph_clk
                0x0000000000400d28       0x54 src/ASF/sam/drivers/pmc/pmc.o
                0x0000000000400d28                pmc_disable_periph_clk
 .text.pmc_switch_udpck_to_pllbck
                0x0000000000400d7c       0x14 src/ASF/sam/drivers/pmc/pmc.o
                0x0000000000400d7c                pmc_switch_udpck_to_pllbck
 .text.pmc_enable_udpck
                0x0000000000400d90        0xc src/ASF/sam/drivers/pmc/pmc.o
                0x0000000000400d90                pmc_enable_udpck
 .text.pmc_set_fast_startup_input
                0x0000000000400d9c       0x14 src/ASF/sam/drivers/pmc/pmc.o
                0x0000000000400d9c                pmc_set_fast_startup_input
 .text.pmc_set_flash_in_wait_mode
                0x0000000000400db0        0xc src/ASF/sam/drivers/pmc/pmc.o
                0x0000000000400db0                pmc_set_flash_in_wait_mode
 .text.pmc_enable_waitmode
                0x0000000000400dbc       0x50 src/ASF/sam/drivers/pmc/pmc.o
                0x0000000000400dbc                pmc_enable_waitmode
 .text.pmc_sleep
                0x0000000000400e0c      0x2a0 src/ASF/sam/drivers/pmc/sleep.o
                0x0000000000400e0c                pmc_sleep
 .text.pmc_is_wakeup_clocks_restored
                0x00000000004010ac       0x10 src/ASF/sam/drivers/pmc/sleep.o
                0x00000000004010ac                pmc_is_wakeup_clocks_restored
 .text.rstc_start_software_reset
                0x00000000004010bc        0xc src/ASF/sam/drivers/rstc/rstc.o
                0x00000000004010bc                rstc_start_software_reset
 .text.spi_enable_clock
                0x00000000004010c8       0x10 src/ASF/sam/drivers/spi/spi.o
                0x00000000004010c8                spi_enable_clock
 .text.spi_set_peripheral_chip_select_value
                0x00000000004010d8       0x16 src/ASF/sam/drivers/spi/spi.o
                0x00000000004010d8                spi_set_peripheral_chip_select_value
 .text.spi_read
                0x00000000004010ee       0x2e src/ASF/sam/drivers/spi/spi.o
                0x00000000004010ee                spi_read
 .text.spi_write
                0x000000000040111c       0x34 src/ASF/sam/drivers/spi/spi.o
                0x000000000040111c                spi_write
 .text.spi_set_clock_polarity
                0x0000000000401150       0x1e src/ASF/sam/drivers/spi/spi.o
                0x0000000000401150                spi_set_clock_polarity
 .text.spi_set_clock_phase
                0x000000000040116e       0x1e src/ASF/sam/drivers/spi/spi.o
                0x000000000040116e                spi_set_clock_phase
 .text.spi_set_bits_per_transfer
                0x000000000040118c       0x14 src/ASF/sam/drivers/spi/spi.o
                0x000000000040118c                spi_set_bits_per_transfer
 .text.spi_set_baudrate_div
                0x00000000004011a0       0x26 src/ASF/sam/drivers/spi/spi.o
                0x00000000004011a0                spi_set_baudrate_div
 .text.spi_set_transfer_delay
                0x00000000004011c6       0x1c src/ASF/sam/drivers/spi/spi.o
                0x00000000004011c6                spi_set_transfer_delay
 .text.tc_init  0x00000000004011e2       0x18 src/ASF/sam/drivers/tc/tc.o
                0x00000000004011e2                tc_init
 .text.tc_set_block_mode
                0x00000000004011fa        0x6 src/ASF/sam/drivers/tc/tc.o
                0x00000000004011fa                tc_set_block_mode
 .text.tc_start
                0x0000000000401200        0x8 src/ASF/sam/drivers/tc/tc.o
                0x0000000000401200                tc_start
 .text.tc_stop  0x0000000000401208        0x8 src/ASF/sam/drivers/tc/tc.o
                0x0000000000401208                tc_stop
 .text.tc_write_rc
                0x0000000000401210        0x8 src/ASF/sam/drivers/tc/tc.o
                0x0000000000401210                tc_write_rc
 .text.tc_enable_interrupt
                0x0000000000401218        0x8 src/ASF/sam/drivers/tc/tc.o
                0x0000000000401218                tc_enable_interrupt
 .text.tc_get_status
                0x0000000000401220        0x8 src/ASF/sam/drivers/tc/tc.o
                0x0000000000401220                tc_get_status
 .text.udd_sleep_mode
                0x0000000000401228       0xa4 src/ASF/sam/drivers/udp/udp_device.o
 .text.udd_ctrl_init
                0x00000000004012cc       0x18 src/ASF/sam/drivers/udp/udp_device.o
 .text.udd_ctrl_stall_data
                0x00000000004012e4       0x38 src/ASF/sam/drivers/udp/udp_device.o
 .text.udd_ctrl_send_zlp_in
                0x000000000040131c       0x38 src/ASF/sam/drivers/udp/udp_device.o
 .text.udd_ctrl_endofrequest
                0x0000000000401354       0x10 src/ASF/sam/drivers/udp/udp_device.o
 .text.udd_ctrl_in_sent
                0x0000000000401364      0x1b8 src/ASF/sam/drivers/udp/udp_device.o
 .text.udd_ep_finish_job
                0x000000000040151c       0x40 src/ASF/sam/drivers/udp/udp_device.o
 .text.udd_ep_ack_out_received
                0x000000000040155c       0xd4 src/ASF/sam/drivers/udp/udp_device.o
 .text.udd_ep_in_sent
                0x0000000000401630      0x1b4 src/ASF/sam/drivers/udp/udp_device.o
 .text.UDP_Handler
                0x00000000004017e4      0x9d0 src/ASF/sam/drivers/udp/udp_device.o
                0x00000000004017e4                UDP_Handler
 .text.udd_attach
                0x00000000004021b4       0x7c src/ASF/sam/drivers/udp/udp_device.o
                0x00000000004021b4                udd_attach
 .text.udd_enable
                0x0000000000402230       0xd4 src/ASF/sam/drivers/udp/udp_device.o
                0x0000000000402230                udd_enable
 .text.udd_set_address
                0x0000000000402304       0x3c src/ASF/sam/drivers/udp/udp_device.o
                0x0000000000402304                udd_set_address
 .text.udd_getaddress
                0x0000000000402340       0x1c src/ASF/sam/drivers/udp/udp_device.o
                0x0000000000402340                udd_getaddress
 .text.udd_get_frame_number
                0x000000000040235c       0x10 src/ASF/sam/drivers/udp/udp_device.o
                0x000000000040235c                udd_get_frame_number
 .text.udd_set_setup_payload
                0x000000000040236c        0xc src/ASF/sam/drivers/udp/udp_device.o
                0x000000000040236c                udd_set_setup_payload
 .text.udd_ep_alloc
                0x0000000000402378       0xf8 src/ASF/sam/drivers/udp/udp_device.o
                0x0000000000402378                udd_ep_alloc
 .text.udd_ep_free
                0x0000000000402470       0x58 src/ASF/sam/drivers/udp/udp_device.o
                0x0000000000402470                udd_ep_free
 .text.udd_ep_is_halted
                0x00000000004024c8       0x40 src/ASF/sam/drivers/udp/udp_device.o
                0x00000000004024c8                udd_ep_is_halted
 .text.udd_ep_set_halt
                0x0000000000402508       0xe0 src/ASF/sam/drivers/udp/udp_device.o
                0x0000000000402508                udd_ep_set_halt
 .text.udd_ep_clear_halt
                0x00000000004025e8       0xd8 src/ASF/sam/drivers/udp/udp_device.o
                0x00000000004025e8                udd_ep_clear_halt
 .text.udd_ep_run
                0x00000000004026c0      0x17c src/ASF/sam/drivers/udp/udp_device.o
                0x00000000004026c0                udd_ep_run
 .text.udd_ep_abort
                0x000000000040283c      0x164 src/ASF/sam/drivers/udp/udp_device.o
                0x000000000040283c                udd_ep_abort
 .text.sampling_init
                0x00000000004029a0        0xc src/sampling.o
                0x00000000004029a0                sampling_init
 .text.get_buf_len
                0x00000000004029ac        0xc src/sampling.o
                0x00000000004029ac                get_buf_len
 .text.interruptEnable
                0x00000000004029b8       0x3c src/sampling.o
                0x00000000004029b8                interruptEnable
 .text.stop     0x00000000004029f4       0x18 src/sampling.o
                0x00000000004029f4                stop
 .text.setRate  0x0000000000402a0c       0x68 src/sampling.o
                0x0000000000402a0c                setRate
 .text.status_check
                0x0000000000402a74       0x68 src/sampling.o
                0x0000000000402a74                status_check
 .text.samp_timer_handler
                0x0000000000402adc       0x60 src/sampling.o
                0x0000000000402adc                samp_timer_handler
 .text.start    0x0000000000402b3c       0x4c src/sampling.o
                0x0000000000402b3c                start
 .text.send_ADC_data
                0x0000000000402b88       0x40 src/sampling.o
                0x0000000000402b88                send_ADC_data
 .text.is_corrupt
                0x0000000000402bc8        0xc src/sampling.o
                0x0000000000402bc8                is_corrupt
 .text.sysclk_get_cpu_hz
                0x0000000000402bd4        0x8 src/spi_com.o
 .text.spi_read_status
                0x0000000000402bdc        0x4 src/spi_com.o
 .text.configure_spi_master
                0x0000000000402be0       0x8c src/spi_com.o
                0x0000000000402be0                configure_spi_master
 *fill*         0x0000000000402c6c        0x4 
 .text.txrx     0x0000000000402c70       0xf8 src/spi_com.o
                0x0000000000402c70                txrx
 .text.add      0x0000000000402d68       0xb4 src/structure.o
                0x0000000000402d68                add
 .text.rm       0x0000000000402e1c       0x28 src/structure.o
                0x0000000000402e1c                rm
 .text.dec      0x0000000000402e44       0x2c src/structure.o
                0x0000000000402e44                dec
 .text.findSet  0x0000000000402e70       0x20 src/structure.o
                0x0000000000402e70                findSet
 .text.qryDSet  0x0000000000402e90       0x54 src/structure.o
                0x0000000000402e90                qryDSet
 .text.timer_init
                0x0000000000402ee4       0x28 src/timer.o
                0x0000000000402ee4                timer_init
 *fill*         0x0000000000402f0c        0x4 
 .text.t_find_clock_divisor
                0x0000000000402f10       0xcc src/timer.o
                0x0000000000402f10                t_find_clock_divisor
 *fill*         0x0000000000402fdc        0x4 
 .text.t_make_timer
                0x0000000000402fe0      0x1e0 src/timer.o
                0x0000000000402fe0                t_make_timer
 .text.t_counter_value_32b
                0x00000000004031c0       0x74 src/timer.o
                0x00000000004031c0                t_counter_value_32b
 .text.t_clock_feeding
                0x0000000000403234       0xa0 src/timer.o
                0x0000000000403234                t_clock_feeding
 .text.t_insert_timer
                0x00000000004032d4       0x1c src/timer.o
                0x00000000004032d4                t_insert_timer
 .text.t_enable_disable_clock
                0x00000000004032f0       0xb8 src/timer.o
                0x00000000004032f0                t_enable_disable_clock
 .text.setup_timer
                0x00000000004033a8      0x254 src/timer.o
                0x00000000004033a8                setup_timer
 .text.stop_timer
                0x00000000004035fc       0x58 src/timer.o
                0x00000000004035fc                stop_timer
 .text.start_timer
                0x0000000000403654       0x58 src/timer.o
                0x0000000000403654                start_timer
 .text.t_pop_timer
                0x00000000004036ac       0x38 src/timer.o
                0x00000000004036ac                t_pop_timer
 .text.rm_timer
                0x00000000004036e4       0xc8 src/timer.o
                0x00000000004036e4                rm_timer
 .text.Timer_Handler
                0x00000000004037ac       0x74 src/timer.o
                0x00000000004037ac                Timer_Handler
 .text.TC0_Handler
                0x0000000000403820       0x10 src/timer.o
                0x0000000000403820                TC0_Handler
 .text.TC1_Handler
                0x0000000000403830       0x10 src/timer.o
                0x0000000000403830                TC1_Handler
 .text.TC2_Handler
                0x0000000000403840       0x10 src/timer.o
                0x0000000000403840                TC2_Handler
 .text.ui_init  0x0000000000403850        0x2 src/ui.o
                0x0000000000403850                ui_init
 .text.ui_powerdown
                0x0000000000403852        0x2 src/ui.o
                0x0000000000403852                ui_powerdown
 .text.ui_wakeup
                0x0000000000403854        0x2 src/ui.o
                0x0000000000403854                ui_wakeup
 *fill*         0x0000000000403856        0x2 
 .text.ui_loop_back_state
                0x0000000000403858        0xc src/ui.o
                0x0000000000403858                ui_loop_back_state
 .text.ui_process
                0x0000000000403864       0x30 src/ui.o
                0x0000000000403864                ui_process
 .text.changeSampleRate
                0x0000000000403894       0x18 src/adcLib.o
                0x0000000000403894                changeSampleRate
 .text.change_channel
                0x00000000004038ac       0x6c src/adcLib.o
                0x00000000004038ac                change_channel
 .text.initReg  0x0000000000403918       0x18 src/adcLib.o
                0x0000000000403918                initReg
 .text.data_to_value
                0x0000000000403930       0x38 src/adcLib.o
                0x0000000000403930                data_to_value
 .text.readADC  0x0000000000403968       0xe0 src/adcLib.o
                0x0000000000403968                readADC
 .text.drdy_callback
                0x0000000000403a48       0x18 src/adcLib.o
                0x0000000000403a48                drdy_callback
 .text.initGPIO
                0x0000000000403a60       0xac src/adcLib.o
                0x0000000000403a60                initGPIO
 .text.reset_ADC
                0x0000000000403b0c       0x48 src/adcLib.o
                0x0000000000403b0c                reset_ADC
 .text.enableDrdy
                0x0000000000403b54       0x28 src/adcLib.o
                0x0000000000403b54                enableDrdy
 .text.turnOn   0x0000000000403b7c       0x28 src/adcLib.o
                0x0000000000403b7c                turnOn
 .text.startADC
                0x0000000000403ba4       0x28 src/adcLib.o
                0x0000000000403ba4                startADC
 .text.writeReg
                0x0000000000403bcc       0x4c src/adcLib.o
                0x0000000000403bcc                writeReg
 .text.readReg  0x0000000000403c18       0x38 src/adcLib.o
                0x0000000000403c18                readReg
 .text.initADC  0x0000000000403c50       0x48 src/adcLib.o
                0x0000000000403c50                initADC
 .text.determineADCRate
                0x0000000000403c98       0x7c src/adcLib.o
                0x0000000000403c98                determineADCRate
 .text.board_init
                0x0000000000403d14       0xb4 src/ASF/common/boards/user_board/init.o
                0x0000000000403d14                board_init
 .text.cpu_irq_enter_critical
                0x0000000000403dc8       0x3c src/ASF/common/utils/interrupt/interrupt_sam_nvic.o
                0x0000000000403dc8                cpu_irq_enter_critical
 .text.cpu_irq_leave_critical
                0x0000000000403e04       0x2c src/ASF/common/utils/interrupt/interrupt_sam_nvic.o
                0x0000000000403e04                cpu_irq_leave_critical
 .text.Dummy_Handler
                0x0000000000403e30        0x2 src/ASF/sam/utils/cmsis/sam4s/source/templates/gcc/startup_sam4s.o
                0x0000000000403e30                RSTC_Handler
                0x0000000000403e30                HardFault_Handler
                0x0000000000403e30                SPI_Handler
                0x0000000000403e30                SysTick_Handler
                0x0000000000403e30                TWI1_Handler
                0x0000000000403e30                PendSV_Handler
                0x0000000000403e30                NMI_Handler
                0x0000000000403e30                ADC_Handler
                0x0000000000403e30                CRCCU_Handler
                0x0000000000403e30                USART0_Handler
                0x0000000000403e30                RTT_Handler
                0x0000000000403e30                RTC_Handler
                0x0000000000403e30                UsageFault_Handler
                0x0000000000403e30                WDT_Handler
                0x0000000000403e30                UART1_Handler
                0x0000000000403e30                Dummy_Handler
                0x0000000000403e30                TWI0_Handler
                0x0000000000403e30                SSC_Handler
                0x0000000000403e30                EFC0_Handler
                0x0000000000403e30                ACC_Handler
                0x0000000000403e30                PMC_Handler
                0x0000000000403e30                PWM_Handler
                0x0000000000403e30                MemManage_Handler
                0x0000000000403e30                SUPC_Handler
                0x0000000000403e30                SVC_Handler
                0x0000000000403e30                UART0_Handler
                0x0000000000403e30                BusFault_Handler
                0x0000000000403e30                DebugMon_Handler
 *fill*         0x0000000000403e32        0x2 
 .text.Reset_Handler
                0x0000000000403e34       0xac src/ASF/sam/utils/cmsis/sam4s/source/templates/gcc/startup_sam4s.o
                0x0000000000403e34                Reset_Handler
 .text.SystemCoreClockUpdate
                0x0000000000403ee0      0x110 src/ASF/sam/utils/cmsis/sam4s/source/templates/system_sam4s.o
                0x0000000000403ee0                SystemCoreClockUpdate
 .text.system_init_flash
                0x0000000000403ff0       0x74 src/ASF/sam/utils/cmsis/sam4s/source/templates/system_sam4s.o
                0x0000000000403ff0                system_init_flash
 .text._sbrk    0x0000000000404064       0x38 src/ASF/sam/utils/syscalls/gcc/syscalls.o
                0x0000000000404064                _sbrk
 .text.findCommand
                0x000000000040409c       0xb0 src/command.o
                0x000000000040409c                findCommand
 .text.main_req_dev_dep_msg_in_sent
                0x000000000040414c       0x14 src/main.o
 .text.abort_tmc_bulkIN_transfer
                0x0000000000404160       0x24 src/main.o
 .text.command_handler
                0x0000000000404184      0x264 src/main.o
                0x0000000000404184                command_handler
 .text.main_tmc_enable
                0x00000000004043e8       0x20 src/main.o
                0x00000000004043e8                main_tmc_enable
 .text.main_tmc_disable
                0x0000000000404408        0xc src/main.o
                0x0000000000404408                main_tmc_disable
 .text.main_sof_action
                0x0000000000404414       0x20 src/main.o
                0x0000000000404414                main_sof_action
 .text.main_suspend_action
                0x0000000000404434        0xc src/main.o
                0x0000000000404434                main_suspend_action
 .text.main_resume_action
                0x0000000000404440        0xc src/main.o
                0x0000000000404440                main_resume_action
 .text.main_initiate_abort_bulkOUT
                0x000000000040444c       0x1c src/main.o
                0x000000000040444c                main_initiate_abort_bulkOUT
 .text.main_check_abort_bulkOUT_status
                0x0000000000404468       0x24 src/main.o
                0x0000000000404468                main_check_abort_bulkOUT_status
 .text.main_initiate_abort_bulkIN
                0x000000000040448c       0x34 src/main.o
                0x000000000040448c                main_initiate_abort_bulkIN
 .text.main_check_abort_bulkIN_status
                0x00000000004044c0       0x3c src/main.o
                0x00000000004044c0                main_check_abort_bulkIN_status
 .text.main_initiate_clear
                0x00000000004044fc       0x18 src/main.o
                0x00000000004044fc                main_initiate_clear
 .text.main_check_clear_status
                0x0000000000404514       0x1c src/main.o
                0x0000000000404514                main_check_clear_status
 .text.init     0x0000000000404530       0x70 src/main.o
                0x0000000000404530                init
 .text.main     0x00000000004045a0       0x68 src/main.o
                0x00000000004045a0                main
 .text.main_req_dev_dep_msg_in_received
                0x0000000000404608      0x11c src/main.o
                0x0000000000404608                main_req_dev_dep_msg_in_received
 *fill*         0x0000000000404724        0x4 
 .text.ceil     0x0000000000404728      0x120 /Users/richard/Desktop/DAQ/gcc/bin/../lib/gcc/arm-none-eabi/6.3.1/../../../../arm-none-eabi/lib/thumb/v7e-m/libm.a(lib_a-s_ceil.o)
                0x0000000000404728                ceil
 .text.lround   0x0000000000404848       0x90 /Users/richard/Desktop/DAQ/gcc/bin/../lib/gcc/arm-none-eabi/6.3.1/../../../../arm-none-eabi/lib/thumb/v7e-m/libm.a(lib_a-s_lround.o)
                0x0000000000404848                lround
 .text          0x00000000004048d8      0x370 /Users/richard/Desktop/DAQ/gcc/bin/../lib/gcc/arm-none-eabi/6.3.1/thumb/v7e-m/libgcc.a(_arm_addsubdf3.o)
                0x00000000004048d8                __aeabi_drsub
                0x00000000004048e0                __subdf3
                0x00000000004048e0                __aeabi_dsub
                0x00000000004048e4                __aeabi_dadd
                0x00000000004048e4                __adddf3
                0x0000000000404b5c                __aeabi_ui2d
                0x0000000000404b5c                __floatunsidf
                0x0000000000404b7c                __floatsidf
                0x0000000000404b7c                __aeabi_i2d
                0x0000000000404ba0                __extendsfdf2
                0x0000000000404ba0                __aeabi_f2d
                0x0000000000404bdc                __aeabi_ul2d
                0x0000000000404bdc                __floatundidf
                0x0000000000404bec                __aeabi_l2d
                0x0000000000404bec                __floatdidf
 .text          0x0000000000404c48      0x424 /Users/richard/Desktop/DAQ/gcc/bin/../lib/gcc/arm-none-eabi/6.3.1/thumb/v7e-m/libgcc.a(_arm_muldivdf3.o)
                0x0000000000404c48                __aeabi_dmul
                0x0000000000404c48                __muldf3
                0x0000000000404e9c                __aeabi_ddiv
                0x0000000000404e9c                __divdf3
 .text          0x000000000040506c      0x110 /Users/richard/Desktop/DAQ/gcc/bin/../lib/gcc/arm-none-eabi/6.3.1/thumb/v7e-m/libgcc.a(_arm_cmpdf2.o)
                0x000000000040506c                __gtdf2
                0x000000000040506c                __gedf2
                0x0000000000405074                __ltdf2
                0x0000000000405074                __ledf2
                0x000000000040507c                __eqdf2
                0x000000000040507c                __nedf2
                0x000000000040507c                __cmpdf2
                0x00000000004050f8                __aeabi_cdrcmple
                0x0000000000405108                __aeabi_cdcmple
                0x0000000000405108                __aeabi_cdcmpeq
                0x0000000000405118                __aeabi_dcmpeq
                0x000000000040512c                __aeabi_dcmplt
                0x0000000000405140                __aeabi_dcmple
                0x0000000000405154                __aeabi_dcmpge
                0x0000000000405168                __aeabi_dcmpgt
 .text          0x000000000040517c       0x50 /Users/richard/Desktop/DAQ/gcc/bin/../lib/gcc/arm-none-eabi/6.3.1/thumb/v7e-m/libgcc.a(_arm_fixdfsi.o)
                0x000000000040517c                __fixdfsi
                0x000000000040517c                __aeabi_d2iz
 .text          0x00000000004051cc       0x40 /Users/richard/Desktop/DAQ/gcc/bin/../lib/gcc/arm-none-eabi/6.3.1/thumb/v7e-m/libgcc.a(_arm_fixunsdfsi.o)
                0x00000000004051cc                __fixunsdfsi
                0x00000000004051cc                __aeabi_d2uiz
 .text          0x000000000040520c       0xa0 /Users/richard/Desktop/DAQ/gcc/bin/../lib/gcc/arm-none-eabi/6.3.1/thumb/v7e-m/libgcc.a(_arm_truncdfsf2.o)
                0x000000000040520c                __aeabi_d2f
                0x000000000040520c                __truncdfsf2
 .text          0x00000000004052ac      0x21c /Users/richard/Desktop/DAQ/gcc/bin/../lib/gcc/arm-none-eabi/6.3.1/thumb/v7e-m/libgcc.a(_arm_addsubsf3.o)
                0x00000000004052ac                __aeabi_frsub
                0x00000000004052b4                __aeabi_fsub
                0x00000000004052b4                __subsf3
                0x00000000004052b8                __aeabi_fadd
                0x00000000004052b8                __addsf3
                0x0000000000405418                __aeabi_ui2f
                0x0000000000405418                __floatunsisf
                0x0000000000405420                __floatsisf
                0x0000000000405420                __aeabi_i2f
                0x000000000040543c                __aeabi_ul2f
                0x000000000040543c                __floatundisf
                0x000000000040544c                __aeabi_l2f
                0x000000000040544c                __floatdisf
 .text          0x00000000004054c8      0x2a0 /Users/richard/Desktop/DAQ/gcc/bin/../lib/gcc/arm-none-eabi/6.3.1/thumb/v7e-m/libgcc.a(_arm_muldivsf3.o)
                0x00000000004054c8                __mulsf3
                0x00000000004054c8                __aeabi_fmul
                0x0000000000405630                __divsf3
                0x0000000000405630                __aeabi_fdiv
 .text          0x0000000000405768       0xec /Users/richard/Desktop/DAQ/gcc/bin/../lib/gcc/arm-none-eabi/6.3.1/thumb/v7e-m/libgcc.a(_arm_cmpsf2.o)
                0x0000000000405768                __gesf2
                0x0000000000405768                __gtsf2
                0x0000000000405770                __ltsf2
                0x0000000000405770                __lesf2
                0x0000000000405778                __nesf2
                0x0000000000405778                __eqsf2
                0x0000000000405778                __cmpsf2
                0x00000000004057d8                __aeabi_cfrcmple
                0x00000000004057e0                __aeabi_cfcmpeq
                0x00000000004057e0                __aeabi_cfcmple
                0x00000000004057f0                __aeabi_fcmpeq
                0x0000000000405804                __aeabi_fcmplt
                0x0000000000405818                __aeabi_fcmple
                0x000000000040582c                __aeabi_fcmpge
                0x0000000000405840                __aeabi_fcmpgt
 .text          0x0000000000405854       0x30 /Users/richard/Desktop/DAQ/gcc/bin/../lib/gcc/arm-none-eabi/6.3.1/thumb/v7e-m/libgcc.a(_aeabi_uldivmod.o)
                0x0000000000405854                __aeabi_uldivmod
 .text          0x0000000000405884      0x2dc /Users/richard/Desktop/DAQ/gcc/bin/../lib/gcc/arm-none-eabi/6.3.1/thumb/v7e-m/libgcc.a(_udivmoddi4.o)
                0x0000000000405884                __udivmoddi4
 .text          0x0000000000405b60        0x4 /Users/richard/Desktop/DAQ/gcc/bin/../lib/gcc/arm-none-eabi/6.3.1/thumb/v7e-m/libgcc.a(_dvmd_tls.o)
                0x0000000000405b60                __aeabi_ldiv0
                0x0000000000405b60                __aeabi_idiv0
 .text.atof     0x0000000000405b64        0x8 /Users/richard/Desktop/DAQ/gcc/bin/../lib/gcc/arm-none-eabi/6.3.1/../../../../arm-none-eabi/lib/thumb/v7e-m/libc.a(lib_a-atof.o)
                0x0000000000405b64                atof
 .text.atoi     0x0000000000405b6c        0x8 /Users/richard/Desktop/DAQ/gcc/bin/../lib/gcc/arm-none-eabi/6.3.1/../../../../arm-none-eabi/lib/thumb/v7e-m/libc.a(lib_a-atoi.o)
                0x0000000000405b6c                atoi
 .text.__libc_init_array
                0x0000000000405b74       0x50 /Users/richard/Desktop/DAQ/gcc/bin/../lib/gcc/arm-none-eabi/6.3.1/../../../../arm-none-eabi/lib/thumb/v7e-m/libc.a(lib_a-init.o)
                0x0000000000405b74                __libc_init_array
 .text.malloc   0x0000000000405bc4       0x10 /Users/richard/Desktop/DAQ/gcc/bin/../lib/gcc/arm-none-eabi/6.3.1/../../../../arm-none-eabi/lib/thumb/v7e-m/libc.a(lib_a-malloc.o)
                0x0000000000405bc4                malloc
 .text.free     0x0000000000405bd4       0x10 /Users/richard/Desktop/DAQ/gcc/bin/../lib/gcc/arm-none-eabi/6.3.1/../../../../arm-none-eabi/lib/thumb/v7e-m/libc.a(lib_a-malloc.o)
                0x0000000000405bd4                free
 .text._malloc_r
                0x0000000000405be4      0x560 /Users/richard/Desktop/DAQ/gcc/bin/../lib/gcc/arm-none-eabi/6.3.1/../../../../arm-none-eabi/lib/thumb/v7e-m/libc.a(lib_a-mallocr.o)
                0x0000000000405be4                _malloc_r
 .text.memset   0x0000000000406144       0x9c /Users/richard/Desktop/DAQ/gcc/bin/../lib/gcc/arm-none-eabi/6.3.1/../../../../arm-none-eabi/lib/thumb/v7e-m/libc.a(lib_a-memset.o)
                0x0000000000406144                memset
 .text.__malloc_lock
                0x00000000004061e0        0xc /Users/richard/Desktop/DAQ/gcc/bin/../lib/gcc/arm-none-eabi/6.3.1/../../../../arm-none-eabi/lib/thumb/v7e-m/libc.a(lib_a-mlock.o)
                0x00000000004061e0                __malloc_lock
 .text.__malloc_unlock
                0x00000000004061ec        0xc /Users/richard/Desktop/DAQ/gcc/bin/../lib/gcc/arm-none-eabi/6.3.1/../../../../arm-none-eabi/lib/thumb/v7e-m/libc.a(lib_a-mlock.o)
                0x00000000004061ec                __malloc_unlock
 .text._sbrk_r  0x00000000004061f8       0x24 /Users/richard/Desktop/DAQ/gcc/bin/../lib/gcc/arm-none-eabi/6.3.1/../../../../arm-none-eabi/lib/thumb/v7e-m/libc.a(lib_a-sbrkr.o)
                0x00000000004061f8                _sbrk_r
 .text.snprintf
                0x000000000040621c       0x98 /Users/richard/Desktop/DAQ/gcc/bin/../lib/gcc/arm-none-eabi/6.3.1/../../../../arm-none-eabi/lib/thumb/v7e-m/libc.a(lib_a-snprintf.o)
                0x000000000040621c                snprintf
 *fill*         0x00000000004062b4        0xc 
 .text          0x00000000004062c0      0x2dc /Users/richard/Desktop/DAQ/gcc/bin/../lib/gcc/arm-none-eabi/6.3.1/../../../../arm-none-eabi/lib/thumb/v7e-m/libc.a(lib_a-strcmp.o)
                0x00000000004062c8                strcmp
 *fill*         0x000000000040659c       0x24 
 .text          0x00000000004065c0       0xdc /Users/richard/Desktop/DAQ/gcc/bin/../lib/gcc/arm-none-eabi/6.3.1/../../../../arm-none-eabi/lib/thumb/v7e-m/libc.a(lib_a-strlen.o)
                0x00000000004065c0                strlen
 .text.unlikely.sulp
                0x000000000040669c       0x42 /Users/richard/Desktop/DAQ/gcc/bin/../lib/gcc/arm-none-eabi/6.3.1/../../../../arm-none-eabi/lib/thumb/v7e-m/libc.a(lib_a-strtod.o)
 *fill*         0x00000000004066de        0x2 
 .text._strtod_l
                0x00000000004066e0      0xeb8 /Users/richard/Desktop/DAQ/gcc/bin/../lib/gcc/arm-none-eabi/6.3.1/../../../../arm-none-eabi/lib/thumb/v7e-m/libc.a(lib_a-strtod.o)
                0x00000000004066e0                _strtod_l
 .text.strtod   0x0000000000407598       0x24 /Users/richard/Desktop/DAQ/gcc/bin/../lib/gcc/arm-none-eabi/6.3.1/../../../../arm-none-eabi/lib/thumb/v7e-m/libc.a(lib_a-strtod.o)
                0x0000000000407598                strtod
 .text.strtok   0x00000000004075bc       0x10 /Users/richard/Desktop/DAQ/gcc/bin/../lib/gcc/arm-none-eabi/6.3.1/../../../../arm-none-eabi/lib/thumb/v7e-m/libc.a(lib_a-strtok.o)
                0x00000000004075bc                strtok
 .text.__strtok_r
                0x00000000004075cc       0x64 /Users/richard/Desktop/DAQ/gcc/bin/../lib/gcc/arm-none-eabi/6.3.1/../../../../arm-none-eabi/lib/thumb/v7e-m/libc.a(lib_a-strtok_r.o)
                0x00000000004075cc                __strtok_r
 .text._strtol_l.isra.0
                0x0000000000407630      0x128 /Users/richard/Desktop/DAQ/gcc/bin/../lib/gcc/arm-none-eabi/6.3.1/../../../../arm-none-eabi/lib/thumb/v7e-m/libc.a(lib_a-strtol.o)
 .text.strtol   0x0000000000407758       0x2c /Users/richard/Desktop/DAQ/gcc/bin/../lib/gcc/arm-none-eabi/6.3.1/../../../../arm-none-eabi/lib/thumb/v7e-m/libc.a(lib_a-strtol.o)
                0x0000000000407758                strtol
 .text._strtoul_l.isra.0
                0x0000000000407784      0x148 /Users/richard/Desktop/DAQ/gcc/bin/../lib/gcc/arm-none-eabi/6.3.1/../../../../arm-none-eabi/lib/thumb/v7e-m/libc.a(lib_a-strtoul.o)
 .text.strtoul  0x00000000004078cc       0x2c /Users/richard/Desktop/DAQ/gcc/bin/../lib/gcc/arm-none-eabi/6.3.1/../../../../arm-none-eabi/lib/thumb/v7e-m/libc.a(lib_a-strtoul.o)
                0x00000000004078cc                strtoul
 .text._svfprintf_r
                0x00000000004078f8     0x145c /Users/richard/Desktop/DAQ/gcc/bin/../lib/gcc/arm-none-eabi/6.3.1/../../../../arm-none-eabi/lib/thumb/v7e-m/libc.a(lib_a-svfprintf.o)
                0x00000000004078f8                _svfprintf_r
 .text.startup.register_fini
                0x0000000000408d54       0x14 /Users/richard/Desktop/DAQ/gcc/bin/../lib/gcc/arm-none-eabi/6.3.1/../../../../arm-none-eabi/lib/thumb/v7e-m/libc.a(lib_a-__call_atexit.o)
 .text.atexit   0x0000000000408d68        0xc /Users/richard/Desktop/DAQ/gcc/bin/../lib/gcc/arm-none-eabi/6.3.1/../../../../arm-none-eabi/lib/thumb/v7e-m/libc.a(lib_a-atexit.o)
                0x0000000000408d68                atexit
 .text.quorem   0x0000000000408d74      0x128 /Users/richard/Desktop/DAQ/gcc/bin/../lib/gcc/arm-none-eabi/6.3.1/../../../../arm-none-eabi/lib/thumb/v7e-m/libc.a(lib_a-dtoa.o)
 *fill*         0x0000000000408e9c        0x4 
 .text._dtoa_r  0x0000000000408ea0      0xe54 /Users/richard/Desktop/DAQ/gcc/bin/../lib/gcc/arm-none-eabi/6.3.1/../../../../arm-none-eabi/lib/thumb/v7e-m/libc.a(lib_a-dtoa.o)
                0x0000000000408ea0                _dtoa_r
 .text.__libc_fini_array
                0x0000000000409cf4       0x34 /Users/richard/Desktop/DAQ/gcc/bin/../lib/gcc/arm-none-eabi/6.3.1/../../../../arm-none-eabi/lib/thumb/v7e-m/libc.a(lib_a-fini.o)
                0x0000000000409cf4                __libc_fini_array
 .text._malloc_trim_r
                0x0000000000409d28       0xa0 /Users/richard/Desktop/DAQ/gcc/bin/../lib/gcc/arm-none-eabi/6.3.1/../../../../arm-none-eabi/lib/thumb/v7e-m/libc.a(lib_a-freer.o)
                0x0000000000409d28                _malloc_trim_r
 .text._free_r  0x0000000000409dc8      0x1cc /Users/richard/Desktop/DAQ/gcc/bin/../lib/gcc/arm-none-eabi/6.3.1/../../../../arm-none-eabi/lib/thumb/v7e-m/libc.a(lib_a-freer.o)
                0x0000000000409dc8                _free_r
 .text.rshift   0x0000000000409f94       0x98 /Users/richard/Desktop/DAQ/gcc/bin/../lib/gcc/arm-none-eabi/6.3.1/../../../../arm-none-eabi/lib/thumb/v7e-m/libc.a(lib_a-gdtoa-gethex.o)
 .text.__gethex
                0x000000000040a02c      0x518 /Users/richard/Desktop/DAQ/gcc/bin/../lib/gcc/arm-none-eabi/6.3.1/../../../../arm-none-eabi/lib/thumb/v7e-m/libc.a(lib_a-gdtoa-gethex.o)
                0x000000000040a02c                __gethex
 .text.__match  0x000000000040a544       0x30 /Users/richard/Desktop/DAQ/gcc/bin/../lib/gcc/arm-none-eabi/6.3.1/../../../../arm-none-eabi/lib/thumb/v7e-m/libc.a(lib_a-gdtoa-hexnan.o)
                0x000000000040a544                __match
 .text.__hexnan
                0x000000000040a574      0x184 /Users/richard/Desktop/DAQ/gcc/bin/../lib/gcc/arm-none-eabi/6.3.1/../../../../arm-none-eabi/lib/thumb/v7e-m/libc.a(lib_a-gdtoa-hexnan.o)
                0x000000000040a574                __hexnan
 .text.__locale_ctype_ptr_l
                0x000000000040a6f8        0x8 /Users/richard/Desktop/DAQ/gcc/bin/../lib/gcc/arm-none-eabi/6.3.1/../../../../arm-none-eabi/lib/thumb/v7e-m/libc.a(lib_a-locale.o)
                0x000000000040a6f8                __locale_ctype_ptr_l
 .text.__localeconv_l
                0x000000000040a700        0x4 /Users/richard/Desktop/DAQ/gcc/bin/../lib/gcc/arm-none-eabi/6.3.1/../../../../arm-none-eabi/lib/thumb/v7e-m/libc.a(lib_a-localeconv.o)
                0x000000000040a700                __localeconv_l
 .text._localeconv_r
                0x000000000040a704       0x1c /Users/richard/Desktop/DAQ/gcc/bin/../lib/gcc/arm-none-eabi/6.3.1/../../../../arm-none-eabi/lib/thumb/v7e-m/libc.a(lib_a-localeconv.o)
                0x000000000040a704                _localeconv_r
 .text.__retarget_lock_acquire_recursive
                0x000000000040a720        0x4 /Users/richard/Desktop/DAQ/gcc/bin/../lib/gcc/arm-none-eabi/6.3.1/../../../../arm-none-eabi/lib/thumb/v7e-m/libc.a(lib_a-lock.o)
                0x000000000040a720                __retarget_lock_acquire_recursive
 .text.__retarget_lock_release_recursive
                0x000000000040a724        0x4 /Users/richard/Desktop/DAQ/gcc/bin/../lib/gcc/arm-none-eabi/6.3.1/../../../../arm-none-eabi/lib/thumb/v7e-m/libc.a(lib_a-lock.o)
                0x000000000040a724                __retarget_lock_release_recursive
 .text.__ascii_mbtowc
                0x000000000040a728       0x2c /Users/richard/Desktop/DAQ/gcc/bin/../lib/gcc/arm-none-eabi/6.3.1/../../../../arm-none-eabi/lib/thumb/v7e-m/libc.a(lib_a-mbtowc_r.o)
                0x000000000040a728                __ascii_mbtowc
 *fill*         0x000000000040a754        0xc 
 .text          0x000000000040a760       0xa0 /Users/richard/Desktop/DAQ/gcc/bin/../lib/gcc/arm-none-eabi/6.3.1/../../../../arm-none-eabi/lib/thumb/v7e-m/libc.a(lib_a-memchr.o)
                0x000000000040a760                memchr
 .text          0x000000000040a800      0x134 /Users/richard/Desktop/DAQ/gcc/bin/../lib/gcc/arm-none-eabi/6.3.1/../../../../arm-none-eabi/lib/thumb/v7e-m/libc.a(lib_a-memcpy.o)
                0x000000000040a800                memcpy
 .text._Balloc  0x000000000040a934       0x4c /Users/richard/Desktop/DAQ/gcc/bin/../lib/gcc/arm-none-eabi/6.3.1/../../../../arm-none-eabi/lib/thumb/v7e-m/libc.a(lib_a-mprec.o)
                0x000000000040a934                _Balloc
 .text._Bfree   0x000000000040a980       0x14 /Users/richard/Desktop/DAQ/gcc/bin/../lib/gcc/arm-none-eabi/6.3.1/../../../../arm-none-eabi/lib/thumb/v7e-m/libc.a(lib_a-mprec.o)
                0x000000000040a980                _Bfree
 .text.__multadd
                0x000000000040a994       0x80 /Users/richard/Desktop/DAQ/gcc/bin/../lib/gcc/arm-none-eabi/6.3.1/../../../../arm-none-eabi/lib/thumb/v7e-m/libc.a(lib_a-mprec.o)
                0x000000000040a994                __multadd
 .text.__s2b    0x000000000040aa14       0x9c /Users/richard/Desktop/DAQ/gcc/bin/../lib/gcc/arm-none-eabi/6.3.1/../../../../arm-none-eabi/lib/thumb/v7e-m/libc.a(lib_a-mprec.o)
                0x000000000040aa14                __s2b
 .text.__hi0bits
                0x000000000040aab0       0x40 /Users/richard/Desktop/DAQ/gcc/bin/../lib/gcc/arm-none-eabi/6.3.1/../../../../arm-none-eabi/lib/thumb/v7e-m/libc.a(lib_a-mprec.o)
                0x000000000040aab0                __hi0bits
 .text.__lo0bits
                0x000000000040aaf0       0x60 /Users/richard/Desktop/DAQ/gcc/bin/../lib/gcc/arm-none-eabi/6.3.1/../../../../arm-none-eabi/lib/thumb/v7e-m/libc.a(lib_a-mprec.o)
                0x000000000040aaf0                __lo0bits
 .text.__i2b    0x000000000040ab50       0x14 /Users/richard/Desktop/DAQ/gcc/bin/../lib/gcc/arm-none-eabi/6.3.1/../../../../arm-none-eabi/lib/thumb/v7e-m/libc.a(lib_a-mprec.o)
                0x000000000040ab50                __i2b
 .text.__multiply
                0x000000000040ab64      0x124 /Users/richard/Desktop/DAQ/gcc/bin/../lib/gcc/arm-none-eabi/6.3.1/../../../../arm-none-eabi/lib/thumb/v7e-m/libc.a(lib_a-mprec.o)
                0x000000000040ab64                __multiply
 .text.__pow5mult
                0x000000000040ac88       0xa0 /Users/richard/Desktop/DAQ/gcc/bin/../lib/gcc/arm-none-eabi/6.3.1/../../../../arm-none-eabi/lib/thumb/v7e-m/libc.a(lib_a-mprec.o)
                0x000000000040ac88                __pow5mult
 .text.__lshift
                0x000000000040ad28       0xa4 /Users/richard/Desktop/DAQ/gcc/bin/../lib/gcc/arm-none-eabi/6.3.1/../../../../arm-none-eabi/lib/thumb/v7e-m/libc.a(lib_a-mprec.o)
                0x000000000040ad28                __lshift
 .text.__mcmp   0x000000000040adcc       0x38 /Users/richard/Desktop/DAQ/gcc/bin/../lib/gcc/arm-none-eabi/6.3.1/../../../../arm-none-eabi/lib/thumb/v7e-m/libc.a(lib_a-mprec.o)
                0x000000000040adcc                __mcmp
 .text.__mdiff  0x000000000040ae04      0x108 /Users/richard/Desktop/DAQ/gcc/bin/../lib/gcc/arm-none-eabi/6.3.1/../../../../arm-none-eabi/lib/thumb/v7e-m/libc.a(lib_a-mprec.o)
                0x000000000040ae04                __mdiff
 .text.__ulp    0x000000000040af0c       0x44 /Users/richard/Desktop/DAQ/gcc/bin/../lib/gcc/arm-none-eabi/6.3.1/../../../../arm-none-eabi/lib/thumb/v7e-m/libc.a(lib_a-mprec.o)
                0x000000000040af0c                __ulp
 .text.__b2d    0x000000000040af50       0xd0 /Users/richard/Desktop/DAQ/gcc/bin/../lib/gcc/arm-none-eabi/6.3.1/../../../../arm-none-eabi/lib/thumb/v7e-m/libc.a(lib_a-mprec.o)
                0x000000000040af50                __b2d
 .text.__d2b    0x000000000040b020       0xb8 /Users/richard/Desktop/DAQ/gcc/bin/../lib/gcc/arm-none-eabi/6.3.1/../../../../arm-none-eabi/lib/thumb/v7e-m/libc.a(lib_a-mprec.o)
                0x000000000040b020                __d2b
 .text.__ratio  0x000000000040b0d8       0x58 /Users/richard/Desktop/DAQ/gcc/bin/../lib/gcc/arm-none-eabi/6.3.1/../../../../arm-none-eabi/lib/thumb/v7e-m/libc.a(lib_a-mprec.o)
                0x000000000040b0d8                __ratio
 .text.__copybits
                0x000000000040b130       0x48 /Users/richard/Desktop/DAQ/gcc/bin/../lib/gcc/arm-none-eabi/6.3.1/../../../../arm-none-eabi/lib/thumb/v7e-m/libc.a(lib_a-mprec.o)
                0x000000000040b130                __copybits
 .text.__any_on
                0x000000000040b178       0x5c /Users/richard/Desktop/DAQ/gcc/bin/../lib/gcc/arm-none-eabi/6.3.1/../../../../arm-none-eabi/lib/thumb/v7e-m/libc.a(lib_a-mprec.o)
                0x000000000040b178                __any_on
 .text.strncmp  0x000000000040b1d4       0xa4 /Users/richard/Desktop/DAQ/gcc/bin/../lib/gcc/arm-none-eabi/6.3.1/../../../../arm-none-eabi/lib/thumb/v7e-m/libc.a(lib_a-strncmp.o)
                0x000000000040b1d4                strncmp
 .text.__ssprint_r
                0x000000000040b278       0xfc /Users/richard/Desktop/DAQ/gcc/bin/../lib/gcc/arm-none-eabi/6.3.1/../../../../arm-none-eabi/lib/thumb/v7e-m/libc.a(lib_a-svfiprintf.o)
                0x000000000040b278                __ssprint_r
 .text.__ascii_wctomb
                0x000000000040b374       0x1c /Users/richard/Desktop/DAQ/gcc/bin/../lib/gcc/arm-none-eabi/6.3.1/../../../../arm-none-eabi/lib/thumb/v7e-m/libc.a(lib_a-wctomb_r.o)
                0x000000000040b374                __ascii_wctomb
 .text.__register_exitproc
                0x000000000040b390       0xc4 /Users/richard/Desktop/DAQ/gcc/bin/../lib/gcc/arm-none-eabi/6.3.1/../../../../arm-none-eabi/lib/thumb/v7e-m/libc.a(lib_a-__atexit.o)
                0x000000000040b390                __register_exitproc
 .text._calloc_r
                0x000000000040b454       0x60 /Users/richard/Desktop/DAQ/gcc/bin/../lib/gcc/arm-none-eabi/6.3.1/../../../../arm-none-eabi/lib/thumb/v7e-m/libc.a(lib_a-callocr.o)
                0x000000000040b454                _calloc_r
 .text.memmove  0x000000000040b4b4       0xc8 /Users/richard/Desktop/DAQ/gcc/bin/../lib/gcc/arm-none-eabi/6.3.1/../../../../arm-none-eabi/lib/thumb/v7e-m/libc.a(lib_a-memmove.o)
                0x000000000040b4b4                memmove
 .text._realloc_r
                0x000000000040b57c      0x34c /Users/richard/Desktop/DAQ/gcc/bin/../lib/gcc/arm-none-eabi/6.3.1/../../../../arm-none-eabi/lib/thumb/v7e-m/libc.a(lib_a-reallocr.o)
                0x000000000040b57c                _realloc_r
 .text          0x000000000040b8c8       0x2c /Users/richard/Desktop/DAQ/gcc/bin/../lib/gcc/arm-none-eabi/6.3.1/thumb/v7e-m/libgcc.a(_arm_unorddf2.o)
                0x000000000040b8c8                __aeabi_dcmpun
                0x000000000040b8c8                __unorddf2
 *(.glue_7t)
 .glue_7t       0x000000000040b8f4        0x0 linker stubs
 *(.glue_7)
 .glue_7        0x000000000040b8f4        0x0 linker stubs
 *(.rodata .rodata* .gnu.linkonce.r.*)
 .rodata.udc_process_setup.str1.4
                0x000000000040b8f4        0xd src/ASF/common/services/usb/udc/udc.o
 *fill*         0x000000000040b901        0x3 
 .rodata        0x000000000040b904        0x2 src/sampling.o
 *fill*         0x000000000040b906        0x2 
 .rodata.qryDSet.str1.4
                0x000000000040b908       0x43 src/structure.o
 *fill*         0x000000000040b94b        0x1 
 .rodata        0x000000000040b94c        0x2 src/adcLib.o
 *fill*         0x000000000040b94e        0x2 
 .rodata.findCommand.str1.4
                0x000000000040b950       0x38 src/command.o
 .rodata.command_handler.str1.4
                0x000000000040b988       0x7e src/main.o
                                         0x86 (size before relaxing)
 *fill*         0x000000000040ba06        0x2 
 .rodata._global_impure_ptr
                0x000000000040ba08        0x4 /Users/richard/Desktop/DAQ/gcc/bin/../lib/gcc/arm-none-eabi/6.3.1/../../../../arm-none-eabi/lib/thumb/v7e-m/libc.a(lib_a-impure.o)
                0x000000000040ba08                _global_impure_ptr
 .rodata._strtod_l.str1.4
                0x000000000040ba0c        0xf /Users/richard/Desktop/DAQ/gcc/bin/../lib/gcc/arm-none-eabi/6.3.1/../../../../arm-none-eabi/lib/thumb/v7e-m/libc.a(lib_a-strtod.o)
 *fill*         0x000000000040ba1b        0x1 
 .rodata.fpi.6141
                0x000000000040ba1c       0x14 /Users/richard/Desktop/DAQ/gcc/bin/../lib/gcc/arm-none-eabi/6.3.1/../../../../arm-none-eabi/lib/thumb/v7e-m/libc.a(lib_a-strtod.o)
 .rodata.fpinan.6177
                0x000000000040ba30       0x14 /Users/richard/Desktop/DAQ/gcc/bin/../lib/gcc/arm-none-eabi/6.3.1/../../../../arm-none-eabi/lib/thumb/v7e-m/libc.a(lib_a-strtod.o)
 *fill*         0x000000000040ba44        0x4 
 .rodata.tinytens
                0x000000000040ba48       0x28 /Users/richard/Desktop/DAQ/gcc/bin/../lib/gcc/arm-none-eabi/6.3.1/../../../../arm-none-eabi/lib/thumb/v7e-m/libc.a(lib_a-strtod.o)
 .rodata._svfprintf_r.str1.4
                0x000000000040ba70       0x42 /Users/richard/Desktop/DAQ/gcc/bin/../lib/gcc/arm-none-eabi/6.3.1/../../../../arm-none-eabi/lib/thumb/v7e-m/libc.a(lib_a-svfprintf.o)
 *fill*         0x000000000040bab2        0x2 
 .rodata.blanks.7223
                0x000000000040bab4       0x10 /Users/richard/Desktop/DAQ/gcc/bin/../lib/gcc/arm-none-eabi/6.3.1/../../../../arm-none-eabi/lib/thumb/v7e-m/libc.a(lib_a-svfprintf.o)
 .rodata.zeroes.7224
                0x000000000040bac4       0x10 /Users/richard/Desktop/DAQ/gcc/bin/../lib/gcc/arm-none-eabi/6.3.1/../../../../arm-none-eabi/lib/thumb/v7e-m/libc.a(lib_a-svfprintf.o)
 .rodata._dtoa_r.str1.4
                0x000000000040bad4       0x10 /Users/richard/Desktop/DAQ/gcc/bin/../lib/gcc/arm-none-eabi/6.3.1/../../../../arm-none-eabi/lib/thumb/v7e-m/libc.a(lib_a-dtoa.o)
                                         0x12 (size before relaxing)
 .rodata.__hexdig
                0x000000000040bae4      0x100 /Users/richard/Desktop/DAQ/gcc/bin/../lib/gcc/arm-none-eabi/6.3.1/../../../../arm-none-eabi/lib/thumb/v7e-m/libc.a(lib_a-gdtoa-gethex.o)
                0x000000000040bae4                __hexdig
 .rodata._setlocale_r.str1.4
                0x000000000040bbe4        0xa /Users/richard/Desktop/DAQ/gcc/bin/../lib/gcc/arm-none-eabi/6.3.1/../../../../arm-none-eabi/lib/thumb/v7e-m/libc.a(lib_a-locale.o)
                                          0xd (size before relaxing)
 *fill*         0x000000000040bbee        0x2 
 .rodata.str1.4
                0x000000000040bbf0        0x4 /Users/richard/Desktop/DAQ/gcc/bin/../lib/gcc/arm-none-eabi/6.3.1/../../../../arm-none-eabi/lib/thumb/v7e-m/libc.a(lib_a-locale.o)
                                          0x2 (size before relaxing)
 *fill*         0x000000000040bbf4        0x4 
 .rodata.__mprec_bigtens
                0x000000000040bbf8       0x28 /Users/richard/Desktop/DAQ/gcc/bin/../lib/gcc/arm-none-eabi/6.3.1/../../../../arm-none-eabi/lib/thumb/v7e-m/libc.a(lib_a-mprec.o)
                0x000000000040bbf8                __mprec_bigtens
 .rodata.__mprec_tens
                0x000000000040bc20       0xc8 /Users/richard/Desktop/DAQ/gcc/bin/../lib/gcc/arm-none-eabi/6.3.1/../../../../arm-none-eabi/lib/thumb/v7e-m/libc.a(lib_a-mprec.o)
                0x000000000040bc20                __mprec_tens
 .rodata.p05.6055
                0x000000000040bce8        0xc /Users/richard/Desktop/DAQ/gcc/bin/../lib/gcc/arm-none-eabi/6.3.1/../../../../arm-none-eabi/lib/thumb/v7e-m/libc.a(lib_a-mprec.o)
 .rodata._ctype_
                0x000000000040bcf4      0x101 /Users/richard/Desktop/DAQ/gcc/bin/../lib/gcc/arm-none-eabi/6.3.1/../../../../arm-none-eabi/lib/thumb/v7e-m/libc.a(lib_a-ctype_.o)
                0x000000000040bcf4                _ctype_
 *(.ARM.extab* .gnu.linkonce.armextab.*)
                0x000000000040bdf8                . = ALIGN (0x4)
 *fill*         0x000000000040bdf5        0x3 
 *(.init)
 .init          0x000000000040bdf8        0x4 /Users/richard/Desktop/DAQ/gcc/bin/../lib/gcc/arm-none-eabi/6.3.1/thumb/v7e-m/crti.o
                0x000000000040bdf8                _init
 .init          0x000000000040bdfc        0x8 /Users/richard/Desktop/DAQ/gcc/bin/../lib/gcc/arm-none-eabi/6.3.1/thumb/v7e-m/crtn.o
                0x000000000040be04                . = ALIGN (0x4)
                0x000000000040be04                __preinit_array_start = .
 *(.preinit_array)
                0x000000000040be04                __preinit_array_end = .
                0x000000000040be04                . = ALIGN (0x4)
                0x000000000040be04                __init_array_start = .
 *(SORT(.init_array.*))
 .init_array.00000
                0x000000000040be04        0x4 /Users/richard/Desktop/DAQ/gcc/bin/../lib/gcc/arm-none-eabi/6.3.1/../../../../arm-none-eabi/lib/thumb/v7e-m/libc.a(lib_a-__call_atexit.o)
 *(.init_array)
 .init_array    0x000000000040be08        0x4 /Users/richard/Desktop/DAQ/gcc/bin/../lib/gcc/arm-none-eabi/6.3.1/thumb/v7e-m/crtbegin.o
                0x000000000040be0c                __init_array_end = .
                0x000000000040be0c                . = ALIGN (0x4)
 *crtbegin.o(.ctors)
 *(EXCLUDE_FILE(*crtend.o) .ctors)
 *(SORT(.ctors.*))
 *crtend.o(.ctors)
                0x000000000040be0c                . = ALIGN (0x4)
 *(.fini)
 .fini          0x000000000040be0c        0x4 /Users/richard/Desktop/DAQ/gcc/bin/../lib/gcc/arm-none-eabi/6.3.1/thumb/v7e-m/crti.o
                0x000000000040be0c                _fini
 .fini          0x000000000040be10        0x8 /Users/richard/Desktop/DAQ/gcc/bin/../lib/gcc/arm-none-eabi/6.3.1/thumb/v7e-m/crtn.o
                0x000000000040be18                . = ALIGN (0x4)
                0x000000000040be18                __fini_array_start = .
 *(.fini_array)
 .fini_array    0x000000000040be18        0x4 /Users/richard/Desktop/DAQ/gcc/bin/../lib/gcc/arm-none-eabi/6.3.1/thumb/v7e-m/crtbegin.o
 *(SORT(.fini_array.*))
                0x000000000040be1c                __fini_array_end = .
 *crtbegin.o(.dtors)
 *(EXCLUDE_FILE(*crtend.o) .dtors)
 *(SORT(.dtors.*))
 *crtend.o(.dtors)
                0x000000000040be1c                . = ALIGN (0x4)
                0x000000000040be1c                _efixed = .
                [!provide]                        PROVIDE (__exidx_start, .)

.vfp11_veneer   0x000000000040be1c        0x0
 .vfp11_veneer  0x000000000040be1c        0x0 linker stubs

.v4_bx          0x000000000040be1c        0x0
 .v4_bx         0x000000000040be1c        0x0 linker stubs

.iplt           0x000000000040be1c        0x0
 .iplt          0x000000000040be1c        0x0 /Users/richard/Desktop/DAQ/gcc/bin/../lib/gcc/arm-none-eabi/6.3.1/thumb/v7e-m/crtbegin.o

.ARM.exidx      0x000000000040be1c        0x8
 *(.ARM.exidx* .gnu.linkonce.armexidx.*)
 .ARM.exidx     0x000000000040be1c        0x8 /Users/richard/Desktop/DAQ/gcc/bin/../lib/gcc/arm-none-eabi/6.3.1/thumb/v7e-m/libgcc.a(_udivmoddi4.o)
                [!provide]                        PROVIDE (__exidx_end, .)

.eh_frame       0x000000000040be24        0x0
 .eh_frame      0x000000000040be24        0x0 /Users/richard/Desktop/DAQ/gcc/bin/../lib/gcc/arm-none-eabi/6.3.1/thumb/v7e-m/crtbegin.o

.rel.dyn        0x000000000040be24        0x0
 .rel.iplt      0x000000000040be24        0x0 /Users/richard/Desktop/DAQ/gcc/bin/../lib/gcc/arm-none-eabi/6.3.1/thumb/v7e-m/crtbegin.o

.jcr            0x000000000040be24        0x0
 .jcr           0x000000000040be24        0x0 /Users/richard/Desktop/DAQ/gcc/bin/../lib/gcc/arm-none-eabi/6.3.1/thumb/v7e-m/crtbegin.o

.igot.plt       0x000000000040be24        0x0
 .igot.plt      0x000000000040be24        0x0 /Users/richard/Desktop/DAQ/gcc/bin/../lib/gcc/arm-none-eabi/6.3.1/thumb/v7e-m/crtbegin.o
                0x000000000040be24                . = ALIGN (0x4)
                0x000000000040be24                _etext = .

.relocate       0x0000000020000000      0xa98 load address 0x000000000040be24
                0x0000000020000000                . = ALIGN (0x4)
                0x0000000020000000                _srelocate = .
 *(.ramfunc .ramfunc.*)
 .ramfunc       0x0000000020000000        0xa src/ASF/common/services/delay/sam/cycle_counter.o
                0x0000000020000000                portable_delay_cycles
 *(.data .data.*)
 *fill*         0x000000002000000a        0x2 
 .data.capabilities.9603
                0x000000002000000c       0x18 src/ASF/common/services/usb/class/vendor/device/udi_tmc.o
 .data.result.9552
                0x0000000020000024        0x1 src/ASF/common/services/usb/class/vendor/device/udi_tmc.o
 *fill*         0x0000000020000025        0x3 
 .data.udi_api_tmc
                0x0000000020000028       0x14 src/ASF/common/services/usb/class/vendor/device/udi_tmc.o
                0x0000000020000028                udi_api_tmc
 .data.udc_config
                0x000000002000003c        0xc src/ASF/common/services/usb/class/vendor/device/udi_tmc_desc.o
                0x000000002000003c                udc_config
 .data.udc_config_lsfs
                0x0000000020000048        0x8 src/ASF/common/services/usb/class/vendor/device/udi_tmc_desc.o
                0x0000000020000048                udc_config_lsfs
 .data.udc_desc_fs
                0x0000000020000050       0x20 src/ASF/common/services/usb/class/vendor/device/udi_tmc_desc.o
                0x0000000020000050                udc_desc_fs
 .data.udc_device_desc
                0x0000000020000070       0x12 src/ASF/common/services/usb/class/vendor/device/udi_tmc_desc.o
                0x0000000020000070                udc_device_desc
 *fill*         0x0000000020000082        0x2 
 .data.udi_apis
                0x0000000020000084        0x4 src/ASF/common/services/usb/class/vendor/device/udi_tmc_desc.o
                0x0000000020000084                udi_apis
 .data.udc_string_desc
                0x0000000020000088       0x1c src/ASF/common/services/usb/udc/udc.o
 .data.udc_string_desc_languageid
                0x00000000200000a4        0x4 src/ASF/common/services/usb/udc/udc.o
 .data.udc_string_manufacturer_name
                0x00000000200000a8        0xa src/ASF/common/services/usb/udc/udc.o
 *fill*         0x00000000200000b2        0x2 
 .data.udc_string_product_name
                0x00000000200000b4        0xe src/ASF/common/services/usb/udc/udc.o
 *fill*         0x00000000200000c2        0x2 
 .data.ul_flash_in_wait_mode
                0x00000000200000c4        0x4 src/ASF/sam/drivers/pmc/pmc.o
 .data.ss       0x00000000200000c8        0x1 src/sampling.o
                0x00000000200000c8                ss
 .data.ui_b_loopback
                0x00000000200000c9        0x1 src/ui.o
 *fill*         0x00000000200000ca        0x2 
 .data.read_tx.9528
                0x00000000200000cc       0x16 src/adcLib.o
 .data.g_interrupt_enabled
                0x00000000200000e2        0x1 src/ASF/common/utils/interrupt/interrupt_sam_nvic.o
                0x00000000200000e2                g_interrupt_enabled
 *fill*         0x00000000200000e3        0x1 
 .data.SystemCoreClock
                0x00000000200000e4        0x4 src/ASF/sam/utils/cmsis/sam4s/source/templates/system_sam4s.o
                0x00000000200000e4                SystemCoreClock
 .data._impure_ptr
                0x00000000200000e8        0x4 /Users/richard/Desktop/DAQ/gcc/bin/../lib/gcc/arm-none-eabi/6.3.1/../../../../arm-none-eabi/lib/thumb/v7e-m/libc.a(lib_a-impure.o)
                0x00000000200000e8                _impure_ptr
 *fill*         0x00000000200000ec        0x4 
 .data.impure_data
                0x00000000200000f0      0x428 /Users/richard/Desktop/DAQ/gcc/bin/../lib/gcc/arm-none-eabi/6.3.1/../../../../arm-none-eabi/lib/thumb/v7e-m/libc.a(lib_a-impure.o)
 .data.__malloc_av_
                0x0000000020000518      0x408 /Users/richard/Desktop/DAQ/gcc/bin/../lib/gcc/arm-none-eabi/6.3.1/../../../../arm-none-eabi/lib/thumb/v7e-m/libc.a(lib_a-mallocr.o)
                0x0000000020000518                __malloc_av_
 .data.__malloc_sbrk_base
                0x0000000020000920        0x4 /Users/richard/Desktop/DAQ/gcc/bin/../lib/gcc/arm-none-eabi/6.3.1/../../../../arm-none-eabi/lib/thumb/v7e-m/libc.a(lib_a-mallocr.o)
                0x0000000020000920                __malloc_sbrk_base
 .data.__malloc_trim_threshold
                0x0000000020000924        0x4 /Users/richard/Desktop/DAQ/gcc/bin/../lib/gcc/arm-none-eabi/6.3.1/../../../../arm-none-eabi/lib/thumb/v7e-m/libc.a(lib_a-mallocr.o)
                0x0000000020000924                __malloc_trim_threshold
 .data.__atexit_recursive_mutex
                0x0000000020000928        0x4 /Users/richard/Desktop/DAQ/gcc/bin/../lib/gcc/arm-none-eabi/6.3.1/../../../../arm-none-eabi/lib/thumb/v7e-m/libc.a(lib_a-__call_atexit.o)
                0x0000000020000928                __atexit_recursive_mutex
 .data.__global_locale
                0x000000002000092c      0x16c /Users/richard/Desktop/DAQ/gcc/bin/../lib/gcc/arm-none-eabi/6.3.1/../../../../arm-none-eabi/lib/thumb/v7e-m/libc.a(lib_a-locale.o)
                0x000000002000092c                __global_locale
                0x0000000020000a98                . = ALIGN (0x4)
                0x0000000020000a98                _erelocate = .

.bss            0x0000000020000a98     0x9f0c load address 0x000000000040c8bc
                0x0000000020000a98                . = ALIGN (0x4)
                0x0000000020000a98                _sbss = .
                0x0000000020000a98                _szero = .
 *(.bss .bss.*)
 .bss           0x0000000020000a98       0x1c /Users/richard/Desktop/DAQ/gcc/bin/../lib/gcc/arm-none-eabi/6.3.1/thumb/v7e-m/crtbegin.o
 .bss.udc_device_status
                0x0000000020000ab4        0x2 src/ASF/common/services/usb/udc/udc.o
 .bss.udc_ep_status.9587
                0x0000000020000ab6        0x2 src/ASF/common/services/usb/udc/udc.o
 .bss.udc_iface_setting
                0x0000000020000ab8        0x1 src/ASF/common/services/usb/udc/udc.o
 *fill*         0x0000000020000ab9        0x3 
 .bss.udc_num_configuration
                0x0000000020000abc        0x1 src/ASF/common/services/usb/udc/udc.o
 *fill*         0x0000000020000abd        0x3 
 .bss.udc_ptr_conf
                0x0000000020000ac0        0x4 src/ASF/common/services/usb/udc/udc.o
 .bss.udc_ptr_iface
                0x0000000020000ac4        0x4 src/ASF/common/services/usb/udc/udc.o
 .bss.gs_interrupt_sources
                0x0000000020000ac8       0x70 src/ASF/sam/drivers/pio/pio_handler.o
 .bss.gs_ul_nb_sources
                0x0000000020000b38        0x4 src/ASF/sam/drivers/pio/pio_handler.o
 .bss.pio_capture_handler
                0x0000000020000b3c        0x4 src/ASF/sam/drivers/pio/pio_handler.o
 .bss.b_is_sleep_clock_used
                0x0000000020000b40        0x1 src/ASF/sam/drivers/pmc/sleep.o
 *fill*         0x0000000020000b41        0x3 
 .bss.callback_clocks_restored
                0x0000000020000b44        0x4 src/ASF/sam/drivers/pmc/sleep.o
 .bss.b_shortpacket.9786
                0x0000000020000b48        0x1 src/ASF/sam/drivers/udp/udp_device.o
 .bss.udd_b_idle
                0x0000000020000b49        0x1 src/ASF/sam/drivers/udp/udp_device.o
 .bss.udd_ctrl_payload_nb_trans
                0x0000000020000b4a        0x2 src/ASF/sam/drivers/udp/udp_device.o
 .bss.udd_ctrl_prev_payload_nb_trans
                0x0000000020000b4c        0x2 src/ASF/sam/drivers/udp/udp_device.o
 .bss.udd_ep_control_state
                0x0000000020000b4e        0x1 src/ASF/sam/drivers/udp/udp_device.o
 *fill*         0x0000000020000b4f        0x1 
 .bss.udd_ep_job
                0x0000000020000b50       0x28 src/ASF/sam/drivers/udp/udp_device.o
 .bss.bufLen    0x0000000020000b78        0x4 src/sampling.o
                0x0000000020000b78                bufLen
 .bss.corrupt_sample_set
                0x0000000020000b7c        0x1 src/sampling.o
                0x0000000020000b7c                corrupt_sample_set
 *fill*         0x0000000020000b7d        0x3 
 .bss.corruption_amount
                0x0000000020000b80        0x4 src/sampling.o
                0x0000000020000b80                corruption_amount
 .bss.s_timer   0x0000000020000b84        0x4 src/sampling.o
                0x0000000020000b84                s_timer
 .bss.timer_done
                0x0000000020000b88        0x1 src/sampling.o
                0x0000000020000b88                timer_done
 *fill*         0x0000000020000b89        0x3 
 .bss.queue     0x0000000020000b8c        0x4 src/structure.o
                0x0000000020000b8c                queue
 .bss.timer     0x0000000020000b90        0x4 src/timer.o
                0x0000000020000b90                timer
 .bss.adcData.9529
                0x0000000020000b94       0x16 src/adcLib.o
 .bss.dataRdy   0x0000000020000baa        0x1 src/adcLib.o
                0x0000000020000baa                dataRdy
 *fill*         0x0000000020000bab        0x1 
 .bss.numTimesAvg.9532
                0x0000000020000bac        0x4 src/adcLib.o
 .bss.oldPtr.9531
                0x0000000020000bb0        0x4 src/adcLib.o
 .bss.cpu_irq_critical_section_counter
                0x0000000020000bb4        0x4 src/ASF/common/utils/interrupt/interrupt_sam_nvic.o
 .bss.cpu_irq_prev_interrupt_state
                0x0000000020000bb8        0x1 src/ASF/common/utils/interrupt/interrupt_sam_nvic.o
 *fill*         0x0000000020000bb9        0x3 
 .bss.heap.5297
                0x0000000020000bbc        0x4 src/ASF/sam/utils/syscalls/gcc/syscalls.o
 .bss.activeDataRequest
                0x0000000020000bc0        0xc src/main.o
 .bss.deviceCmdResponse
                0x0000000020000bcc       0x3e src/main.o
 .bss.g_bulkIN_xfer_active
                0x0000000020000c0a        0x1 src/main.o
 *fill*         0x0000000020000c0b        0x1 
 .bss.g_bulk_abort_response
                0x0000000020000c0c        0x8 src/main.o
 .bss.__malloc_current_mallinfo
                0x0000000020000c14       0x28 /Users/richard/Desktop/DAQ/gcc/bin/../lib/gcc/arm-none-eabi/6.3.1/../../../../arm-none-eabi/lib/thumb/v7e-m/libc.a(lib_a-mallocr.o)
                0x0000000020000c14                __malloc_current_mallinfo
 .bss.__malloc_max_sbrked_mem
                0x0000000020000c3c        0x4 /Users/richard/Desktop/DAQ/gcc/bin/../lib/gcc/arm-none-eabi/6.3.1/../../../../arm-none-eabi/lib/thumb/v7e-m/libc.a(lib_a-mallocr.o)
                0x0000000020000c3c                __malloc_max_sbrked_mem
 .bss.__malloc_max_total_mem
                0x0000000020000c40        0x4 /Users/richard/Desktop/DAQ/gcc/bin/../lib/gcc/arm-none-eabi/6.3.1/../../../../arm-none-eabi/lib/thumb/v7e-m/libc.a(lib_a-mallocr.o)
                0x0000000020000c40                __malloc_max_total_mem
 .bss.__malloc_top_pad
                0x0000000020000c44        0x4 /Users/richard/Desktop/DAQ/gcc/bin/../lib/gcc/arm-none-eabi/6.3.1/../../../../arm-none-eabi/lib/thumb/v7e-m/libc.a(lib_a-mallocr.o)
                0x0000000020000c44                __malloc_top_pad
 *(COMMON)
 COMMON         0x0000000020000c48        0x6 src/ASF/common/services/sleepmgr/sam/sleepmgr.o
                0x0000000020000c48                sleepmgr_locks
 *fill*         0x0000000020000c4e        0x2 
 COMMON         0x0000000020000c50       0x8c src/ASF/common/services/usb/class/vendor/device/udi_tmc.o
                0x0000000020000c50                bulkOUTmsgHeader
 COMMON         0x0000000020000cdc        0x4 src/ASF/sam/drivers/pio/pio.o
                0x0000000020000cdc                pio_capture_enable_flag
 COMMON         0x0000000020000ce0       0x18 src/ASF/sam/drivers/udp/udp_device.o
                0x0000000020000ce0                udd_g_ctrlreq
 COMMON         0x0000000020000cf8       0x30 src/timer.o
                0x0000000020000cf8                T
 COMMON         0x0000000020000d28        0x4 src/adcLib.o
                0x0000000020000d28                adcValBuffer
 COMMON         0x0000000020000d2c     0x9c4d src/main.o
                0x0000000020000d2c                deviceDataResponse
                0x000000002000a978                cmd_resp
 *fill*         0x000000002000a979        0x3 
 COMMON         0x000000002000a97c       0x21 /Users/richard/Desktop/DAQ/gcc/bin/../lib/gcc/arm-none-eabi/6.3.1/../../../../arm-none-eabi/lib/thumb/v7e-m/libc.a(lib_a-lock.o)
                0x000000002000a97c                __lock___atexit_recursive_mutex
                0x000000002000a980                __lock___arc4random_mutex
                0x000000002000a984                __lock___env_recursive_mutex
                0x000000002000a988                __lock___sinit_recursive_mutex
                0x000000002000a98c                __lock___malloc_recursive_mutex
                0x000000002000a990                __lock___at_quick_exit_mutex
                0x000000002000a994                __lock___dd_hash_mutex
                0x000000002000a998                __lock___tz_mutex
                0x000000002000a99c                __lock___sfp_recursive_mutex
 *fill*         0x000000002000a99d        0x3 
 COMMON         0x000000002000a9a0        0x4 /Users/richard/Desktop/DAQ/gcc/bin/../lib/gcc/arm-none-eabi/6.3.1/../../../../arm-none-eabi/lib/thumb/v7e-m/libc.a(lib_a-reent.o)
                0x000000002000a9a0                errno
                0x000000002000a9a4                . = ALIGN (0x4)
                0x000000002000a9a4                _ebss = .
                0x000000002000a9a4                _ezero = .

.stack          0x000000002000a9a4     0x3004 load address 0x00000000004167c8
                0x000000002000a9a8                . = ALIGN (0x8)
 *fill*         0x000000002000a9a4        0x4 
                0x000000002000a9a8                _sstack = .
                0x000000002000d9a8                . = (. + __stack_size__)
 *fill*         0x000000002000a9a8     0x3000 
                0x000000002000d9a8                . = ALIGN (0x8)
                0x000000002000d9a8                _estack = .
                0x000000002000d9a8                . = ALIGN (0x4)
                0x000000002000d9a8                _end = .
OUTPUT(GccBoardProject1.elf elf32-littlearm)

.ARM.attributes
                0x0000000000000000       0x2a
 .ARM.attributes
                0x0000000000000000       0x1e /Users/richard/Desktop/DAQ/gcc/bin/../lib/gcc/arm-none-eabi/6.3.1/thumb/v7e-m/crti.o
 .ARM.attributes
                0x000000000000001e       0x2e /Users/richard/Desktop/DAQ/gcc/bin/../lib/gcc/arm-none-eabi/6.3.1/thumb/v7e-m/crtbegin.o
 .ARM.attributes
                0x000000000000004c       0x33 src/ASF/common/services/clock/sam4s/sysclk.o
 .ARM.attributes
                0x000000000000007f       0x33 src/ASF/common/services/delay/sam/cycle_counter.o
 .ARM.attributes
                0x00000000000000b2       0x33 src/ASF/common/services/sleepmgr/sam/sleepmgr.o
 .ARM.attributes
                0x00000000000000e5       0x33 src/ASF/common/services/usb/class/vendor/device/udi_tmc.o
 .ARM.attributes
                0x0000000000000118       0x33 src/ASF/common/services/usb/class/vendor/device/udi_tmc_desc.o
 .ARM.attributes
                0x000000000000014b       0x33 src/ASF/common/services/usb/udc/udc.o
 .ARM.attributes
                0x000000000000017e       0x33 src/ASF/sam/drivers/pio/pio.o
 .ARM.attributes
                0x00000000000001b1       0x33 src/ASF/sam/drivers/pio/pio_handler.o
 .ARM.attributes
                0x00000000000001e4       0x33 src/ASF/sam/drivers/pmc/pmc.o
 .ARM.attributes
                0x0000000000000217       0x33 src/ASF/sam/drivers/pmc/sleep.o
 .ARM.attributes
                0x000000000000024a       0x33 src/ASF/sam/drivers/rstc/rstc.o
 .ARM.attributes
                0x000000000000027d       0x33 src/ASF/sam/drivers/spi/spi.o
 .ARM.attributes
                0x00000000000002b0       0x33 src/ASF/sam/drivers/tc/tc.o
 .ARM.attributes
                0x00000000000002e3       0x33 src/ASF/sam/drivers/udp/udp_device.o
 .ARM.attributes
                0x0000000000000316       0x33 src/sampling.o
 .ARM.attributes
                0x0000000000000349       0x33 src/spi_com.o
 .ARM.attributes
                0x000000000000037c       0x33 src/structure.o
 .ARM.attributes
                0x00000000000003af       0x33 src/timer.o
 .ARM.attributes
                0x00000000000003e2       0x33 src/ui.o
 .ARM.attributes
                0x0000000000000415       0x33 src/adcLib.o
 .ARM.attributes
                0x0000000000000448       0x33 src/ASF/common/boards/user_board/init.o
 .ARM.attributes
                0x000000000000047b       0x33 src/ASF/common/utils/interrupt/interrupt_sam_nvic.o
 .ARM.attributes
                0x00000000000004ae       0x33 src/ASF/sam/utils/cmsis/sam4s/source/templates/gcc/startup_sam4s.o
 .ARM.attributes
                0x00000000000004e1       0x33 src/ASF/sam/utils/cmsis/sam4s/source/templates/system_sam4s.o
 .ARM.attributes
                0x0000000000000514       0x33 src/ASF/sam/utils/syscalls/gcc/syscalls.o
 .ARM.attributes
                0x0000000000000547       0x33 src/command.o
 .ARM.attributes
                0x000000000000057a       0x33 src/main.o
 .ARM.attributes
                0x00000000000005ad       0x2e /Users/richard/Desktop/DAQ/gcc/bin/../lib/gcc/arm-none-eabi/6.3.1/../../../../arm-none-eabi/lib/thumb/v7e-m/libm.a(lib_a-s_ceil.o)
 .ARM.attributes
                0x00000000000005db       0x2e /Users/richard/Desktop/DAQ/gcc/bin/../lib/gcc/arm-none-eabi/6.3.1/../../../../arm-none-eabi/lib/thumb/v7e-m/libm.a(lib_a-s_lround.o)
 .ARM.attributes
                0x0000000000000609       0x1e /Users/richard/Desktop/DAQ/gcc/bin/../lib/gcc/arm-none-eabi/6.3.1/thumb/v7e-m/libgcc.a(_arm_addsubdf3.o)
 .ARM.attributes
                0x0000000000000627       0x1e /Users/richard/Desktop/DAQ/gcc/bin/../lib/gcc/arm-none-eabi/6.3.1/thumb/v7e-m/libgcc.a(_arm_muldivdf3.o)
 .ARM.attributes
                0x0000000000000645       0x1e /Users/richard/Desktop/DAQ/gcc/bin/../lib/gcc/arm-none-eabi/6.3.1/thumb/v7e-m/libgcc.a(_arm_cmpdf2.o)
 .ARM.attributes
                0x0000000000000663       0x1e /Users/richard/Desktop/DAQ/gcc/bin/../lib/gcc/arm-none-eabi/6.3.1/thumb/v7e-m/libgcc.a(_arm_fixdfsi.o)
 .ARM.attributes
                0x0000000000000681       0x1e /Users/richard/Desktop/DAQ/gcc/bin/../lib/gcc/arm-none-eabi/6.3.1/thumb/v7e-m/libgcc.a(_arm_fixunsdfsi.o)
 .ARM.attributes
                0x000000000000069f       0x1e /Users/richard/Desktop/DAQ/gcc/bin/../lib/gcc/arm-none-eabi/6.3.1/thumb/v7e-m/libgcc.a(_arm_truncdfsf2.o)
 .ARM.attributes
                0x00000000000006bd       0x1e /Users/richard/Desktop/DAQ/gcc/bin/../lib/gcc/arm-none-eabi/6.3.1/thumb/v7e-m/libgcc.a(_arm_addsubsf3.o)
 .ARM.attributes
                0x00000000000006db       0x1e /Users/richard/Desktop/DAQ/gcc/bin/../lib/gcc/arm-none-eabi/6.3.1/thumb/v7e-m/libgcc.a(_arm_muldivsf3.o)
 .ARM.attributes
                0x00000000000006f9       0x1e /Users/richard/Desktop/DAQ/gcc/bin/../lib/gcc/arm-none-eabi/6.3.1/thumb/v7e-m/libgcc.a(_arm_cmpsf2.o)
 .ARM.attributes
                0x0000000000000717       0x1e /Users/richard/Desktop/DAQ/gcc/bin/../lib/gcc/arm-none-eabi/6.3.1/thumb/v7e-m/libgcc.a(_aeabi_uldivmod.o)
 .ARM.attributes
                0x0000000000000735       0x2e /Users/richard/Desktop/DAQ/gcc/bin/../lib/gcc/arm-none-eabi/6.3.1/thumb/v7e-m/libgcc.a(_udivmoddi4.o)
 .ARM.attributes
                0x0000000000000763       0x1e /Users/richard/Desktop/DAQ/gcc/bin/../lib/gcc/arm-none-eabi/6.3.1/thumb/v7e-m/libgcc.a(_dvmd_tls.o)
 .ARM.attributes
                0x0000000000000781       0x2e /Users/richard/Desktop/DAQ/gcc/bin/../lib/gcc/arm-none-eabi/6.3.1/../../../../arm-none-eabi/lib/thumb/v7e-m/libc.a(lib_a-atof.o)
 .ARM.attributes
                0x00000000000007af       0x2e /Users/richard/Desktop/DAQ/gcc/bin/../lib/gcc/arm-none-eabi/6.3.1/../../../../arm-none-eabi/lib/thumb/v7e-m/libc.a(lib_a-atoi.o)
 .ARM.attributes
                0x00000000000007dd       0x2e /Users/richard/Desktop/DAQ/gcc/bin/../lib/gcc/arm-none-eabi/6.3.1/../../../../arm-none-eabi/lib/thumb/v7e-m/libc.a(lib_a-impure.o)
 .ARM.attributes
                0x000000000000080b       0x2e /Users/richard/Desktop/DAQ/gcc/bin/../lib/gcc/arm-none-eabi/6.3.1/../../../../arm-none-eabi/lib/thumb/v7e-m/libc.a(lib_a-init.o)
 .ARM.attributes
                0x0000000000000839       0x2e /Users/richard/Desktop/DAQ/gcc/bin/../lib/gcc/arm-none-eabi/6.3.1/../../../../arm-none-eabi/lib/thumb/v7e-m/libc.a(lib_a-malloc.o)
 .ARM.attributes
                0x0000000000000867       0x2e /Users/richard/Desktop/DAQ/gcc/bin/../lib/gcc/arm-none-eabi/6.3.1/../../../../arm-none-eabi/lib/thumb/v7e-m/libc.a(lib_a-mallocr.o)
 .ARM.attributes
                0x0000000000000895       0x2e /Users/richard/Desktop/DAQ/gcc/bin/../lib/gcc/arm-none-eabi/6.3.1/../../../../arm-none-eabi/lib/thumb/v7e-m/libc.a(lib_a-memset.o)
 .ARM.attributes
                0x00000000000008c3       0x2e /Users/richard/Desktop/DAQ/gcc/bin/../lib/gcc/arm-none-eabi/6.3.1/../../../../arm-none-eabi/lib/thumb/v7e-m/libc.a(lib_a-mlock.o)
 .ARM.attributes
                0x00000000000008f1       0x2e /Users/richard/Desktop/DAQ/gcc/bin/../lib/gcc/arm-none-eabi/6.3.1/../../../../arm-none-eabi/lib/thumb/v7e-m/libc.a(lib_a-sbrkr.o)
 .ARM.attributes
                0x000000000000091f       0x2e /Users/richard/Desktop/DAQ/gcc/bin/../lib/gcc/arm-none-eabi/6.3.1/../../../../arm-none-eabi/lib/thumb/v7e-m/libc.a(lib_a-snprintf.o)
 .ARM.attributes
                0x000000000000094d       0x1c /Users/richard/Desktop/DAQ/gcc/bin/../lib/gcc/arm-none-eabi/6.3.1/../../../../arm-none-eabi/lib/thumb/v7e-m/libc.a(lib_a-strcmp.o)
 .ARM.attributes
                0x0000000000000969       0x1c /Users/richard/Desktop/DAQ/gcc/bin/../lib/gcc/arm-none-eabi/6.3.1/../../../../arm-none-eabi/lib/thumb/v7e-m/libc.a(lib_a-strlen.o)
 .ARM.attributes
                0x0000000000000985       0x2e /Users/richard/Desktop/DAQ/gcc/bin/../lib/gcc/arm-none-eabi/6.3.1/../../../../arm-none-eabi/lib/thumb/v7e-m/libc.a(lib_a-strtod.o)
 .ARM.attributes
                0x00000000000009b3       0x2e /Users/richard/Desktop/DAQ/gcc/bin/../lib/gcc/arm-none-eabi/6.3.1/../../../../arm-none-eabi/lib/thumb/v7e-m/libc.a(lib_a-strtok.o)
 .ARM.attributes
                0x00000000000009e1       0x2e /Users/richard/Desktop/DAQ/gcc/bin/../lib/gcc/arm-none-eabi/6.3.1/../../../../arm-none-eabi/lib/thumb/v7e-m/libc.a(lib_a-strtok_r.o)
 .ARM.attributes
                0x0000000000000a0f       0x2e /Users/richard/Desktop/DAQ/gcc/bin/../lib/gcc/arm-none-eabi/6.3.1/../../../../arm-none-eabi/lib/thumb/v7e-m/libc.a(lib_a-strtol.o)
 .ARM.attributes
                0x0000000000000a3d       0x2e /Users/richard/Desktop/DAQ/gcc/bin/../lib/gcc/arm-none-eabi/6.3.1/../../../../arm-none-eabi/lib/thumb/v7e-m/libc.a(lib_a-strtoul.o)
 .ARM.attributes
                0x0000000000000a6b       0x2e /Users/richard/Desktop/DAQ/gcc/bin/../lib/gcc/arm-none-eabi/6.3.1/../../../../arm-none-eabi/lib/thumb/v7e-m/libc.a(lib_a-svfprintf.o)
 .ARM.attributes
                0x0000000000000a99       0x2e /Users/richard/Desktop/DAQ/gcc/bin/../lib/gcc/arm-none-eabi/6.3.1/../../../../arm-none-eabi/lib/thumb/v7e-m/libc.a(lib_a-__call_atexit.o)
 .ARM.attributes
                0x0000000000000ac7       0x2e /Users/richard/Desktop/DAQ/gcc/bin/../lib/gcc/arm-none-eabi/6.3.1/../../../../arm-none-eabi/lib/thumb/v7e-m/libc.a(lib_a-atexit.o)
 .ARM.attributes
                0x0000000000000af5       0x2e /Users/richard/Desktop/DAQ/gcc/bin/../lib/gcc/arm-none-eabi/6.3.1/../../../../arm-none-eabi/lib/thumb/v7e-m/libc.a(lib_a-dtoa.o)
 .ARM.attributes
                0x0000000000000b23       0x2e /Users/richard/Desktop/DAQ/gcc/bin/../lib/gcc/arm-none-eabi/6.3.1/../../../../arm-none-eabi/lib/thumb/v7e-m/libc.a(lib_a-fini.o)
 .ARM.attributes
                0x0000000000000b51       0x2e /Users/richard/Desktop/DAQ/gcc/bin/../lib/gcc/arm-none-eabi/6.3.1/../../../../arm-none-eabi/lib/thumb/v7e-m/libc.a(lib_a-freer.o)
 .ARM.attributes
                0x0000000000000b7f       0x2e /Users/richard/Desktop/DAQ/gcc/bin/../lib/gcc/arm-none-eabi/6.3.1/../../../../arm-none-eabi/lib/thumb/v7e-m/libc.a(lib_a-gdtoa-gethex.o)
 .ARM.attributes
                0x0000000000000bad       0x2e /Users/richard/Desktop/DAQ/gcc/bin/../lib/gcc/arm-none-eabi/6.3.1/../../../../arm-none-eabi/lib/thumb/v7e-m/libc.a(lib_a-gdtoa-hexnan.o)
 .ARM.attributes
                0x0000000000000bdb       0x2e /Users/richard/Desktop/DAQ/gcc/bin/../lib/gcc/arm-none-eabi/6.3.1/../../../../arm-none-eabi/lib/thumb/v7e-m/libc.a(lib_a-locale.o)
 .ARM.attributes
                0x0000000000000c09       0x2e /Users/richard/Desktop/DAQ/gcc/bin/../lib/gcc/arm-none-eabi/6.3.1/../../../../arm-none-eabi/lib/thumb/v7e-m/libc.a(lib_a-localeconv.o)
 .ARM.attributes
                0x0000000000000c37       0x2e /Users/richard/Desktop/DAQ/gcc/bin/../lib/gcc/arm-none-eabi/6.3.1/../../../../arm-none-eabi/lib/thumb/v7e-m/libc.a(lib_a-lock.o)
 .ARM.attributes
                0x0000000000000c65       0x2e /Users/richard/Desktop/DAQ/gcc/bin/../lib/gcc/arm-none-eabi/6.3.1/../../../../arm-none-eabi/lib/thumb/v7e-m/libc.a(lib_a-mbtowc_r.o)
 .ARM.attributes
                0x0000000000000c93       0x1c /Users/richard/Desktop/DAQ/gcc/bin/../lib/gcc/arm-none-eabi/6.3.1/../../../../arm-none-eabi/lib/thumb/v7e-m/libc.a(lib_a-memchr.o)
 .ARM.attributes
                0x0000000000000caf       0x1c /Users/richard/Desktop/DAQ/gcc/bin/../lib/gcc/arm-none-eabi/6.3.1/../../../../arm-none-eabi/lib/thumb/v7e-m/libc.a(lib_a-memcpy.o)
 .ARM.attributes
                0x0000000000000ccb       0x2e /Users/richard/Desktop/DAQ/gcc/bin/../lib/gcc/arm-none-eabi/6.3.1/../../../../arm-none-eabi/lib/thumb/v7e-m/libc.a(lib_a-mprec.o)
 .ARM.attributes
                0x0000000000000cf9       0x2e /Users/richard/Desktop/DAQ/gcc/bin/../lib/gcc/arm-none-eabi/6.3.1/../../../../arm-none-eabi/lib/thumb/v7e-m/libc.a(lib_a-reent.o)
 .ARM.attributes
                0x0000000000000d27       0x2e /Users/richard/Desktop/DAQ/gcc/bin/../lib/gcc/arm-none-eabi/6.3.1/../../../../arm-none-eabi/lib/thumb/v7e-m/libc.a(lib_a-strncmp.o)
 .ARM.attributes
                0x0000000000000d55       0x2e /Users/richard/Desktop/DAQ/gcc/bin/../lib/gcc/arm-none-eabi/6.3.1/../../../../arm-none-eabi/lib/thumb/v7e-m/libc.a(lib_a-svfiprintf.o)
 .ARM.attributes
                0x0000000000000d83       0x2e /Users/richard/Desktop/DAQ/gcc/bin/../lib/gcc/arm-none-eabi/6.3.1/../../../../arm-none-eabi/lib/thumb/v7e-m/libc.a(lib_a-wctomb_r.o)
 .ARM.attributes
                0x0000000000000db1       0x2e /Users/richard/Desktop/DAQ/gcc/bin/../lib/gcc/arm-none-eabi/6.3.1/../../../../arm-none-eabi/lib/thumb/v7e-m/libc.a(lib_a-__atexit.o)
 .ARM.attributes
                0x0000000000000ddf       0x2e /Users/richard/Desktop/DAQ/gcc/bin/../lib/gcc/arm-none-eabi/6.3.1/../../../../arm-none-eabi/lib/thumb/v7e-m/libc.a(lib_a-callocr.o)
 .ARM.attributes
                0x0000000000000e0d       0x2e /Users/richard/Desktop/DAQ/gcc/bin/../lib/gcc/arm-none-eabi/6.3.1/../../../../arm-none-eabi/lib/thumb/v7e-m/libc.a(lib_a-ctype_.o)
 .ARM.attributes
                0x0000000000000e3b       0x2e /Users/richard/Desktop/DAQ/gcc/bin/../lib/gcc/arm-none-eabi/6.3.1/../../../../arm-none-eabi/lib/thumb/v7e-m/libc.a(lib_a-memmove.o)
 .ARM.attributes
                0x0000000000000e69       0x2e /Users/richard/Desktop/DAQ/gcc/bin/../lib/gcc/arm-none-eabi/6.3.1/../../../../arm-none-eabi/lib/thumb/v7e-m/libc.a(lib_a-reallocr.o)
 .ARM.attributes
                0x0000000000000e97       0x1e /Users/richard/Desktop/DAQ/gcc/bin/../lib/gcc/arm-none-eabi/6.3.1/thumb/v7e-m/libgcc.a(_arm_unorddf2.o)
 .ARM.attributes
                0x0000000000000eb5       0x1e /Users/richard/Desktop/DAQ/gcc/bin/../lib/gcc/arm-none-eabi/6.3.1/thumb/v7e-m/crtn.o

.comment        0x0000000000000000       0x59
 .comment       0x0000000000000000       0x59 src/ASF/common/services/clock/sam4s/sysclk.o
                                         0x5a (size before relaxing)
 .comment       0x0000000000000059       0x5a src/ASF/common/services/delay/sam/cycle_counter.o
 .comment       0x0000000000000059       0x5a src/ASF/common/services/sleepmgr/sam/sleepmgr.o
 .comment       0x0000000000000059       0x5a src/ASF/common/services/usb/class/vendor/device/udi_tmc.o
 .comment       0x0000000000000059       0x5a src/ASF/common/services/usb/class/vendor/device/udi_tmc_desc.o
 .comment       0x0000000000000059       0x5a src/ASF/common/services/usb/udc/udc.o
 .comment       0x0000000000000059       0x5a src/ASF/sam/drivers/pio/pio.o
 .comment       0x0000000000000059       0x5a src/ASF/sam/drivers/pio/pio_handler.o
 .comment       0x0000000000000059       0x5a src/ASF/sam/drivers/pmc/pmc.o
 .comment       0x0000000000000059       0x5a src/ASF/sam/drivers/pmc/sleep.o
 .comment       0x0000000000000059       0x5a src/ASF/sam/drivers/rstc/rstc.o
 .comment       0x0000000000000059       0x5a src/ASF/sam/drivers/spi/spi.o
 .comment       0x0000000000000059       0x5a src/ASF/sam/drivers/tc/tc.o
 .comment       0x0000000000000059       0x5a src/ASF/sam/drivers/udp/udp_device.o
 .comment       0x0000000000000059       0x5a src/sampling.o
 .comment       0x0000000000000059       0x5a src/spi_com.o
 .comment       0x0000000000000059       0x5a src/structure.o
 .comment       0x0000000000000059       0x5a src/timer.o
 .comment       0x0000000000000059       0x5a src/ui.o
 .comment       0x0000000000000059       0x5a src/adcLib.o
 .comment       0x0000000000000059       0x5a src/ASF/common/boards/user_board/init.o
 .comment       0x0000000000000059       0x5a src/ASF/common/utils/interrupt/interrupt_sam_nvic.o
 .comment       0x0000000000000059       0x5a src/ASF/sam/utils/cmsis/sam4s/source/templates/gcc/startup_sam4s.o
 .comment       0x0000000000000059       0x5a src/ASF/sam/utils/cmsis/sam4s/source/templates/system_sam4s.o
 .comment       0x0000000000000059       0x5a src/ASF/sam/utils/syscalls/gcc/syscalls.o
 .comment       0x0000000000000059       0x5a src/command.o
 .comment       0x0000000000000059       0x5a src/main.o

.debug_info     0x0000000000000000    0x2394a
 .debug_info    0x0000000000000000     0x12c2 src/ASF/common/services/clock/sam4s/sysclk.o
 .debug_info    0x00000000000012c2      0xa45 src/ASF/common/services/delay/sam/cycle_counter.o
 .debug_info    0x0000000000001d07      0xa8e src/ASF/common/services/sleepmgr/sam/sleepmgr.o
 .debug_info    0x0000000000002795     0x183c src/ASF/common/services/usb/class/vendor/device/udi_tmc.o
 .debug_info    0x0000000000003fd1     0x129f src/ASF/common/services/usb/class/vendor/device/udi_tmc_desc.o
 .debug_info    0x0000000000005270     0x1cae src/ASF/common/services/usb/udc/udc.o
 .debug_info    0x0000000000006f1e     0x221d src/ASF/sam/drivers/pio/pio.o
 .debug_info    0x000000000000913b     0x187f src/ASF/sam/drivers/pio/pio_handler.o
 .debug_info    0x000000000000a9ba     0x1a1a src/ASF/sam/drivers/pmc/pmc.o
 .debug_info    0x000000000000c3d4     0x1383 src/ASF/sam/drivers/pmc/sleep.o
 .debug_info    0x000000000000d757      0xc33 src/ASF/sam/drivers/rstc/rstc.o
 .debug_info    0x000000000000e38a     0x11c9 src/ASF/sam/drivers/spi/spi.o
 .debug_info    0x000000000000f553     0x123c src/ASF/sam/drivers/tc/tc.o
 .debug_info    0x000000000001078f     0x37df src/ASF/sam/drivers/udp/udp_device.o
 .debug_info    0x0000000000013f6e     0x1448 src/sampling.o
 .debug_info    0x00000000000153b6     0x16e1 src/spi_com.o
 .debug_info    0x0000000000016a97     0x122e src/structure.o
 .debug_info    0x0000000000017cc5     0x246b src/timer.o
 .debug_info    0x000000000001a130     0x10fb src/ui.o
 .debug_info    0x000000000001b22b     0x1ff4 src/adcLib.o
 .debug_info    0x000000000001d21f     0x1adf src/ASF/common/boards/user_board/init.o
 .debug_info    0x000000000001ecfe      0xb01 src/ASF/common/utils/interrupt/interrupt_sam_nvic.o
 .debug_info    0x000000000001f7ff      0x6eb src/ASF/sam/utils/cmsis/sam4s/source/templates/gcc/startup_sam4s.o
 .debug_info    0x000000000001feea      0x458 src/ASF/sam/utils/cmsis/sam4s/source/templates/system_sam4s.o
 .debug_info    0x0000000000020342      0xdb0 src/ASF/sam/utils/syscalls/gcc/syscalls.o
 .debug_info    0x00000000000210f2      0xb15 src/command.o
 .debug_info    0x0000000000021c07     0x1d43 src/main.o

.debug_abbrev   0x0000000000000000     0x5336
 .debug_abbrev  0x0000000000000000      0x333 src/ASF/common/services/clock/sam4s/sysclk.o
 .debug_abbrev  0x0000000000000333      0x1b3 src/ASF/common/services/delay/sam/cycle_counter.o
 .debug_abbrev  0x00000000000004e6      0x1b2 src/ASF/common/services/sleepmgr/sam/sleepmgr.o
 .debug_abbrev  0x0000000000000698      0x45f src/ASF/common/services/usb/class/vendor/device/udi_tmc.o
 .debug_abbrev  0x0000000000000af7      0x225 src/ASF/common/services/usb/class/vendor/device/udi_tmc_desc.o
 .debug_abbrev  0x0000000000000d1c      0x45c src/ASF/common/services/usb/udc/udc.o
 .debug_abbrev  0x0000000000001178      0x3ff src/ASF/sam/drivers/pio/pio.o
 .debug_abbrev  0x0000000000001577      0x368 src/ASF/sam/drivers/pio/pio_handler.o
 .debug_abbrev  0x00000000000018df      0x315 src/ASF/sam/drivers/pmc/pmc.o
 .debug_abbrev  0x0000000000001bf4      0x31e src/ASF/sam/drivers/pmc/sleep.o
 .debug_abbrev  0x0000000000001f12      0x207 src/ASF/sam/drivers/rstc/rstc.o
 .debug_abbrev  0x0000000000002119      0x398 src/ASF/sam/drivers/spi/spi.o
 .debug_abbrev  0x00000000000024b1      0x293 src/ASF/sam/drivers/tc/tc.o
 .debug_abbrev  0x0000000000002744      0x61d src/ASF/sam/drivers/udp/udp_device.o
 .debug_abbrev  0x0000000000002d61      0x388 src/sampling.o
 .debug_abbrev  0x00000000000030e9      0x35d src/spi_com.o
 .debug_abbrev  0x0000000000003446      0x2fa src/structure.o
 .debug_abbrev  0x0000000000003740      0x52e src/timer.o
 .debug_abbrev  0x0000000000003c6e      0x27b src/ui.o
 .debug_abbrev  0x0000000000003ee9      0x3c0 src/adcLib.o
 .debug_abbrev  0x00000000000042a9      0x315 src/ASF/common/boards/user_board/init.o
 .debug_abbrev  0x00000000000045be      0x212 src/ASF/common/utils/interrupt/interrupt_sam_nvic.o
 .debug_abbrev  0x00000000000047d0      0x17c src/ASF/sam/utils/cmsis/sam4s/source/templates/gcc/startup_sam4s.o
 .debug_abbrev  0x000000000000494c      0x102 src/ASF/sam/utils/cmsis/sam4s/source/templates/system_sam4s.o
 .debug_abbrev  0x0000000000004a4e      0x264 src/ASF/sam/utils/syscalls/gcc/syscalls.o
 .debug_abbrev  0x0000000000004cb2      0x1f0 src/command.o
 .debug_abbrev  0x0000000000004ea2      0x494 src/main.o

.debug_loc      0x0000000000000000     0x7d38
 .debug_loc     0x0000000000000000      0x1d9 src/ASF/common/services/clock/sam4s/sysclk.o
 .debug_loc     0x00000000000001d9      0x404 src/ASF/common/services/usb/class/vendor/device/udi_tmc.o
 .debug_loc     0x00000000000005dd      0x545 src/ASF/common/services/usb/udc/udc.o
 .debug_loc     0x0000000000000b22      0xdef src/ASF/sam/drivers/pio/pio.o
 .debug_loc     0x0000000000001911      0x529 src/ASF/sam/drivers/pio/pio_handler.o
 .debug_loc     0x0000000000001e3a      0xb91 src/ASF/sam/drivers/pmc/pmc.o
 .debug_loc     0x00000000000029cb      0x39c src/ASF/sam/drivers/pmc/sleep.o
 .debug_loc     0x0000000000002d67      0x104 src/ASF/sam/drivers/rstc/rstc.o
 .debug_loc     0x0000000000002e6b      0x5ac src/ASF/sam/drivers/spi/spi.o
 .debug_loc     0x0000000000003417      0x5a4 src/ASF/sam/drivers/tc/tc.o
 .debug_loc     0x00000000000039bb     0x1bb1 src/ASF/sam/drivers/udp/udp_device.o
 .debug_loc     0x000000000000556c      0x1f3 src/sampling.o
 .debug_loc     0x000000000000575f      0x202 src/spi_com.o
 .debug_loc     0x0000000000005961      0x2bf src/structure.o
 .debug_loc     0x0000000000005c20     0x1377 src/timer.o
 .debug_loc     0x0000000000006f97       0x21 src/ui.o
 .debug_loc     0x0000000000006fb8      0x4f4 src/adcLib.o
 .debug_loc     0x00000000000074ac      0x138 src/ASF/common/boards/user_board/init.o
 .debug_loc     0x00000000000075e4       0xa1 src/ASF/sam/utils/cmsis/sam4s/source/templates/gcc/startup_sam4s.o
 .debug_loc     0x0000000000007685       0xfd src/ASF/sam/utils/syscalls/gcc/syscalls.o
 .debug_loc     0x0000000000007782       0x4c src/command.o
 .debug_loc     0x00000000000077ce      0x56a src/main.o

.debug_aranges  0x0000000000000000      0xc68
 .debug_aranges
                0x0000000000000000       0x40 src/ASF/common/services/clock/sam4s/sysclk.o
 .debug_aranges
                0x0000000000000040       0x20 src/ASF/common/services/delay/sam/cycle_counter.o
 .debug_aranges
                0x0000000000000060       0x18 src/ASF/common/services/sleepmgr/sam/sleepmgr.o
 .debug_aranges
                0x0000000000000078       0x50 src/ASF/common/services/usb/class/vendor/device/udi_tmc.o
 .debug_aranges
                0x00000000000000c8       0x18 src/ASF/common/services/usb/class/vendor/device/udi_tmc_desc.o
 .debug_aranges
                0x00000000000000e0       0x70 src/ASF/common/services/usb/udc/udc.o
 .debug_aranges
                0x0000000000000150      0x1a8 src/ASF/sam/drivers/pio/pio.o
 .debug_aranges
                0x00000000000002f8       0x50 src/ASF/sam/drivers/pio/pio_handler.o
 .debug_aranges
                0x0000000000000348      0x208 src/ASF/sam/drivers/pmc/pmc.o
 .debug_aranges
                0x0000000000000550       0x30 src/ASF/sam/drivers/pmc/sleep.o
 .debug_aranges
                0x0000000000000580       0x60 src/ASF/sam/drivers/rstc/rstc.o
 .debug_aranges
                0x00000000000005e0       0x90 src/ASF/sam/drivers/spi/spi.o
 .debug_aranges
                0x0000000000000670       0xd0 src/ASF/sam/drivers/tc/tc.o
 .debug_aranges
                0x0000000000000740      0x108 src/ASF/sam/drivers/udp/udp_device.o
 .debug_aranges
                0x0000000000000848       0x68 src/sampling.o
 .debug_aranges
                0x00000000000008b0       0x38 src/spi_com.o
 .debug_aranges
                0x00000000000008e8       0x40 src/structure.o
 .debug_aranges
                0x0000000000000928       0xb0 src/timer.o
 .debug_aranges
                0x00000000000009d8       0x40 src/ui.o
 .debug_aranges
                0x0000000000000a18       0x90 src/adcLib.o
 .debug_aranges
                0x0000000000000aa8       0x20 src/ASF/common/boards/user_board/init.o
 .debug_aranges
                0x0000000000000ac8       0x28 src/ASF/common/utils/interrupt/interrupt_sam_nvic.o
 .debug_aranges
                0x0000000000000af0       0x28 src/ASF/sam/utils/cmsis/sam4s/source/templates/gcc/startup_sam4s.o
 .debug_aranges
                0x0000000000000b18       0x30 src/ASF/sam/utils/cmsis/sam4s/source/templates/system_sam4s.o
 .debug_aranges
                0x0000000000000b48       0x60 src/ASF/sam/utils/syscalls/gcc/syscalls.o
 .debug_aranges
                0x0000000000000ba8       0x20 src/command.o
 .debug_aranges
                0x0000000000000bc8       0xa0 src/main.o

.debug_ranges   0x0000000000000000      0xc90
 .debug_ranges  0x0000000000000000       0x30 src/ASF/common/services/clock/sam4s/sysclk.o
 .debug_ranges  0x0000000000000030       0x10 src/ASF/common/services/delay/sam/cycle_counter.o
 .debug_ranges  0x0000000000000040       0x40 src/ASF/common/services/usb/class/vendor/device/udi_tmc.o
 .debug_ranges  0x0000000000000080       0xf0 src/ASF/common/services/usb/udc/udc.o
 .debug_ranges  0x0000000000000170      0x1b0 src/ASF/sam/drivers/pio/pio.o
 .debug_ranges  0x0000000000000320       0x58 src/ASF/sam/drivers/pio/pio_handler.o
 .debug_ranges  0x0000000000000378      0x1f8 src/ASF/sam/drivers/pmc/pmc.o
 .debug_ranges  0x0000000000000570       0x50 src/ASF/sam/drivers/pmc/sleep.o
 .debug_ranges  0x00000000000005c0       0x50 src/ASF/sam/drivers/rstc/rstc.o
 .debug_ranges  0x0000000000000610       0x80 src/ASF/sam/drivers/spi/spi.o
 .debug_ranges  0x0000000000000690       0xc0 src/ASF/sam/drivers/tc/tc.o
 .debug_ranges  0x0000000000000750      0x160 src/ASF/sam/drivers/udp/udp_device.o
 .debug_ranges  0x00000000000008b0       0x58 src/sampling.o
 .debug_ranges  0x0000000000000908       0x28 src/spi_com.o
 .debug_ranges  0x0000000000000930       0x30 src/structure.o
 .debug_ranges  0x0000000000000960      0x100 src/timer.o
 .debug_ranges  0x0000000000000a60       0x30 src/ui.o
 .debug_ranges  0x0000000000000a90       0x80 src/adcLib.o
 .debug_ranges  0x0000000000000b10       0x10 src/ASF/common/boards/user_board/init.o
 .debug_ranges  0x0000000000000b20       0x18 src/ASF/common/utils/interrupt/interrupt_sam_nvic.o
 .debug_ranges  0x0000000000000b38       0x18 src/ASF/sam/utils/cmsis/sam4s/source/templates/gcc/startup_sam4s.o
 .debug_ranges  0x0000000000000b50       0x20 src/ASF/sam/utils/cmsis/sam4s/source/templates/system_sam4s.o
 .debug_ranges  0x0000000000000b70       0x50 src/ASF/sam/utils/syscalls/gcc/syscalls.o
 .debug_ranges  0x0000000000000bc0       0x10 src/command.o
 .debug_ranges  0x0000000000000bd0       0xc0 src/main.o

.debug_macro    0x0000000000000000    0x17ac2
 .debug_macro   0x0000000000000000      0x526 src/ASF/common/services/clock/sam4s/sysclk.o
 .debug_macro   0x0000000000000526      0x8ce src/ASF/common/services/clock/sam4s/sysclk.o
 .debug_macro   0x0000000000000df4      0x6d7 src/ASF/common/services/clock/sam4s/sysclk.o
 .debug_macro   0x00000000000014cb       0x52 src/ASF/common/services/clock/sam4s/sysclk.o
 .debug_macro   0x000000000000151d      0x16d src/ASF/common/services/clock/sam4s/sysclk.o
 .debug_macro   0x000000000000168a       0x76 src/ASF/common/services/clock/sam4s/sysclk.o
 .debug_macro   0x0000000000001700       0x16 src/ASF/common/services/clock/sam4s/sysclk.o
 .debug_macro   0x0000000000001716      0x6da src/ASF/common/services/clock/sam4s/sysclk.o
 .debug_macro   0x0000000000001df0       0x22 src/ASF/common/services/clock/sam4s/sysclk.o
 .debug_macro   0x0000000000001e12       0x87 src/ASF/common/services/clock/sam4s/sysclk.o
 .debug_macro   0x0000000000001e99       0x51 src/ASF/common/services/clock/sam4s/sysclk.o
 .debug_macro   0x0000000000001eea       0xef src/ASF/common/services/clock/sam4s/sysclk.o
 .debug_macro   0x0000000000001fd9       0x6a src/ASF/common/services/clock/sam4s/sysclk.o
 .debug_macro   0x0000000000002043      0x1df src/ASF/common/services/clock/sam4s/sysclk.o
 .debug_macro   0x0000000000002222       0x27 src/ASF/common/services/clock/sam4s/sysclk.o
 .debug_macro   0x0000000000002249       0x3b src/ASF/common/services/clock/sam4s/sysclk.o
 .debug_macro   0x0000000000002284       0x2d src/ASF/common/services/clock/sam4s/sysclk.o
 .debug_macro   0x00000000000022b1       0x26 src/ASF/common/services/clock/sam4s/sysclk.o
 .debug_macro   0x00000000000022d7      0xbbf src/ASF/common/services/clock/sam4s/sysclk.o
 .debug_macro   0x0000000000002e96      0x154 src/ASF/common/services/clock/sam4s/sysclk.o
 .debug_macro   0x0000000000002fea      0xaa5 src/ASF/common/services/clock/sam4s/sysclk.o
 .debug_macro   0x0000000000003a8f      0x1b4 src/ASF/common/services/clock/sam4s/sysclk.o
 .debug_macro   0x0000000000003c43       0xac src/ASF/common/services/clock/sam4s/sysclk.o
 .debug_macro   0x0000000000003cef      0x106 src/ASF/common/services/clock/sam4s/sysclk.o
 .debug_macro   0x0000000000003df5       0x1c src/ASF/common/services/clock/sam4s/sysclk.o
 .debug_macro   0x0000000000003e11      0x2c9 src/ASF/common/services/clock/sam4s/sysclk.o
 .debug_macro   0x00000000000040da       0xbe src/ASF/common/services/clock/sam4s/sysclk.o
 .debug_macro   0x0000000000004198     0x2807 src/ASF/common/services/clock/sam4s/sysclk.o
 .debug_macro   0x000000000000699f      0x76e src/ASF/common/services/clock/sam4s/sysclk.o
 .debug_macro   0x000000000000710d      0xa84 src/ASF/common/services/clock/sam4s/sysclk.o
 .debug_macro   0x0000000000007b91       0x9a src/ASF/common/services/clock/sam4s/sysclk.o
 .debug_macro   0x0000000000007c2b      0x3cf src/ASF/common/services/clock/sam4s/sysclk.o
 .debug_macro   0x0000000000007ffa       0x64 src/ASF/common/services/clock/sam4s/sysclk.o
 .debug_macro   0x000000000000805e      0x37c src/ASF/common/services/clock/sam4s/sysclk.o
 .debug_macro   0x00000000000083da      0x61b src/ASF/common/services/clock/sam4s/sysclk.o
 .debug_macro   0x00000000000089f5      0x686 src/ASF/common/services/clock/sam4s/sysclk.o
 .debug_macro   0x000000000000907b      0x595 src/ASF/common/services/clock/sam4s/sysclk.o
 .debug_macro   0x0000000000009610      0x344 src/ASF/common/services/clock/sam4s/sysclk.o
 .debug_macro   0x0000000000009954      0x283 src/ASF/common/services/clock/sam4s/sysclk.o
 .debug_macro   0x0000000000009bd7      0x2cd src/ASF/common/services/clock/sam4s/sysclk.o
 .debug_macro   0x0000000000009ea4      0x6cf src/ASF/common/services/clock/sam4s/sysclk.o
 .debug_macro   0x000000000000a573       0x76 src/ASF/common/services/clock/sam4s/sysclk.o
 .debug_macro   0x000000000000a5e9       0xb2 src/ASF/common/services/clock/sam4s/sysclk.o
 .debug_macro   0x000000000000a69b       0x88 src/ASF/common/services/clock/sam4s/sysclk.o
 .debug_macro   0x000000000000a723      0x100 src/ASF/common/services/clock/sam4s/sysclk.o
 .debug_macro   0x000000000000a823       0x88 src/ASF/common/services/clock/sam4s/sysclk.o
 .debug_macro   0x000000000000a8ab       0x88 src/ASF/common/services/clock/sam4s/sysclk.o
 .debug_macro   0x000000000000a933      0x2cd src/ASF/common/services/clock/sam4s/sysclk.o
 .debug_macro   0x000000000000ac00       0xb2 src/ASF/common/services/clock/sam4s/sysclk.o
 .debug_macro   0x000000000000acb2       0x52 src/ASF/common/services/clock/sam4s/sysclk.o
 .debug_macro   0x000000000000ad04       0xac src/ASF/common/services/clock/sam4s/sysclk.o
 .debug_macro   0x000000000000adb0       0x40 src/ASF/common/services/clock/sam4s/sysclk.o
 .debug_macro   0x000000000000adf0       0x64 src/ASF/common/services/clock/sam4s/sysclk.o
 .debug_macro   0x000000000000ae54       0x4c src/ASF/common/services/clock/sam4s/sysclk.o
 .debug_macro   0x000000000000aea0       0xa6 src/ASF/common/services/clock/sam4s/sysclk.o
 .debug_macro   0x000000000000af46       0x7c src/ASF/common/services/clock/sam4s/sysclk.o
 .debug_macro   0x000000000000afc2       0x16 src/ASF/common/services/clock/sam4s/sysclk.o
 .debug_macro   0x000000000000afd8       0x7c src/ASF/common/services/clock/sam4s/sysclk.o
 .debug_macro   0x000000000000b054       0x22 src/ASF/common/services/clock/sam4s/sysclk.o
 .debug_macro   0x000000000000b076      0x18b src/ASF/common/services/clock/sam4s/sysclk.o
 .debug_macro   0x000000000000b201      0x15b src/ASF/common/services/clock/sam4s/sysclk.o
 .debug_macro   0x000000000000b35c       0x1c src/ASF/common/services/clock/sam4s/sysclk.o
 .debug_macro   0x000000000000b378       0x2e src/ASF/common/services/clock/sam4s/sysclk.o
 .debug_macro   0x000000000000b3a6       0x22 src/ASF/common/services/clock/sam4s/sysclk.o
 .debug_macro   0x000000000000b3c8       0x1c src/ASF/common/services/clock/sam4s/sysclk.o
 .debug_macro   0x000000000000b3e4       0x52 src/ASF/common/services/clock/sam4s/sysclk.o
 .debug_macro   0x000000000000b436       0x10 src/ASF/common/services/clock/sam4s/sysclk.o
 .debug_macro   0x000000000000b446      0x1a8 src/ASF/common/services/clock/sam4s/sysclk.o
 .debug_macro   0x000000000000b5ee      0x4d1 src/ASF/common/services/clock/sam4s/sysclk.o
 .debug_macro   0x000000000000babf      0x107 src/ASF/common/services/clock/sam4s/sysclk.o
 .debug_macro   0x000000000000bbc6       0x58 src/ASF/common/services/clock/sam4s/sysclk.o
 .debug_macro   0x000000000000bc1e       0x35 src/ASF/common/services/clock/sam4s/sysclk.o
 .debug_macro   0x000000000000bc53       0x9c src/ASF/common/services/clock/sam4s/sysclk.o
 .debug_macro   0x000000000000bcef       0x16 src/ASF/common/services/clock/sam4s/sysclk.o
 .debug_macro   0x000000000000bd05       0x35 src/ASF/common/services/clock/sam4s/sysclk.o
 .debug_macro   0x000000000000bd3a      0x353 src/ASF/common/services/clock/sam4s/sysclk.o
 .debug_macro   0x000000000000c08d       0x10 src/ASF/common/services/clock/sam4s/sysclk.o
 .debug_macro   0x000000000000c09d       0x58 src/ASF/common/services/clock/sam4s/sysclk.o
 .debug_macro   0x000000000000c0f5       0x1f src/ASF/common/services/clock/sam4s/sysclk.o
 .debug_macro   0x000000000000c114       0x43 src/ASF/common/services/clock/sam4s/sysclk.o
 .debug_macro   0x000000000000c157       0x20 src/ASF/common/services/clock/sam4s/sysclk.o
 .debug_macro   0x000000000000c177      0x187 src/ASF/common/services/clock/sam4s/sysclk.o
 .debug_macro   0x000000000000c2fe       0x10 src/ASF/common/services/clock/sam4s/sysclk.o
 .debug_macro   0x000000000000c30e       0x1c src/ASF/common/services/clock/sam4s/sysclk.o
 .debug_macro   0x000000000000c32a       0x52 src/ASF/common/services/clock/sam4s/sysclk.o
 .debug_macro   0x000000000000c37c       0x40 src/ASF/common/services/clock/sam4s/sysclk.o
 .debug_macro   0x000000000000c3bc       0x10 src/ASF/common/services/clock/sam4s/sysclk.o
 .debug_macro   0x000000000000c3cc       0x40 src/ASF/common/services/clock/sam4s/sysclk.o
 .debug_macro   0x000000000000c40c       0xd7 src/ASF/common/services/clock/sam4s/sysclk.o
 .debug_macro   0x000000000000c4e3       0x16 src/ASF/common/services/clock/sam4s/sysclk.o
 .debug_macro   0x000000000000c4f9      0x18b src/ASF/common/services/clock/sam4s/sysclk.o
 .debug_macro   0x000000000000c684       0x22 src/ASF/common/services/clock/sam4s/sysclk.o
 .debug_macro   0x000000000000c6a6       0x16 src/ASF/common/services/clock/sam4s/sysclk.o
 .debug_macro   0x000000000000c6bc       0x16 src/ASF/common/services/clock/sam4s/sysclk.o
 .debug_macro   0x000000000000c6d2       0x29 src/ASF/common/services/clock/sam4s/sysclk.o
 .debug_macro   0x000000000000c6fb       0x73 src/ASF/common/services/clock/sam4s/sysclk.o
 .debug_macro   0x000000000000c76e       0x3e src/ASF/common/services/clock/sam4s/sysclk.o
 .debug_macro   0x000000000000c7ac      0x3ca src/ASF/common/services/clock/sam4s/sysclk.o
 .debug_macro   0x000000000000cb76      0x2bd src/ASF/common/services/clock/sam4s/sysclk.o
 .debug_macro   0x000000000000ce33       0x22 src/ASF/common/services/clock/sam4s/sysclk.o
 .debug_macro   0x000000000000ce55       0x58 src/ASF/common/services/clock/sam4s/sysclk.o
 .debug_macro   0x000000000000cead       0x76 src/ASF/common/services/clock/sam4s/sysclk.o
 .debug_macro   0x000000000000cf23       0x46 src/ASF/common/services/clock/sam4s/sysclk.o
 .debug_macro   0x000000000000cf69       0x90 src/ASF/common/services/clock/sam4s/sysclk.o
 .debug_macro   0x000000000000cff9      0x4bb src/ASF/common/services/delay/sam/cycle_counter.o
 .debug_macro   0x000000000000d4b4       0x22 src/ASF/common/services/delay/sam/cycle_counter.o
 .debug_macro   0x000000000000d4d6      0x4d2 src/ASF/common/services/sleepmgr/sam/sleepmgr.o
 .debug_macro   0x000000000000d9a8       0x10 src/ASF/common/services/sleepmgr/sam/sleepmgr.o
 .debug_macro   0x000000000000d9b8       0x34 src/ASF/common/services/sleepmgr/sam/sleepmgr.o
 .debug_macro   0x000000000000d9ec      0x72c src/ASF/common/services/usb/class/vendor/device/udi_tmc.o
 .debug_macro   0x000000000000e118       0xe9 src/ASF/common/services/usb/class/vendor/device/udi_tmc.o
 .debug_macro   0x000000000000e201       0x52 src/ASF/common/services/usb/class/vendor/device/udi_tmc.o
 .debug_macro   0x000000000000e253       0x1c src/ASF/common/services/usb/class/vendor/device/udi_tmc.o
 .debug_macro   0x000000000000e26f      0x241 src/ASF/common/services/usb/class/vendor/device/udi_tmc.o
 .debug_macro   0x000000000000e4b0      0x162 src/ASF/common/services/usb/class/vendor/device/udi_tmc.o
 .debug_macro   0x000000000000e612       0x16 src/ASF/common/services/usb/class/vendor/device/udi_tmc.o
 .debug_macro   0x000000000000e628       0x1c src/ASF/common/services/usb/class/vendor/device/udi_tmc.o
 .debug_macro   0x000000000000e644       0x4d src/ASF/common/services/usb/class/vendor/device/udi_tmc.o
 .debug_macro   0x000000000000e691      0x2c3 src/ASF/common/services/usb/class/vendor/device/udi_tmc.o
 .debug_macro   0x000000000000e954       0x28 src/ASF/common/services/usb/class/vendor/device/udi_tmc.o
 .debug_macro   0x000000000000e97c       0x22 src/ASF/common/services/usb/class/vendor/device/udi_tmc.o
 .debug_macro   0x000000000000e99e       0x94 src/ASF/common/services/usb/class/vendor/device/udi_tmc.o
 .debug_macro   0x000000000000ea32       0x40 src/ASF/common/services/usb/class/vendor/device/udi_tmc.o
 .debug_macro   0x000000000000ea72       0x88 src/ASF/common/services/usb/class/vendor/device/udi_tmc.o
 .debug_macro   0x000000000000eafa       0x3b src/ASF/common/services/usb/class/vendor/device/udi_tmc.o
 .debug_macro   0x000000000000eb35       0x16 src/ASF/common/services/usb/class/vendor/device/udi_tmc.o
 .debug_macro   0x000000000000eb4b       0x34 src/ASF/common/services/usb/class/vendor/device/udi_tmc.o
 .debug_macro   0x000000000000eb7f      0x1e1 src/ASF/common/services/usb/class/vendor/device/udi_tmc.o
 .debug_macro   0x000000000000ed60       0x40 src/ASF/common/services/usb/class/vendor/device/udi_tmc.o
 .debug_macro   0x000000000000eda0      0x1a2 src/ASF/common/services/usb/class/vendor/device/udi_tmc.o
 .debug_macro   0x000000000000ef42       0x28 src/ASF/common/services/usb/class/vendor/device/udi_tmc.o
 .debug_macro   0x000000000000ef6a       0x16 src/ASF/common/services/usb/class/vendor/device/udi_tmc.o
 .debug_macro   0x000000000000ef80       0x88 src/ASF/common/services/usb/class/vendor/device/udi_tmc.o
 .debug_macro   0x000000000000f008       0x10 src/ASF/common/services/usb/class/vendor/device/udi_tmc.o
 .debug_macro   0x000000000000f018      0x732 src/ASF/common/services/usb/class/vendor/device/udi_tmc_desc.o
 .debug_macro   0x000000000000f74a      0x744 src/ASF/common/services/usb/udc/udc.o
 .debug_macro   0x000000000000fe8e      0x4c1 src/ASF/sam/drivers/pio/pio.o
 .debug_macro   0x000000000001034f       0x8e src/ASF/sam/drivers/pio/pio.o
 .debug_macro   0x00000000000103dd      0x4cb src/ASF/sam/drivers/pio/pio_handler.o
 .debug_macro   0x00000000000108a8      0x4c1 src/ASF/sam/drivers/pmc/pmc.o
 .debug_macro   0x0000000000010d69       0x52 src/ASF/sam/drivers/pmc/pmc.o
 .debug_macro   0x0000000000010dbb      0x4e1 src/ASF/sam/drivers/pmc/sleep.o
 .debug_macro   0x000000000001129c      0x4c2 src/ASF/sam/drivers/rstc/rstc.o
 .debug_macro   0x000000000001175e       0x35 src/ASF/sam/drivers/rstc/rstc.o
 .debug_macro   0x0000000000011793      0x52f src/ASF/sam/drivers/spi/spi.o
 .debug_macro   0x0000000000011cc2       0x10 src/ASF/sam/drivers/spi/spi.o
 .debug_macro   0x0000000000011cd2      0x4c1 src/ASF/sam/drivers/tc/tc.o
 .debug_macro   0x0000000000012193       0x52 src/ASF/sam/drivers/tc/tc.o
 .debug_macro   0x00000000000121e5       0x8d src/ASF/sam/drivers/tc/tc.o
 .debug_macro   0x0000000000012272       0x16 src/ASF/sam/drivers/tc/tc.o
 .debug_macro   0x0000000000012288       0x57 src/ASF/sam/drivers/tc/tc.o
 .debug_macro   0x00000000000122df       0x1c src/ASF/sam/drivers/tc/tc.o
 .debug_macro   0x00000000000122fb      0x757 src/ASF/sam/drivers/udp/udp_device.o
 .debug_macro   0x0000000000012a52      0x3f8 src/ASF/sam/drivers/udp/udp_device.o
 .debug_macro   0x0000000000012e4a      0x730 src/sampling.o
 .debug_macro   0x000000000001357a       0xef src/sampling.o
 .debug_macro   0x0000000000013669       0x46 src/sampling.o
 .debug_macro   0x00000000000136af       0x22 src/sampling.o
 .debug_macro   0x00000000000136d1      0x736 src/spi_com.o
 .debug_macro   0x0000000000013e07       0x2e src/spi_com.o
 .debug_macro   0x0000000000013e35      0x72b src/structure.o
 .debug_macro   0x0000000000014560       0x97 src/structure.o
 .debug_macro   0x00000000000145f7       0xf6 src/structure.o
 .debug_macro   0x00000000000146ed       0x2d src/structure.o
 .debug_macro   0x000000000001471a      0x737 src/timer.o
 .debug_macro   0x0000000000014e51      0x72f src/ui.o
 .debug_macro   0x0000000000015580      0x73a src/adcLib.o
 .debug_macro   0x0000000000015cba      0x762 src/ASF/common/boards/user_board/init.o
 .debug_macro   0x000000000001641c      0x4ac src/ASF/common/utils/interrupt/interrupt_sam_nvic.o
 .debug_macro   0x00000000000168c8      0x2ad src/ASF/sam/utils/cmsis/sam4s/source/templates/gcc/startup_sam4s.o
 .debug_macro   0x0000000000016b75      0x2b5 src/ASF/sam/utils/cmsis/sam4s/source/templates/system_sam4s.o
 .debug_macro   0x0000000000016e2a      0x1d6 src/ASF/sam/utils/syscalls/gcc/syscalls.o
 .debug_macro   0x0000000000017000       0x4c src/ASF/sam/utils/syscalls/gcc/syscalls.o
 .debug_macro   0x000000000001704c       0x16 src/ASF/sam/utils/syscalls/gcc/syscalls.o
 .debug_macro   0x0000000000017062       0x10 src/ASF/sam/utils/syscalls/gcc/syscalls.o
 .debug_macro   0x0000000000017072       0x10 src/ASF/sam/utils/syscalls/gcc/syscalls.o
 .debug_macro   0x0000000000017082       0x35 src/ASF/sam/utils/syscalls/gcc/syscalls.o
 .debug_macro   0x00000000000170b7      0x122 src/ASF/sam/utils/syscalls/gcc/syscalls.o
 .debug_macro   0x00000000000171d9      0x1b9 src/command.o
 .debug_macro   0x0000000000017392      0x730 src/main.o

.debug_line     0x0000000000000000    0x14f94
 .debug_line    0x0000000000000000      0xaae src/ASF/common/services/clock/sam4s/sysclk.o
 .debug_line    0x0000000000000aae      0x925 src/ASF/common/services/delay/sam/cycle_counter.o
 .debug_line    0x00000000000013d3      0x987 src/ASF/common/services/sleepmgr/sam/sleepmgr.o
 .debug_line    0x0000000000001d5a      0xf2e src/ASF/common/services/usb/class/vendor/device/udi_tmc.o
 .debug_line    0x0000000000002c88      0xe63 src/ASF/common/services/usb/class/vendor/device/udi_tmc_desc.o
 .debug_line    0x0000000000003aeb     0x109a src/ASF/common/services/usb/udc/udc.o
 .debug_line    0x0000000000004b85      0xdce src/ASF/sam/drivers/pio/pio.o
 .debug_line    0x0000000000005953      0x9d8 src/ASF/sam/drivers/pio/pio_handler.o
 .debug_line    0x000000000000632b      0xeb3 src/ASF/sam/drivers/pmc/pmc.o
 .debug_line    0x00000000000071de      0xaa5 src/ASF/sam/drivers/pmc/sleep.o
 .debug_line    0x0000000000007c83      0x9a3 src/ASF/sam/drivers/rstc/rstc.o
 .debug_line    0x0000000000008626      0xb70 src/ASF/sam/drivers/spi/spi.o
 .debug_line    0x0000000000009196      0xabd src/ASF/sam/drivers/tc/tc.o
 .debug_line    0x0000000000009c53     0x185d src/ASF/sam/drivers/udp/udp_device.o
 .debug_line    0x000000000000b4b0      0xf4e src/sampling.o
 .debug_line    0x000000000000c3fe      0xef8 src/spi_com.o
 .debug_line    0x000000000000d2f6      0xf1d src/structure.o
 .debug_line    0x000000000000e213     0x11bb src/timer.o
 .debug_line    0x000000000000f3ce      0xeb7 src/ui.o
 .debug_line    0x0000000000010285     0x1007 src/adcLib.o
 .debug_line    0x000000000001128c      0xeb8 src/ASF/common/boards/user_board/init.o
 .debug_line    0x0000000000012144      0x938 src/ASF/common/utils/interrupt/interrupt_sam_nvic.o
 .debug_line    0x0000000000012a7c      0x6fa src/ASF/sam/utils/cmsis/sam4s/source/templates/gcc/startup_sam4s.o
 .debug_line    0x0000000000013176      0x723 src/ASF/sam/utils/cmsis/sam4s/source/templates/system_sam4s.o
 .debug_line    0x0000000000013899      0x367 src/ASF/sam/utils/syscalls/gcc/syscalls.o
 .debug_line    0x0000000000013c00      0x2d9 src/command.o
 .debug_line    0x0000000000013ed9     0x10bb src/main.o

.debug_str      0x0000000000000000    0x501d6
 .debug_str     0x0000000000000000    0x443bb src/ASF/common/services/clock/sam4s/sysclk.o
                                      0x44772 (size before relaxing)
 .debug_str     0x00000000000443bb      0x1a9 src/ASF/common/services/delay/sam/cycle_counter.o
                                      0x431cf (size before relaxing)
 .debug_str     0x0000000000044564      0x196 src/ASF/common/services/sleepmgr/sam/sleepmgr.o
                                      0x431e7 (size before relaxing)
 .debug_str     0x00000000000446fa     0x4890 src/ASF/common/services/usb/class/vendor/device/udi_tmc.o
                                      0x48f0b (size before relaxing)
 .debug_str     0x0000000000048f8a      0x2fd src/ASF/common/services/usb/class/vendor/device/udi_tmc_desc.o
                                      0x48a87 (size before relaxing)
 .debug_str     0x0000000000049287      0x7ce src/ASF/common/services/usb/udc/udc.o
                                      0x49132 (size before relaxing)
 .debug_str     0x0000000000049a55      0x890 src/ASF/sam/drivers/pio/pio.o
                                      0x43c6f (size before relaxing)
 .debug_str     0x000000000004a2e5      0x3ac src/ASF/sam/drivers/pio/pio_handler.o
                                      0x43b3e (size before relaxing)
 .debug_str     0x000000000004a691      0x5ec src/ASF/sam/drivers/pmc/pmc.o
                                      0x43acd (size before relaxing)
 .debug_str     0x000000000004ac7d      0x1b5 src/ASF/sam/drivers/pmc/sleep.o
                                      0x43ff8 (size before relaxing)
 .debug_str     0x000000000004ae32      0x140 src/ASF/sam/drivers/rstc/rstc.o
                                      0x4327b (size before relaxing)
 .debug_str     0x000000000004af72      0x403 src/ASF/sam/drivers/spi/spi.o
                                      0x447da (size before relaxing)
 .debug_str     0x000000000004b375      0x333 src/ASF/sam/drivers/tc/tc.o
                                      0x433ba (size before relaxing)
 .debug_str     0x000000000004b6a8     0x3316 src/ASF/sam/drivers/udp/udp_device.o
                                      0x4c046 (size before relaxing)
 .debug_str     0x000000000004e9be      0x183 src/sampling.o
                                      0x48926 (size before relaxing)
 .debug_str     0x000000000004eb41       0xcf src/spi_com.o
                                      0x48b53 (size before relaxing)
 .debug_str     0x000000000004ec10       0x56 src/structure.o
                                      0x48802 (size before relaxing)
 .debug_str     0x000000000004ec66      0x1dd src/timer.o
                                      0x48ebf (size before relaxing)
 .debug_str     0x000000000004ee43       0x6d src/ui.o
                                      0x487fd (size before relaxing)
 .debug_str     0x000000000004eeb0       0xa1 src/adcLib.o
                                      0x48ea8 (size before relaxing)
 .debug_str     0x000000000004ef51      0x2d1 src/ASF/common/boards/user_board/init.o
                                      0x48da6 (size before relaxing)
 .debug_str     0x000000000004f222       0x37 src/ASF/common/utils/interrupt/interrupt_sam_nvic.o
                                      0x430ab (size before relaxing)
 .debug_str     0x000000000004f259      0x417 src/ASF/sam/utils/cmsis/sam4s/source/templates/gcc/startup_sam4s.o
                                      0x330c1 (size before relaxing)
 .debug_str     0x000000000004f670       0x95 src/ASF/sam/utils/cmsis/sam4s/source/templates/system_sam4s.o
                                      0x32e6c (size before relaxing)
 .debug_str     0x000000000004f705      0x762 src/ASF/sam/utils/syscalls/gcc/syscalls.o
                                       0x7403 (size before relaxing)
 .debug_str     0x000000000004fe67       0x8e src/command.o
                                       0x6e2b (size before relaxing)
 .debug_str     0x000000000004fef5      0x2e1 src/main.o
                                      0x49087 (size before relaxing)

.debug_frame    0x0000000000000000     0x2f10
 .debug_frame   0x0000000000000000       0x88 src/ASF/common/services/clock/sam4s/sysclk.o
 .debug_frame   0x0000000000000088       0x20 src/ASF/common/services/delay/sam/cycle_counter.o
 .debug_frame   0x00000000000000a8       0xc4 src/ASF/common/services/usb/class/vendor/device/udi_tmc.o
 .debug_frame   0x000000000000016c      0x13c src/ASF/common/services/usb/udc/udc.o
 .debug_frame   0x00000000000002a8      0x384 src/ASF/sam/drivers/pio/pio.o
 .debug_frame   0x000000000000062c       0xdc src/ASF/sam/drivers/pio/pio_handler.o
 .debug_frame   0x0000000000000708      0x408 src/ASF/sam/drivers/pmc/pmc.o
 .debug_frame   0x0000000000000b10       0x68 src/ASF/sam/drivers/pmc/sleep.o
 .debug_frame   0x0000000000000b78       0xa0 src/ASF/sam/drivers/rstc/rstc.o
 .debug_frame   0x0000000000000c18      0x140 src/ASF/sam/drivers/spi/spi.o
 .debug_frame   0x0000000000000d58      0x1a8 src/ASF/sam/drivers/tc/tc.o
 .debug_frame   0x0000000000000f00      0x380 src/ASF/sam/drivers/udp/udp_device.o
 .debug_frame   0x0000000000001280       0xf0 src/sampling.o
 .debug_frame   0x0000000000001370       0x74 src/spi_com.o
 .debug_frame   0x00000000000013e4       0x9c src/structure.o
 .debug_frame   0x0000000000001480      0x244 src/timer.o
 .debug_frame   0x00000000000016c4       0x60 src/ui.o
 .debug_frame   0x0000000000001724      0x1c8 src/adcLib.o
 .debug_frame   0x00000000000018ec       0x28 src/ASF/common/boards/user_board/init.o
 .debug_frame   0x0000000000001914       0x30 src/ASF/common/utils/interrupt/interrupt_sam_nvic.o
 .debug_frame   0x0000000000001944       0x38 src/ASF/sam/utils/cmsis/sam4s/source/templates/gcc/startup_sam4s.o
 .debug_frame   0x000000000000197c       0x40 src/ASF/sam/utils/cmsis/sam4s/source/templates/system_sam4s.o
 .debug_frame   0x00000000000019bc       0xa0 src/ASF/sam/utils/syscalls/gcc/syscalls.o
 .debug_frame   0x0000000000001a5c       0x28 src/command.o
 .debug_frame   0x0000000000001a84      0x1a0 src/main.o
 .debug_frame   0x0000000000001c24       0x34 /Users/richard/Desktop/DAQ/gcc/bin/../lib/gcc/arm-none-eabi/6.3.1/../../../../arm-none-eabi/lib/thumb/v7e-m/libm.a(lib_a-s_ceil.o)
 .debug_frame   0x0000000000001c58       0x30 /Users/richard/Desktop/DAQ/gcc/bin/../lib/gcc/arm-none-eabi/6.3.1/../../../../arm-none-eabi/lib/thumb/v7e-m/libm.a(lib_a-s_lround.o)
 .debug_frame   0x0000000000001c88       0xac /Users/richard/Desktop/DAQ/gcc/bin/../lib/gcc/arm-none-eabi/6.3.1/thumb/v7e-m/libgcc.a(_arm_addsubdf3.o)
 .debug_frame   0x0000000000001d34       0x50 /Users/richard/Desktop/DAQ/gcc/bin/../lib/gcc/arm-none-eabi/6.3.1/thumb/v7e-m/libgcc.a(_arm_muldivdf3.o)
 .debug_frame   0x0000000000001d84       0xc4 /Users/richard/Desktop/DAQ/gcc/bin/../lib/gcc/arm-none-eabi/6.3.1/thumb/v7e-m/libgcc.a(_arm_cmpdf2.o)
 .debug_frame   0x0000000000001e48       0x24 /Users/richard/Desktop/DAQ/gcc/bin/../lib/gcc/arm-none-eabi/6.3.1/thumb/v7e-m/libgcc.a(_arm_fixdfsi.o)
 .debug_frame   0x0000000000001e6c       0x24 /Users/richard/Desktop/DAQ/gcc/bin/../lib/gcc/arm-none-eabi/6.3.1/thumb/v7e-m/libgcc.a(_arm_fixunsdfsi.o)
 .debug_frame   0x0000000000001e90       0x24 /Users/richard/Desktop/DAQ/gcc/bin/../lib/gcc/arm-none-eabi/6.3.1/thumb/v7e-m/libgcc.a(_arm_truncdfsf2.o)
 .debug_frame   0x0000000000001eb4       0x4c /Users/richard/Desktop/DAQ/gcc/bin/../lib/gcc/arm-none-eabi/6.3.1/thumb/v7e-m/libgcc.a(_arm_addsubsf3.o)
 .debug_frame   0x0000000000001f00       0x38 /Users/richard/Desktop/DAQ/gcc/bin/../lib/gcc/arm-none-eabi/6.3.1/thumb/v7e-m/libgcc.a(_arm_muldivsf3.o)
 .debug_frame   0x0000000000001f38       0xc8 /Users/richard/Desktop/DAQ/gcc/bin/../lib/gcc/arm-none-eabi/6.3.1/thumb/v7e-m/libgcc.a(_arm_cmpsf2.o)
 .debug_frame   0x0000000000002000       0x2c /Users/richard/Desktop/DAQ/gcc/bin/../lib/gcc/arm-none-eabi/6.3.1/thumb/v7e-m/libgcc.a(_aeabi_uldivmod.o)
 .debug_frame   0x000000000000202c       0x34 /Users/richard/Desktop/DAQ/gcc/bin/../lib/gcc/arm-none-eabi/6.3.1/thumb/v7e-m/libgcc.a(_udivmoddi4.o)
 .debug_frame   0x0000000000002060       0x20 /Users/richard/Desktop/DAQ/gcc/bin/../lib/gcc/arm-none-eabi/6.3.1/../../../../arm-none-eabi/lib/thumb/v7e-m/libc.a(lib_a-atof.o)
 .debug_frame   0x0000000000002080       0x30 /Users/richard/Desktop/DAQ/gcc/bin/../lib/gcc/arm-none-eabi/6.3.1/../../../../arm-none-eabi/lib/thumb/v7e-m/libc.a(lib_a-atoi.o)
 .debug_frame   0x00000000000020b0       0x2c /Users/richard/Desktop/DAQ/gcc/bin/../lib/gcc/arm-none-eabi/6.3.1/../../../../arm-none-eabi/lib/thumb/v7e-m/libc.a(lib_a-init.o)
 .debug_frame   0x00000000000020dc       0x30 /Users/richard/Desktop/DAQ/gcc/bin/../lib/gcc/arm-none-eabi/6.3.1/../../../../arm-none-eabi/lib/thumb/v7e-m/libc.a(lib_a-malloc.o)
 .debug_frame   0x000000000000210c       0x58 /Users/richard/Desktop/DAQ/gcc/bin/../lib/gcc/arm-none-eabi/6.3.1/../../../../arm-none-eabi/lib/thumb/v7e-m/libc.a(lib_a-mallocr.o)
 .debug_frame   0x0000000000002164       0x34 /Users/richard/Desktop/DAQ/gcc/bin/../lib/gcc/arm-none-eabi/6.3.1/../../../../arm-none-eabi/lib/thumb/v7e-m/libc.a(lib_a-memset.o)
 .debug_frame   0x0000000000002198       0x30 /Users/richard/Desktop/DAQ/gcc/bin/../lib/gcc/arm-none-eabi/6.3.1/../../../../arm-none-eabi/lib/thumb/v7e-m/libc.a(lib_a-mlock.o)
 .debug_frame   0x00000000000021c8       0x2c /Users/richard/Desktop/DAQ/gcc/bin/../lib/gcc/arm-none-eabi/6.3.1/../../../../arm-none-eabi/lib/thumb/v7e-m/libc.a(lib_a-sbrkr.o)
 .debug_frame   0x00000000000021f4       0xd0 /Users/richard/Desktop/DAQ/gcc/bin/../lib/gcc/arm-none-eabi/6.3.1/../../../../arm-none-eabi/lib/thumb/v7e-m/libc.a(lib_a-snprintf.o)
 .debug_frame   0x00000000000022c4       0x68 /Users/richard/Desktop/DAQ/gcc/bin/../lib/gcc/arm-none-eabi/6.3.1/../../../../arm-none-eabi/lib/thumb/v7e-m/libc.a(lib_a-strcmp.o)
 .debug_frame   0x000000000000232c      0x108 /Users/richard/Desktop/DAQ/gcc/bin/../lib/gcc/arm-none-eabi/6.3.1/../../../../arm-none-eabi/lib/thumb/v7e-m/libc.a(lib_a-strtod.o)
 .debug_frame   0x0000000000002434       0x20 /Users/richard/Desktop/DAQ/gcc/bin/../lib/gcc/arm-none-eabi/6.3.1/../../../../arm-none-eabi/lib/thumb/v7e-m/libc.a(lib_a-strtok.o)
 .debug_frame   0x0000000000002454       0x48 /Users/richard/Desktop/DAQ/gcc/bin/../lib/gcc/arm-none-eabi/6.3.1/../../../../arm-none-eabi/lib/thumb/v7e-m/libc.a(lib_a-strtok_r.o)
 .debug_frame   0x000000000000249c       0x98 /Users/richard/Desktop/DAQ/gcc/bin/../lib/gcc/arm-none-eabi/6.3.1/../../../../arm-none-eabi/lib/thumb/v7e-m/libc.a(lib_a-strtol.o)
 .debug_frame   0x0000000000002534       0x98 /Users/richard/Desktop/DAQ/gcc/bin/../lib/gcc/arm-none-eabi/6.3.1/../../../../arm-none-eabi/lib/thumb/v7e-m/libc.a(lib_a-strtoul.o)
 .debug_frame   0x00000000000025cc       0x40 /Users/richard/Desktop/DAQ/gcc/bin/../lib/gcc/arm-none-eabi/6.3.1/../../../../arm-none-eabi/lib/thumb/v7e-m/libc.a(lib_a-svfprintf.o)
 .debug_frame   0x000000000000260c       0x5c /Users/richard/Desktop/DAQ/gcc/bin/../lib/gcc/arm-none-eabi/6.3.1/../../../../arm-none-eabi/lib/thumb/v7e-m/libc.a(lib_a-__call_atexit.o)
 .debug_frame   0x0000000000002668       0x20 /Users/richard/Desktop/DAQ/gcc/bin/../lib/gcc/arm-none-eabi/6.3.1/../../../../arm-none-eabi/lib/thumb/v7e-m/libc.a(lib_a-atexit.o)
 .debug_frame   0x0000000000002688       0x88 /Users/richard/Desktop/DAQ/gcc/bin/../lib/gcc/arm-none-eabi/6.3.1/../../../../arm-none-eabi/lib/thumb/v7e-m/libc.a(lib_a-dtoa.o)
 .debug_frame   0x0000000000002710       0x34 /Users/richard/Desktop/DAQ/gcc/bin/../lib/gcc/arm-none-eabi/6.3.1/../../../../arm-none-eabi/lib/thumb/v7e-m/libc.a(lib_a-fini.o)
 .debug_frame   0x0000000000002744       0x74 /Users/richard/Desktop/DAQ/gcc/bin/../lib/gcc/arm-none-eabi/6.3.1/../../../../arm-none-eabi/lib/thumb/v7e-m/libc.a(lib_a-freer.o)
 .debug_frame   0x00000000000027b8       0x70 /Users/richard/Desktop/DAQ/gcc/bin/../lib/gcc/arm-none-eabi/6.3.1/../../../../arm-none-eabi/lib/thumb/v7e-m/libc.a(lib_a-gdtoa-gethex.o)
 .debug_frame   0x0000000000002828       0x70 /Users/richard/Desktop/DAQ/gcc/bin/../lib/gcc/arm-none-eabi/6.3.1/../../../../arm-none-eabi/lib/thumb/v7e-m/libc.a(lib_a-gdtoa-hexnan.o)
 .debug_frame   0x0000000000002898       0x6c /Users/richard/Desktop/DAQ/gcc/bin/../lib/gcc/arm-none-eabi/6.3.1/../../../../arm-none-eabi/lib/thumb/v7e-m/libc.a(lib_a-locale.o)
 .debug_frame   0x0000000000002904       0x40 /Users/richard/Desktop/DAQ/gcc/bin/../lib/gcc/arm-none-eabi/6.3.1/../../../../arm-none-eabi/lib/thumb/v7e-m/libc.a(lib_a-localeconv.o)
 .debug_frame   0x0000000000002944       0xb0 /Users/richard/Desktop/DAQ/gcc/bin/../lib/gcc/arm-none-eabi/6.3.1/../../../../arm-none-eabi/lib/thumb/v7e-m/libc.a(lib_a-lock.o)
 .debug_frame   0x00000000000029f4       0x4c /Users/richard/Desktop/DAQ/gcc/bin/../lib/gcc/arm-none-eabi/6.3.1/../../../../arm-none-eabi/lib/thumb/v7e-m/libc.a(lib_a-mbtowc_r.o)
 .debug_frame   0x0000000000002a40      0x25c /Users/richard/Desktop/DAQ/gcc/bin/../lib/gcc/arm-none-eabi/6.3.1/../../../../arm-none-eabi/lib/thumb/v7e-m/libc.a(lib_a-mprec.o)
 .debug_frame   0x0000000000002c9c       0x58 /Users/richard/Desktop/DAQ/gcc/bin/../lib/gcc/arm-none-eabi/6.3.1/../../../../arm-none-eabi/lib/thumb/v7e-m/libc.a(lib_a-reent.o)
 .debug_frame   0x0000000000002cf4       0x54 /Users/richard/Desktop/DAQ/gcc/bin/../lib/gcc/arm-none-eabi/6.3.1/../../../../arm-none-eabi/lib/thumb/v7e-m/libc.a(lib_a-strncmp.o)
 .debug_frame   0x0000000000002d48       0x78 /Users/richard/Desktop/DAQ/gcc/bin/../lib/gcc/arm-none-eabi/6.3.1/../../../../arm-none-eabi/lib/thumb/v7e-m/libc.a(lib_a-svfiprintf.o)
 .debug_frame   0x0000000000002dc0       0x3c /Users/richard/Desktop/DAQ/gcc/bin/../lib/gcc/arm-none-eabi/6.3.1/../../../../arm-none-eabi/lib/thumb/v7e-m/libc.a(lib_a-wctomb_r.o)
 .debug_frame   0x0000000000002dfc       0x34 /Users/richard/Desktop/DAQ/gcc/bin/../lib/gcc/arm-none-eabi/6.3.1/../../../../arm-none-eabi/lib/thumb/v7e-m/libc.a(lib_a-__atexit.o)
 .debug_frame   0x0000000000002e30       0x28 /Users/richard/Desktop/DAQ/gcc/bin/../lib/gcc/arm-none-eabi/6.3.1/../../../../arm-none-eabi/lib/thumb/v7e-m/libc.a(lib_a-callocr.o)
 .debug_frame   0x0000000000002e58       0x30 /Users/richard/Desktop/DAQ/gcc/bin/../lib/gcc/arm-none-eabi/6.3.1/../../../../arm-none-eabi/lib/thumb/v7e-m/libc.a(lib_a-memmove.o)
 .debug_frame   0x0000000000002e88       0x68 /Users/richard/Desktop/DAQ/gcc/bin/../lib/gcc/arm-none-eabi/6.3.1/../../../../arm-none-eabi/lib/thumb/v7e-m/libc.a(lib_a-reallocr.o)
 .debug_frame   0x0000000000002ef0       0x20 /Users/richard/Desktop/DAQ/gcc/bin/../lib/gcc/arm-none-eabi/6.3.1/thumb/v7e-m/libgcc.a(_arm_unorddf2.o)

Cross Reference Table

Symbol                                            File
ACC_Handler                                       src/ASF/sam/utils/cmsis/sam4s/source/templates/gcc/startup_sam4s.o
ADC_Handler                                       src/ASF/sam/utils/cmsis/sam4s/source/templates/gcc/startup_sam4s.o
BusFault_Handler                                  src/ASF/sam/utils/cmsis/sam4s/source/templates/gcc/startup_sam4s.o
CRCCU_Handler                                     src/ASF/sam/utils/cmsis/sam4s/source/templates/gcc/startup_sam4s.o
DebugMon_Handler                                  src/ASF/sam/utils/cmsis/sam4s/source/templates/gcc/startup_sam4s.o
Dummy_Handler                                     src/ASF/sam/utils/cmsis/sam4s/source/templates/gcc/startup_sam4s.o
EFC0_Handler                                      src/ASF/sam/utils/cmsis/sam4s/source/templates/gcc/startup_sam4s.o
HardFault_Handler                                 src/ASF/sam/utils/cmsis/sam4s/source/templates/gcc/startup_sam4s.o
MemManage_Handler                                 src/ASF/sam/utils/cmsis/sam4s/source/templates/gcc/startup_sam4s.o
NMI_Handler                                       src/ASF/sam/utils/cmsis/sam4s/source/templates/gcc/startup_sam4s.o
PIOA_Handler                                      src/ASF/sam/drivers/pio/pio_handler.o
PIOB_Handler                                      src/ASF/sam/drivers/pio/pio_handler.o
PMC_Handler                                       src/ASF/sam/utils/cmsis/sam4s/source/templates/gcc/startup_sam4s.o
PWM_Handler                                       src/ASF/sam/utils/cmsis/sam4s/source/templates/gcc/startup_sam4s.o
PendSV_Handler                                    src/ASF/sam/utils/cmsis/sam4s/source/templates/gcc/startup_sam4s.o
RSTC_Handler                                      src/ASF/sam/utils/cmsis/sam4s/source/templates/gcc/startup_sam4s.o
RTC_Handler                                       src/ASF/sam/utils/cmsis/sam4s/source/templates/gcc/startup_sam4s.o
RTT_Handler                                       src/ASF/sam/utils/cmsis/sam4s/source/templates/gcc/startup_sam4s.o
Reset_Handler                                     src/ASF/sam/utils/cmsis/sam4s/source/templates/gcc/startup_sam4s.o
SPI_Handler                                       src/ASF/sam/utils/cmsis/sam4s/source/templates/gcc/startup_sam4s.o
SSC_Handler                                       src/ASF/sam/utils/cmsis/sam4s/source/templates/gcc/startup_sam4s.o
SUPC_Handler                                      src/ASF/sam/utils/cmsis/sam4s/source/templates/gcc/startup_sam4s.o
SVC_Handler                                       src/ASF/sam/utils/cmsis/sam4s/source/templates/gcc/startup_sam4s.o
SysTick_Handler                                   src/ASF/sam/utils/cmsis/sam4s/source/templates/gcc/startup_sam4s.o
SystemCoreClock                                   src/ASF/sam/utils/cmsis/sam4s/source/templates/system_sam4s.o
SystemCoreClockUpdate                             src/ASF/sam/utils/cmsis/sam4s/source/templates/system_sam4s.o
                                                  src/ASF/common/services/clock/sam4s/sysclk.o
SystemInit                                        src/ASF/sam/utils/cmsis/sam4s/source/templates/system_sam4s.o
T                                                 src/timer.o
TC0_Handler                                       src/timer.o
TC1_Handler                                       src/timer.o
TC2_Handler                                       src/timer.o
TWI0_Handler                                      src/ASF/sam/utils/cmsis/sam4s/source/templates/gcc/startup_sam4s.o
TWI1_Handler                                      src/ASF/sam/utils/cmsis/sam4s/source/templates/gcc/startup_sam4s.o
Timer_Handler                                     src/timer.o
UART0_Handler                                     src/ASF/sam/utils/cmsis/sam4s/source/templates/gcc/startup_sam4s.o
UART1_Handler                                     src/ASF/sam/utils/cmsis/sam4s/source/templates/gcc/startup_sam4s.o
UDP_Handler                                       src/ASF/sam/drivers/udp/udp_device.o
USART0_Handler                                    src/ASF/sam/utils/cmsis/sam4s/source/templates/gcc/startup_sam4s.o
UsageFault_Handler                                src/ASF/sam/utils/cmsis/sam4s/source/templates/gcc/startup_sam4s.o
WDT_Handler                                       src/ASF/sam/utils/cmsis/sam4s/source/templates/gcc/startup_sam4s.o
_Balloc                                           /Users/richard/Desktop/DAQ/gcc/bin/../lib/gcc/arm-none-eabi/6.3.1/../../../../arm-none-eabi/lib/thumb/v7e-m/libc.a(lib_a-mprec.o)
                                                  /Users/richard/Desktop/DAQ/gcc/bin/../lib/gcc/arm-none-eabi/6.3.1/../../../../arm-none-eabi/lib/thumb/v7e-m/libc.a(lib_a-gdtoa-gethex.o)
                                                  /Users/richard/Desktop/DAQ/gcc/bin/../lib/gcc/arm-none-eabi/6.3.1/../../../../arm-none-eabi/lib/thumb/v7e-m/libc.a(lib_a-dtoa.o)
                                                  /Users/richard/Desktop/DAQ/gcc/bin/../lib/gcc/arm-none-eabi/6.3.1/../../../../arm-none-eabi/lib/thumb/v7e-m/libc.a(lib_a-strtod.o)
_Bfree                                            /Users/richard/Desktop/DAQ/gcc/bin/../lib/gcc/arm-none-eabi/6.3.1/../../../../arm-none-eabi/lib/thumb/v7e-m/libc.a(lib_a-mprec.o)
                                                  /Users/richard/Desktop/DAQ/gcc/bin/../lib/gcc/arm-none-eabi/6.3.1/../../../../arm-none-eabi/lib/thumb/v7e-m/libc.a(lib_a-gdtoa-gethex.o)
                                                  /Users/richard/Desktop/DAQ/gcc/bin/../lib/gcc/arm-none-eabi/6.3.1/../../../../arm-none-eabi/lib/thumb/v7e-m/libc.a(lib_a-dtoa.o)
                                                  /Users/richard/Desktop/DAQ/gcc/bin/../lib/gcc/arm-none-eabi/6.3.1/../../../../arm-none-eabi/lib/thumb/v7e-m/libc.a(lib_a-strtod.o)
_Jv_RegisterClasses                               /Users/richard/Desktop/DAQ/gcc/bin/../lib/gcc/arm-none-eabi/6.3.1/thumb/v7e-m/crtbegin.o
_PathLocale                                       /Users/richard/Desktop/DAQ/gcc/bin/../lib/gcc/arm-none-eabi/6.3.1/../../../../arm-none-eabi/lib/thumb/v7e-m/libc.a(lib_a-locale.o)
__adddf3                                          /Users/richard/Desktop/DAQ/gcc/bin/../lib/gcc/arm-none-eabi/6.3.1/thumb/v7e-m/libgcc.a(_arm_addsubdf3.o)
__addsf3                                          /Users/richard/Desktop/DAQ/gcc/bin/../lib/gcc/arm-none-eabi/6.3.1/thumb/v7e-m/libgcc.a(_arm_addsubsf3.o)
__aeabi_cdcmpeq                                   /Users/richard/Desktop/DAQ/gcc/bin/../lib/gcc/arm-none-eabi/6.3.1/thumb/v7e-m/libgcc.a(_arm_cmpdf2.o)
__aeabi_cdcmple                                   /Users/richard/Desktop/DAQ/gcc/bin/../lib/gcc/arm-none-eabi/6.3.1/thumb/v7e-m/libgcc.a(_arm_cmpdf2.o)
__aeabi_cdrcmple                                  /Users/richard/Desktop/DAQ/gcc/bin/../lib/gcc/arm-none-eabi/6.3.1/thumb/v7e-m/libgcc.a(_arm_cmpdf2.o)
__aeabi_cfcmpeq                                   /Users/richard/Desktop/DAQ/gcc/bin/../lib/gcc/arm-none-eabi/6.3.1/thumb/v7e-m/libgcc.a(_arm_cmpsf2.o)
__aeabi_cfcmple                                   /Users/richard/Desktop/DAQ/gcc/bin/../lib/gcc/arm-none-eabi/6.3.1/thumb/v7e-m/libgcc.a(_arm_cmpsf2.o)
__aeabi_cfrcmple                                  /Users/richard/Desktop/DAQ/gcc/bin/../lib/gcc/arm-none-eabi/6.3.1/thumb/v7e-m/libgcc.a(_arm_cmpsf2.o)
__aeabi_d2f                                       /Users/richard/Desktop/DAQ/gcc/bin/../lib/gcc/arm-none-eabi/6.3.1/thumb/v7e-m/libgcc.a(_arm_truncdfsf2.o)
                                                  /Users/richard/Desktop/DAQ/gcc/bin/../lib/gcc/arm-none-eabi/6.3.1/../../../../arm-none-eabi/lib/thumb/v7e-m/libc.a(lib_a-strtod.o)
                                                  src/sampling.o
__aeabi_d2iz                                      /Users/richard/Desktop/DAQ/gcc/bin/../lib/gcc/arm-none-eabi/6.3.1/thumb/v7e-m/libgcc.a(_arm_fixdfsi.o)
                                                  /Users/richard/Desktop/DAQ/gcc/bin/../lib/gcc/arm-none-eabi/6.3.1/../../../../arm-none-eabi/lib/thumb/v7e-m/libc.a(lib_a-dtoa.o)
                                                  /Users/richard/Desktop/DAQ/gcc/bin/../lib/gcc/arm-none-eabi/6.3.1/../../../../arm-none-eabi/lib/thumb/v7e-m/libc.a(lib_a-strtod.o)
                                                  /Users/richard/Desktop/DAQ/gcc/bin/../lib/gcc/arm-none-eabi/6.3.1/../../../../arm-none-eabi/lib/thumb/v7e-m/libm.a(lib_a-s_lround.o)
__aeabi_d2uiz                                     /Users/richard/Desktop/DAQ/gcc/bin/../lib/gcc/arm-none-eabi/6.3.1/thumb/v7e-m/libgcc.a(_arm_fixunsdfsi.o)
                                                  /Users/richard/Desktop/DAQ/gcc/bin/../lib/gcc/arm-none-eabi/6.3.1/../../../../arm-none-eabi/lib/thumb/v7e-m/libc.a(lib_a-strtod.o)
                                                  src/timer.o
__aeabi_dadd                                      /Users/richard/Desktop/DAQ/gcc/bin/../lib/gcc/arm-none-eabi/6.3.1/thumb/v7e-m/libgcc.a(_arm_addsubdf3.o)
                                                  /Users/richard/Desktop/DAQ/gcc/bin/../lib/gcc/arm-none-eabi/6.3.1/../../../../arm-none-eabi/lib/thumb/v7e-m/libc.a(lib_a-dtoa.o)
                                                  /Users/richard/Desktop/DAQ/gcc/bin/../lib/gcc/arm-none-eabi/6.3.1/../../../../arm-none-eabi/lib/thumb/v7e-m/libc.a(lib_a-strtod.o)
                                                  /Users/richard/Desktop/DAQ/gcc/bin/../lib/gcc/arm-none-eabi/6.3.1/../../../../arm-none-eabi/lib/thumb/v7e-m/libm.a(lib_a-s_ceil.o)
__aeabi_dcmpeq                                    /Users/richard/Desktop/DAQ/gcc/bin/../lib/gcc/arm-none-eabi/6.3.1/thumb/v7e-m/libgcc.a(_arm_cmpdf2.o)
                                                  /Users/richard/Desktop/DAQ/gcc/bin/../lib/gcc/arm-none-eabi/6.3.1/../../../../arm-none-eabi/lib/thumb/v7e-m/libc.a(lib_a-dtoa.o)
                                                  /Users/richard/Desktop/DAQ/gcc/bin/../lib/gcc/arm-none-eabi/6.3.1/../../../../arm-none-eabi/lib/thumb/v7e-m/libc.a(lib_a-svfprintf.o)
                                                  /Users/richard/Desktop/DAQ/gcc/bin/../lib/gcc/arm-none-eabi/6.3.1/../../../../arm-none-eabi/lib/thumb/v7e-m/libc.a(lib_a-strtod.o)
__aeabi_dcmpge                                    /Users/richard/Desktop/DAQ/gcc/bin/../lib/gcc/arm-none-eabi/6.3.1/thumb/v7e-m/libgcc.a(_arm_cmpdf2.o)
                                                  /Users/richard/Desktop/DAQ/gcc/bin/../lib/gcc/arm-none-eabi/6.3.1/../../../../arm-none-eabi/lib/thumb/v7e-m/libc.a(lib_a-dtoa.o)
                                                  src/timer.o
__aeabi_dcmpgt                                    /Users/richard/Desktop/DAQ/gcc/bin/../lib/gcc/arm-none-eabi/6.3.1/thumb/v7e-m/libgcc.a(_arm_cmpdf2.o)
                                                  /Users/richard/Desktop/DAQ/gcc/bin/../lib/gcc/arm-none-eabi/6.3.1/../../../../arm-none-eabi/lib/thumb/v7e-m/libc.a(lib_a-dtoa.o)
                                                  /Users/richard/Desktop/DAQ/gcc/bin/../lib/gcc/arm-none-eabi/6.3.1/../../../../arm-none-eabi/lib/thumb/v7e-m/libc.a(lib_a-strtod.o)
                                                  /Users/richard/Desktop/DAQ/gcc/bin/../lib/gcc/arm-none-eabi/6.3.1/../../../../arm-none-eabi/lib/thumb/v7e-m/libm.a(lib_a-s_ceil.o)
                                                  src/timer.o
                                                  src/structure.o
__aeabi_dcmple                                    /Users/richard/Desktop/DAQ/gcc/bin/../lib/gcc/arm-none-eabi/6.3.1/thumb/v7e-m/libgcc.a(_arm_cmpdf2.o)
                                                  /Users/richard/Desktop/DAQ/gcc/bin/../lib/gcc/arm-none-eabi/6.3.1/../../../../arm-none-eabi/lib/thumb/v7e-m/libc.a(lib_a-svfprintf.o)
                                                  /Users/richard/Desktop/DAQ/gcc/bin/../lib/gcc/arm-none-eabi/6.3.1/../../../../arm-none-eabi/lib/thumb/v7e-m/libc.a(lib_a-strtod.o)
__aeabi_dcmplt                                    /Users/richard/Desktop/DAQ/gcc/bin/../lib/gcc/arm-none-eabi/6.3.1/thumb/v7e-m/libgcc.a(_arm_cmpdf2.o)
                                                  /Users/richard/Desktop/DAQ/gcc/bin/../lib/gcc/arm-none-eabi/6.3.1/../../../../arm-none-eabi/lib/thumb/v7e-m/libc.a(lib_a-dtoa.o)
                                                  /Users/richard/Desktop/DAQ/gcc/bin/../lib/gcc/arm-none-eabi/6.3.1/../../../../arm-none-eabi/lib/thumb/v7e-m/libc.a(lib_a-svfprintf.o)
                                                  /Users/richard/Desktop/DAQ/gcc/bin/../lib/gcc/arm-none-eabi/6.3.1/../../../../arm-none-eabi/lib/thumb/v7e-m/libc.a(lib_a-strtod.o)
                                                  src/timer.o
                                                  src/structure.o
__aeabi_dcmpun                                    /Users/richard/Desktop/DAQ/gcc/bin/../lib/gcc/arm-none-eabi/6.3.1/thumb/v7e-m/libgcc.a(_arm_unorddf2.o)
                                                  /Users/richard/Desktop/DAQ/gcc/bin/../lib/gcc/arm-none-eabi/6.3.1/../../../../arm-none-eabi/lib/thumb/v7e-m/libc.a(lib_a-svfprintf.o)
                                                  /Users/richard/Desktop/DAQ/gcc/bin/../lib/gcc/arm-none-eabi/6.3.1/../../../../arm-none-eabi/lib/thumb/v7e-m/libc.a(lib_a-strtod.o)
__aeabi_ddiv                                      /Users/richard/Desktop/DAQ/gcc/bin/../lib/gcc/arm-none-eabi/6.3.1/thumb/v7e-m/libgcc.a(_arm_muldivdf3.o)
                                                  /Users/richard/Desktop/DAQ/gcc/bin/../lib/gcc/arm-none-eabi/6.3.1/../../../../arm-none-eabi/lib/thumb/v7e-m/libc.a(lib_a-mprec.o)
                                                  /Users/richard/Desktop/DAQ/gcc/bin/../lib/gcc/arm-none-eabi/6.3.1/../../../../arm-none-eabi/lib/thumb/v7e-m/libc.a(lib_a-dtoa.o)
                                                  /Users/richard/Desktop/DAQ/gcc/bin/../lib/gcc/arm-none-eabi/6.3.1/../../../../arm-none-eabi/lib/thumb/v7e-m/libc.a(lib_a-strtod.o)
                                                  src/timer.o
__aeabi_dmul                                      /Users/richard/Desktop/DAQ/gcc/bin/../lib/gcc/arm-none-eabi/6.3.1/thumb/v7e-m/libgcc.a(_arm_muldivdf3.o)
                                                  /Users/richard/Desktop/DAQ/gcc/bin/../lib/gcc/arm-none-eabi/6.3.1/../../../../arm-none-eabi/lib/thumb/v7e-m/libc.a(lib_a-mprec.o)
                                                  /Users/richard/Desktop/DAQ/gcc/bin/../lib/gcc/arm-none-eabi/6.3.1/../../../../arm-none-eabi/lib/thumb/v7e-m/libc.a(lib_a-dtoa.o)
                                                  /Users/richard/Desktop/DAQ/gcc/bin/../lib/gcc/arm-none-eabi/6.3.1/../../../../arm-none-eabi/lib/thumb/v7e-m/libc.a(lib_a-strtod.o)
                                                  src/timer.o
__aeabi_drsub                                     /Users/richard/Desktop/DAQ/gcc/bin/../lib/gcc/arm-none-eabi/6.3.1/thumb/v7e-m/libgcc.a(_arm_addsubdf3.o)
__aeabi_dsub                                      /Users/richard/Desktop/DAQ/gcc/bin/../lib/gcc/arm-none-eabi/6.3.1/thumb/v7e-m/libgcc.a(_arm_addsubdf3.o)
                                                  /Users/richard/Desktop/DAQ/gcc/bin/../lib/gcc/arm-none-eabi/6.3.1/../../../../arm-none-eabi/lib/thumb/v7e-m/libc.a(lib_a-dtoa.o)
                                                  /Users/richard/Desktop/DAQ/gcc/bin/../lib/gcc/arm-none-eabi/6.3.1/../../../../arm-none-eabi/lib/thumb/v7e-m/libc.a(lib_a-strtod.o)
                                                  src/timer.o
__aeabi_f2d                                       /Users/richard/Desktop/DAQ/gcc/bin/../lib/gcc/arm-none-eabi/6.3.1/thumb/v7e-m/libgcc.a(_arm_addsubdf3.o)
                                                  src/sampling.o
__aeabi_fadd                                      /Users/richard/Desktop/DAQ/gcc/bin/../lib/gcc/arm-none-eabi/6.3.1/thumb/v7e-m/libgcc.a(_arm_addsubsf3.o)
                                                  src/adcLib.o
__aeabi_fcmpeq                                    /Users/richard/Desktop/DAQ/gcc/bin/../lib/gcc/arm-none-eabi/6.3.1/thumb/v7e-m/libgcc.a(_arm_cmpsf2.o)
__aeabi_fcmpge                                    /Users/richard/Desktop/DAQ/gcc/bin/../lib/gcc/arm-none-eabi/6.3.1/thumb/v7e-m/libgcc.a(_arm_cmpsf2.o)
__aeabi_fcmpgt                                    /Users/richard/Desktop/DAQ/gcc/bin/../lib/gcc/arm-none-eabi/6.3.1/thumb/v7e-m/libgcc.a(_arm_cmpsf2.o)
__aeabi_fcmple                                    /Users/richard/Desktop/DAQ/gcc/bin/../lib/gcc/arm-none-eabi/6.3.1/thumb/v7e-m/libgcc.a(_arm_cmpsf2.o)
                                                  /Users/richard/Desktop/DAQ/gcc/bin/../lib/gcc/arm-none-eabi/6.3.1/../../../../arm-none-eabi/lib/thumb/v7e-m/libc.a(lib_a-strtod.o)
__aeabi_fcmplt                                    /Users/richard/Desktop/DAQ/gcc/bin/../lib/gcc/arm-none-eabi/6.3.1/thumb/v7e-m/libgcc.a(_arm_cmpsf2.o)
                                                  src/adcLib.o
__aeabi_fcmpun                                    /Users/richard/Desktop/DAQ/gcc/bin/../lib/gcc/arm-none-eabi/6.3.1/thumb/v7e-m/libgcc.a(_arm_unordsf2.o)
                                                  /Users/richard/Desktop/DAQ/gcc/bin/../lib/gcc/arm-none-eabi/6.3.1/../../../../arm-none-eabi/lib/thumb/v7e-m/libc.a(lib_a-strtod.o)
__aeabi_fdiv                                      /Users/richard/Desktop/DAQ/gcc/bin/../lib/gcc/arm-none-eabi/6.3.1/thumb/v7e-m/libgcc.a(_arm_muldivsf3.o)
                                                  src/adcLib.o
__aeabi_fmul                                      /Users/richard/Desktop/DAQ/gcc/bin/../lib/gcc/arm-none-eabi/6.3.1/thumb/v7e-m/libgcc.a(_arm_muldivsf3.o)
                                                  src/adcLib.o
__aeabi_frsub                                     /Users/richard/Desktop/DAQ/gcc/bin/../lib/gcc/arm-none-eabi/6.3.1/thumb/v7e-m/libgcc.a(_arm_addsubsf3.o)
__aeabi_fsub                                      /Users/richard/Desktop/DAQ/gcc/bin/../lib/gcc/arm-none-eabi/6.3.1/thumb/v7e-m/libgcc.a(_arm_addsubsf3.o)
__aeabi_i2d                                       /Users/richard/Desktop/DAQ/gcc/bin/../lib/gcc/arm-none-eabi/6.3.1/thumb/v7e-m/libgcc.a(_arm_addsubdf3.o)
                                                  /Users/richard/Desktop/DAQ/gcc/bin/../lib/gcc/arm-none-eabi/6.3.1/../../../../arm-none-eabi/lib/thumb/v7e-m/libc.a(lib_a-dtoa.o)
                                                  /Users/richard/Desktop/DAQ/gcc/bin/../lib/gcc/arm-none-eabi/6.3.1/../../../../arm-none-eabi/lib/thumb/v7e-m/libc.a(lib_a-strtod.o)
                                                  src/timer.o
__aeabi_i2f                                       /Users/richard/Desktop/DAQ/gcc/bin/../lib/gcc/arm-none-eabi/6.3.1/thumb/v7e-m/libgcc.a(_arm_addsubsf3.o)
                                                  src/adcLib.o
__aeabi_idiv0                                     /Users/richard/Desktop/DAQ/gcc/bin/../lib/gcc/arm-none-eabi/6.3.1/thumb/v7e-m/libgcc.a(_dvmd_tls.o)
__aeabi_l2d                                       /Users/richard/Desktop/DAQ/gcc/bin/../lib/gcc/arm-none-eabi/6.3.1/thumb/v7e-m/libgcc.a(_arm_addsubdf3.o)
__aeabi_l2f                                       /Users/richard/Desktop/DAQ/gcc/bin/../lib/gcc/arm-none-eabi/6.3.1/thumb/v7e-m/libgcc.a(_arm_addsubsf3.o)
__aeabi_ldiv0                                     /Users/richard/Desktop/DAQ/gcc/bin/../lib/gcc/arm-none-eabi/6.3.1/thumb/v7e-m/libgcc.a(_dvmd_tls.o)
                                                  /Users/richard/Desktop/DAQ/gcc/bin/../lib/gcc/arm-none-eabi/6.3.1/thumb/v7e-m/libgcc.a(_aeabi_uldivmod.o)
__aeabi_ui2d                                      /Users/richard/Desktop/DAQ/gcc/bin/../lib/gcc/arm-none-eabi/6.3.1/thumb/v7e-m/libgcc.a(_arm_addsubdf3.o)
                                                  /Users/richard/Desktop/DAQ/gcc/bin/../lib/gcc/arm-none-eabi/6.3.1/../../../../arm-none-eabi/lib/thumb/v7e-m/libc.a(lib_a-dtoa.o)
                                                  /Users/richard/Desktop/DAQ/gcc/bin/../lib/gcc/arm-none-eabi/6.3.1/../../../../arm-none-eabi/lib/thumb/v7e-m/libc.a(lib_a-strtod.o)
                                                  src/timer.o
__aeabi_ui2f                                      /Users/richard/Desktop/DAQ/gcc/bin/../lib/gcc/arm-none-eabi/6.3.1/thumb/v7e-m/libgcc.a(_arm_addsubsf3.o)
                                                  src/adcLib.o
__aeabi_ul2d                                      /Users/richard/Desktop/DAQ/gcc/bin/../lib/gcc/arm-none-eabi/6.3.1/thumb/v7e-m/libgcc.a(_arm_addsubdf3.o)
__aeabi_ul2f                                      /Users/richard/Desktop/DAQ/gcc/bin/../lib/gcc/arm-none-eabi/6.3.1/thumb/v7e-m/libgcc.a(_arm_addsubsf3.o)
__aeabi_uldivmod                                  /Users/richard/Desktop/DAQ/gcc/bin/../lib/gcc/arm-none-eabi/6.3.1/thumb/v7e-m/libgcc.a(_aeabi_uldivmod.o)
                                                  /Users/richard/Desktop/DAQ/gcc/bin/../lib/gcc/arm-none-eabi/6.3.1/../../../../arm-none-eabi/lib/thumb/v7e-m/libc.a(lib_a-svfiprintf.o)
                                                  /Users/richard/Desktop/DAQ/gcc/bin/../lib/gcc/arm-none-eabi/6.3.1/../../../../arm-none-eabi/lib/thumb/v7e-m/libc.a(lib_a-svfprintf.o)
                                                  src/spi_com.o
__any_on                                          /Users/richard/Desktop/DAQ/gcc/bin/../lib/gcc/arm-none-eabi/6.3.1/../../../../arm-none-eabi/lib/thumb/v7e-m/libc.a(lib_a-mprec.o)
                                                  /Users/richard/Desktop/DAQ/gcc/bin/../lib/gcc/arm-none-eabi/6.3.1/../../../../arm-none-eabi/lib/thumb/v7e-m/libc.a(lib_a-gdtoa-gethex.o)
__ascii_mbtowc                                    /Users/richard/Desktop/DAQ/gcc/bin/../lib/gcc/arm-none-eabi/6.3.1/../../../../arm-none-eabi/lib/thumb/v7e-m/libc.a(lib_a-mbtowc_r.o)
                                                  /Users/richard/Desktop/DAQ/gcc/bin/../lib/gcc/arm-none-eabi/6.3.1/../../../../arm-none-eabi/lib/thumb/v7e-m/libc.a(lib_a-locale.o)
__ascii_wctomb                                    /Users/richard/Desktop/DAQ/gcc/bin/../lib/gcc/arm-none-eabi/6.3.1/../../../../arm-none-eabi/lib/thumb/v7e-m/libc.a(lib_a-wctomb_r.o)
                                                  /Users/richard/Desktop/DAQ/gcc/bin/../lib/gcc/arm-none-eabi/6.3.1/../../../../arm-none-eabi/lib/thumb/v7e-m/libc.a(lib_a-locale.o)
__atexit_recursive_mutex                          /Users/richard/Desktop/DAQ/gcc/bin/../lib/gcc/arm-none-eabi/6.3.1/../../../../arm-none-eabi/lib/thumb/v7e-m/libc.a(lib_a-__call_atexit.o)
                                                  /Users/richard/Desktop/DAQ/gcc/bin/../lib/gcc/arm-none-eabi/6.3.1/../../../../arm-none-eabi/lib/thumb/v7e-m/libc.a(lib_a-__atexit.o)
__b2d                                             /Users/richard/Desktop/DAQ/gcc/bin/../lib/gcc/arm-none-eabi/6.3.1/../../../../arm-none-eabi/lib/thumb/v7e-m/libc.a(lib_a-mprec.o)
__bss_end__                                       /Users/richard/Desktop/DAQ/gcc/bin/../lib/gcc/arm-none-eabi/6.3.1/../../../../arm-none-eabi/lib/thumb/v7e-m/crt0.o
__bss_start__                                     /Users/richard/Desktop/DAQ/gcc/bin/../lib/gcc/arm-none-eabi/6.3.1/../../../../arm-none-eabi/lib/thumb/v7e-m/crt0.o
__call_exitprocs                                  /Users/richard/Desktop/DAQ/gcc/bin/../lib/gcc/arm-none-eabi/6.3.1/../../../../arm-none-eabi/lib/thumb/v7e-m/libc.a(lib_a-__call_atexit.o)
                                                  /Users/richard/Desktop/DAQ/gcc/bin/../lib/gcc/arm-none-eabi/6.3.1/../../../../arm-none-eabi/lib/thumb/v7e-m/libc.a(lib_a-exit.o)
__cmpdf2                                          /Users/richard/Desktop/DAQ/gcc/bin/../lib/gcc/arm-none-eabi/6.3.1/thumb/v7e-m/libgcc.a(_arm_cmpdf2.o)
__cmpsf2                                          /Users/richard/Desktop/DAQ/gcc/bin/../lib/gcc/arm-none-eabi/6.3.1/thumb/v7e-m/libgcc.a(_arm_cmpsf2.o)
__copybits                                        /Users/richard/Desktop/DAQ/gcc/bin/../lib/gcc/arm-none-eabi/6.3.1/../../../../arm-none-eabi/lib/thumb/v7e-m/libc.a(lib_a-mprec.o)
                                                  /Users/richard/Desktop/DAQ/gcc/bin/../lib/gcc/arm-none-eabi/6.3.1/../../../../arm-none-eabi/lib/thumb/v7e-m/libc.a(lib_a-strtod.o)
__d2b                                             /Users/richard/Desktop/DAQ/gcc/bin/../lib/gcc/arm-none-eabi/6.3.1/../../../../arm-none-eabi/lib/thumb/v7e-m/libc.a(lib_a-mprec.o)
                                                  /Users/richard/Desktop/DAQ/gcc/bin/../lib/gcc/arm-none-eabi/6.3.1/../../../../arm-none-eabi/lib/thumb/v7e-m/libc.a(lib_a-dtoa.o)
                                                  /Users/richard/Desktop/DAQ/gcc/bin/../lib/gcc/arm-none-eabi/6.3.1/../../../../arm-none-eabi/lib/thumb/v7e-m/libc.a(lib_a-strtod.o)
__deregister_frame_info                           /Users/richard/Desktop/DAQ/gcc/bin/../lib/gcc/arm-none-eabi/6.3.1/thumb/v7e-m/crtbegin.o
__divdf3                                          /Users/richard/Desktop/DAQ/gcc/bin/../lib/gcc/arm-none-eabi/6.3.1/thumb/v7e-m/libgcc.a(_arm_muldivdf3.o)
__divsf3                                          /Users/richard/Desktop/DAQ/gcc/bin/../lib/gcc/arm-none-eabi/6.3.1/thumb/v7e-m/libgcc.a(_arm_muldivsf3.o)
__dso_handle                                      /Users/richard/Desktop/DAQ/gcc/bin/../lib/gcc/arm-none-eabi/6.3.1/thumb/v7e-m/crtbegin.o
__eqdf2                                           /Users/richard/Desktop/DAQ/gcc/bin/../lib/gcc/arm-none-eabi/6.3.1/thumb/v7e-m/libgcc.a(_arm_cmpdf2.o)
__eqsf2                                           /Users/richard/Desktop/DAQ/gcc/bin/../lib/gcc/arm-none-eabi/6.3.1/thumb/v7e-m/libgcc.a(_arm_cmpsf2.o)
__extendsfdf2                                     /Users/richard/Desktop/DAQ/gcc/bin/../lib/gcc/arm-none-eabi/6.3.1/thumb/v7e-m/libgcc.a(_arm_addsubdf3.o)
__fini_array_end                                  /Users/richard/Desktop/DAQ/gcc/bin/../lib/gcc/arm-none-eabi/6.3.1/../../../../arm-none-eabi/lib/thumb/v7e-m/libc.a(lib_a-fini.o)
__fini_array_start                                /Users/richard/Desktop/DAQ/gcc/bin/../lib/gcc/arm-none-eabi/6.3.1/../../../../arm-none-eabi/lib/thumb/v7e-m/libc.a(lib_a-fini.o)
__fixdfsi                                         /Users/richard/Desktop/DAQ/gcc/bin/../lib/gcc/arm-none-eabi/6.3.1/thumb/v7e-m/libgcc.a(_arm_fixdfsi.o)
__fixunsdfsi                                      /Users/richard/Desktop/DAQ/gcc/bin/../lib/gcc/arm-none-eabi/6.3.1/thumb/v7e-m/libgcc.a(_arm_fixunsdfsi.o)
__floatdidf                                       /Users/richard/Desktop/DAQ/gcc/bin/../lib/gcc/arm-none-eabi/6.3.1/thumb/v7e-m/libgcc.a(_arm_addsubdf3.o)
__floatdisf                                       /Users/richard/Desktop/DAQ/gcc/bin/../lib/gcc/arm-none-eabi/6.3.1/thumb/v7e-m/libgcc.a(_arm_addsubsf3.o)
__floatsidf                                       /Users/richard/Desktop/DAQ/gcc/bin/../lib/gcc/arm-none-eabi/6.3.1/thumb/v7e-m/libgcc.a(_arm_addsubdf3.o)
__floatsisf                                       /Users/richard/Desktop/DAQ/gcc/bin/../lib/gcc/arm-none-eabi/6.3.1/thumb/v7e-m/libgcc.a(_arm_addsubsf3.o)
__floatundidf                                     /Users/richard/Desktop/DAQ/gcc/bin/../lib/gcc/arm-none-eabi/6.3.1/thumb/v7e-m/libgcc.a(_arm_addsubdf3.o)
__floatundisf                                     /Users/richard/Desktop/DAQ/gcc/bin/../lib/gcc/arm-none-eabi/6.3.1/thumb/v7e-m/libgcc.a(_arm_addsubsf3.o)
__floatunsidf                                     /Users/richard/Desktop/DAQ/gcc/bin/../lib/gcc/arm-none-eabi/6.3.1/thumb/v7e-m/libgcc.a(_arm_addsubdf3.o)
__floatunsisf                                     /Users/richard/Desktop/DAQ/gcc/bin/../lib/gcc/arm-none-eabi/6.3.1/thumb/v7e-m/libgcc.a(_arm_addsubsf3.o)
__gedf2                                           /Users/richard/Desktop/DAQ/gcc/bin/../lib/gcc/arm-none-eabi/6.3.1/thumb/v7e-m/libgcc.a(_arm_cmpdf2.o)
__gesf2                                           /Users/richard/Desktop/DAQ/gcc/bin/../lib/gcc/arm-none-eabi/6.3.1/thumb/v7e-m/libgcc.a(_arm_cmpsf2.o)
__gethex                                          /Users/richard/Desktop/DAQ/gcc/bin/../lib/gcc/arm-none-eabi/6.3.1/../../../../arm-none-eabi/lib/thumb/v7e-m/libc.a(lib_a-gdtoa-gethex.o)
                                                  /Users/richard/Desktop/DAQ/gcc/bin/../lib/gcc/arm-none-eabi/6.3.1/../../../../arm-none-eabi/lib/thumb/v7e-m/libc.a(lib_a-strtod.o)
__global_locale                                   /Users/richard/Desktop/DAQ/gcc/bin/../lib/gcc/arm-none-eabi/6.3.1/../../../../arm-none-eabi/lib/thumb/v7e-m/libc.a(lib_a-locale.o)
                                                  /Users/richard/Desktop/DAQ/gcc/bin/../lib/gcc/arm-none-eabi/6.3.1/../../../../arm-none-eabi/lib/thumb/v7e-m/libc.a(lib_a-wctomb_r.o)
                                                  /Users/richard/Desktop/DAQ/gcc/bin/../lib/gcc/arm-none-eabi/6.3.1/../../../../arm-none-eabi/lib/thumb/v7e-m/libc.a(lib_a-mbtowc_r.o)
                                                  /Users/richard/Desktop/DAQ/gcc/bin/../lib/gcc/arm-none-eabi/6.3.1/../../../../arm-none-eabi/lib/thumb/v7e-m/libc.a(lib_a-localeconv.o)
                                                  /Users/richard/Desktop/DAQ/gcc/bin/../lib/gcc/arm-none-eabi/6.3.1/../../../../arm-none-eabi/lib/thumb/v7e-m/libc.a(lib_a-strtoul.o)
                                                  /Users/richard/Desktop/DAQ/gcc/bin/../lib/gcc/arm-none-eabi/6.3.1/../../../../arm-none-eabi/lib/thumb/v7e-m/libc.a(lib_a-strtol.o)
                                                  /Users/richard/Desktop/DAQ/gcc/bin/../lib/gcc/arm-none-eabi/6.3.1/../../../../arm-none-eabi/lib/thumb/v7e-m/libc.a(lib_a-strtod.o)
__gtdf2                                           /Users/richard/Desktop/DAQ/gcc/bin/../lib/gcc/arm-none-eabi/6.3.1/thumb/v7e-m/libgcc.a(_arm_cmpdf2.o)
__gtsf2                                           /Users/richard/Desktop/DAQ/gcc/bin/../lib/gcc/arm-none-eabi/6.3.1/thumb/v7e-m/libgcc.a(_arm_cmpsf2.o)
__hexdig                                          /Users/richard/Desktop/DAQ/gcc/bin/../lib/gcc/arm-none-eabi/6.3.1/../../../../arm-none-eabi/lib/thumb/v7e-m/libc.a(lib_a-gdtoa-gethex.o)
                                                  /Users/richard/Desktop/DAQ/gcc/bin/../lib/gcc/arm-none-eabi/6.3.1/../../../../arm-none-eabi/lib/thumb/v7e-m/libc.a(lib_a-gdtoa-hexnan.o)
__hexnan                                          /Users/richard/Desktop/DAQ/gcc/bin/../lib/gcc/arm-none-eabi/6.3.1/../../../../arm-none-eabi/lib/thumb/v7e-m/libc.a(lib_a-gdtoa-hexnan.o)
                                                  /Users/richard/Desktop/DAQ/gcc/bin/../lib/gcc/arm-none-eabi/6.3.1/../../../../arm-none-eabi/lib/thumb/v7e-m/libc.a(lib_a-strtod.o)
__hi0bits                                         /Users/richard/Desktop/DAQ/gcc/bin/../lib/gcc/arm-none-eabi/6.3.1/../../../../arm-none-eabi/lib/thumb/v7e-m/libc.a(lib_a-mprec.o)
                                                  /Users/richard/Desktop/DAQ/gcc/bin/../lib/gcc/arm-none-eabi/6.3.1/../../../../arm-none-eabi/lib/thumb/v7e-m/libc.a(lib_a-gdtoa-gethex.o)
                                                  /Users/richard/Desktop/DAQ/gcc/bin/../lib/gcc/arm-none-eabi/6.3.1/../../../../arm-none-eabi/lib/thumb/v7e-m/libc.a(lib_a-dtoa.o)
__i2b                                             /Users/richard/Desktop/DAQ/gcc/bin/../lib/gcc/arm-none-eabi/6.3.1/../../../../arm-none-eabi/lib/thumb/v7e-m/libc.a(lib_a-mprec.o)
                                                  /Users/richard/Desktop/DAQ/gcc/bin/../lib/gcc/arm-none-eabi/6.3.1/../../../../arm-none-eabi/lib/thumb/v7e-m/libc.a(lib_a-dtoa.o)
                                                  /Users/richard/Desktop/DAQ/gcc/bin/../lib/gcc/arm-none-eabi/6.3.1/../../../../arm-none-eabi/lib/thumb/v7e-m/libc.a(lib_a-strtod.o)
__init_array_end                                  /Users/richard/Desktop/DAQ/gcc/bin/../lib/gcc/arm-none-eabi/6.3.1/../../../../arm-none-eabi/lib/thumb/v7e-m/libc.a(lib_a-init.o)
__init_array_start                                /Users/richard/Desktop/DAQ/gcc/bin/../lib/gcc/arm-none-eabi/6.3.1/../../../../arm-none-eabi/lib/thumb/v7e-m/libc.a(lib_a-init.o)
__ledf2                                           /Users/richard/Desktop/DAQ/gcc/bin/../lib/gcc/arm-none-eabi/6.3.1/thumb/v7e-m/libgcc.a(_arm_cmpdf2.o)
__lesf2                                           /Users/richard/Desktop/DAQ/gcc/bin/../lib/gcc/arm-none-eabi/6.3.1/thumb/v7e-m/libgcc.a(_arm_cmpsf2.o)
__libc_fini                                       /Users/richard/Desktop/DAQ/gcc/bin/../lib/gcc/arm-none-eabi/6.3.1/../../../../arm-none-eabi/lib/thumb/v7e-m/libc.a(lib_a-__call_atexit.o)
__libc_fini_array                                 /Users/richard/Desktop/DAQ/gcc/bin/../lib/gcc/arm-none-eabi/6.3.1/../../../../arm-none-eabi/lib/thumb/v7e-m/libc.a(lib_a-fini.o)
                                                  /Users/richard/Desktop/DAQ/gcc/bin/../lib/gcc/arm-none-eabi/6.3.1/../../../../arm-none-eabi/lib/thumb/v7e-m/libc.a(lib_a-__call_atexit.o)
                                                  /Users/richard/Desktop/DAQ/gcc/bin/../lib/gcc/arm-none-eabi/6.3.1/../../../../arm-none-eabi/lib/thumb/v7e-m/crt0.o
__libc_init_array                                 /Users/richard/Desktop/DAQ/gcc/bin/../lib/gcc/arm-none-eabi/6.3.1/../../../../arm-none-eabi/lib/thumb/v7e-m/libc.a(lib_a-init.o)
                                                  src/ASF/sam/utils/cmsis/sam4s/source/templates/gcc/startup_sam4s.o
                                                  /Users/richard/Desktop/DAQ/gcc/bin/../lib/gcc/arm-none-eabi/6.3.1/../../../../arm-none-eabi/lib/thumb/v7e-m/crt0.o
__lo0bits                                         /Users/richard/Desktop/DAQ/gcc/bin/../lib/gcc/arm-none-eabi/6.3.1/../../../../arm-none-eabi/lib/thumb/v7e-m/libc.a(lib_a-mprec.o)
__locale_ctype_ptr                                /Users/richard/Desktop/DAQ/gcc/bin/../lib/gcc/arm-none-eabi/6.3.1/../../../../arm-none-eabi/lib/thumb/v7e-m/libc.a(lib_a-locale.o)
__locale_ctype_ptr_l                              /Users/richard/Desktop/DAQ/gcc/bin/../lib/gcc/arm-none-eabi/6.3.1/../../../../arm-none-eabi/lib/thumb/v7e-m/libc.a(lib_a-locale.o)
                                                  /Users/richard/Desktop/DAQ/gcc/bin/../lib/gcc/arm-none-eabi/6.3.1/../../../../arm-none-eabi/lib/thumb/v7e-m/libc.a(lib_a-strtoul.o)
                                                  /Users/richard/Desktop/DAQ/gcc/bin/../lib/gcc/arm-none-eabi/6.3.1/../../../../arm-none-eabi/lib/thumb/v7e-m/libc.a(lib_a-strtol.o)
__locale_mb_cur_max                               /Users/richard/Desktop/DAQ/gcc/bin/../lib/gcc/arm-none-eabi/6.3.1/../../../../arm-none-eabi/lib/thumb/v7e-m/libc.a(lib_a-locale.o)
__localeconv_l                                    /Users/richard/Desktop/DAQ/gcc/bin/../lib/gcc/arm-none-eabi/6.3.1/../../../../arm-none-eabi/lib/thumb/v7e-m/libc.a(lib_a-localeconv.o)
                                                  /Users/richard/Desktop/DAQ/gcc/bin/../lib/gcc/arm-none-eabi/6.3.1/../../../../arm-none-eabi/lib/thumb/v7e-m/libc.a(lib_a-gdtoa-gethex.o)
                                                  /Users/richard/Desktop/DAQ/gcc/bin/../lib/gcc/arm-none-eabi/6.3.1/../../../../arm-none-eabi/lib/thumb/v7e-m/libc.a(lib_a-strtod.o)
__lock___arc4random_mutex                         /Users/richard/Desktop/DAQ/gcc/bin/../lib/gcc/arm-none-eabi/6.3.1/../../../../arm-none-eabi/lib/thumb/v7e-m/libc.a(lib_a-lock.o)
__lock___at_quick_exit_mutex                      /Users/richard/Desktop/DAQ/gcc/bin/../lib/gcc/arm-none-eabi/6.3.1/../../../../arm-none-eabi/lib/thumb/v7e-m/libc.a(lib_a-lock.o)
__lock___atexit_recursive_mutex                   /Users/richard/Desktop/DAQ/gcc/bin/../lib/gcc/arm-none-eabi/6.3.1/../../../../arm-none-eabi/lib/thumb/v7e-m/libc.a(lib_a-lock.o)
                                                  /Users/richard/Desktop/DAQ/gcc/bin/../lib/gcc/arm-none-eabi/6.3.1/../../../../arm-none-eabi/lib/thumb/v7e-m/libc.a(lib_a-__call_atexit.o)
__lock___dd_hash_mutex                            /Users/richard/Desktop/DAQ/gcc/bin/../lib/gcc/arm-none-eabi/6.3.1/../../../../arm-none-eabi/lib/thumb/v7e-m/libc.a(lib_a-lock.o)
__lock___env_recursive_mutex                      /Users/richard/Desktop/DAQ/gcc/bin/../lib/gcc/arm-none-eabi/6.3.1/../../../../arm-none-eabi/lib/thumb/v7e-m/libc.a(lib_a-lock.o)
__lock___malloc_recursive_mutex                   /Users/richard/Desktop/DAQ/gcc/bin/../lib/gcc/arm-none-eabi/6.3.1/../../../../arm-none-eabi/lib/thumb/v7e-m/libc.a(lib_a-lock.o)
                                                  /Users/richard/Desktop/DAQ/gcc/bin/../lib/gcc/arm-none-eabi/6.3.1/../../../../arm-none-eabi/lib/thumb/v7e-m/libc.a(lib_a-mlock.o)
__lock___sfp_recursive_mutex                      /Users/richard/Desktop/DAQ/gcc/bin/../lib/gcc/arm-none-eabi/6.3.1/../../../../arm-none-eabi/lib/thumb/v7e-m/libc.a(lib_a-lock.o)
__lock___sinit_recursive_mutex                    /Users/richard/Desktop/DAQ/gcc/bin/../lib/gcc/arm-none-eabi/6.3.1/../../../../arm-none-eabi/lib/thumb/v7e-m/libc.a(lib_a-lock.o)
__lock___tz_mutex                                 /Users/richard/Desktop/DAQ/gcc/bin/../lib/gcc/arm-none-eabi/6.3.1/../../../../arm-none-eabi/lib/thumb/v7e-m/libc.a(lib_a-lock.o)
__lshift                                          /Users/richard/Desktop/DAQ/gcc/bin/../lib/gcc/arm-none-eabi/6.3.1/../../../../arm-none-eabi/lib/thumb/v7e-m/libc.a(lib_a-mprec.o)
                                                  /Users/richard/Desktop/DAQ/gcc/bin/../lib/gcc/arm-none-eabi/6.3.1/../../../../arm-none-eabi/lib/thumb/v7e-m/libc.a(lib_a-gdtoa-gethex.o)
                                                  /Users/richard/Desktop/DAQ/gcc/bin/../lib/gcc/arm-none-eabi/6.3.1/../../../../arm-none-eabi/lib/thumb/v7e-m/libc.a(lib_a-dtoa.o)
                                                  /Users/richard/Desktop/DAQ/gcc/bin/../lib/gcc/arm-none-eabi/6.3.1/../../../../arm-none-eabi/lib/thumb/v7e-m/libc.a(lib_a-strtod.o)
__ltdf2                                           /Users/richard/Desktop/DAQ/gcc/bin/../lib/gcc/arm-none-eabi/6.3.1/thumb/v7e-m/libgcc.a(_arm_cmpdf2.o)
__ltsf2                                           /Users/richard/Desktop/DAQ/gcc/bin/../lib/gcc/arm-none-eabi/6.3.1/thumb/v7e-m/libgcc.a(_arm_cmpsf2.o)
__malloc_av_                                      /Users/richard/Desktop/DAQ/gcc/bin/../lib/gcc/arm-none-eabi/6.3.1/../../../../arm-none-eabi/lib/thumb/v7e-m/libc.a(lib_a-mallocr.o)
                                                  /Users/richard/Desktop/DAQ/gcc/bin/../lib/gcc/arm-none-eabi/6.3.1/../../../../arm-none-eabi/lib/thumb/v7e-m/libc.a(lib_a-reallocr.o)
                                                  /Users/richard/Desktop/DAQ/gcc/bin/../lib/gcc/arm-none-eabi/6.3.1/../../../../arm-none-eabi/lib/thumb/v7e-m/libc.a(lib_a-freer.o)
__malloc_current_mallinfo                         /Users/richard/Desktop/DAQ/gcc/bin/../lib/gcc/arm-none-eabi/6.3.1/../../../../arm-none-eabi/lib/thumb/v7e-m/libc.a(lib_a-mallocr.o)
                                                  /Users/richard/Desktop/DAQ/gcc/bin/../lib/gcc/arm-none-eabi/6.3.1/../../../../arm-none-eabi/lib/thumb/v7e-m/libc.a(lib_a-freer.o)
__malloc_lock                                     /Users/richard/Desktop/DAQ/gcc/bin/../lib/gcc/arm-none-eabi/6.3.1/../../../../arm-none-eabi/lib/thumb/v7e-m/libc.a(lib_a-mlock.o)
                                                  /Users/richard/Desktop/DAQ/gcc/bin/../lib/gcc/arm-none-eabi/6.3.1/../../../../arm-none-eabi/lib/thumb/v7e-m/libc.a(lib_a-reallocr.o)
                                                  /Users/richard/Desktop/DAQ/gcc/bin/../lib/gcc/arm-none-eabi/6.3.1/../../../../arm-none-eabi/lib/thumb/v7e-m/libc.a(lib_a-freer.o)
                                                  /Users/richard/Desktop/DAQ/gcc/bin/../lib/gcc/arm-none-eabi/6.3.1/../../../../arm-none-eabi/lib/thumb/v7e-m/libc.a(lib_a-mallocr.o)
__malloc_max_sbrked_mem                           /Users/richard/Desktop/DAQ/gcc/bin/../lib/gcc/arm-none-eabi/6.3.1/../../../../arm-none-eabi/lib/thumb/v7e-m/libc.a(lib_a-mallocr.o)
__malloc_max_total_mem                            /Users/richard/Desktop/DAQ/gcc/bin/../lib/gcc/arm-none-eabi/6.3.1/../../../../arm-none-eabi/lib/thumb/v7e-m/libc.a(lib_a-mallocr.o)
__malloc_sbrk_base                                /Users/richard/Desktop/DAQ/gcc/bin/../lib/gcc/arm-none-eabi/6.3.1/../../../../arm-none-eabi/lib/thumb/v7e-m/libc.a(lib_a-mallocr.o)
                                                  /Users/richard/Desktop/DAQ/gcc/bin/../lib/gcc/arm-none-eabi/6.3.1/../../../../arm-none-eabi/lib/thumb/v7e-m/libc.a(lib_a-freer.o)
__malloc_top_pad                                  /Users/richard/Desktop/DAQ/gcc/bin/../lib/gcc/arm-none-eabi/6.3.1/../../../../arm-none-eabi/lib/thumb/v7e-m/libc.a(lib_a-mallocr.o)
                                                  /Users/richard/Desktop/DAQ/gcc/bin/../lib/gcc/arm-none-eabi/6.3.1/../../../../arm-none-eabi/lib/thumb/v7e-m/libc.a(lib_a-freer.o)
__malloc_trim_threshold                           /Users/richard/Desktop/DAQ/gcc/bin/../lib/gcc/arm-none-eabi/6.3.1/../../../../arm-none-eabi/lib/thumb/v7e-m/libc.a(lib_a-mallocr.o)
                                                  /Users/richard/Desktop/DAQ/gcc/bin/../lib/gcc/arm-none-eabi/6.3.1/../../../../arm-none-eabi/lib/thumb/v7e-m/libc.a(lib_a-freer.o)
__malloc_unlock                                   /Users/richard/Desktop/DAQ/gcc/bin/../lib/gcc/arm-none-eabi/6.3.1/../../../../arm-none-eabi/lib/thumb/v7e-m/libc.a(lib_a-mlock.o)
                                                  /Users/richard/Desktop/DAQ/gcc/bin/../lib/gcc/arm-none-eabi/6.3.1/../../../../arm-none-eabi/lib/thumb/v7e-m/libc.a(lib_a-reallocr.o)
                                                  /Users/richard/Desktop/DAQ/gcc/bin/../lib/gcc/arm-none-eabi/6.3.1/../../../../arm-none-eabi/lib/thumb/v7e-m/libc.a(lib_a-freer.o)
                                                  /Users/richard/Desktop/DAQ/gcc/bin/../lib/gcc/arm-none-eabi/6.3.1/../../../../arm-none-eabi/lib/thumb/v7e-m/libc.a(lib_a-mallocr.o)
